:020000040800F2
:1000000000070020F5040008E52600089D260008EA
:10001000C52600089D260008BD260008F704000834
:10002000F7040008F7040008F7040008D9360008B0
:10003000F7040008F7040008F7040008F7040008B4
:10004000F7040008F7040008F7040008F7040008A4
:10005000F7040008F7040008E54400080D4500080F
:10006000354500085D45000885450008F70400088F
:10007000F7040008F7040008F7040008F704000874
:10008000F7040008F7040008F704000851260008E8
:100090007D2600088D260008F7040008AD450008FD
:1000A000F7040008F7040008F7040008F704000844
:1000B00095460008F7040008F7040008F704000854
:1000C000F7040008F7040008F7040008F704000824
:1000D000F7040008F704000881460008F704000848
:1000E00011460008F7040008F7040008F7040008A8
:1000F000F7040008F7040008F7040008F7040008F4
:10010000F7040008F7040008F7040008F7040008E3
:10011000F7040008F7040008F7040008F7040008D3
:10012000F7040008F7040008F7040008F7040008C3
:10013000F7040008F7040008F7040008F7040008B3
:10014000F7040008F7040008F7040008F7040008A3
:10015000F7040008F7040008F7040008F704000893
:10016000F7040008F7040008F7040008F704000883
:10017000F7040008F7040008F7040008F704000873
:10018000F7040008F7040008F7040008F704000863
:10019000F7040008F7040008F7040008F704000853
:1001A000F7040008F7040008F7040008F704000843
:1001B000F7040008F7040008F7040008F704000833
:1001C000F7040008F7040008F7040008F704000823
:1001D000F7040008F7040008F7040008F704000813
:1001E000CD12000800000000000000000000000028
:1001F00053B94AB9002908BF00281CBF4FF0FF318E
:100200004FF0FF3000F074B9ADF1080C6DE904CE89
:1002100000F006F8DDF804E0DDE9022304B07047E1
:100220002DE9F047089D04468E46002B4DD18A42A9
:10023000944669D9B2FA82F252B101FA02F3C2F1DC
:10024000200120FA01F10CFA02FC41EA030E94406D
:100250004FEA1C48210CBEFBF8F61FFA8CF708FB8E
:1002600016E341EA034306FB07F199420AD91CEB66
:10027000030306F1FF3080F01F81994240F21C8198
:10028000023E63445B1AA4B2B3FBF8F008FB1033E0
:1002900044EA034400FB07F7A7420AD91CEB040415
:1002A00000F1FF3380F00A81A74240F207816444E5
:1002B000023840EA0640E41B00261DB1D44000236A
:1002C000C5E900433146BDE8F0878B4209D9002DCE
:1002D00000F0EF800026C5E9000130463146BDE858
:1002E000F087B3FA83F6002E4AD18B4202D38242C2
:1002F00000F2F980841A61EB030301209E46002D71
:10030000E0D0C5E9004EDDE702B9FFDEB2FA82F2C5
:10031000002A40F09280A1EB0C014FEA1C471FFA23
:100320008CFE0126200CB1FBF7F307FB131140EA0A
:1003300001410EFB03F0884208D91CEB010103F1D7
:10034000FF3802D2884200F2CB804346091AA4B299
:10035000B1FBF7F007FB101144EA01440EFB00FE6D
:10036000A64508D91CEB040400F1FF3102D2A645D2
:1003700000F2BB800846A4EB0E0440EA03409CE771
:10038000C6F12007B34022FA07FC4CEA030C20FA1E
:1003900007F401FA06F31C43F9404FEA1C4900FA3E
:1003A00006F3B1FBF9F8200C1FFA8CFE09FB1811BB
:1003B00040EA014108FB0EF0884202FA06F20BD92E
:1003C0001CEB010108F1FF3A80F08880884240F27E
:1003D0008580A8F102086144091AA4B2B1FBF9F0C2
:1003E00009FB101144EA014100FB0EFE8E4508D9BD
:1003F0001CEB010100F1FF346CD28E456AD9023842
:10040000614440EA0840A0FB0294A1EB0E01A14226
:10041000C846A64656D353D05DB1B3EB080261EB94
:100420000E0101FA07F722FA06F3F1401F43C5E96E
:10043000007100263146BDE8F087C2F12003D840A4
:100440000CFA02FC21FA03F3914001434FEA1C47E6
:100450001FFA8CFEB3FBF7F007FB10360B0C43EAD8
:10046000064300FB0EF69E4204FA02F408D91CEB88
:10047000030300F1FF382FD29E422DD90238634486
:100480009B1B89B2B3FBF7F607FB163341EA034126
:1004900006FB0EF38B4208D91CEB010106F1FF3875
:1004A00016D28B4214D9023E6144C91A46EA00466C
:1004B00038E72E46284605E70646E3E61846F8E6FE
:1004C0004B45A9D2B9EB020864EB0C0E0138A3E747
:1004D0004646EAE7204694E74046D1E7D0467BE728
:1004E000023B614432E7304609E76444023842E7A0
:1004F000704700BF02E000F000F8FEE772B6374830
:1005000080F30888364880F3098836483649086001
:1005100040F20000CCF200004EF63471CEF2000141
:100520000860BFF34F8FBFF36F8F40F20000C0F23F
:10053000F0004EF68851CEF200010860BFF34F8FF5
:10054000BFF36F8F4FF00000E1EE100A4EF63C71E2
:10055000CEF200010860062080F31488BFF36F8F8D
:1005600003F0CAFD03F05CFE4FF055301F491B4AF3
:1005700091423CBF41F8040BFAE71D49184A9142E9
:100580003CBF41F8040BFAE71A491B4A1B4B9A423D
:100590003EBF51F8040B42F8040BF8E7002018495D
:1005A000184A91423CBF41F8040BFAE703F0A8FD5A
:1005B00003F084FE144C154DAC4203DA54F8041BCE
:1005C0008847F9E700F042F8114C124DAC4203DACB
:1005D00054F8041B8847F9E703F090BD000700209A
:1005E000002300200000000808ED00E000010020CA
:1005F00000070020904F00080023002080230020E7
:1006000080230020C44F0020E0010008E40100081E
:10061000E4010008E40100082DE9F04F2DED108AF7
:10062000C1F80CD0C3689D46BDEC108ABDE8F08FC0
:10063000002383F311882846A047002003F0CEF959
:10064000FEE703F031F900DFFEE70000F8B500F047
:100650004FFE03F0EBFC074603F03AFD0546002889
:100660003FD12C4B9F423CD001339F423CD02A4B80
:1006700027F0FF029A423AD1F8B200F045FC2E462C
:1006800042F2107400F046FC08B10024264601F046
:100690001DF980B3032000F045F80024264635B14B
:1006A0001E4B9F4203D003F00BFD00242646002082
:1006B00003F0C6FC1A4B1B691B0422D40EB100F0D8
:1006C00047F800F093FC00F015FE02F013F8054621
:1006D000CCB102F00FF8401BA04214D900F038F85A
:1006E000F3E72E460024CDE704460126CAE7064676
:1006F0004FF47A74C6E7002CD1D04FF47A740126F7
:10070000CDE70024DDE700F0B9FC4FF47A7003F088
:100710006BF9DDE7010007B0000008B0263A09B028
:1007200000040240084B187003280CD8DFE800F0E2
:1007300008050208022000F03BBE022000F02EBE99
:10074000024B00225A60704780230020842300203F
:1007500010B501F0BBF830B1204B03221A70204BCA
:1007600000225A6010BD1F4B1F4A1C4619680131F8
:10077000F8D004339342F9D162681C4B9A42F1D904
:100780001B4B9B6803F1006303F580339A42E9D267
:1007900003F06AFC03F07CFC002000F0C5FD0220A1
:1007A000FFF7C0FF134B1A6C00221A64196E1A6609
:1007B000196E596C5A64596E5A665B6E72B64FF078
:1007C000E0233021C3F8084DD4E9003281F31188C9
:1007D0009D4683F308881047C4E700BF80230020AC
:1007E000842300200000010820000108FFFF00080A
:1007F0000023002000380240094A136849F26900CA
:1008000099B21B0C00FB01331360064B186844F2CD
:10081000506182B2000C01FB0200186080B2704788
:10082000182300201423002010B5002110220446B4
:1008300000F0DAFD034B03CB206061601868A06014
:1008400010BD00BF107AFF1F2DE9F041ADF54E7DC0
:100850000DF134086CAC40F2751207460D460EA837
:100860000021C8F8001000F0BFFD4FF4C472002151
:10087000204600F0B9FD01F03DFF274B4FF47A729E
:10088000B0FBF2F0186093E80700022384E8070049
:100890000DF5E9702382FFF7C7FF4FF4A2431F490C
:1008A000238407A804F07CFA152384F832310DF272
:1008B000E32207AB0DF12C0C1E4603CE66451060FB
:1008C0005160334602F10802F6D130681060337986
:1008D000137141460122204600F0D2FD002303930C
:1008E000AB7E029305F11903019380B20123CDE998
:1008F00004800093E97E06A3D3E90023384602F082
:10090000C1FA0DF54E7DBDE8F08100BFAFF3008068
:100910009E6AC421818A46EE8C230020B04D0008D7
:100920002DE9F0412C4C237ADAB080460D465BBBB2
:1009300027A9284600F0B4FE0746002842D19DF8BA
:100940009D60C82E3ED801464FF4A662204600F0B6
:100950004BFD4FF48073C4F8F8314FF40073C4F8C2
:100960000C334FF44073C4F8203432460DF19E012D
:1009700004F1090000F026FD26449DF89C307772B2
:1009800023720BB9EB7E23728122002106AC27A8CB
:1009900000F02AFD0122214627A800F0BDFE002319
:1009A0000393AB7E029305F1190380B201932823D0
:1009B000CDE904400093E97E05A3D3E90023404636
:1009C00002F060FA5AB0BDE8F08100BFAFF30080DA
:1009D00026417272DF25D7B7A8440020F0B5254E16
:1009E0004FF48A7505FB0065F1B096F8D83085F8AC
:1009F000DC300024D822214685F8E8403AA800F0EF
:100A0000F3FC06F1090000F0E7FCD5F8E4308DF8BE
:100A1000F000C2B206AF06F109010DF1F100CDE917
:100A20003A3400F0CFFC394601223AA800F0A0FE8B
:100A300080B2CDE9047008230127CDE9023706F121
:100A4000D803019330230093317A0B4807A3D3E9ED
:100A5000002302F017FAA04206DD01F04BFEC5F8B4
:100A6000E000384671B0F0BD2046FBE778F6339FD2
:100A700093CACD8DA8440020A43300202DE9F04175
:100A80001D4D1E4E1E4F86B0284602F027FA034623
:100A900058B30024CDE90344ADF81440027B8DF82F
:100AA000142099684068029403AA03C21B68DFF807
:100AB000548043F00043029301F01EFE821941F17D
:100AC0000003009402A9384601F0E0F8A04205DDD9
:100AD000284602F007FA88F80040D5E798F8003079
:100AE000072B05D8013388F8003006B0BDE8F08147
:100AF000014802F0F7F9F8E7A433002040420F0064
:100B0000D8330020DD49002070B50D4614461E463E
:100B100002F014F950B9022E10D1012C0ED112A3FB
:100B2000D3E90023C5E90023012007E0282C10D0D9
:100B300005D8012C09D0052C0FD0002070BD302C19
:100B4000FBD10BA3D3E90023ECE70BA3D3E90023EC
:100B5000E8E70BA3D3E90023E4E70BA3D3E90023E1
:100B6000E0E700BFAFF30080401DA12026812A0BE3
:100B700078F6339F93CACD8D9E6AC421818A46EE52
:100B800026417272DF25D7B7F017304A39059E56D5
:100B900038B505460E4C0021013500F0E7FBA4F8FE
:100BA0002C55B4F82C0500F0C9FB78B1B4F82C052D
:100BB00000F0D4FB014648B9B4F82C0500F0D6FB90
:100BC000B4F82C350133A4F82C35EAE738BD00BF62
:100BD000A844002010B50A4B0A4A1A6003F5805356
:100BE00093F860203AB9DC6D2CB1204600F0E6FEA7
:100BF000204604F015F8BDE81040034800F0DEBEC2
:100C0000D8330020044E0008204400202DE9F04F86
:100C10008FB000AF05460C4602F090F8002849D18D
:100C2000237E022B1BD1E38A012B18D101F062FD38
:100C30000646FFF7E1FD03464FF4C870DFF8C482B3
:100C4000B3FBF0F206F5167602FB103316FA83F3C7
:100C5000C8F80030E37E33B9A34B00221A703C374A
:100C6000BD46BDE8F08F07F12401204600F0D6FC18
:100C70000028F4D107F11400FFF7D6FD97F82640BD
:100C800007F11401224607F1270004F013F80028A9
:100C9000E2D10F2C08D8944B1C70D8F80030A3F583
:100CA0001673C8F80030DAE797F82410284602F0E7
:100CB0003DF8D4E7E38A282B2BD010D8012B23D082
:100CC000052BCCD1BFF34F8F8849894BCA6802F4FA
:100CD000E0621343CB60BFF34F8F00BFFDE7302BC3
:100CE000BDD1844EE17E327A9142B8D1607E3146E8
:100CF000002291F8DC50854200F0A5800132042AE0
:100D000001F58A71F5D1AAE721462846FFF79CFD37
:100D1000A5E721462846FFF703FEA0E7B2F8EC500E
:100D20007B6005F103094FEA99094FEA8902D11D59
:100D3000C908A8EBC1039D46EB460021584600F0C8
:100D400053FB04F1EE012A463144584600F03AFBC9
:100D50007B6813B9012000F0E7FA96F8D20000F0A2
:100D6000EDFA044630B9307200F008FB204600F07E
:100D7000DBFAB1E0D6F8D4203AB996F8D200B6F84A
:100D80002C25824201D8FFF703FFD6F8D4202A444D
:100D9000944208D296F8D200B6F82C25013082424F
:100DA00001D8FFF7F5FE70685FFA89F2594600F046
:100DB00023FB08B9C54679E0726896F8D2002A4448
:100DC0007260D6F8D42005EB0209C6F8D49000F082
:100DD000B5FA814509D396F8D220D6F8D40001326D
:100DE000001B86F8D220C6F8D400FF2D0FD80024AF
:100DF000347200F0C3FA204600F096FA00F066FD67
:100E00003D4B188108B9FFF7A3FCC54627E7BB682F
:100E100096F8D9000AFB0362FB68D2F8E41082F866
:100E2000E83001F58061C2F8E030C2F8E410FFF765
:100E3000D5FDFFF723FE96F8D920013202F0030218
:100E400086F8D920B6E74FF48A7A0AFB02F505F155
:100E5000EA013144204600F0B7FCF86000287FF436
:100E6000FEAE3544012285F8E82001F043FCD5F8B8
:100E7000E020D6ED007ADFED216A801A192838BF0C
:100E8000192040F6B832904228BF1046B8EE677A73
:100E900007EE900AF8EEE77A67EEA67ADFED186AB9
:100EA000E7EE267AFCEEE77AC6ED007A96F8D930BE
:100EB000BB60BA6873680AFB02F4321992F8E81052
:100EC00059B1D2F8E4108B42E8463FF427AF002135
:100ED00082F8E810C2F8E010C5467368064A9B0A1B
:100EE00001331381BBE600BF9D33002000ED00E01D
:100EF0000400FA05A84400208C230020CDCCCC3D72
:100F00006666663FA0330020014B1870704700BF33
:100F10009823002030B54FF000542B4B22689A42A2
:100F200085B007D003F0DEF8044620BB002420463D
:100F300005B030BD254B627D25481A70237D0372B4
:100F40004FF48073C0F8F8314FF40073C0F80C33DD
:100F500000254FF44073C0F820341E49C0F8E45017
:100F6000C922093000F02EFA2046E022294600F07E
:100F70003BFA0124DBE7184A184D136C43F0007369
:100F80001364AA6D164B9A42D0D12B6E013B7E2B77
:100F9000CCD8144A07CA01AB83E8070018460321DE
:100FA00000F062FC6B6D83424FF00003BED12A6DEE
:100FB0008A4201BFAB65054B2A6E1A7003BF0A4B0C
:100FC000EA6D1A601C46B2E79AAD44C5982300202A
:100FD000A8440020160000200038024000660040AF
:100FE0005041A0B0586600401023002037B51A4D7C
:100FF00000F06CFC02236B71184B288119681848AB
:10100000012201F015FA00230193164B16490093B3
:101010001648174B4FF4805201F060FE154B1978BB
:1010200011B1124801F082FE01F064FB0446FFF7A3
:10103000E3FB4FF4C873B0FBF3F202FB130304F5B8
:10104000167010FA83F00C4B186003F041F808B1E9
:101050000F232B8103B030BD8C23002010230020F0
:10106000D8330020090B00089C230020A433002063
:101070000D0C000898230020A03300202DE9F04F2C
:101080002DED028B0FF23829D9E90089834C93B0FA
:101090000BAE9FED7E8BFFF7F1FC814FDFF828A2AE
:1010A00000230A93ADF834300B9373604FF0000BBC
:1010B0005B468DED008B01250DF11D0207A9384619
:1010C0008DF81C508DF81DB001F062F99DF81C30B0
:1010D000002B40F0A580204601F030FE0646002897
:1010E00045D1704F01F006FB3B6898423FD301F0B9
:1010F00001FB8246FFF780FB4FF4C873B0FBF3F2AD
:1011000002FB13030AF5167010FA83F03860664F7D
:1011100097F800B0CBF1100ABBF1000F14BF3346B3
:101120002B465FFA8AFA0EA88DF82830FFF77CFB71
:10113000BAF1060F28BF4FF0060A0EAB03EB0B0106
:1011400052460DF1290000F03DF90AAB0393182334
:1011500002930AF10102554BD2B2CDE90053049239
:1011600020464CA3D3E9002301F02EFE3E7001F08F
:10117000C1FA4F4A4F4D1368C31AB3F57A7F2ED385
:10118000106001F0B9FA02460B46204601F0B4FEA9
:10119000204601F0D3FD10B32B7A474E002B14BF2D
:1011A00003230223737101F0A5FA0EAF4FF47A7393
:1011B0000122B0FBF3F039463060304600F006FA09
:1011C000182302933D4B019380B240F25513CDE9B1
:1011D0000370009342464B46204601F0F5FD2B7A02
:1011E00093B101F087FA002607464FF48A7A95F802
:1011F000D900304400F003000AFB005393F8E820C4
:1012000092B30136042EF2D1C82002F0EDFB2B7A06
:10121000002B7FF43DAF13B0BDEC028BBDE8F08F27
:10122000DAF8143083F48063CAF814305946102277
:101230000EA800F0D9F80DF11E0308AA0AA9384635
:1012400000F022FE96E803000FAB83E803009DF850
:1012500034308DF844300A9B0E930EA9DDE9082343
:10126000204602F01DF821E7D3F8E02042B12B68B8
:10127000FA2B38BFFA23BA1A0533B2EB430FC0D3A7
:10128000FFF7ACFB0028BCD1BEE700BF00000000A8
:1012900000000000401DA12026812A0BA43300205D
:1012A000D8330020A03300209D3300209C33002041
:1012B000D8490020A84400208C230020DC490020CD
:1012C000F1C6A7C1D068080F0000024008B5054864
:1012D00000F074FEBDE80840034A0449002003F012
:1012E00099BC00BFD8330020184A0020D50B000855
:1012F0007047000070B502F03BFD094E094D30808B
:10130000002428683388834208D902F02BFD2B681B
:1013100004440133B4F5803F2B60F2D370BD00BFAD
:101320000C4A0020E049002002F0D2BD00F100602C
:10133000920000F5803002F061BD0000054B1A6894
:10134000054B1B889B1A834202D9104402F00ABD48
:1013500000207047E04900200C4A0020024B1B6827
:10136000184402F007BD00BFE0490020024B1B6893
:10137000184402F017BD00BFE0490020064991F86B
:10138000243033B10023086A81F824300822FFF7A3
:10139000CDBF0120704700BFE4490020022802BFF2
:1013A000024B4FF080629A61704700BF000002401C
:1013B000022802BF024B4FF480629A61704700BF5F
:1013C0000000024010B50023934203D0CC5CC4540B
:1013D0000133F9E710BD000003460246D01A12F9A6
:1013E000011B0029FAD1704702440346934202D000
:1013F00003F8011BFAE770472DE9F8431F4D144627
:1014000095F824200746884652BBDFF870909CB3BD
:1014100095F824302BB92022FF2148462F62FFF790
:10142000E3FF95F82400C0F10802A24228BF22463B
:10143000D6B24146920005EB8000FFF7C3FF95F856
:101440002430A41B1E44F6B2082E17449044E4B284
:1014500085F82460DBD1FFF791FF0028D7D108E0A1
:101460002B6A03EB82038342CFD0FFF787FF00286C
:10147000CBD10020BDE8F8830120FBE7E449002040
:101480002DE9F0470D46044600219046284640F2DB
:101490007912FFF7A9FF234620220021284601F0F8
:1014A000A1FE231D02222021284601F09BFE631D80
:1014B00003222221284601F095FEA31D03222521A7
:1014C000284601F08FFE04F1080310222821284647
:1014D00001F088FE04F1100308223821284601F0AB
:1014E00081FE04F1110308224021284601F07AFE12
:1014F00004F1120308224821284601F073FE04F18A
:10150000140320225021284601F06CFE04F1180338
:1015100040227021284601F065FE04F120030822D4
:10152000B021284601F05EFE04F121030822B82113
:10153000284601F057FE04F12207C0263B463146FB
:1015400008222846083601F04DFEB6F5A07F07F1C7
:101550000107F3D104F1320308223146284601F095
:1015600041FE002704F1330A94F832304FEAC709EC
:101570009F4209F5A47615D3B8F1000F08D1314682
:1015800004F599730722284601F02CFE09F24F1644
:10159000274694F832213B1B93420CD3F01DC00820
:1015A000BDE8F0870AEB070308223146284601F020
:1015B00019FE0137D8E707F23313314608222846CF
:1015C00001F010FE08360137E3E7000013B50446CA
:1015D0000846002101602346C0F803102022019034
:1015E00001F000FE0198231D0222202101F0FAFDE6
:1015F0000198631D0322222101F0F4FD0198A31D2F
:101600000322252101F0EEFD019804F108031022C8
:10161000282101F0E7FD072002B010BDF7B5002337
:10162000047F00910E4607221946054601F09EFCF4
:10163000731C0093012200230721284601F096FC29
:10164000C4B9B31C0093052223460821284601F0A3
:101650008DFC0D243746B278BB1B934211D32B7FF0
:10166000A88A0734E408BBB9844294BF0020012053
:1016700003B0F0BDAB8ADB00083BDB08B370082485
:10168000E8E7FB1C0093214600230822284601F0CE
:101690006DFC08340137DEE7201A18BF0120E7E7A8
:1016A000F7B50023047F00910E460822194605462F
:1016B00001F05CFC731CC4B9082200931146234658
:1016C000284601F053FC1024012372785F1C013B73
:1016D000934211D32B7FA88A0734E408BBB9844214
:1016E00094BF0020012003B0F0BDAB8ADB00083BB3
:1016F000DB0873700824E7E7F31900932146002301
:101700000822284601F032FC08343B46DDE7201A67
:1017100018BF0120E7E70000F8B50E46054614465D
:10172000002181223046FFF75FFE2B460822002170
:10173000304601F057FD7CB96B1C0722082130466A
:1017400001F050FD0F2401236A785F1C013B934296
:1017500004D3E01DC008F8BD0824F4E7EB192146C6
:101760000822304601F03EFD08343B46ECE700001D
:10177000F8B50E46054614460021CE223046FFF746
:1017800033FE2B4628220021304601F02BFD7CB988
:1017900005F1080308222821304601F023FD3024FA
:1017A0002F462A7A7B1B934204D3E01DC008F8BD64
:1017B0002824F5E707F1090321460822304601F005
:1017C00011FD08340137ECE7F7B5047F00910E46B0
:1017D000012310220021054601F0C8FBC4B9B31C47
:1017E0000093092223461021284601F0BFFB19244B
:1017F00037467288BB1B9A4211D82B7FA88A0734C0
:10180000E408BBB9844294BF0020012003B0F0BDBE
:10181000AB8ADB00103BDB0873801024E8E73B1D3C
:101820000093214600230822284601F09FFB08343C
:101830000137DEE7201A18BF0120E7E730B5094D70
:101840000A4491420DD011F8013B5840082340F35F
:101850000004013B2C4013F0FF0384EA5000F6D152
:10186000EFE730BD2083B8EDF7B54FF0FF33DFF879
:1018700054C0DFF854E000EB81011A4688421CD0C6
:1018800050F8044B019401AF042417F8015B82EA7D
:1018900005620825DB18164605F1FF355241002E7A
:1018A000BCBF83EA0C0382EA0E0215F0FF05F1D1FA
:1018B000013C14F0FF04E8D1E0E7D843D14303B082
:1018C000F0BD00BF9336EAA9EBE1F042F7B5354A27
:1018D000106851686B4603C36A463349334808238E
:1018E00003F0F8F9044688BB0A25314A10685168AC
:1018F0006B4603C36A462F492C48082303F0EAF9D4
:101900000446002845D00369B3F5E02F41D8B0F86C
:101910006620512A3DD1284A024402F15C018B42E3
:1019200037D35C3B214900209E1AFFF787FF3246E0
:10193000074604F164010020FFF780FFA3689F427F
:1019400027D1E368984208BF002522E00369B3F578
:10195000E02F25D8428B512A20D1174A024402F1A8
:1019600010018B4218D3103B104900209D1AFFF73D
:1019700065FF2A46064604F118010020FFF75EFFC6
:10198000A3689E4202D1E368984201D00D25ACE7DE
:101990000025284603B0F0BD1025A6E70C25A4E7D6
:1019A0000B25A2E7C84D0008DCFF06000000010877
:1019B000D14D000890FF06000800FFF710B5037C2A
:1019C000044613B9006803F06DF9204610BD00000D
:1019D0000023BFF35B8FC360BFF35B8FBFF35B8FED
:1019E0008360BFF35B8F7047BFF35B8F0068BFF30B
:1019F0005B8F704770B505460C30FFF7F5FF05F1BA
:101A0000080604463046FFF7EFFFA04206D93046ED
:101A10006D68FFF7E9FF2544281A70BD3046FFF7CF
:101A2000E3FF201AF9E7000070B50546406898B159
:101A300005F10800FFF7D8FF05F10C060446304613
:101A4000FFF7D2FF8442304694BF6D680025FFF750
:101A5000CBFF013C2C44201A70BD000038B50C4669
:101A60000546FFF7C7FFA04210D305F10800FFF7B6
:101A7000BBFF04446868B4FBF0F100FB1144BFF302
:101A80005B8F0120AC60BFF35B8F38BD0020FCE7AB
:101A90002DE9F041144607460D46FFF7C5FF844285
:101AA00028BF0446D4B1B84658F80C6B4046FFF73F
:101AB0009BFF3044286040467E68FFF795FF331A4D
:101AC0009C4203D86C600120BDE8F0816B60A41BD0
:101AD0003B68AB602044E8600220F5E72046F3E76E
:101AE00038B50C460546FFF79FFFA04210D305F11D
:101AF0000C00FFF779FF04446868B4FBF0F100FBC9
:101B00001144BFF35B8F0120EC60BFF35B8F38BDE6
:101B10000020FCE72DE9FF41884669460746FFF7AC
:101B2000B7FF6C4606B204EBC6060025B44209D0E6
:101B30006268206808EB0501FFF744FC636808341D
:101B40001D44F3E729463846FFF7CAFF284604B08C
:101B5000BDE8F081F8B505460C300F46FFF744FFAD
:101B600005F1080604463046FFF73EFFA042304626
:101B700088BF6C68FFF738FF201A386020B1304604
:101B80002C68FFF731FF2044F8BD000073B5144600
:101B900006460D46FFF72EFF844228BF04460190FB
:101BA000DCB101A93046FFF7D5FF019B33B932689C
:101BB000C5E90233C5E9002401200CE09C4238BF8E
:101BC00001942860019868608442F5D93368AB605D
:101BD000241AEC60022002B070BD2046FBE7000032
:101BE0002DE9FF410F466946FFF7D0FF6C4600B272
:101BF00004EBC0050026AC4209D0D4F8048054F8A8
:101C0000081BB8194246FFF7DDFB4644F3E73046B0
:101C100004B0BDE8F081000038B50546FFF7E0FFED
:101C2000044601462846FFF719FF204638BD00004C
:101C3000302383F3118862B670470000002383F3DA
:101C4000118862B67047000010B4026854681A46E2
:101C500023465DF8044B1847012070470020704769
:101C60000020704770470000002070470E2070472A
:101C700000F5805090F8C800C0F3400070470000A5
:101C800000F5805090F9C90070470000F7B50C6866
:101C9000BDF8207014F000541E466FD10B7B082B4A
:101CA0006CD8FFF7C5FF4569AB685B010CD4AB6826
:101CB0001B0108D4AC6814F080545DD1FFF7BEFF5F
:101CC000204603B0F0BD01240B6804F1180C002B72
:101CD000B8BFDB004FEA0C1CB4BF43F004035B0544
:101CE00045F80C300B680FFA84FC13F0804F18BFD6
:101CF00005EB0C1E05EB0C1C1EBFDEF8803143F01B
:101D00000203CEF880310B7BCCF8843105EB04154F
:101D10008B68C5F88C314B68C5F88831DCF88031A8
:101D200043F00103CCF8803100EB441541F2680325
:101D30001D4403EB44130344C5E9002608330D4654
:101D400001F10C0C55F804EB43F804EB6545F9D1AF
:101D500084342D881D8000EB441407F0030325799B
:101D600025F00B052B432371FFF768FF00973346DF
:101D700000F0E2FC0120A4E70224A5E74FF0FF30C9
:101D80009FE7000013B500F580540191E06DFFF767
:101D90004BFE1F280AD90199E06D2022FFF7BAFEF9
:101DA000A0F120035842584102B010BD0020FBE7CB
:101DB00008B500F58050FFF73BFFC06DFFF708FE48
:101DC000BDE80840FFF73ABF00220260828142600E
:101DD0008260704710B500220023C0E90023002371
:101DE000044603810C30FFF7EFFF204610BD0000D2
:101DF000F0B5054600F580500C4690F8C83013F059
:101E0000040FC3F3800108BF114661F3820304F19C
:101E1000840680F8C83005EB461389B01B79D807D3
:101E20002ED57AB319072DD46846FFF7D3FF05EBFB
:101E3000441303F5835303F1180703AA10331868FA
:101E40005968144603C40833BB422246F7D11868C8
:101E500020609B88A380DDE90E23CDE900230123C8
:101E6000ADF808302B686946DB6B2846984705EBD0
:101E700046152B791A075CBF43F008032B7101E06C
:101E8000002AF4D109B0F0BD2DE9F047074688B02B
:101E900007F5805468469A468846FFF7C9FE914682
:101EA000FFF798FFE06DFFF7A5FD1F2829D9E06D2A
:101EB00020226946FFF7B0FE202822D103AD444618
:101EC00005AB2E4603CE9E4220606160354604F18C
:101ED0000804F6D130682060B388A380DDE90023D0
:101EE000C9E90023BDF80830AAF80030FFF7A6FEC4
:101EF0004A4653464146384608B0BDE8F04700F030
:101F000009BCFFF79BFE002008B0BDE8F087000089
:101F10002DE9F84F0023C0E90133254B044640F872
:101F2000183B0F46FFF750FF04F12800FFF752FF60
:101F300004F1480804F582554646083530462036F7
:101F4000FFF748FFAE42F9D104F580554FF48053B6
:101F50004FF00009C5E91339C5F848800123EE6543
:101F600004F5875804F58456C5F8549085F8583020
:101F700085F86030083608F108084FF0000A4FF085
:101F8000000B46E908ABA6F11800FFF71DFF20364D
:101F900046F8289C4645F4D185F8C97017B1054824
:101FA00000F0A2FB044B63612046BDE8F88F00BF40
:101FB000044E0008DC4D00080064004010B5044BDE
:101FC000197804464A1C1A70FFF7A2FF204610BD7C
:101FD000144A00202DE9F047002950D0294B2A4F00
:101FE000B7FBF1F599428CBF0A231123581EB5FBAC
:101FF000F3FC03FB1C53C4B22BB102280346F5D8F3
:102000000020BDE8F0870CF1FF36B6F5806FF7D2FF
:10201000C4EBC40E0EF103034FEAE309C3F3C70395
:10202000A4EB030809F1010A4FF47A755FFA88F00E
:1020300009FB05555AFA88F8B5FBF8F5B5F5617F47
:10204000C1BF0EF1FF33C3F3C703E01AC0B25C1C7B
:1020500050FA84F40CFB04F4B7FBF4F4A142CFD1A2
:10206000013BDBB20F2BCBD80138C0B20728C7D851
:102070000021107116809170D3700120C1E70846CD
:10208000BFE700BF3F420F0040787D0170B50546B5
:102090000E464FF47A746B695B6803F00103B34238
:1020A00007D04FF47A7001F09FFC013CF3D1204639
:1020B00070BD0120FCE7000030B54269936913F060
:1020C000700F16D000230B4C936103F1840200EBD8
:1020D000421211794D0709D5890707D5416954F88E
:1020E00023508D60117941F0040111710133032BEC
:1020F000EBD130BDF04D000873B51D46436916465F
:102100009A68D207044609D59A6801219960C2F3FA
:102110004002CDE900650021FFF76AFE63699A6815
:10212000D1050BD59A684FF480719960C2F34022B3
:10213000CDE9006501212046FFF75AFE63699A68E0
:10214000D2030BD59A684FF480319960C2F34042B4
:10215000CDE9006502212046FFF74AFE204602B085
:10216000BDE87040FFF7A8BFF8B5044646690029EE
:102170006CD106F10C07386880076AD006EB0115B0
:102180003868D5F8B00110F0040FD5F8B0011ABFC7
:10219000C00840F00040400DA061D5F8B0C11CF06F
:1021A000020F1CBF40F08040A061D5F8B40106EBDF
:1021B000011100F00F0084F82400D1F8B801207755
:1021C000D1F8B801000A6077D1F8B801000CA07707
:1021D000D1F8B801000EE077D1F8BC0184F82000F6
:1021E000D1F8BC01000A84F82100D1F8BC01000C30
:1021F00084F82200D1F8BC11090E84F8231038218C
:10220000396004F1340004F1180104F1240551F897
:10221000046B40F8046BA942F9D109880180C4E934
:102220000A2321460023238651F8283B2046DB6BF6
:10223000984704F58052204692F8C83043F00403D2
:1022400082F8C830BDE8F840FFF736BF06F1100746
:1022500091E7F8BD10B5044600F04EFA02460B4671
:1022600052EA030102D0013A63F10003044908680D
:1022700020B12146BDE81040FFF776BF10BD00BF7A
:10228000104A0020F8B500F583511E46FFF7D0FC38
:10229000DFF844C00831002404F1840500EB451543
:1022A0002B795F070ED4DB060CD5D1E9007397427A
:1022B000B34107D243695CF824709F602B7943F0E7
:1022C00004032B710134032C01F12001E4D1BDE89A
:1022D000F840FFF7B3BC00BFF04D000808B5FFF7AA
:1022E000A7FCFFF7E9FEBDE80840FFF7A7BC000028
:1022F000F8B543690546986800F0E050B0F1E05F3A
:102300000F461FD0E8B1FFF793FC05F58354103456
:10231000002606F1840305EB43131B791A0706D543
:102320000136032E04F12004F3D1012007E05B07FE
:10233000F6D42146384600F039FA0028F0D1FFF7EC
:102340007DFCF8BD0120FCE700F5805008B5FFF7E3
:102350006FFCC06DFFF74EFBFFF770FC43090CBF2D
:102360000120002008BD0000F8B51D4600231370B1
:102370000F4606461446FFF7E7FF80F0010038706D
:1023800025B129463046FFF7B3FF2070F8BD0000A5
:102390002DE9B8410C4615461F46804600F0ACF9C1
:1023A0000B462178024609B9287850B14046FFF71C
:1023B00069FFFFF793FF3B462A462146FFF7D4FF0C
:1023C0000120BDE8B881000010B5FFF731FC174BC4
:1023D0001A6C42F000721A641A6A42F000721A62B1
:1023E0001A6A00F5805422F000721A62FFF726FC88
:1023F00094F8C830DB0718D4B9B103211320FFF7D4
:1024000017FC01F0C7F90321142001F0C3F90321DF
:10241000152001F0BFF994F8C83043F0010384F8A7
:10242000C830BDE81040FFF709BC10BD00380240BD
:102430002DE9F04700F5805588B095F8C930012B9B
:102440000446884616467FD8804F57F823200AB99D
:1024500047F82300D7F800A0C4F80C802674BAF11E
:10246000000F63D095F8C930012B6FD001212046B1
:10247000FFF7AAFFFFF7DCFB6269136823F0020392
:1024800013606269136843F00103136063690027F6
:102490005F6101212046FFF7D1FBFFF7F7FD002820
:1024A00000F09580E86DFFF793FA04F58359BA467A
:1024B00009F10809202200216846FEF795FF02A8CD
:1024C000FFF782FCCDF818A06A4609EB07030DF16F
:1024D000180E9446BCE80300F44518605960624643
:1024E00003F10803F5D1DCF80000186020379CF8F0
:1024F00004201A71602FDDD195F8C8306FF3820384
:10250000002785F8C8306A4641462046ADF800707D
:10251000ADF802708DF80470FFF75CFD636948BB8D
:102520004FF400421A6008B0BDE8F08741F2D000D5
:1025300002F078FB814610B15146FFF7E9FCC7F87D
:102540000090B9F1000F8DD10020ECE738680368E6
:102550001B6B98470146002888D13868FFF734FF85
:102560003868036832465B684146984700287FF424
:102570007DAFE9E761221A609DF802309DF80320E3
:102580001B06120402F4702203F040731343BDF8DB
:102590000020C2F3090213439DF804201205022E05
:1025A00002F4E0020CBF4FF00041002113436269C6
:1025B0000B43D361636913225A616269136823F084
:1025C0000103136039462046FFF760FD08B96369CF
:1025D000A6E795F8C93093BB6169D1F8002242F0B3
:1025E0000102C1F800226169D1F8002222F47C5274
:1025F00022F00E02C1F800226169D1F8002242F4F3
:102600006062C1F800226269C2F814326269C2F8DD
:102610000432626941F6FF71C2F80C126269C2F8B5
:1026200040326269C2F8443263690122C3F81C2255
:102630006269D2F8003223F00103C2F8003295F843
:10264000C83043F0020385F8C8306CE7104A002018
:1026500008B500F051F850EA0103024602D0421ECC
:1026600061F10001044B186810B10B46FFF744FDFF
:10267000BDE8084001F064B8104A002008B5002009
:10268000FFF7E8FDBDE8084001F05AB808B50120A1
:10269000FFF7E0FDBDE8084001F052B800B59BB07F
:1026A000EFF3098168226846FEF78CFEEFF305839D
:1026B000014B9B6BFEE700BF00ED00E008B5FFF7A4
:1026C000EDFF000000B59BB0EFF30981682268467A
:1026D000FEF778FEEFF30583014B5B6BFEE700BF6F
:1026E00000ED00E0FEE700000FB408B5029801F02D
:1026F00011F9FEE701F038BC01F010BC13B56C46CF
:1027000084E80600031D94E8030083E80500012027
:1027100002B010BD73B58568019155B11B885B0788
:1027200007D4D0E900369B6B9847019AC1B2304676
:10273000A847012002B070BDF0B5866889B0054693
:102740000C465EB1BDF838305B070AD4D0E90037DB
:102750009B6B98472246C1B23846B047012009B06A
:10276000F0BD00220023CDE900230023ADF808309E
:102770000A4603AB01F10806106851681C4603C401
:102780000832B2422346F7D1106820609288A280B6
:10279000FFF7B2FF0423ADF808302B68CDE9000144
:1027A000DB6B694628469847D8E7000030B50368D8
:1027B0000968DD0FB5EBD17F23F0604421F0604262
:1027C0004FEAD1700BD0002BB8BFA40C0029B8BFC2
:1027D000920C944202D034BF0120002030BD9442BC
:1027E00005D1C1F38070C3F380738342F6D1944264
:1027F0002CBF00200120F1E72DE9F041456A15B911
:102800004162BDE8F0814B6823F06047C3F38A461C
:102810004FEAD37EC3F3807816EA230638BF3E46DC
:10282000AC462B465A68BEEBD27F22F060440AD0F9
:10283000002A18DAA40CB44217D19D420FD10D60C2
:10284000DEE71346EEE7A74207D102F08044C2F369
:10285000807242450BD054B1EFE708D2EDE7CCF8D7
:1028600000100B60CDE7B44201D0B442E5D81A683D
:102870009C46002AE5D11960C3E700002DE9F04726
:10288000089D01F007044FEAD508224405F007052A
:1028900000EBD1004FF47F49944201D1BDE8F087AD
:1028A00004F0070705F0070A57453E4638BF56466D
:1028B000C6F10806111B8E4228BF0E46E10808EB40
:1028C000D50E415C13F80EC0B94029FA06F721FA7B
:1028D0000AF1FFB28CEA010147FA0AF739408CEAA3
:1028E000010C03F80EC034443544D5E780EA0120DA
:1028F000082341F2210201B24000002980B203F115
:10290000FF33B8BF504013F0FF03F4D1704700000D
:1029100038B50C468D18A54200D138BD14F8011BFE
:10292000FFF7E4FFF7E7000042684AB1136843602D
:102930004389818901339BB29942438138BF8381A6
:102940001046704770B588B0202204460D46684690
:102950000021FEF749FD20460495FFF7E5FF0246FA
:1029600058B16B46054608AE1C4603CCB4422860FD
:102970006960234605F10805F6D1104608B070BD20
:10298000082817D909280CD00A280CD00B280CD0FD
:102990000C280CD00D280CD00E2814BF402030205D
:1029A00070470C2070471020704714207047182083
:1029B0007047202070470000082817D90C280CD930
:1029C00010280CD914280CD918280CD920280CD977
:1029D00030288CBF0F200E207047092070470A2036
:1029E00070470B2070470C2070470D207047000087
:1029F0002DE9F843078C072F04461ED9D0E9029829
:102A000000254FF6FF73C5F12006A5F1200029FA35
:102A100005F108FA06F628FA00F031430143C9B27D
:102A20001846FFF763FF0835402D0346EBD1E169F7
:102A30003A46BDE8F843FFF76BBF4FF6FF70BDE8BD
:102A4000F883000010B54B6823B9CA8A63F3090202
:102A5000CA8210BD04691A681C600361C38A013B05
:102A6000C3824A60EFE700002DE9F84F1D46CB8A8C
:102A70000F46C3F309010529814692460B4630D023
:102A80000020AAB207F11A049EB2042E1FFA80F8A1
:102A90000FD8904503F1010306D3FB8A0A4462F381
:102AA0000903FB8201201AE01AF80060E6540130A5
:102AB000EAE79045F1D2A1F1050B1C237C68BBFB32
:102AC000F3F203FB12BB1FFA8BF6002C45D14846EC
:102AD000FFF72AFF044638B978606FF00200BDE8BE
:102AE000F88F4FF00008E6E7002606607860ADB288
:102AF0004FF0000B454510D90AEB0803221D13F8CF
:102B0000011B9155B1B208F101081B291FFA88F881
:102B10002BD0454506F10106F1D8FB8AC3F3090223
:102B2000154465F30903BCE7013292B21C462368E1
:102B3000002BF9D16B1F0B441C21B3FBF1F30133C4
:102B40009BB29A42D3D2BBF1000FD0D14846FFF7D7
:102B5000EBFE20B9C4F800B0BFE70122E7E7C0F8F8
:102B600000B05E4620600446C1E74545D5D94846D9
:102B7000FFF7DAFE08B92060AFE7C0F800B0002622
:102B800020600446B6E700002DE9F04F2DED028BE2
:102B90001C4683B05B69019207468846002B00F013
:102BA0009A80238C2BB1E269002A00F09480072BD5
:102BB00035D807F10C00FFF7B7FE054638B96FF0BE
:102BC0000205284603B0BDEC028BBDE8F08F14224D
:102BD0000021FEF709FC228CE16905F10800FEF7EF
:102BE000F1FB208C013080B2FFF7E6FEFFF7C8FE54
:102BF000013880B22084013028746369228C1B78EC
:102C00002A4403F01F0363F03F0348F000411372AE
:102C1000384669602946FFF7EFFD0125D1E700F14D
:102C20000C034FF0000908EE103A4FF0800A4E46B0
:102C30004D4618EE100AFFF777FE83460028BED0F7
:102C400014220021FEF7D0FB002E3AD1019BABF8F5
:102C5000083002220BF1080E1FFA82FC0CF1010071
:102C6000BCF1060F218C80B201D88E422BD3FFF726
:102C7000A3FEFFF785FE62691278013802F01F0299
:102C80008E4208BF4FF0400A42EA49121BFA80F117
:102C90004AEA020A013048F0004281F808A08BF8A5
:102CA0001000CBF8042059463846FFF7A5FD238CC9
:102CB0000135B3422DB289F001094FF0000AB8D1B5
:102CC0007FE70022C6E7E169895D0EF80210013650
:102CD000B6B20132C0E76FF0010572E7F8B51546EC
:102CE0000E463022002104461F46FEF77DFB069B60
:102CF0006360B5F5001F079BA76034BF6A094FF6F4
:102D0000FF72A36297B2E66104F1100000239A42B9
:102D100006D800230360A782E3822383E360F8BD23
:102D20000660013330462036F1E7000003781BB916
:102D30004BB2002BC8BF017070470000007870478D
:102D4000F8B50C46C969074611B9238C002B37D159
:102D5000257E1F2D34D8387828BB228C072A2CD802
:102D6000268A36F003032BD14FF6FF70FFF7D0FD14
:102D700020F001003102400441EA0561400C41EAC3
:102D800040254FF6FF72234629463846FFF7FCFEE2
:102D9000002807DD626913780133DBB21F2B88BF7F
:102DA00000231370F8BD218A2D0645EA012505434D
:102DB0002046FFF71DFE0246E5E76FF00300F1E74E
:102DC0006FF00100EEE7000070B58AB004461646C9
:102DD0000021282268461D46FEF706FBBDF8383064
:102DE000ADF810300F9B05939DF840308DF81830EA
:102DF000119B07936946BDF84830ADF82030204656
:102E0000CDE90265FFF79CFF0AB070BD2DE9F041E6
:102E1000D36905460C4616460BB9138C5BBB377E4F
:102E20001F2F28D895F80080B8F1000F26D0304623
:102E3000FFF7DEFD3378210241EAC33141EA0801A0
:102E4000338A41EA076141EA03410246334641F0D1
:102E500080012846FFF798FE00280ADD3378012B11
:102E600007D1726913780133DBB21F2B88BF0023AF
:102E70001370BDE8F0816FF00100FAE76FF0030016
:102E8000F7E70000F0B58BB004460D461746002169
:102E9000282268461E46FEF7A7FA9DF84C305A1EB7
:102EA000534253418DF800309DF84030ADF810305A
:102EB000119B05939DF848308DF81830149B0793AB
:102EC0006A46BDF85430ADF8203029462046CDE999
:102ED0000276FFF79BFF0BB0F0BD0000406A00B127
:102EE00004307047436A1A68426202691A600361DB
:102EF000C38A013BC38270472DE9F041D0F820809E
:102F0000194E14461D464146002709B9BDE8F08117
:102F1000D1E90223A21A65EB0303964277EB030380
:102F20001ED2036A8B420DD1FFF78CFD036A1B682A
:102F3000036203690B60C38A0161016A013BC382BA
:102F40008846E2E7FFF77EFD0B68C8F800300369AA
:102F50000B60C38A0161013BC382D8F80010D4E73B
:102F600088460968D1E700BF80841E002DE9F04F34
:102F70008BB00D46DDF8509014469B4680460028E5
:102F800000F01981B9F1000F00F01581531E3F2B9D
:102F900000F21181012A03D1BBF1000F40F00B8137
:102FA0000023CDE90833B8F81430B5EBC30F4FEA6E
:102FB000C30703D300200BB0BDE8F08F2B199F424D
:102FC000D8F80C303ABF7F1BFFB227461BB9D8F8A0
:102FD0001030002B7AD0272D4ED8C5F12806B742E5
:102FE0004FF000032CBFF6B23E4600932946D8F8B6
:102FF000080008AB3246FFF741FCA7EB060A354450
:103000005FFA8AFAB8F8143003F10053053BDB008D
:103010000493D8F80C3003932821039B13B1BAF121
:10302000000F2CD1D8F8100040B1BAF1000F05D034
:10303000009608AB5246691AFFF720FC38B2002F01
:10304000B8D066070AD00AAB03EBD401624211F88C
:10305000083C02F00702134101F8083C082C3CD957
:10306000102C40F2B580202C40F2B780BBF1000F4D
:1030700000F09C80082334E0BA460026C2E7049B97
:10308000E02B28BFE02306930B44AB42059314D9F1
:103090005A1B03980096924534BF5246D2B2691A21
:1030A00008AB04300792FFF7E9FB079A1644AAEB36
:1030B000020A1544F6B25FFA8AFA049B069A059949
:1030C0009B1A0493039B1B680393A6E70093D8F80D
:1030D000080008AB3A462946AEE7BBF1000F13D013
:1030E0000123B4EBC30F6CD0082C12D89DF820300C
:1030F000621E23FA02F2D50706D54FF0FF3202FA1C
:1031000004F423438DF820309DF8203089F80030F6
:1031100051E7102C12D8BDF82030621E23FA02F2BB
:10312000D10706D54FF0FF3202FA04F42343ADF87D
:103130002030BDF82030A9F800303CE7202C0FD813
:103140000899631E21FA03F3DA0705D54FF0FF3221
:1031500002FA04F40C430894089BC9F800302AE7EB
:10316000402C2BD0DDE90865611EC4F12102A4F1D9
:10317000210326FA01F105FA02F225FA03F31143BD
:103180001943CB0712D50122A4F12003C4F1200179
:1031900002FA03F322FA01F1A240524243EA010388
:1031A00063EB430332432B43CDE90823DDE90823D6
:1031B000C9E90023FFE66FF00100FCE66FF00800AC
:1031C000F9E6082CA0D9102CB3D9202CEED8C3E7EF
:1031D000BBF1000FADD0022383E7BBF1000FBBD0E2
:1031E00004237EE730B5012A144638BF0124402C61
:1031F00085B028BF40240025012ACDE9025518D802
:103200001B788DF8083063070AD004AB03EBD405B4
:10321000624215F8083C02F00702934005F8083CAA
:10322000009103462246002102A8FFF727FB05B0C4
:1032300030BD082AE4D9102A03D81B88ADF808301D
:10324000E1E7202A8DBFD3E900231B680293CDE973
:103250000223D8E710B5CB681BB98B600B618B825A
:1032600010BD04691A681C600361C38A013BC382F4
:10327000CA60F0E703064CBFC0F3C03002207047BD
:1032800008B50246FFF7F6FF022806D15306C2F33F
:103290000F2001D100F0030008BDC2F30740FBE797
:1032A0002DE9F04F93B0CDE903230A680446104698
:1032B000FFF7E0FF022814BFC2F306260026002A0B
:1032C0000D46824680F2F28112F0C04940F0EE8154
:1032D000097B002900F0EA81022803D02378B34259
:1032E00040F0E781C2F304630693104602F07F03C7
:1032F0000593FFF7C5FF059B29444FEA834848EA39
:103300000A4848EA4668CE7800230022CDE908231F
:10331000F309834648EA0008029367D0059B0093AF
:1033200002466768534608A92046B847002800F0BF
:10333000C381276A4FB9414604F10C00FFF702FB35
:10334000074690B96FF0020054E03B6998450DD0F4
:103350003F68002FF9D1414604F10C00FFF7F2FA63
:1033600007460028EED0236A3B60276297F817C013
:1033700006F01F08CCF3840CACEB08001FFA80FEAB
:103380000028B8BF0EF12000A8EB0C031FFA83FE43
:10339000D7E90221B8BF00B2002B0793BEBF0EF1E0
:1033A00020031BB2079352EA010338D0039BDFF8D6
:1033B00024E39A1A049B4FF0000C63EB010196453D
:1033C0007CEB01032BD36B7B97F81AE0734519D183
:1033D000029B002B78D0012821DC7868F8B9DFF84F
:1033E000F0C2944570EB010316D337E0276A27B982
:1033F0006FF00C0013B0BDE8F08F3B699845B5D075
:103400003F68F4E7B24890427CEB010301D300200F
:10341000F0E7029B002BFAD0079B0F2B17DCFA7DFD
:10342000B30002F0030203F07C031343FB7539463B
:103430002046FFF707FB6B7BBB76029B3BB9FB7D0E
:10344000C3F38402013262F38603FB75D0E76A7B23
:10345000BB7E9A42DBD1029B002B35D0B309022BF5
:1034600032D0039BBB60049BFB60142200210DA89B
:10347000FDF7BAFF039B0A93049B0B932B1D0C9340
:103480002B7BADF83EB0013BDBB2ADF83C30069B88
:103490008DF84230059B8DF8433094F82C308DF830
:1034A00040A083F001038DF844308DF84180A3687B
:1034B0000AA920469847FB7DC3F38403013303F038
:1034C0001F039B02FB82A2E7FB7DC6F34012B2EB17
:1034D000D31F40F0F480C3F38403434540F0F280EF
:1034E000029A2B7BB609002A4DD0F2075DD4032B3C
:1034F00040F2EB80039BBB60049BFB602B7BAE1D0B
:10350000033BDBB23246394604F10C00FFF7ACFA5C
:1035100000280CDA39462046FFF794FAFB7DC3F306
:103520008403013303F01F039B02FB820AE7DDE9FA
:103530000884AB883B834FF6FF73C9F12000A9F1E3
:10354000200228FA09F104FA00F0014324FA02F2F9
:1035500011431846C9B2FFF7C9F909F10809B9F1D1
:10356000400F0346E9D1B8822A7B033AD2B23146F2
:10357000FFF7CEF9FB7DB882DA43C2F3C01262F3E3
:10358000C713FB7543E786B92E1D013BDBB23246FC
:10359000394604F10C00FFF767FA0028BADB2A7BF2
:1035A000B88A013AD2B23146E2E7F98AC1F3090199
:1035B000013B0429DAB25BD8281D002307F11B0662
:1035C0009A4208D910F801CB06F801C00131013345
:1035D0000529DBB2F4D103990A9104990B91934226
:1035E00007F11B010C9138BF043379680D9134BF8A
:1035F00055FA83F300230E93FB8AADF83EB0C3F374
:1036000009031A44069B8DF84230059B8DF8433020
:1036100094F82C30ADF83C2083F001038DF8443051
:1036200000238DF840A08DF841807B602A7BB88A0A
:10363000013A291DFFF76CF93B8BB882834203D115
:10364000A3680AA92046984720460AA9FFF702FE68
:10365000FB7DBA8AC3F38403013303F01F039B028B
:10366000FB823B8B9A420CBF00206FF01000C1E63A
:103670007B68002BAFD0052001E01C3033461E686C
:10368000002EFAD1091A081D2E1D184401EB090C51
:10369000BCF11B0F5FFA89F39DD89A429BD916F8AB
:1036A000013B00F8013B09F10109EFE76FF0090068
:1036B000A0E66FF00A009DE66FF00B009AE66FF04F
:1036C0000D0097E66FF00E0094E66FF00F0091E6A4
:1036D00040420F0080841E00EFF3098305494A6BC6
:1036E00022F001024A63683383F30988002383F3DD
:1036F0001188704700EF00E0302080F3118862B637
:103700000C4B0D4AD96821F4E0610904090C0A4305
:10371000DA60D3F8FC20094942F08072C3F8FC203B
:103720000A6842F001020A602022DA7783F8220058
:10373000704700BF00ED00E00003FA05001000E054
:1037400010B5302383F311880E4B5B6813F40063CC
:1037500014D0F1EE103AEFF30984683C4FF0807317
:10376000E361094BDB6B236684F3098800F090F872
:1037700010B1064BA36110BD054BFBE783F3118825
:10378000F9E700BF00ED00E000EF00E043060008AD
:103790004606000800F1604303F561430901C9B220
:1037A00083F80013012200F01F039A4043099B0095
:1037B00003F1604303F56143C3F880211A60704749
:1037C00000230375826803691B6899689142FBD2E4
:1037D0005A680360426010605860704700230375A8
:1037E000826803691B6899689142FBD85A68036034
:1037F000426010605860704708B50846302383F374
:1038000011880B7D032B05D0042B0DD02BB983F32E
:10381000118808BD8B6900221A604FF0FF33836165
:10382000FFF7CEFF0023F2E7D1E9003213605A60C0
:10383000F3E70000FFF7C4BF054BD96808751868A7
:1038400002681A60536001220275D860FCF7E4BE7A
:10385000204A002030B50C4BDD684B1C87B0044675
:103860000FD02B46094A684600F06CF92046FFF756
:10387000E3FF009B13B1684600F06EF9A86907B03A
:1038800030BDFFF7D9FFF9E7204A0020F9370008DB
:10389000044B1A68DB6890689B68984294BF0020CC
:1038A00001207047204A0020084B10B51C68D868DA
:1038B00022681A60536001222275DC60FFF78EFFD8
:1038C00001462046BDE81040FCF7A6BE204A002075
:1038D000044B1A68DB6892689B689A4201D9FFF72B
:1038E000E3BF7047204A002038B5074C0749084815
:1038F000012300252370656000F03AFC0223237049
:1039000085F3118838BD00BF884C0020484E000860
:10391000204A002008B572B6044B186500F0ECFA96
:1039200000F0A0FB024B03221A70FEE7204A0020A1
:10393000884C002000F046B9EFF3118020B9EFF376
:103940000583302282F311887047000010B530B92A
:10395000EFF30584C4F3080414B180F3118810BD9B
:10396000FFF7B6FF84F31188F9E700008B600223AC
:1039700008618B82084670478368A3F1840243F88C
:10398000142C026943F8442C426943F8402C094A3C
:1039900043F8242CC26843F8182C022203F80C2C9C
:1039A000002203F80B2C044A43F8102CA3F120004A
:1039B000704700BF31060008204A002008B5FFF715
:1039C000DBFFBDE80840FFF735BF0000024BDB68B6
:1039D00098610F20FFF730BF204A0020302383F387
:1039E0001188FFF7F3BF000008B50146302383F3C9
:1039F00011880820FFF72EFF002383F3118808BDEC
:103A0000064BDB6839B1426818605A601360436046
:103A10000420FFF71FBF4FF0FF307047204A0020FF
:103A20000368984206D01A6802605060996118468F
:103A3000FFF700BF7047000010B503689C68A24202
:103A40000CD85C688A600B604C6021605960996892
:103A50008A1A9A604FF0FF33836010BD1B68121BF7
:103A6000ECE700000A2938BF0A2170B504460D466C
:103A70000A26601900F076FB00F062FB041BA542E9
:103A800003D8751C2E460446F3E70A2E04D9BDE878
:103A90007040012000F0ACBB70BD0000F8B5144BC5
:103AA0000D46D96103F1100141600A2A196982604B
:103AB00038BF0A22016048601861A818144600F057
:103AC00043FB0A2700F03CFB431BA342064606D3F8
:103AD0007C1C281900F046FB27463546F2E70A2FE2
:103AE00004D9BDE8F840012000F082BBF8BD00BF5A
:103AF000204A0020F8B506460D4600F021FB0F4A8B
:103B0000134653F8107F9F4206D12A46014630469D
:103B1000BDE8F840FFF7C2BFD169BB68441A2C1951
:103B200028BF2C46A34202D92946FFF79BFF224615
:103B300031460348BDE8F840FFF77EBF204A002029
:103B4000304A002010B4C0E9032300235DF8044B81
:103B50004361FFF7CFBF000010B5194C23699842AD
:103B60000DD0D0E90032816813605A609A680A4427
:103B70009A60002303604FF0FF33A36110BD23461A
:103B8000026843F8102F53600022026022699A42B3
:103B900003D1BDE8104000F0DFBA936881680B44A0
:103BA000936000F0CDFA2269E1699268441AA2425A
:103BB000E4D91144BDE81040091AFFF753BF00BF14
:103BC000204A00202DE9F047DFF8BC8008F11007FB
:103BD0002C4ED8F8105000F0B3FAD8F81C40AA6860
:103BE000031B9A423ED81444D5E900324FF0000935
:103BF000C8F81C4013605A60C5F80090D8F810301F
:103C0000B34201D100F0A8FA89F31188D5E9033154
:103C100028469847302383F311886B69002BD8D04E
:103C200000F08EFA6A69A0EB04094A4582460DD27B
:103C3000022000F0DDFA0022D8F81030B34208D19B
:103C400051462846BDE8F047FFF728BF121A224424
:103C5000F2E712EB090938BF4A4629463846FFF712
:103C6000EBFEB5E7D8F81030B34208D01444211A5F
:103C7000C8F81C00A960BDE8F047FFF7F3BEBDE837
:103C8000F08700BF304A0020204A00200020704703
:103C9000FEE70000704700004FF0FF307047000063
:103CA000BFF34F8F024AD368DB03FCD4704700BFD9
:103CB000003C024008B5094B1B7873B9FFF7F0FFD1
:103CC000074B1A69002ABFBF064A5A6002F18832C0
:103CD0005A601A6822F480621A6008BD904C002075
:103CE000003C02402301674508B50B4B1B7893B994
:103CF000FFF7D6FF094B1A6942F000421A611A68B1
:103D000042F480521A601A6822F480521A601A68CB
:103D100042F480621A6008BD904C0020003C0240D2
:103D20000728F0B516D80C4C0C4923787BB90C4DFC
:103D30000E4608234FF0006255F8047B46F8042B2A
:103D4000013B13F0FF033A44F6D10123237051F8ED
:103D50002000F0BD0020FCE7B44C0020944C002073
:103D6000544E0008014B53F820007047544E000891
:103D700008207047072810B5044601D9002010BD5F
:103D8000FFF7CEFF064B53F824301844C21A0BB984
:103D90000120F4E712680132F0D1043BF6E700BFDE
:103DA000544E0008072810B5044621D8FFF778FFC5
:103DB000FFF780FF0F4AF323D360C300DBB243F465
:103DC000007343F002031361136943F480331361FA
:103DD000FFF766FFFFF7A4FF074B53F8241000F02E
:103DE0003DF9FFF781FF2046BDE81040FFF7C2BF55
:103DF000002010BD003C0240544E0008F8B512F0FF
:103E00000103144642D185182E4A954257D82E4BAD
:103E10001B6813F0010352D02C4DFFF74BFFF32327
:103E2000EB60FFF73DFF40F20127032C15D824F08B
:103E300001046618254C401A40F20117B14223696B
:103E400000EB010524D123F001032361FFF74CFFB0
:103E50000120F8BD043C0430E7E78307E7D12B6974
:103E600023F440732B612B693B432B6151F8046BA6
:103E70000660BFF34F8FFFF713FF03689E42E9D040
:103E80002B6923F001032B61FFF72EFF0020E0E7F1
:103E900023F44073236123693B4323610B882B8008
:103EA000BFF34F8FFFF7FCFE2D8831F8023BADB218
:103EB000AB42C3D0236923F001032361E4E7184632
:103EC000C7E700BF0000080800380240003C02407D
:103ED000084908B50B7828B11BB9FFF7EBFE0123A1
:103EE0000B7008BD002BFCD0BDE808400870FFF740
:103EF000FBBE00BF904C00204FF480214FF00050DB
:103F000000F0AEB80846114600F0AEBE012000F049
:103F1000ABBE0000084600F0C5BE000070B582B020
:103F2000FFF70AFD0E4E054600F00AF9326890428E
:103F300037BF0C4A0B49516814682EBFD1E90041C4
:103F4000013151600419034641F1000128460191F5
:103F50003360FFF7FBFC0199204602B070BD00BF43
:103F6000B84C0020C04C002070B582B0FFF7E4FCD4
:103F7000104E054600F0E4F83268904237BF0E4A12
:103F80000D49516814682EBFD1E9004101315160DB
:103F9000041941F100010346284601913360FFF7FF
:103FA000D5FC01994FF47A7200232046FCF720F9E2
:103FB00002B070BDB84C0020C04C002010B50244C7
:103FC000064BD2B2904200D110BD441C00B253F84F
:103FD000200041F8040BE0B2F4E700BF5028004095
:103FE0000F4B30B51C6F240407D41C6F44F40074CD
:103FF0001C671C6F44F400441C670A4C236843F49C
:10400000807323600244084BD2B2904200D130BD8D
:10401000441C00B251F8045B43F82050E0B2F4E7CE
:1040200000380240007000405028004007B50122CF
:1040300001A90020FFF7C2FF019803B05DF804FB5F
:1040400013B50446FFF7F2FFA04205D0012201A9F3
:1040500000200194FFF7C4FF02B010BD70470000BC
:104060007047000070470000074B45F255521A6038
:1040700002225A6040F6FF729A604CF6CC421A60F7
:10408000024B01221A70704700300040CC4C0020D7
:10409000034B1B781BB1034B4AF6AA221A607047E8
:1040A000CC4C002000300040034B1A681AB9034A78
:1040B000D2F874281A607047C84C002000300240C3
:1040C000024B4FF08072C3F87428704700300240F2
:1040D00008B5FFF7E9FF024B1868C0F3407008BD50
:1040E000C84C002008B5FFF7DFFF024B1868C0F38B
:1040F000007008BDC84C002070470000FEE70000BB
:104100000A4B0B480B4A90420BD30B4BDA1C121A8A
:10411000C11E22F003028B4238BF00220021FDF7AE
:1041200063B953F8041B40F8041BECE71050000877
:10413000C44F0020C44F0020C44F002000F0CAB874
:104140004FF08043586A70474FF080430022586315
:104150001A610222DA6070474FF080430022DA6071
:10416000704700004FF0804358637047FEE700003F
:1041700070B51B4B01630025044686B0586085620C
:104180000E46FFF7B9FA04F11003C4E904334FF007
:10419000FF33C4E90635C4E90044A560E562FFF7D2
:1041A000CFFF2B460246C4E9082304F134010D4A2F
:1041B000256580232046FFF7D9FB0123E0600A4AEA
:1041C0000375009272680192B268CDE90223074B31
:1041D0006846CDE90435FFF7F1FB06B070BD00BFBE
:1041E000884C0020744E0008794E00086D4100088C
:1041F000024AD36A1843D062704700BF204A0020A9
:104200004B6843608B688360CB68C3600B69436114
:104210004B6903628B6943620B680360704700005F
:1042200008B5234B23481A6942F0FF021A611A6944
:1042300022F0FF021A611A691A6B42F0FF021A6338
:104240001A6D42F0FF021A651B4A1B6D1146FFF7FB
:10425000D7FF02F11C0100F58060FFF7D1FF02F1EA
:10426000380100F58060FFF7CBFF02F1540100F543
:104270008060FFF7C5FF02F1700100F58060FFF775
:10428000BFFF02F18C0100F58060FFF7B9FF02F17A
:10429000A80100F58060FFF7B3FF02F1C40100F54B
:1042A0008060FFF7ADFFBDE8084000F08DB800BFAB
:1042B0000038024000000240804E000808B500F0BF
:1042C00019FAFFF711FBBDE80840FFF7EDBE00004B
:1042D000704700000F4B1A6C42F001021A641A6E0C
:1042E00042F001021A660C4A1B6E936843F0010308
:1042F00093604FF0804331229A624FF0FF32DA62CE
:1043000000229A615A63DA605A6001225A611A6087
:10431000704700BF00380240002004E04FF08042A8
:1043200008B51169D3680B40D9B2C9439B07116125
:1043300007D5302383F31188FFF7FCFA002383F3BA
:10434000118808BD1E4B1A6962F0FF021A611A69D2
:10435000D2B21A614FF0FF301A695A6958610021D0
:104360005A6959615A691A6A62F080521A621A6A65
:1043700002F080521A621A6A5A6A58625A6A59627C
:104380005A6A1A6C42F080521A641A6E42F08052D5
:104390001A661A6E0B4A106840F480701060186F2D
:1043A00000F44070B0F5007F1EBF4FF480301867F6
:1043B0001967536823F40073536000F073B900BFAA
:1043C00000380240007000403B4B3C4A1A643C4AB3
:1043D0004FF4404111601A6842F001021A601A68F5
:1043E0009007FCD59A6822F003029A60324B9A68D3
:1043F00012F00C02FBD1196801F0F90119609A6002
:104400001A6842F480321A601A689103FCD55A6F18
:1044100042F001025A67284B5A6F9207FCD5294A8D
:104420005A601A6842F080721A60254A536858042C
:10443000FCD5214B1A689101FCD5234AC3F884208E
:104440001A6842F080621A601A681201FCD51F4A8D
:104450009A600322C3F88C204FF00062C3F89420C6
:104460001B4B1A681B4B9A421B4B21D11B4A1168EC
:104470001B4A91421CD140F203121A60164A13687B
:1044800003F00F03032BFAD10B4B9A6842F00202A0
:104490009A609A6802F00C02082AFAD15A6C42F427
:1044A00080425A645A6E42F480425A665B6E70478C
:1044B00040F20372E1E700BF003802400004001040
:1044C000007000400419400208300024009488382D
:1044D000002004E011640020003C024000ED00E0F8
:1044E00041C20F41074A08B5536903F00103536104
:1044F00023B1054A13680BB150689847BDE80840DE
:10450000FFF71EB9003C0140D04C0020074A08B517
:10451000536903F00203536123B1054A93680BB159
:10452000D0689847BDE80840FFF70AB9003C014051
:10453000D04C0020074A08B5536903F004035361C7
:1045400023B1054A13690BB150699847BDE808408B
:10455000FFF7F6B8003C0140D04C0020074A08B5F0
:10456000536903F00803536123B1054A93690BB102
:10457000D0699847BDE80840FFF7E2B8003C014029
:10458000D04C0020074A08B5536903F0100353616B
:1045900023B1054A136A0BB1506A9847BDE8084039
:1045A000FFF7CEB8003C0140D04C0020164B10B5B0
:1045B0005C6904F478725A61A30604D5134A936ABD
:1045C0000BB1D06A9847600604D5104A136B0BB143
:1045D000506B9847210604D50C4A936B0BB1D06BF6
:1045E0009847E20504D5094A136C0BB1506C984703
:1045F000A30504D5054A936C0BB1D06C9847BDE870
:104600001040FFF79DB800BF003C0140D04C002097
:10461000194B10B55C6904F47C425A61620504D5FB
:10462000164A136D0BB1506D9847230504D5134AF4
:10463000936D0BB1D06D9847E00404D50F4A136E0B
:104640000BB1506E9847A10404D50C4A936E0BB180
:10465000D06E9847620404D5084A136F0BB1506FAF
:104660009847230404D5054A936F0BB1D06F984740
:10467000BDE81040FFF764B8003C0140D04C00207A
:1046800008B5034800F0E8F8BDE80840FFF758B85F
:10469000504D002008B5FFF741FEBDE80840FFF788
:1046A0004FB80000062108B50846FFF773F8062149
:1046B0000720FFF76FF806210820FFF76BF80621A7
:1046C0000920FFF767F806210A20FFF763F80621A3
:1046D0001720FFF75FF806212820FFF75BF8072176
:1046E0001C20FFF757F8BDE808400C212620FFF7F3
:1046F00051B8000008B5FFF725FE00F07BF800F088
:104700003DF8FFF7E5FDBDE80840FFF717BD0000E5
:10471000026843681143016003B118477047000005
:10472000143000F0C5B900004FF0FF33143000F032
:10473000BFB90000383000F03BBA00004FF0FF3343
:10474000383000F035BA0000143000F08BB90000AA
:104750004FF0FF31143000F085B90000383000F020
:10476000E5B900004FF0FF32383000F0DFB900004B
:10477000012914BF6FF013000020704700F058B8F3
:1047800037B515460E4A026000224260C0E9022297
:104790000122044602740B46009000F15C014FF4C4
:1047A0008072143000F034F900942B464FF480727C
:1047B00004F5AE7104F1380000F0ACF903B030BD7F
:1047C000604F000838B5C36904460D461BB9042183
:1047D0000844FFF79DFF294604F1140000F026F974
:1047E000002806DA201D4FF40061BDE83840FFF7CD
:1047F0008FBF38BD0023054A19460133102BC2E98B
:10480000001102F10802F8D1704700BFD04C00201F
:10481000026843681143016003B118477047000004
:10482000024AD36843F0C003D3607047004400409D
:1048300010B5054C054A00212046FFF7A1FF044AA8
:10484000044BC4E9972310BD504D002021480008B7
:104850000044004040787D012DE9F041D0F85C62D1
:10486000F7683368DA0504469DB20DD5302383F32B
:1048700011884FF480610430FFF7CAFF6FF4807332
:104880003360002383F31188302383F3118804F10C
:10489000040815F02F033AD183F31188380615D593
:1048A000290613D5302383F3118804F1380000F072
:1048B00065F900284EDA0821201DFFF7A9FF4FF601
:1048C0007F733B40F360002383F311887A0616D58B
:1048D0006B0614D5302383F31188D4E913239A424D
:1048E0000AD1236C43B127F040073F041021201D5B
:1048F0003F0CFFF78DFFF760002383F31188D4F896
:104900006822D36843B3BDE8F041106918472B070C
:1049100014D015F0080F0CBF00214FF48071E80788
:1049200048BF41F02001AA0748BF41F040016B0792
:1049300048BF41F080014046FFF76AFFAD0673684B
:1049400005D594F8641220461940FFF73BFF3568FF
:10495000ADB29EE77060B6E7BDE8F081F8B51546E8
:1049600082680669AA420B46816938BF8568761A53
:10497000B54204460BD218462A46FCF723FDA3692C
:104980002B44A361A3685B1BA3602846F8BD0CD928
:1049900018463246FCF716FDAF1BE1683A46304434
:1049A000FCF710FDE3683B44EBE718462A46FCF7AA
:1049B00009FDE368E5E7000083689342F7B5154613
:1049C000044638BF8568D0E90460361AB5420BD278
:1049D0002A46FCF7F7FC63692B446361A368284609
:1049E0005B1BA36003B0F0BD0DD932460191FCF70B
:1049F000E9FC0199E068AF1B3A463144FCF7E2FC60
:104A0000E3683B44E9E72A46FCF7DCFCE368E4E7BB
:104A100010B50A440024C361029B8460C0E9000011
:104A2000C0E90511C1600261036210BD08B5D0E99B
:104A30000532934201D1826882B982680132826074
:104A40005A1C42611970D0E904329A4224BFC368EB
:104A500043610021FEF7E4FF002008BD4FF0FF3066
:104A6000FBE7000070B5302304460E4683F311883F
:104A7000A568A5B1A368A269013BA360531CA3610B
:104A800015782269934224BFE368A361E3690BB1FF
:104A900020469847002383F31188284607E03146D3
:104AA0002046FEF7ADFF0028E2DA85F3118870BDDD
:104AB0002DE9F74F04460E4617469846D0F81C904D
:104AC0004FF0300A8AF311884FF0000B154665B19C
:104AD0002A4631462046FFF741FF034660B941466A
:104AE0002046FEF78DFF0028F1D0002383F31188C4
:104AF000781B03B0BDE8F08FB9F1000F03D001902F
:104B00002046C847019B8BF31188ED1A1E448AF397
:104B10001188DCE7C0E90511C160C3611144009B45
:104B20008260C0E90000016103627047F8B5044685
:104B30000D461646302383F31188A768A7B1A368F2
:104B4000013BA36063695A1C62611D70D4E90432A1
:104B50009A4224BFE3686361E3690BB1204698473A
:104B6000002080F3118807E031462046FEF748FF19
:104B70000028E2DA87F31188F8BD0000D0E90523A8
:104B80009A4210B501D182687AB982680132826096
:104B90005A1C82611C7803699A4224BFC3688361EE
:104BA0000021FEF73DFF204610BD4FF0FF30FBE730
:104BB0002DE9F74F04460E4617469846D0F81C904C
:104BC0004FF0300A8AF311884FF0000B154665B19B
:104BD0002A4631462046FFF7EFFE034660B94146BC
:104BE0002046FEF70DFF0028F1D0002383F3118843
:104BF000781B03B0BDE8F08FB9F1000F03D001902E
:104C00002046C847019B8BF31188ED1A1E448AF396
:104C10001188DCE70B460146184600F02DB800006D
:104C200000F040B8012838BF012010B504462046E6
:104C300000F030F830B900F007F808B900F00CF8CF
:104C40008047F4E710BD0000024B1868BFF35B8F8C
:104C5000704700BFBC4F002008B5062000F084F864
:104C60000120FFF715F80000024B0A4601461868BC
:104C7000FFF748B91C23002010B5054C13462CB192
:104C80000A4601460220AFF3008010BD2046FCE733
:104C900000000000024B01461868FFF737B900BF5B
:104CA0001C230020024B01461868FFF733B900BFF0
:104CB0001C23002010B501390244904201D100208C
:104CC00005E0037811F8014FA34201D0181B10BD75
:104CD0000130F2E72DE9F041A3B1C91A1778014478
:104CE000044603F1FF3C8C42204601D9002009E034
:104CF0000578BD4204F10104F5D10CEB0405D6188A
:104D0000A54201D1BDE8F08115F8018D16F801ED3D
:104D1000F045F5D0E7E700001F2938B504460D46F9
:104D200004D9162303604FF0FF3038BD426C12B136
:104D300052F821304BB9204600F030F82A4601469F
:104D40002046BDE8384000F017B8012B0AD0591CA6
:104D500003D1162303600120E7E7002442F8254031
:104D6000284698470020E0E7024B01461868FFF705
:104D7000D3BF00BF1C23002038B5074D00230446D5
:104D8000084611462B60FEF787FF431C02D12B68B3
:104D900003B1236038BD00BFC04F0020FEF776BFCF
:104DA000034611F8012B03F8012B002AF9D17047B3
:104DB0006F72672E6172647570696C6F742E4152E8
:104DC0004B5F47505300000040A2E4F16468910635
:104DD0000041A3E5F265699207000000426164208A
:104DE00043414E496661636520696E6465782E00B3
:104DF0008000000000800000000080000000000033
:104E000000000000491C000831240008912300081C
:104E1000591C00088D1C0008891E00085D1C000834
:104E20006D1C0008611C0008691C0008651C000856
:104E3000B11D0008711C0008FD260008811C000837
:104E4000851D000863300000444E0008784A0020A9
:104E5000884C00200040000000400000004000009E
:104E600000400000000001000000020000000200FD
:104E7000000002006D61696E0069646C65000000ED
:104E8000A000902A00000000AAAAAAAA50000024AC
:104E9000FFFB000000770000009009000100000502
:104EA00000000000AAAAAAA501000080FFCF000010
:104EB00000000000000000000000000000000000F2
:104EC000AAAAAAAA00000000FFFF0000000000003C
:104ED000000000000000000000000000AAAAAAAA2A
:104EE00000000000FFFF00000000000000000000C4
:104EF0000000000000000000AAAAAAAA000000000A
:104F0000FFFF0000000000000000000000000000A3
:104F100000000000AAAAAAAA00000000FFFF0000EB
:104F20000000000000000000000000000000000081
:104F3000AAAAAAAA00000000FFFF000000000000CB
:104F40000000000000000000000000000A00000057
:104F5000000000000300000000000000000000004E
:104F6000000000003D470008294700086547000889
:104F7000514700085D4700084947000835470008C9
:104F8000214700087147000898B2FF7F0100000028
:104F900051000000000000000000070000000000B9
:104FA00040420F00FE2A0100D2040000202300200E
:104FB00000000000000000000000000000000000F1
:104FC00000000000000000000000000000000000E1
:104FD00000000000000000000000000000000000D1
:104FE00000000000000000000000000000000000C1
:104FF00000000000000000000000000000000000B1
:1050000000000000000000000000000000000000A0
:00000001FF
