:020000040800F2
:100000000006012001020008A90F0008290F0008BE
:10001000810F0008290F0008550F0008030200088F
:100020000302000803020008030200084928000830
:10003000030200080302000803020008030200088C
:10004000030200080302000803020008030200087C
:100050000302000803020008BD390008E539000862
:100060000D3A0008353A00085D3A0008030200081E
:10007000030200080302000803020008030200084C
:10008000030200080302000803020008030200083C
:10009000030200080302000803020008853A000872
:1000A000030200080302000803020008030200081C
:1000B0006D3B000803020008030200080302000869
:1000C00003020008030200080302000803020008FC
:1000D00003020008593B000803020008030200085D
:1000E000E93A0008030200080302000803020008BE
:1000F00003020008030200080302000803020008CC
:1001000003020008030200080302000803020008BB
:1001100003020008030200080302000803020008AB
:10012000030200080302000803020008030200089B
:10013000030200080302000803020008030200088B
:100140000302000803020008030200080930000847
:10015000030200080302000803020008030200086B
:10016000030200080302000803020008030200085B
:10017000030200080302000803020008030200084B
:10018000030200080302000803020008030200083B
:10019000030200080302000803020008030200082B
:1001A000030200080302000803020008030200081B
:1001B000030200080302000803020008030200080B
:1001C00003020008030200080302000803020008FB
:1001D00003020008030200080302000803020008EB
:1001E00003020008030200080302000803020008DB
:1001F00003020008030200080302000803020008CB
:1002000002E000F000F8FEE772B63A4880F3088892
:10021000394880F3098839484EF60851CEF200017A
:10022000086040F20000CCF200004EF63471CEF2CD
:1002300000010860BFF34F8FBFF36F8F40F20000E3
:10024000C0F2F0004EF68851CEF200010860BFF314
:100250004F8FBFF36F8F4FF00000E1EE100A4EF6A4
:100260003C71CEF200010860062080F31488BFF3D1
:100270006F8F02F0A9FB02F04BFB03F041FA4FF045
:1002800055301F491B4A91423CBF41F8040BFAE725
:100290001C49194A91423CBF41F8040BFAE71A493C
:1002A0001A4A1B4B9A423EBF51F8040B42F8040B0A
:1002B000F8E700201749184A91423CBF41F8040B67
:1002C000FAE702F063FB03F07BFA144C144DAC42E6
:1002D00003DA54F8041B8847F9E700F041F8114CA1
:1002E000114DAC4203DA54F8041B8847F9E702F0D9
:1002F0004BBB000000060120002201200000000886
:100300000000012000060120803F0008002201209B
:1003100068220120682201205830012000020008D4
:100320000002000800020008000200082DE9F04F5A
:100330002DED108AC1F80CD0D0F80CD0BDEC108A8D
:10034000BDE8F08F002383F311882846A0470020E2
:1003500001F080FEFEE701F0F5FD00DFFEE70000A2
:1003600038B502F031FA054602F064FA0446D8B90D
:100370000F4B9D421AD001339D4218BF044641F2F3
:10038000883504BF01240025002002F027FA0CB1B3
:1003900000F078F800F070FD00F012FC284600F044
:1003A000FDF800F06FF8F9E70025EDE70546EBE70B
:1003B000010007B008B500F0CFFBA0F120035842C0
:1003C000584108BD07B541F21203022101A8ADF85A
:1003D000043000F0DFFB03B05DF804FB38B572B603
:1003E000202383F3118862B61748C3680BB101F06C
:1003F000B9FE164A144800234FF47A7101F076FED4
:10040000002383F31188124C236813B12368013B46
:100410002360636813B16368013B63600D4D2B7803
:1004200033B963687BB9022000F0A0FC322363601B
:100430002B78032B07D163682BB9022000F096FCC0
:100440004FF47A73636038BD68220120DD03000831
:10045000842301207C220120084B187003280CD82B
:10046000DFE800F008050208022000F075BC022059
:1004700000F068BC024B00225A6070477C220120C9
:1004800084230120F8B5404B404A1C4619680131CD
:1004900079D004339342F9D16268A24273D33C4BC2
:1004A0009B6803F1006303F5C0339A426BD20020CE
:1004B00000F0A0FB0220FFF7CFFF364B00211A6CA3
:1004C00019641A6E19661A6E5A6C59645A6E596616
:1004D0005A6E5A6942F080025A615A6922F08002CB
:1004E0005A615A691A6942F000521A611A6922F077
:1004F00000521A611B6972B64FF0E023C3F8084D31
:10050000D4E90004BFF34F8FBFF36F8F224AC2F8C4
:100510008410BFF34F8F536923F480335361BFF3CB
:100520004F8FD2F88030C3F3C905C3F34E335B015C
:1005300043F6E07603EA060C29464CEA8177013956
:10054000C2F87472F9D2203B13F1200FF2D1BFF33D
:100550004F8FBFF36F8FBFF34F8FBFF36F8F536911
:1005600023F4003353610023C2F85032BFF34F8F9E
:10057000BFF36F8F72B6202383F3118862B685466E
:1005800080F308882047F8BD00800108208001081A
:10059000002201200038024000ED00E02DE9F04F7C
:1005A00093B0B64B00902022FF210AA89D6800F06E
:1005B0000DFCB34A1378B3B9B24801211170C3607E
:1005C00072B6202383F3118862B6C3680BB101F0C1
:1005D000C9FDAD4AAB4800234FF47A7101F086FDA6
:1005E000002383F31188009B13B1A84B009A1A6073
:1005F000A74A009C1378032B1EBF00231370A34A45
:100600004FF0000A18BF5360D3465646D14601202A
:1006100000F0A2FB24B19D4B1B68002B00F0278249
:10062000002000F099FA0390039B002BF2DB0120DD
:1006300000F088FB039B213B1F2BE8D801A252F856
:1006400023F000BFC5060008ED060008810700087A
:100650000F0600080F0600080F0600081308000820
:10066000E3090008FD0800085F0900088709000881
:10067000AD0900080F060008BF0900080F060008B2
:10068000310A0008650700080F060008750A00080F
:10069000D1060008650700080F0600085F0900087A
:1006A0000F0600080F0600080F0600080F060008D6
:1006B0000F0600080F0600080F0600080F060008C6
:1006C000810700080220FFF775FE002840F0F9813D
:1006D000009B0221BAF1000F08BF1C4605A841F299
:1006E0001233ADF8143000F055FA90E74FF47A70F9
:1006F00000F032FA071EEBDB0220FFF75BFE00285A
:10070000E6D0013F052F00F2DE81DFE807F0030AA3
:100710000D10133605230593042105A800F03AFABD
:1007200017E056480421F9E75A480421F6E75A48E9
:100730000421F3E74FF01C08404600F05DFA08F191
:1007400004080590042105A800F024FAB8F12C0F44
:10075000F2D1012000FA07F747EA0B0B5FFA8BFB97
:100760004FF0000900F07EFB26B10BF00B030B2BC2
:1007700008BF0024FFF726FE49E748480421CDE7DB
:10078000002EA5D00BF00B030B2BA1D10220FFF7FD
:1007900011FE074600289BD0012000F02BFA022012
:1007A000FFF75AFE00265FFA86F8404600F032FA5C
:1007B0000446B0B10399A1F1400251425141404673
:1007C00000F038FA01360028EDD1BA46044641F26D
:1007D0001213022105A8ADF814303E4600F0DAF9F4
:1007E00015E70120FFF738FE2546244B9B68AB42F6
:1007F00007D9284600F000FA013040F0678104353F
:10080000F3E7234B00251D70204BBA465D603E4642
:10081000A8E7002E3FF45CAF0BF00B030B2B7FF42B
:1008200057AF0220FFF718FE322000F095F9B0F123
:100830000008FFF64DAF18F003077FF449AF0F4AE9
:10084000926808EB050393423FF642AFB8F5807F0C
:100850003FF73EAF124B0193B84523DD4FF47A705A
:1008600000F07AF90390039A002AFFF631AF019B5A
:10087000039A03F8012B0137EDE700BF00220120A6
:100880008023012068220120DD0300088423012049
:100890007C22012004220120082201200C220120B8
:1008A00080220120C820FFF785FD074600283FF47D
:1008B0000FAF1F2D11D8C5F1200242450AAB25F01C
:1008C000030028BF424683490192184400F058FAB9
:1008D000019A8048FF2100F079FA4FEAA8037D4988
:1008E0000193C8F38702284600F078FA06460028EC
:1008F0003FF46DAF019B05EB830533E70220FFF763
:1009000059FD00283FF4E4AE00F0C0F900283FF4A0
:10091000DFAE0027B846704B9B68BB4218D91F2F2B
:1009200011D80A9B01330ED027F0030312AA1344F7
:1009300053F8203C05934046042205A900F036FBFD
:1009400004378046E7E7384600F056F90590F2E7AD
:10095000CDF81480042105A800F01CF902E700235B
:10096000642104A8049300F00BF900287FF4B0AED2
:100970000220FFF71FFD00283FF4AAAE049800F004
:100980006DF90590E6E70023642104A8049300F0C4
:10099000F7F800287FF49CAE0220FFF70BFD00283B
:1009A0003FF496AE049800F069F9EAE70220FFF7F9
:1009B00001FD00283FF48CAE00F078F9E1E7022059
:1009C000FFF7F8FC00283FF483AE05A9142000F0DF
:1009D00073F904210746049004A800F0DBF83946B7
:1009E000B9E7322000F0B8F8071EFFF671AEBB077A
:1009F0007FF46EAE384A926807EB090393423FF6E4
:100A000067AE0220FFF7D6FC00283FF461AE27F066
:100A100003074F44B9453FF4A5AE484600F0ECF853
:100A20000421059005A800F0B5F809F10409F1E7E3
:100A30004FF47A70FFF7BEFC00283FF449AE00F097
:100A400025F9002844D00A9B01330BD008220AA9BB
:100A5000002000F0C3F900283AD02022FF210AA884
:100A600000F0B4F9FFF7AEFC1C4801F0FBFA13B03C
:100A7000BDE8F08F002E3FF42BAE0BF00B030B2BD9
:100A80007FF426AE0023642105A8059300F078F8D2
:100A9000074600287FF41CAE0220FFF78BFC80463F
:100AA00000283FF415AEFFF78DFC41F2883001F0CD
:100AB000D9FA059800F018FA464600F0D3F93C46FA
:100AC000A5E506464EE64FF0000901E6BA467EE689
:100AD00037467CE68022012000220120A08601000A
:100AE000F7B5194E0C464FF47A7102FB01F396F9F3
:100AF00000200546501C0BD114480193026829467A
:100B0000176A2246B8478442019B03D1002310E0B4
:100B1000002AF1D096F90020511C01D0012A0DD1F4
:100B20000B4802682946166A2246B047844205D11E
:100B30000123084A0120137003B0F0BD4FF4FA708E
:100B400001F090FA0020F7E710220120F827012099
:100B5000D4230120D023012007B500230246012120
:100B60000DF107008DF80730FFF7BAFF20B19DF8AF
:100B7000070003B05DF804FB4FF0FF30F9E7000019
:100B80000A4608B50421FFF7ABFF80F00100C0B2B0
:100B9000404208BD30B4074B0A461978064B53F85B
:100BA00021402368DD69054B0146AC46204630BC38
:100BB000604700BFD0230120483C0008A086010008
:100BC00070B501F0F3FC094E094D3080002428680F
:100BD0003388834208D901F0E3FC2B6804440133D5
:100BE000B4F5C03F2B60F2D370BD00BFD22301200B
:100BF0008C23012001F09CBD00F1006000F5C030A5
:100C00000068704700F10060920000F5C03001F00C
:100C10001BBD0000054B1A68054B1B889B1A8342BD
:100C200002D9104401F0BCBC002070478C23012085
:100C3000D223012038B5084D044629B12868204444
:100C4000BDE8384001F0CCBC2868204401F0B0FC7D
:100C50000028F3D038BD00BF8C23012010F003031F
:100C600009D1B0F5846F04D200F10050A0F57120D5
:100C70000368184670470023FBE7000000F10050AE
:100C8000A0F57120D0F8200470470000064991F8C3
:100C9000243033B10023086A81F824300822FFF79A
:100CA000B1BF0120704700BF90230120014B18689D
:100CB000704700BF002004E0F0B5204B02461868E2
:100CC0001F4B1F885D6893F90840C0F30B06BE42B6
:100CD0004FEA104022D09F89BE4221D01F8BBE42D6
:100CE00006D102240C2505FB04335D6893F9084006
:100CF000B0F5805F16D041F20103984208BF5A2434
:100D0000013A0A44013D0B4693420DD215F9016F99
:100D1000581C5EB100F8016C0346F5E70024E1E7DA
:100D20000124DFE74124EBE7184605E02C2590423B
:100D30001D7001D2981C5C70401AF0BD002004E0C8
:100D400014220120022802BF024B4FF000529A6188
:100D5000704700BF00080240022802BF024B4FF458
:100D600000529A61704700BF00080240022801BF8C
:100D7000024A536983F400535361704700080240EC
:100D800010B50023934203D0CC5CC4540133F9E77F
:100D900010BD000010B5013810F9013F3BB191F9C9
:100DA00000409C4203D11AB10131013AF4E71AB173
:100DB00091F90020981A10BD1046FCE70346024640
:100DC000D01A12F9011B0029FAD1704702440346D8
:100DD000934202D003F8011BFAE770472DE9F8436C
:100DE0001F4D144695F824200746884652BBDFF86D
:100DF00070909CB395F824302BB92022FF214846EF
:100E00002F62FFF7E3FF95F82400C0F10802A24229
:100E100028BF2246D6B24146920005EB8000FFF77C
:100E2000AFFF95F82430A41B1E44F6B2082E1744D9
:100E30009044E4B285F82460DBD1FFF727FF002857
:100E4000D7D108E02B6A03EB82038342CFD0FFF7B0
:100E50001DFF0028CBD10020BDE8F8830120FBE76F
:100E600090230120024B1A78024B1A70704700BF82
:100E7000D02301201022012038B5154C154D2046F5
:100E800000F0F4FB2946204600F01CFC2D681248B7
:100E9000EA6ED2F8043843F00203C2F8043801F0D5
:100EA000E1F80E49284600F01BFDEA6E0C48D2F826
:100EB00004380C4923F00203C2F80438A0424FF46E
:100EC000E1330B6003D0BDE8384000F02BBB38BDE8
:100ED000F8270120543D000840420F005C3D000807
:100EE000D4230120B823012038B50B4B1A780B4BC3
:100EF00053F822500A4B9D4204460CD0094B002166
:100F000018461822FFF762FF046001462846BDE834
:100F1000384000F007BB38BDD0230120483C000812
:100F2000F8270120B823012000B59BB0EFF3098119
:100F300068226846FFF724FFEFF30583044B9A6BA2
:100F4000DA6A9A6A9A6A9A6A9A6A9A6A9B6AFEE75F
:100F500000ED00E000B59BB0EFF309816822684620
:100F6000FFF70EFFEFF30583044B9A6B9A6A9A6AB8
:100F70009A6A9A6A9A6A9B6AFEE700BF00ED00E0EF
:100F800000B59BB0EFF3098168226846FFF7F8FED1
:100F9000EFF30583034B5A6B9A6A9A6A9A6A9A6AC4
:100FA0009B6AFEE700ED00E0FEE7000030B5094D6A
:100FB0000A4491420DD011F8013B5840082340F3F8
:100FC0000004013B2C4013F0FF0384EA5000F6D1EB
:100FD000EFE730BD2083B8ED72B6202383F311888C
:100FE00062B67047026843681143016003B1184755
:100FF00070470000024A136843F0C0031360704753
:101000000010014013B50E4C204600F07FFA04F1A9
:1010100014000C49009400234FF4807200F044F94E
:10102000094B0A4900944FF4807204F1380000F033
:10103000B9F9074A074BC4E9172302B010BD00BF36
:10104000D423012040240120F50F00084025012071
:101050000010014000F36F0630B5037C214C0029DD
:1010600018BF0C46012B0CD11F4B984209D11F4BC6
:101070005A6C42F010025A645A6E42F010025A66DC
:101080005B6E2268036EC16D846603EB5203B3FB93
:10109000F2F36268150442BF23F0070503F007036B
:1010A00043EA4503CB60A36843F040034B60E36829
:1010B00043F001038B6042F4967343F001030B602D
:1010C0004FF0FF330B62510505D512F0102205D009
:1010D000B2F1805F04D080F8643030BD7F23FAE73E
:1010E0003F23F8E7503C0008D42301200038024099
:1010F0002DE9F047C66D3768F4693462210705466B
:1011000017D014F0080118BF8021E20748BF41F052
:101110002001A30748BF41F04001600748BF41F4E8
:101120008071281DFFF758FFFFF75CFF002383F352
:101130001188E20509D54FF40071281DFFF74CFF17
:10114000FFF750FF002383F311884FF0000914F0DC
:10115000200835D13B0614D505F13809200610D5F5
:101160004846FFF739FF00F04FF9002835DA08212B
:10117000281DFFF737FF27F080033360002383F338
:101180001188790613D5620611D5FFF725FFD5E939
:1011900013239A4208D12B6C33B11021281D27F05C
:1011A0004007FFF71FFF3760002383F31188E30632
:1011B00018D5AA6E1369ABB1BDE8F047506918475E
:1011C000FFF70AFF736A95F864102846194000F08B
:1011D000B5F989F31188F469B9E7B06288F3118829
:1011E000F469BBE7BDE8F08772B6202383F311886A
:1011F00062B67047F8B5154682680669AA420B4682
:10120000816938BF8568761AB54204460BD2184604
:101210002A46FFF7B5FDA3692B44A361A3685B1BB6
:10122000A3602846F8BD0CD918463246FFF7A8FD42
:10123000AF1BE1683A463044FFF7A2FDE3683B4448
:10124000EBE718462A46FFF79BFDE368E5E7000059
:1012500083689342F7B51546044638BF8568D0E9E0
:101260000460361AB5420BD22A46FFF789FD63693E
:101270002B446361A36828465B1BA36003B0F0BDE9
:101280000DD932460191FFF77BFD0199E068AF1B54
:101290003A463144FFF774FDE3683B44E9E72A46E8
:1012A000FFF76EFDE368E4E710B50A440024C3616C
:1012B000029B8460C0E90000C0E90511C1600261C1
:1012C000036210BD08B5D0E90532934201D18268AE
:1012D00082B98268013282605A1C42611970D0E979
:1012E00004329A4224BFC3684361002100F0D6FE55
:1012F000002008BD4FF0FF30FBE7000070B504464A
:101300000D46FFF771FFA668A6B1A368A269013B6D
:10131000A360531CA36115782269934224BFE3683C
:10132000A361E3690BB120469847002383F311883A
:10133000284607E02946204600F0A0FE0028E2DA11
:1013400086F3118870BD00002DE9F84FD0F81CA07D
:101350009946FFF749FF04460E46904615464FF062
:10136000000B65B12A4631462046FFF743FF07468A
:1013700060B94946204600F081FE0028F1D00023E4
:1013800083F31188A8EB0500BDE8F88FBAF1000FD0
:1013900001D02046D0478BF31188ED1B3E44FFF768
:1013A00023FFDEE7C0E90511C160C3611144009B62
:1013B0008260C0E90000016103627047F8B504462D
:1013C0000D461646FFF710FFA768A7B1A368013BBB
:1013D000A36063695A1C62611D70D4E904329A42A9
:1013E00024BFE3686361E3690BB12046984700209E
:1013F00080F3118807E03146204600F03FFE0028C8
:10140000E2DA87F31188F8BDD0E905239A4210B5D6
:1014100001D182687AB98268013282605A1C826185
:101420001C7803699A4224BFC3688361002100F0DD
:1014300035FE204610BD4FF0FF30FBE72DE9F84F99
:10144000D0F81CA09946FFF7CFFE04460E46904602
:1014500015464FF0000B65B12A4631462046FFF78E
:10146000F7FE074660B94946204600F007FE00280F
:10147000F1D0002383F31188A8EB0500BDE8F88FB5
:10148000BAF1000F01D02046D0478BF31188ED1B35
:101490003E44FFF7A9FEDEE772B6202383F31188EE
:1014A00062B67047026843681143016003B1184790
:1014B000704700001430FFF747BF00004FF0FF33C4
:1014C0001430FFF741BF00003830FFF7B7BF00000E
:1014D0004FF0FF333830FFF7B1BF00001430FFF793
:1014E0000DBF00004FF0FF311430FFF707BF0000C1
:1014F0003830FFF763BF00004FF0FF323830FFF79E
:101500005DBF000000207047FFF77CBD044B036007
:101510000023C0E90233436001230374704700BF16
:10152000683C000810B50446FFF7B6FFFFF794FDCE
:1015300002232374002383F3118810BD38B5C369D7
:1015400004460D461BB904210844FFF7ABFF2946AA
:1015500004F11400FFF7B6FE002806DA201D4FF450
:101560008061BDE83840FFF79DBF38BD72B62023CB
:1015700083F3118862B670470268436811430160C3
:1015800003B118477047000013B5446BD4F8943486
:101590001A681178042915D1217C022912D11979F0
:1015A000128901238B4013420CD101A904F14C0094
:1015B00001F0AEFFD4F89444019B217902462068E3
:1015C00000F0DAF902B010BD143001F033BF0000B2
:1015D0004FF0FF33143001F02DBF00004C3002F00B
:1015E00003B800004FF0FF334C3001F0FDBF0000A6
:1015F000143001F003BF00004FF0FF31143001F050
:10160000FDBE00004C3001F0CFBF00004FF0FF32B4
:101610004C3001F0C9BF00000020704710B5D0F871
:1016200094341A6811780429044617D1017C0229E0
:1016300014D15979528901238B4013420ED11430B1
:1016400001F096FE024648B1D4F894444FF48073FA
:1016500061792068BDE8104000F07CB910BD000041
:10166000406BFFF7DBBF0000704700007FB5124BF7
:10167000036000234360C0E90233012502260F4BBB
:10168000057404460290019300F1840229460096F5
:101690004FF48073143001F047FE094B0294CDE9FA
:1016A000006304F523724FF48073294604F14C0063
:1016B00001F00AFF04B070BD903C000861160008FC
:1016C0008915000808B50A68FFF750FF0B7902EB8F
:1016D000830318624B790D3342F823008B7913B1E1
:1016E00002EB8302106202230374C0F894140023F7
:1016F00083F3118808BD000038B5037F044613B199
:1017000090F85430ABB9201D01250221FFF734FFBA
:1017100004F1140025776FF0010100F0CBFC84F890
:10172000545004F14C006FF00101BDE8384000F066
:10173000C1BC38BD10B5012104460430FFF71CFFC1
:101740000023237784F8543010BD000038B50446D8
:101750000025143001F000FE04F14C00257701F063
:10176000CBFE201D84F854500121FFF705FF2046D1
:10177000BDE83840FFF752BF90F85C3003F06003DB
:10178000202B07D190F85D20212A4FF0000303D8C9
:101790001F2A06D800207047222AFBD1C0E9143343
:1017A00003E0034A02650722426583650120704712
:1017B0003822012037B5D0F894341A6811780429FA
:1017C00004461AD1017C022917D119791289012303
:1017D0008B40134211D100F14C05284601F04AFF1D
:1017E00058B101A9284601F093FED4F89444019B16
:1017F00021790246206800F0BFF803B030BD000038
:10180000F0B500EB810385B01E6A04460D46F6B1C3
:1018100004EB8507301D0821FFF7A8FEFFF7ACFE9B
:10182000FB685B691B6806F14C001BB1019001F07D
:101830007DFE019803A901F06BFE024648B1039BAF
:101840002946204600F098F8002383F3118805B05C
:10185000F0BDFB685A691268002AF5D01B8A013B6B
:101860001340F1D104F15C02EAE700000D3138B514
:1018700050F82140D4B1FFF779FED4F894241368CE
:10188000527903EB8203DB689B695D6845B10421F3
:101890006018FFF771FE294604F1140001F072FD93
:1018A0002046FFF7BBFE002383F3118838BD0000FC
:1018B0007047000072B6202383F3118862B6704728
:1018C00001F0F8B810B501230446282200F8243BA3
:1018D0000021FFF77BFA0023C4E9013310BD0000AB
:1018E00038B50025FFF7E6FF0446C0E90355C0E917
:1018F0000555C0E90755416001F0ECF8022323705B
:1019000085F3118838BD000070B500EB81030546F2
:101910005069DA600E46144618B110220021FFF714
:1019200055FAA06918B110220021FFF74FFA31468D
:101930002846BDE8704001F097B90000826802F0C7
:10194000011282600022C0E90422C0E9062202627C
:1019500001F016BAF0B400EB81044789E468012570
:10196000A4698D403D43458123600023A2606360EC
:10197000F0BC01F031BA0000F0B400EB810407893B
:10198000E468012564698D403D430581236000239F
:10199000A2606360F0BC01F0ADBA000070B5022334
:1019A000002504460370C0E90255C0E90455C0E9AA
:1019B00006554566056280F84C5001F0F1F8636801
:1019C0001B6823B129462046BDE87040184770BD0A
:1019D000037880F868300523037043681B6810B5EE
:1019E00004460BB1042198470023A36010BD0000FA
:1019F00090F86820436802701B680BB105211847F6
:101A00007047000070B590F84C30044613B10023C5
:101A100080F84C3004F15C02204601F0D3F9636891
:101A20009B68B3B994F85C3013F0600533D00021A3
:101A3000204601F03FFC0021204601F031FC6368A4
:101A40001B6813B1062120469847062384F84C30C2
:101A500070BD204698470028E4D0B4F86230626D2B
:101A60009A4288BF636594F95C30656D002B80F203
:101A70000281002D00F0F180092384F84C30FFF73B
:101A800019FF0021D4E914232046FFF775FF002336
:101A900083F31188DCE794F85D2003F07F0343EAC9
:101AA000022340F20232934200F0C48021D8B3F501
:101AB000807F48D00DD8012B3FD0022B00F09280C0
:101AC000002BB4D104F16402226502226265A36591
:101AD000C3E7B3F5817F00F09A80B3F5407FA6D1CC
:101AE00094F85E30012BA2D1B4F8643043F00203C5
:101AF00032E0B3F5006F4DD017D8B3F5A06F31D0F9
:101B0000A3F5C063012B92D8636894F85E205E68E9
:101B100094F85F10B4F860302046B047002886D0B3
:101B200043682365036863651AE0B3F5106F36D028
:101B300040F6024293427FF47AAF5B4B2365022367
:101B400063650023C3E794F85E30012B7FF46FAF29
:101B5000B4F8643023F00203C4E91455A4F86430E7
:101B6000A5657AE7B4F85C30B3F5A06F0ED194F8B0
:101B70005E3084F86630204601F06AF863681B68BE
:101B800013B1012120469847032323700023C4E9A1
:101B900014339CE704F1670323650123C3E723782B
:101BA000042B0FD12046FFF785FEFFF7C7FE85F314
:101BB00011880321636884F8675021701B680BB19A
:101BC0002046984794F85E30002BDFD084F86730C9
:101BD0000423237063681B68002BD7D002212046A2
:101BE0009847D3E794F860301D0603F00F012046B4
:101BF0000AD501F0D9F8012804D002287FF417AFE4
:101C00002A4B9BE72A4B99E701F0C0F8F3E794F8D9
:101C10005E30002B7FF40BAF94F8603013F00F01AF
:101C2000B4D01A06204602D501F058FBAEE701F009
:101C30004BFBABE794F85E30002B7FF4F8AE94F8E2
:101C4000603013F00F01A1D01B06204602D501F031
:101C500031FB9BE701F024FB98E7142384F84C3018
:101C6000FFF728FE2A462B4629462046FFF772FE3C
:101C700085F31188ECE65DB1152384F84C30FFF74D
:101C800019FE0021D4E914232046FFF763FEFEE687
:101C90000B2384F84C30FFF70DFE2A462B462946CD
:101CA0002046FFF769FEE3E7C03C0008B83C0008A7
:101CB000BC3C000838B590F84C300446002B3CD0B2
:101CC000063BDAB20F2A32D80F2B30D8DFE803F008
:101CD000352F2F0821302F2F2F2F2F2F2F2F353536
:101CE000456DB0F862309D4213D2C3681B8AB5FBC4
:101CF000F3F203FB125565B9FFF7DCFD2A462B46CC
:101D00002946FFF739FE85F311880A2384F84C3001
:101D10000DE0142384F84C30FFF7CCFD00231A4665
:101D200019462046FFF716FE002383F3118838BDBD
:101D3000836D03B198470023E8E70021204601F0B6
:101D4000B9FA0021204601F0ABFA63681B6813B1B1
:101D50000621204698470623D8E7000010B590F8E2
:101D60004C30142B044628D017D8062B05D001D8A8
:101D70001BB110BD093B022BFBD80021204601F00E
:101D800099FA0021204601F08BFA63681B6813B1B1
:101D9000062120469847062318E0152BE9D10B238E
:101DA00080F84C30FFF786FD00231A461946FFF7EE
:101DB000E3FD002383F31188DBE7C3689B695B685D
:101DC000002BD6D1836D03B19847002384F84C30A3
:101DD000CFE70000024B0022C3E900339A6070474E
:101DE00040260120002303748268054B1B68996814
:101DF0009142FBD25A68036042601060586070479D
:101E00004026012008B572B6202383F3118862B6FC
:101E1000037C032B05D0042B0DD02BB983F3118841
:101E200008BD436900221A604FF0FF334361FFF79A
:101E3000D9FF0023F2E7D0E9003213605A60F3E7DC
:101E4000002303748268054B1B6899689142FBD894
:101E50005A68036042601060586070474026012055
:101E6000054B19690874186802681A605360186194
:101E700001230374FEF75ABA4026012030B54B1CEB
:101E80000B4D87B0044610D02B690A4A01A800F018
:101E90002DF92046FFF7E4FF049B13B101A800F0E1
:101EA00061F92B69586907B030BDFFF7D9FFF8E732
:101EB00040260120051E000838B50C4D41612B69F4
:101EC00081689A689142044603D8BDE83840FFF71C
:101ED00089BF1846FFF7B4FF01232C610146237424
:101EE0002046BDE83840FEF721BA00BF4026012059
:101EF000044B1A681B6990689B68984294BF002045
:101F0000012070474026012010B5084C2368206945
:101F10001A6822605460012223611A74FFF790FF4F
:101F200001462069BDE81040FEF700BA40260120B6
:101F300008B5FFF7DDFF18B1BDE80840FFF7E4BFC3
:101F400008BD0000FFF7E0BFFEE7000010B50C4C35
:101F5000FFF740FF00F0BCF80A498022204600F05D
:101F600043F8012344F8180C037400F07DFC0023AF
:101F700083F3118862B60448BDE8104000F054B8FD
:101F800068260120C43C0008D43C000800F024B9B5
:101F9000EFF3118030B9EFF30583202272B682F39C
:101FA000118862B67047000010B530B9EFF30584B0
:101FB000C4F3080414B180F3118810BDFFF7B8FF13
:101FC00084F31188F9E70000034A516853685B1AEB
:101FD0009842FBD8704700BF001000E072B6202383
:101FE00083F3118862B670478260022202827047D2
:101FF0008368A3F17C0243F80C2C026943F83C2C63
:10200000426943F8382C074A43F81C2CC26843F84D
:10201000102C022203F8082C002203F8072CA3F14D
:10202000180070474503000810B5FFF7D7FFFFF70A
:10203000DFFF00210446FFF73FFF002383F31188F1
:10204000204610BD024B1B6958610F20FFF708BFE7
:102050004026012008B5FFF7C1FFBDE80840FFF7A3
:10206000F1BF000008B501460820FFF7B7FFFFF7F2
:1020700005FF002383F3118808BD000049B1064B1A
:1020800042681B6918605A60136043600420FFF7C0
:10209000F5BE4FF0FF30704740260120036898429C
:1020A00006D01A680260506059611846FFF79ABE60
:1020B0007047000038B504460D462068844200D1C0
:1020C00038BD036823605C604561FFF78BFEF4E771
:1020D000054B03F11402C3E905224FF0FF31002242
:1020E000C3E90712704700BF4026012070B51C4E9F
:1020F000C0E9032305460C4601F0EEFA334653F8D7
:10210000142F9A420DD13062C5E901242A600A2CAD
:102110002CBF00190A30C6E90555BDE8704001F032
:10212000C9BA316A431AE31838BF1C469368A34200
:1021300002D9081901F0CCFA73699A6894420CD854
:102140005A68AC602B606A6015609A685D60121B0B
:102150009A604FF0FF33F36170BD1B68A41AECE77F
:102160004026012038B51B4C636998420DD0D0E958
:10217000003213605A6000228168C2609A680A4483
:102180009A604FF0FF33E36138BD2246036842F89E
:10219000143F002193425A60C16003D1BDE838402A
:1021A00001F090BA9A688168256A0A449A6001F041
:1021B00093FA63699A68411B8A42E5D9AB181D1AE4
:1021C000092D206A98BF01F10A02BDE83840104489
:1021D00001F07EBA402601202DE9F041194C00277C
:1021E00004F11406656901F077FA236AAA68C11A36
:1021F0008A4217D813442362D5E9003213605A602B
:102200006369D5F80C80EF60B34201D101F05AFA4E
:1022100087F311882869C04772B6202383F3118899
:1022200062B6DFE76169B14209D013441B1ABDE809
:10223000F0410A2B2CBFC0180A3001F049BABDE8A2
:10224000F08100BF4026012000207047FEE700001B
:10225000704700004FF0FF307047000072B6202337
:1022600083F3118862B6704702290CD0032904D089
:102270000129074818BF00207047032A05D80548E0
:1022800000EBC2007047044870470020704700BF51
:10229000B83D0008482201206C3D000870B59AB096
:1022A0000546084601A9144600F0BEF801A8FEF74D
:1022B00085FD431C5B00C5E9003400222370032325
:1022C0006370C6B201AB02341046D1B28E4204F143
:1022D000020401D81AB070BD13F8011B04F8021CE7
:1022E00004F8010C0132F0E708B50448FFF7B6FF27
:1022F000FFF760FA002383F3118808BDF827012057
:1023000090F85C3003F01F02012A07D190F85D209D
:102310000B2A03D10023C0E9143315E003F0600356
:10232000202B08D1B0F860302BB990F85D20212A1D
:1023300003D81F2A04D8FFF71FBA222AEBD0FAE7E6
:10234000034A02650722426583650120704700BF8A
:102350003F22012007B5052916D8DFE801F018153E
:102360000318181E104A0121FFF778FF0190FFF7AC
:10237000CBFA01980D4A0221FFF7C6FA0C48FFF785
:10238000E5F9002383F3118803B05DF804FB0848E6
:10239000FFF764FFFFF7B0F9F3E70548FFF75EFFCB
:1023A000FFF7C8F9EDE700BF0C3D0008303D00081D
:1023B000F827012038B50C4D0C4C0D492A4604F184
:1023C0000800FFF76BFF05F1CA0204F1100009498C
:1023D000FFF764FF05F5CA7204F118000649BDE86D
:1023E0003840FFF75BBF00BFC02C0120482201200E
:1023F000EC3C0008F63C0008013D000870B50446BE
:1024000008460D46FEF7DAFCC6B2204601340378D2
:102410000BB9184670BD32462946FEF7BBFC0028B2
:10242000F3D10120F6E700002DE9F84F05460C46F0
:10243000FEF7C4FC2B49C6B22846FFF7DFFF08B100
:102440000236F6B228492846FFF7D8FF08B1103601
:10245000F6B2632E0DD8DFF88C80DFF88C90234F16
:10246000DFF890A0DFF890B02E7846B92670BDE86E
:10247000F88F29462046BDE8F84F01F0C7BB252E4E
:102480002BD1072241462846FEF784FC58B9DBF8D9
:1024900000302360DBF8043063609BF8083023725F
:1024A00007350934E0E7082249462846FEF772FC62
:1024B00098B90F4BA21C197809090232C95D02F8BC
:1024C000041C13F8011B01F00F015345C95D02F80C
:1024D000031CF0D118340835C6E704F8016B013548
:1024E000C2E700BFD83D0008013D0008EA3D0008F2
:1024F00020F4F01F2CF4F01FE03D0008BFF34F8FD5
:10250000024AD368DB03FCD4704700BF003C0240A2
:1025100008B5074B1B7853B9FFF7F0FF054B1A6955
:10252000002ABFBF044A5A6002F188325A6008BDCF
:102530001E2F0120003C02402301674508B5054BD2
:102540001B7833B9FFF7DAFF034A136943F00043FE
:10255000136108BD1E2F0120003C02400728F0B582
:1025600016D80C4C0C4923787BB90C4D0E46082329
:102570004FF0006255F8047B46F8042B013B13F042
:10258000FF033A44F6D10123237051F82000F0BD37
:102590000020FCE7402F0120202F0120FC3D0008F7
:1025A000014B53F820007047FC3D0008082070479D
:1025B000072810B5044601D9002010BDFFF7CEFF53
:1025C000064B53F824301844C21A0BB90120F4E723
:1025D00012680132F0D1043BF6E700BFFC3D000871
:1025E000072838B5044628D8FFF7D2FCFFF786FF46
:1025F000FFF78EFF124AF323D360E300DBB243F40C
:10260000007343F002031361136943F480331361D1
:1026100005462046FFF772FFFFF7A0FF094B53F86E
:10262000241000F0E9F82846FFF788FFFFF7BCFC0C
:102630002046BDE83840FFF7BBBF002038BD00BFD3
:10264000003C0240FC3D000812F001032DE9F0417E
:1026500005460E4614464BD18218B2F1016F61D87F
:10266000314B1B6813F001035CD0304FFFF790FC37
:10267000FFF74EFFF323FB60FFF740FF314640F2C8
:102680000128032C18D824F00104284E0C446D1A9C
:1026900040F20118A142336905EB01072AD123F06A
:1026A00001033361FFF74AFFFFF77EFC0120BDE81D
:1026B000F081043C0435E4E7AB07E4D13B6923F443
:1026C00040733B613B6943EA08033B6151F8046B8B
:1026D0002E60BFF34F8FFFF711FF2B689E42E8D0AB
:1026E0003B6923F001033B61FFF728FFFFF75CFC28
:1026F0000020DCE723F440733361336943EA0803C5
:1027000033610B883B80BFF34F8FFFF7F7FE3F88A5
:1027100031F8023BBFB2BB42BCD0336923F00103A6
:102720003361E1E71846C2E700380240003C02404E
:10273000084908B50B7828B11BB9FFF7E9FE01235A
:102740000B7008BD002BFCD0BDE808400870FFF7F7
:10275000F5BE00BF1E2F012010B50244064BD2B2B9
:10276000904200D110BD441C00B253F8200041F843
:10277000040BE0B2F4E700BF502800400F4B30B527
:102780001C6F240407D41C6F44F400741C671C6F76
:1027900044F400441C670A4C236843F480732360AC
:1027A0000244084BD2B2904200D130BD441C00B26A
:1027B00051F8045B43F82050E0B2F4E700380240DF
:1027C000007000405028004007B5012201A90020F8
:1027D000FFF7C2FF019803B05DF804FB13B5044690
:1027E000FFF7F2FFA04205D0012201A900200194C9
:1027F000FFF7C4FF02B010BD0144BFF34F8F064B7B
:10280000884204D3BFF34F8FBFF36F8F7047C3F875
:102810005C022030F4E700BF00ED00E0034B1A68D3
:102820001AB9034AD2F874281A607047442F01205D
:102830000030024008B5FFF7F1FF024B1868C0F303
:10284000407008BD442F0120EFF3098305494A6B0E
:1028500022F001024A63683383F30988002383F37B
:102860001188704700EF00E0202080F3118862B6E5
:102870000D4B0E4AD96821F4E0610904090C0A43A2
:10288000DA60D3F8FC200A4942F08072C3F8FC20D9
:10289000084AC2F8B01F116841F00101116010220E
:1028A000DA7783F82200704700ED00E00003FA05B4
:1028B00055CEACC5001000E010B572B6202383F3EE
:1028C000118862B60E4B5B6813F4006314D0F1EE0E
:1028D000103AEFF30984683C4FF08073E361094BD1
:1028E000DB6B236684F30988FFF702FB10B1064B0C
:1028F000A36110BD054BFBE783F31188F9E700BF27
:1029000000ED00E000EF00E0570300085A03000864
:1029100070B5BFF34F8FBFF36F8F1A4A0021C2F813
:102920005012BFF34F8FBFF36F8F536943F40033DF
:102930005361BFF34F8FBFF36F8FC2F88410BFF3A3
:102940004F8FD2F88030C3F3C900C3F34E335B011D
:1029500043F6E07403EA0406014646EA817501394C
:10296000C2F86052F9D2203B13F1200FF2D1BFF32D
:102970004F8F536943F480335361BFF34F8FBFF3DD
:102980006F8F70BD00ED00E0FEE700000A4B0B48C2
:102990000B4A90420BD30B4BDA1C121AC11E22F0C9
:1029A00003028B4238BF00220021FEF70FBA53F812
:1029B000041B40F8041BECE7E83F000858300120F6
:1029C00058300120583001207047000070B5D0E920
:1029D0001B439E6800224FF0FF3504EB4213510168
:1029E000D3F800090028BEBFD3F8000940F08040AA
:1029F000C3F80009D3F8000B0028BEBFD3F8000BC2
:102A000040F08040C3F8000B013263189642C3F8CF
:102A10000859C3F8085BE0D24FF00113C4F81C3822
:102A200070BD00001D4B03EB80022DE9F043D2F88E
:102A30000CC0DD6EDCF81420461CD2F800E005EB7B
:102A4000063605EB4018516871450AD3D5F834387D
:102A5000012202FA00F023EA0000C5F83408BDE8BC
:102A6000F083BCF81040AEEB0103A34228BF23461D
:102A7000D8F81849A4B2B3EB840FF0D89468A4F145
:102A8000040959F8047F3760A4EB09071F44042F99
:102A9000F7D81C440B4494605360D4E7482F0120BE
:102AA000890141F02001016103699B06FCD41220D9
:102AB000FFF78ABA10B5054C2046FEF703FF4FF02A
:102AC000A043E366024B236710BD00BF482F0120DF
:102AD000403E000870B50378012B054650D12A4BC3
:102AE000C46E98421BD1294B5A6B42F080025A6344
:102AF0005A6D42F080025A655A6D5A6942F080025E
:102B00005A615A6922F080025A610E2143205B69A2
:102B100000F0EEFB1E4BE3601E4BC4F800380023B0
:102B2000C4F8003EC0232360EE6E4FF40413A36389
:102B30003369002BFCDA012333610C20FFF744FAE0
:102B40003369DB07FCD41220FFF73EFA3369002B10
:102B5000FCDA0026A6602846FFF738FF6B68C4F849
:102B60001068DB68C4F81468C4F81C684BB90A4BD9
:102B7000A3614FF0FF336361A36843F00103A360D7
:102B800070BD064BF4E700BF482F0120003802401B
:102B90004014004003002002003C30C0083C30C01C
:102BA000F8B5C46E054600212046FFF779FF296F6E
:102BB00000234FF001128F68C4F834384FF00066DC
:102BC000C4F81C284FF0FF3004EB431201339F423E
:102BD000C2F80069C2F8006BC2F80809C2F8080B15
:102BE000F2D20B68EA6E6B67636210231361166999
:102BF00016F01006FBD11220FFF7E6F9D4F80038E2
:102C000023F4FE63C4F80038A36943F4402343F07F
:102C10001003A3610923C4F81038C4F814380A4B10
:102C2000EB604FF0C043C4F8103B084BC4F8003BC6
:102C3000C4F81069C4F800396B6F03F1100243F453
:102C400080136A67A362F8BD1C3E00084080001034
:102C5000C26E90F86610D2F8003823F4FE6343EA9F
:102C60000113C2F8003870472DE9F84300EB8103E7
:102C7000C56EDA68166806F00306731E022B05EBB4
:102C800041130C4680460FFA81F94FEA41104FF08C
:102C90000001C3F8101B4FF0010104F1100398BFAD
:102CA000B60401FA03F391698EBF334E06F18056E4
:102CB00006F5004600293AD0578A04F15801490127
:102CC00037436F50D5F81C180B43C5F81C382B1828
:102CD0000021C3F8101953690127611EA7409BB357
:102CE000138A928B9B08012A88BF5343D8F874201B
:102CF000981842EA034301F1400205EB8202C8F84A
:102D00007400214653602846FFF7CAFE08EB89008D
:102D1000C3681B8A43EA8453483464011E432E511E
:102D2000D5F81C381F43C5F81C78BDE8F88305EBBF
:102D30004917D7F8001B21F40041C7F8001BD5F84C
:102D40001C1821EA0303C0E704F13F0305EB8303EA
:102D50000A4A5A6028462146FFF7A2FE05EB4910B1
:102D6000D0F8003923F40043C0F80039D5F81C38F6
:102D700023EA0707D7E700BF008000100004000225
:102D8000026F12684267FFF721BE00005831C36E20
:102D900049015B5813F4004004D013F4001F0CBF2A
:102DA00002200120704700004831C36E49015B5882
:102DB00013F4004004D013F4001F0CBF02200120C4
:102DC0007047000000EB8101CB68196A0B68136043
:102DD0004B6853607047000000EB810330B5DD683D
:102DE000AA691368D36019B9402B84BF40231360CC
:102DF0006B8A1468C26E1C44013CB4FBF3F4634359
:102E0000033323F0030302EB411043EAC44343F0CE
:102E1000C043C0F8103B2B6803F00303012B09B239
:102E20000ED1D2F8083802EB411013F4807FD0F8AD
:102E3000003B14BF43F0805343F00053C0F8003B05
:102E400002EB4112D2F8003B43F00443C2F8003BCE
:102E500030BD00002DE9F041254DEE6E06EB40132C
:102E60000446D3F8087BC3F8087B38070AD5D6F8A0
:102E70001438190706D505EB84032146DB6828467C
:102E80005B689847FA0721D5D6F81438DB071DD5BB
:102E900005EB8403D968DCB98B69488A5A68B2FBB0
:102EA000F0F600FB16229AB91868DA6890420FD241
:102EB000121AC3E9002472B6202383F3118862B684
:102EC0000B482146FFF788FF84F31188BDE8F081A5
:102ED000012303FA04F26B8923EA02036B81CB68B6
:102EE000002BF3D021460248BDE8F041184700BF4F
:102EF000482F012000EB810370B5DD68C36E6C695B
:102F00002668E6604A0156BB1A444FF40020C2F816
:102F100010092A6802F00302012A0AB20ED1D3F87E
:102F2000080803EB421410F4807FD4F8000914BFA2
:102F300040F0805040F00050C4F8000903EB42120A
:102F4000D2F8000940F00440C2F80009D3F8340870
:102F5000012202FA01F10143C3F8341870BD19B916
:102F6000402E84BF4020206020682E8A8419013CB6
:102F7000B4FBF6F440EAC44040F000501A44C6E7FF
:102F8000F8B504461F48C56E05EB4413D3F808692D
:102F9000C3F80869F10719D5D5F81038DA0715D53F
:102FA00000EB8403D9684B691F68DA6897421AD22C
:102FB000D21B00271A605F6072B6202383F311884A
:102FC00062B62146FFF796FF87F31188330617D5BF
:102FD000D5F834280123A340134211D02046BDE880
:102FE000F840FFF71FBD012303FA04F2038923EA27
:102FF000020303818B68002BE8D021469847E5E760
:10300000F8BD00BF482F01202DE9F74FA34CE66E15
:103010007569B3691D4015F48058756107D0204665
:10302000FEF7BCFC03B0BDE8F04FFFF745BC002D38
:1030300012DAD6F8003E99489F071EBFD6F8003E28
:1030400023F00303C6F8003ED6F8043823F001034A
:10305000C6F80438FEF7CCFC280505D58F48FFF7E5
:10306000B5FC8E48FEF7B4FCA9040CD5D6F8083898
:1030700013F0060FF36823F470530CBF43F410539E
:1030800043F4A053F3602A0704D56368DB680BB1EF
:1030900082489847EB0200F18A80AF0227D5D4F826
:1030A0006C90DFF8F8B100274FF0010A09EB4712E6
:1030B000D2F8003B03F44023B3F5802F11D1D2F8AE
:1030C000003B002B0DDA62890AFA07F322EA0303B8
:1030D000638104EB8703DB68DB6813B1394658462C
:1030E0009847236F01379B68FFB29F42DED9E806FD
:1030F00018D5E76E3A6AC2F30A1002F00F0302F421
:10310000F012B2F5802F00F09D80B2F5402F09D16A
:1031100004EB83030022DB681B6A07F580579042AB
:1031200040F082802B03D6F818481DD5E70302D55E
:103130000020FFF78FFEA60302D50120FFF78AFECD
:10314000600302D50220FFF785FE210302D503208C
:10315000FFF780FEE20202D50420FFF77BFEA30208
:1031600002D50520FFF776FE6F037FF55BAFE6071C
:1031700002D50020FFF704FFA50702D50120FFF7C5
:10318000FFFE600702D50220FFF7FAFE210702D5F5
:103190000320FFF7F5FEE20602D50420FFF7F0FE5C
:1031A000A3067FF53FAF0520FFF7EAFE3AE7E36E9F
:1031B000DFF8E8B0019300274FF0010A236F9B6806
:1031C0005FFA87F999453FF668AF019B03EB491316
:1031D000D3F8002902F44022B2F5802F22D1D3F88F
:1031E0000029002A1EDAD3F8002942F09042C3F8E1
:1031F0000029D3F80029002AFBDBE06E4946FFF7DF
:103200004FFC22890AFA09F322EA0303238104EB23
:103210008903DB689B6813B149465846984748467E
:10322000FFF700FC0137C9E7910708BFD7F8008016
:10323000072A98BF03F8018B02F1010298BF4FEAF9
:1032400018286CE7023304EB830207F580575268B5
:10325000D2F818C0DCF80820DCE9001CA1EB0C0C4B
:10326000002188420AD104EB830463689B699A6851
:1032700002449A605A6802445A6053E711F0030FFF
:1032800008BFD7F800808C4588BF02F8018B01F198
:10329000010188BF4FEA1828E3E700BF482F01204B
:1032A000C36E03EB4111D1F8003B43F40013C1F8A6
:1032B000003B7047C36E03EB4111D1F8003943F472
:1032C0000013C1F800397047C36E03EB4111D1F808
:1032D000003B23F40013C1F8003B7047C36E03EBBF
:1032E0004111D1F8003923F40013C1F800397047B7
:1032F00000F1604303F561430901C9B283F800138B
:10330000012200F01F039A4043099B0003F1604330
:1033100003F56143C3F880211A60704772B6202319
:1033200083F3118862B6704730B5039C0172043391
:1033300004FB0325C0E90653049B03630021059B9E
:10334000C160C0E90000C0E90422C0E90842C0E948
:103350000A11436330BD0000416A0022C0E9041134
:10336000C0E90A22C2606FF00101FEF7A3BE0000AF
:10337000D0E90432934201D1C2680AB9181D7047DE
:103380000020704703691960C2680132C260C269D7
:10339000134482690361934224BF436A036100219D
:1033A000FEF77CBE38B504460D46E3683BB1626962
:1033B000131D1268A3621344E362002007E0237A1E
:1033C00033B929462046FEF759FE0028EDDA38BD0C
:1033D0006FF00100FBE70000C368C269013BC360F6
:1033E0004369134482694361934224BF436A436142
:1033F00000238362036B03B11847704770B5FFF772
:103400008DFF866A04463EB9FFF7CCFF054618B12A
:1034100086F31188284670BDA36AE26A13F8015B3F
:10342000A362934202D32046FFF7D6FF002383F323
:103430001188EFE72DE9F0479846FFF76FFF002569
:1034400004460E461746A946D4F828A0BAF1000F44
:1034500009D141462046FFF7A5FF20B18AF3118824
:103460002846BDE8F087D4E90A12A7EB050A521AEC
:10347000924528BF9246BAF1400F1BD9334601F15D
:10348000400251F8040B43F8040B9142F9D1A36AAE
:1034900040334036A3624035D4E90A239A4202D32E
:1034A0002046FFF799FF89F31188BD42D8D2FFF774
:1034B00035FFC9E730465246FDF762FCA36A534424
:1034C0005644A3625544E7E710B5029C01720433E9
:1034D00004FB0321C0E906130023C0E90A33039B60
:1034E0000363049BC460C0E90000C0E90422C0E992
:1034F0000842436310BD0000026AC260426AC0E92C
:1035000004220022C0E90A226FF00101FEF7D2BDB9
:10351000D0E904239A4201D1C26822B9184650F872
:10352000043B0B607047002070470000C368C2690D
:103530000133C3604369134482694361934224BFEA
:10354000436A43610021FEF7A9BD000038B5044677
:103550000D46E3683BB123691A1DA262E269134478
:10356000E362002007E0237A33B929462046FEF7BC
:1035700085FD0028EDDA38BD6FF00100FBE70000A3
:1035800003691960C268013AC260C2691344826962
:103590000361934224BF436A036100238362036B88
:1035A00003B118477047000070B5FFF7B7FE866A91
:1035B0000D46044611462EB9FFF7C8FF10B186F339
:1035C000118870BDA36A1D70A36AE26A0133934239
:1035D000A36204D3E16920460439FFF7D1FF00203C
:1035E00080F31188EDE700002DE9F0479946FFF7D9
:1035F00095FE002604460D469046B246A76A4FB98E
:1036000049462046FFF7A2FF20B187F311883046D4
:10361000BDE8F087D4E90A073A1AA8EB06079742F3
:1036200028BF1746402F1BD905F1400355F8042B3E
:1036300040F8042B9D42F9D1A36A4033A36240367F
:10364000D4E90A239A4204D3E16920460439FFF7FA
:1036500097FF8AF311884645D9D2FFF75FFECDE781
:1036600029463A46FDF78CFBA36A3B443D44A362DE
:103670003E44E5E7D0E904239A4217D1C3689BB1E1
:10368000836A8BB1043B9B1A0ED01360C368013B65
:10369000C360C3691A44836902619A4224BF436AC2
:1036A0000361002383620123184670470023FBE770
:1036B00000F094B84FF08043002258631A61022250
:1036C000DA6070474FF080430022DA6070470000F4
:1036D0004FF08043586370474FF08043586A7047FB
:1036E0004B6843608B688360CB68C3600B69436140
:1036F0004B6903628B6943620B680360704700008B
:1037000008B52C4B2C481A6940F2FF710A431A6124
:103710001A6922F4FF6222F007021A611A691A6B11
:103720000A431A631A6D0A431A65244A1B6D11462F
:10373000FFF7D6FF02F11C0100F58060FFF7D0FF14
:1037400002F1380100F58060FFF7CAFF02F1540171
:1037500000F58060FFF7C4FF02F1700100F58060A2
:10376000FFF7BEFF02F18C0100F58060FFF7B8FFA4
:1037700002F1A80100F58060FFF7B2FF02F1C40179
:1037800000F58060FFF7ACFF02F1E00100F580601A
:10379000FFF7A6FF02F1FC0100F58060FFF7A0FF34
:1037A00002F58C7100F58060FFF79AFFBDE80840D4
:1037B00000F08AB800380240000002404C3E000889
:1037C00008B500F003FAFEF7C1FBFFF727F8BDE8E4
:1037D0000840FEF7EFBD0000704700000F4B1A6C69
:1037E00042F001021A641A6E42F001021A660C4A93
:1037F0001B6E936843F0010393604FF080436B228C
:103800009A624FF0FF32DA6200229A615A63DA60FC
:103810005A6001225A611A60704700BF00380240A6
:10382000002004E04FF0804208B51169D3680B40D6
:10383000D9B2C9439B07116109D572B6202383F31E
:10384000118862B6FEF7A2FB002383F3118808BD3E
:103850001B4B1A696FEA42526FEA52521A611A6997
:10386000C2F30A021A614FF0FF301A695A695861AF
:1038700000215A6959615A691A6A62F080521A62C3
:103880001A6A02F080521A621A6A5A6A58625A6AAE
:1038900059625A6A0B4A106840F480701060186FC1
:1038A00000F44070B0F5007F1EBF4FF48030186701
:1038B0001967536823F40073536000F05FB900BFC9
:1038C0000038024000700040374B4FF080521A64BD
:1038D000364A4FF4404111601A6842F001021A6002
:1038E0001A689207FCD59A6822F003029A602E4B60
:1038F0009A6812F00C02FBD1196801F0F901196005
:103900009A601A6842F480321A601A689003FCD5F3
:103910005A6F42F001025A67234B5A6F9107FCD548
:10392000234A5A601A6842F080721A601F4B5A6824
:103930005204FCD51A6842F480321A605A68D003E7
:10394000FCD51A6842F400321A60184A5368990389
:10395000FCD5154B1A689201FCD5164A9A6040F2C4
:103960000112C3F88C200022C3F89020124A40F2C2
:1039700007331360136803F00F03072BFAD10A4BC8
:103980009A6842F002029A609A6802F00C02082AD1
:10399000FAD15A6C42F480425A645A6E42F4804220
:1039A0005A665B6E704700BF0038024000700040EE
:1039B000086C400900948838003C0240074A08B56A
:1039C000536903F00103536123B1054A13680BB136
:1039D00050689847BDE80840FEF76EBF003C0140C4
:1039E000D82F0120074A08B5536903F00203536139
:1039F00023B1054A93680BB1D0689847BDE80840E9
:103A0000FEF75ABF003C0140D82F0120074A08B5F5
:103A1000536903F00403536123B1054A13690BB1E1
:103A200050699847BDE80840FEF746BF003C01409A
:103A3000D82F0120074A08B5536903F008035361E2
:103A400023B1054A93690BB1D0699847BDE8084096
:103A5000FEF732BF003C0140D82F0120074A08B5CD
:103A6000536903F01003536123B1054A136A0BB184
:103A7000506A9847BDE80840FEF71EBF003C014071
:103A8000D82F0120164B10B55C6904F478725A6186
:103A9000A30604D5134A936A0BB1D06A984760060F
:103AA00004D5104A136B0BB1506B9847210604D50F
:103AB0000C4A936B0BB1D06B9847E20504D5094AC9
:103AC000136C0BB1506C9847A30504D5054A936C51
:103AD0000BB1D06C9847BDE81040FEF7EDBE00BFBB
:103AE000003C0140D82F0120194B10B55C6904F44B
:103AF0007C425A61620504D5164A136D0BB1506DB4
:103B00009847230504D5134A936D0BB1D06D9847A0
:103B1000E00404D50F4A136E0BB1506E9847A10410
:103B200004D50C4A936E0BB1D06E9847620404D54D
:103B3000084A136F0BB1506F9847230404D5054A08
:103B4000936F0BB1D06F9847BDE81040FEF7B4BE3D
:103B5000003C0140D82F012008B50348FDF7C8FA02
:103B6000BDE80840FEF7A8BED423012008B5FFF742
:103B700059FEBDE80840FEF79FBE0000062108B5CB
:103B80000846FFF7B5FB06210720FFF7B1FB06212A
:103B90000820FFF7ADFB06210920FFF7A9FB06214E
:103BA0000A20FFF7A5FB06211720FFF7A1FB06213E
:103BB0002820FFF79DFB07211C20FFF799FBBDE89C
:103BC00008400C212520FFF793BB000008B5FFF744
:103BD0003FFE00F00DF8FDF797FCFDF771FEFDF7D5
:103BE00043FDFFF7F9FDBDE80840FFF761BD0000A8
:103BF0000023054A19460133102BC2E9001102F1D6
:103C00000802F8D1704700BFD82F0120034611F8F1
:103C1000012B03F8012B002AF9D1704753544D337F
:103C200032463F3F3F3F3F3F0053544D33324637CC
:103C30005B347C355D780053544D333246375B3608
:103C40007C375D7800000000F8270120D423012094
:103C500000960000000000000000000000000000CE
:103C6000000000000000000000000000D114000867
:103C7000BD140008F9140008E5140008F114000848
:103C8000DD140008C9140008B51400080515000863
:103C900000000000E5150008D11500080D16000809
:103CA000F915000805160008F1150008DD150008D3
:103CB000C9150008191600080000000001000000E6
:103CC000000000006D61696E0000000069646C65B1
:103CD00000000000CC3C000880260120F8270120CD
:103CE00001000000491F00080000000041726475D7
:103CF00050696C6F740025424F415244252D424C4F
:103D0000002553455249414C2500000002000000A7
:103D100000000000011800086D1800084000400075
:103D2000902C0120A02C01200200000000000000C7
:103D30000300000000000000B118000800000000AF
:103D400010000000B02C0120000000000100000065
:103D500000000000482F0120010102005523000847
:103D60006922000801230008E9220008430000003E
:103D7000743D000809024300020100C0320904003A
:103D800000010202010005240010010524010001C8
:103D9000042402020524060001070582030800FF2F
:103DA00009040100020A00000007050102400000AA
:103DB000070581024000000012000000C03D00081D
:103DC00012011001020000400912415700020102D5
:103DD000030100000403090425424F415244250019
:103DE0004265617374463776320030313233343590
:103DF00036373839414243444546000000800000D0
:103E00000080000000800000008000000000020030
:103E10000000040000000400000004000000000096
:103E2000051A0008B51C00085D1D00084000400090
:103E3000C02F0120C02F012001000000D02F012041
:103E40008000000040010000050000000001A86A99
:103E500000000000AAAAAAAA00011464FFFF000043
:103E60000000000070A70A00000000000000000031
:103E7000AAAAAAAA00000000FFFF0000000000009C
:103E8000000000000000000400000000AAAAAAAA86
:103E900000000000FFDF0000000000000000000044
:103EA0000000000000000000AAAAAAAA000000006A
:103EB000FFFF000000000000000000000001000003
:103EC00000000000AAAAAAAA00010000FFFF00004B
:103ED00000000000000000000000000000000000E2
:103EE000AAAAAAAA00000000FFFF0000000000002C
:103EF000000000000000000000000000AAAAAAAA1A
:103F000000000000FFFF00000000000000000000B3
:103F100000000000000000000A0000000000000097
:103F2000030000000000000000000000000000008E
:103F30000000000000000000000000000000000081
:103F40000000000000000000000000000000000071
:103F50000000000000000000000000000000000061
:103F60000000000000000000000000000000000051
:103F70000000000000000000000000000000000041
:103F8000210400000000000000800E00000000007E
:103F9000FF000000000000001C3C00083F00000083
:103FA00049040000293C00083F00000051040000C3
:103FB000373C00083F0000000096000000000800A9
:103FC000960000000008000004000000D43D000836
:103FD00000000000000000000000000000000000E1
:083FE0000000000000000000D9
:00000001FF
