:020000040800F2
:1000000000090020B1010008A123000859230008BD
:10001000812300085923000879230008B301000850
:10002000B3010008B3010008B30100083D34000823
:10003000B3010008B3010008B3010008054200083D
:10004000B3010008B3010008B3010008B3010008C0
:10005000B3010008B3010008E93E0008153F00089D
:10006000413F00086D3F0008993F0008B3010008B8
:10007000B3010008B3010008B3010008B301000890
:10008000B3010008B3010008B30100080D23000804
:100090003923000849230008B3010008C53F0008C0
:1000A000B3010008B3010008B3010008B301000860
:1000B000B3010008B3010008B3010008B301000850
:1000C000B3010008B3010008B3010008B301000840
:1000D000B3010008F543000809440008B301000813
:1000E0002D400008B3010008B3010008B301000867
:1000F000B3010008B3010008B3010008B301000810
:10010000B3010008B3010008B3010008B3010008FF
:10011000B3010008B3010008B3010008B3010008EF
:10012000B3010008B3010008B3010008B3010008DF
:10013000B3010008B3010008B3010008B3010008CF
:10014000B3010008B3010008B3010008B3010008BF
:10015000B3010008B3010008B3010008B3010008AF
:10016000B3010008B3010008B3010008B30100089F
:10017000B3010008B3010008B3010008B30100088F
:10018000B3010008B3010008B3010008B30100087F
:10019000B3010008B3010008B3010008B30100086F
:1001A0001D0F00080000000000000000000000001B
:1001B00002E000F000F8FEE772B6374880F30888E6
:1001C000364880F3098836483649086040F2000016
:1001D000CCF200004EF63471CEF200010860BFF39D
:1001E0004F8FBFF36F8F40F20000C0F2F0004EF669
:1001F0008851CEF200010860BFF34F8FBFF36F8FBD
:100200004FF00000E1EE100A4EF63C71CEF2000114
:100210000860062080F31488BFF36F8F03F018FD89
:1002200003F08CFD4FF055301F491B4A91423CBFF3
:1002300041F8040BFAE71D49184A91423CBF41F8C6
:10024000040BFAE71A491B4A1B4B9A423EBF51F86E
:10025000040B42F8040BF8E700201849184A9142B1
:100260003CBF41F8040BFAE703F0F6FC03F0A2FDF3
:10027000144C154DAC4203DA54F8041B8847F9E7D7
:1002800000F042F8114C124DAC4203DA54F8041B52
:100290008847F9E703F0DEBC0009002000110020C8
:1002A0000000000808ED00E0000100200009002027
:1002B00018490008001100207C1100208011002046
:1002C0005C3C0020A0010008A4010008A401000873
:1002D000A40100082DE9F04F2DED108AC1F80CD0D3
:1002E000C3689D46BDEC108ABDE8F08F002383F300
:1002F00011882846A047002003F004FAFEE703F027
:100300008DF900DFFEE70000F8B500F019FE03F0FC
:1003100043FC074603F092FC064600283ED12B4BD7
:100320009F423BD001339F423BD0294B27F0FF0235
:100330009A4239D1F8B200F03DFC354642F21074D1
:1003400000F03EFC08B10024254601F0EDF878B33A
:10035000032000F043F80024254636B11D4B9F4290
:1003600003D003F063FC00242546002003F01EFCAC
:10037000194B1B6913F040031FD00DB100F044F876
:1003800000F052FC02F014F80546C4B102F010F877
:10039000401BA04213D900F037F8F3E7354600249C
:1003A000CEE704460125CBE705464FF47A74C7E74C
:1003B000B4F57A7F08BF0125CFE71C46E0E700F0DF
:1003C0007BFC012003F0A4F9DFE700BF010007B0C8
:1003D000000008B0263A09B000040048084B187025
:1003E00003280CD8DFE800F008050208022000F01E
:1003F00003BE022000F0F8BD024B00225A60704795
:10040000801100208411002038B501F08DF830B142
:100410001F4B03221A701F4B00225A6038BD1E4B1F
:100420001E4A19680131F9D004339342F9D11C4CAA
:10043000194DD4F80428AA42F0D31A4B9B6803F153
:10044000006303F5D0439A42E8D203F0C3FB03F004
:10045000D5FB002000F08EFD0220FFF7BFFF124BFE
:10046000DA690022DA61D96999699A619B6972B681
:100470004FF0E0233021C3F8085DD4F80038D4F8F9
:10048000042881F311889D4683F308881047C5E747
:1004900080110020841100200068000820680008F6
:1004A000006000080011002000100240094A136893
:1004B00049F2690099B21B0C00FB01331360064B33
:1004C000186844F2506182B2000C01FB020018600F
:1004D00080B27047141100201011002010B50021C7
:1004E0001022044600F0A2FD034B03CB20606160A4
:1004F0001868A06010BD00BFACF7FF1FF0B5ADF5E8
:100500004F7D6CAC4FF4C47207460D462046002167
:1005100000F08CFD01F04CFF264B4FF47A72B0FBDB
:10052000F2F0186093E80700022384E807000DF555
:10053000E9702382FFF7D2FF4EF603431E4923845E
:1005400007A804F01DF9162384F832310DF2E322D6
:1005500007AB0DF12C0C1E4603CE664510605160B2
:10056000334602F10802F6D130681060B3889380F8
:100570000DAE31460122204600F0A4FD0023039376
:10058000AB7E029305F11903019380B20123CDE9FB
:1005900004600093E97E05A3D3E90023384602F006
:1005A0001DFB0DF54F7DF0BDAFF300809E6AC421A9
:1005B000818A46EE8C110020904700082DE9F04119
:1005C0002C4C237ADAB080460D465BBB27A928461F
:1005D00000F09EFE0746002842D19DF89D60C82E7F
:1005E0003ED801464FF4A662204600F01FFD4FF4AE
:1005F0008073C4F8F8314FF40073C4F80C334FF42F
:100600004073C4F8203432460DF19E0104F1090014
:1006100000F0FAFC26449DF89C30777223720BB9E7
:10062000EB7E23728122002106AC27A800F0FEFC9D
:100630000122214627A800F0B1FE00230393AB7EE0
:10064000029305F1190380B201932823CDE90440F8
:100650000093E97E05A3D3E90023404602F0BEFAE9
:100660005AB0BDE8F08100BFAFF30080264172723E
:10067000DF25D7B7D4210020F0B5254E4FF48A7579
:1006800005FB0065F1B096F8D83085F8DC30002421
:10069000D822214685F8E8403AA800F0C7FC06F1C8
:1006A000090000F0BBFCD5F8E4308DF8F000C2B2D0
:1006B00006AF06F109010DF1F100CDE93A3400F081
:1006C000A3FC394601223AA800F09EFE80B2CDE993
:1006D000047008230127CDE9023706F1D8030193FE
:1006E00030230093317A0B4807A3D3E9002302F0AB
:1006F00075FAA04206DD01F05BFEC5F8E000384661
:1007000071B0F0BD2046FBE778F6339F93CACD8DDC
:10071000D4210020A42100202DE9F0411D4D1E4EC2
:100720001E4F86B0284602F085FA034658B30024CF
:10073000CDE90344ADF81440027B8DF8142099688C
:100740004068029403AA03C21B68DFF8548043F098
:100750000043029301F02EFE821941F10003009440
:1007600002A9384601F0C4F8A04205DD284602F08F
:1007700065FA88F80040D5E798F80030072B05D8CF
:10078000013388F8003006B0BDE8F081014802F07E
:1007900055FAF8E7A421002040420F00102700205E
:1007A0000927002070B50D4614461E4602F072F966
:1007B00050B9022E10D1012C0ED112A3D3E900237F
:1007C000C5E90023012007E0282C10D005D8012C12
:1007D00009D0052C0FD0002070BD302CFBD10BA30D
:1007E000D3E90023ECE70BA3D3E90023E8E70BA34D
:1007F000D3E90023E4E70BA3D3E90023E0E700BF3C
:10080000AFF30080401DA12026812A0B78F6339F8C
:1008100093CACD8D9E6AC421818A46EE26417272AA
:10082000DF25D7B7F017304A39059E5638B505464B
:100830000E4C0021013500F0BFFBA4F82C55B4F894
:100840002C0500F0A1FB78B1B4F82C0500F0ACFB4E
:10085000014648B9B4F82C0500F0AEFBB4F82C35CD
:100860000133A4F82C35EAE738BD00BFD4210020BD
:1008700010B50A4B0A4A1A6003F5805393F87020AA
:100880003AB9DC6E2CB1204600F0C8FE204601F0DB
:1008900005F8BDE81040034800F0C0BE1027002056
:1008A000E4470008683700202DE9F04F8FB000AF13
:1008B00005460C4602F0EEF800284BD1237E022BB1
:1008C0001BD1E38A012B18D101F072FD0646FFF718
:1008D000EDFD03464FF4C870DFF8D482B3FBF0F2AD
:1008E00006F5167602FB103316FA83F3C8F80030CB
:1008F000E37E33B9A74B00221A703C37BD46BDE8F2
:10090000F08F07F12401204600F0B6FC0028F4D156
:1009100007F11400FFF7E2FD97F8264007F11401F4
:10092000224607F1270003F0F9FE0028E2D10F2C40
:1009300008D8984B1C70D8F80030A3F51673C8F887
:100940000030DAE797F824100029D6D0284602F0C4
:1009500099F8D2E7E38A282B33D010D8012B2BD07B
:10096000052BCAD1BFF34F8F8B498C4BCA6802F459
:10097000E0621343CB60BFF34F8F00BFFDE7302B26
:10098000BBD1874EE17E327A9142B6D1607E31464C
:10099000002291F8DC50854200F0AD800132042A3B
:1009A00001F58A71F5D1326840F6B831FA328A42DF
:1009B00094BF32603160A0E721462846FFF79EFDD4
:1009C0009BE721462846FFF7F9FD96E7B2F8EC5081
:1009D0007B6005F103094FEA99094FEA8902D11DAD
:1009E000C908A8EBC1039D46EB460021584600F01C
:1009F0001DFB04F1EE012A463144584600F004FB89
:100A00007B6813B9012000F0B5FA96F8D20000F027
:100A1000BBFA044630B9307200F0D6FA204600F036
:100A2000A9FAB0E0D6F8D4203AB996F8D200B6F8D0
:100A30002C25824201D8FFF7F9FED6F8D4202A44AB
:100A4000944208D296F8D200B6F82C2501308242A2
:100A500001D8FFF7EBFE70685FFA89F2594600F0A3
:100A6000EDFA08B9C54679E0726896F8D2002A44D2
:100A70007260D6F8D42005EB0209C6F8D49000F0D5
:100A800083FA814509D396F8D220D6F8D4000132F2
:100A9000001B86F8D220C6F8D400FF2D0FD8002402
:100AA000347200F091FA204600F064FA00F03CFD48
:100AB0003C4B188108B9FFF7A7FCC5461DE7BB688A
:100AC00096F8D9000AFB0362FB68D2F8E41082F8BA
:100AD000E83001F58061C2F8E030C2F8E410FFF7B9
:100AE000CBFDFFF719FE96F8D920013202F0030280
:100AF00086F8D920B6E74FF48A7A0AFB02F505F1A9
:100B0000EA013144204600F0B3FCF86000287FF48D
:100B1000F4AE3544012285F8E82001F049FCD5F80F
:100B2000E020D6ED007ADFED206A801A192838BF60
:100B3000192040F6B832904228BF1046B8EE677AC6
:100B400007EE900AF8EEE77A67EEA67ADFED176A0D
:100B5000E7EE267AFCEEE77AC6ED007A96F8D93011
:100B60007168BB600AFB03F4321992F8E8505DB17A
:100B7000D2F8E4308B42E8463FF428AF002182F8F7
:100B8000E810C2F8E010C5467368064A9B0A0133B4
:100B90001381B2E69D21002000ED00E00400FA057B
:100BA000D42100208C110020CDCCCC3D6666663F60
:100BB000A0210020014B1870704700BF9811002041
:100BC00038B54FF00054144B22689A4221D1607D11
:100BD000F0B1124B124918701248237D03724FF482
:100BE0008073C0F8F8314FF40073C0F80C3300255F
:100BF0004FF44073C0F82034C0F8E450C9220930E3
:100C000000F002FAE0222946204600F00FFA012007
:100C100038BD0020FCE700BF9AAD44C59811002004
:100C200016000020D421002037B500F07DFC194DBE
:100C3000194928810223012218486B7101F052FAE8
:100C400000230193164B174900931748174B4FF495
:100C5000805201F0EFFE164B197811B1124801F0E5
:100C600011FF01F0A5FB0446FFF720FC4FF4C87309
:100C7000B0FBF3F202FB130304F5167010FA83F0D5
:100C80000C4B186002F0DAFF08B10F232B8103B080
:100C900030BD00BF8C11002040420F001027002003
:100CA000A50700089C110020A4210020A908000825
:100CB00098110020A02100202DE9F04F2DED028B8E
:100CC0008EA7D7E900670FF23C29D9E90089864C45
:100CD00095B00DAD9FED828BFFF71EFDDFF82CB2B6
:100CE00000230C93ADF83C300D936B6000230DF1A5
:100CF00025028DED008B4FF0010A09A958468DF8A9
:100D000025308DF824A001F09BF99DF824200023C4
:100D1000002A40F0AB80204601F0BCFE05460028CA
:100D200047D1DFF8ECB101F043FBDBF8003098422B
:100D30003FD301F03DFB0790FFF7B8FB079A4FF454
:100D4000C873B0FBF3F101FB130302F5167010FA40
:100D500083F0CBF80000DFF8BCB19BF800100791DE
:100D6000002914BF2B46534610A88DF83030FFF7EA
:100D7000B5FB0799C1F11002D2B2062A10AB28BF09
:100D8000062219440DF13100079200F03DF9079A4F
:100D90000CAB0393182302930132544BD2B2CDE92A
:100DA00000A304923B463246204601F0B9FE8BF880
:100DB000005001F0FDFA4E4A4E4D1368C31AB3F5C8
:100DC0007A7F32D3106001F0F5FA02460B462046D6
:100DD00001F03EFF204601F05DFE30B32B7ADFF8D4
:100DE00038A1002B14BF032302238AF8053001F039
:100DF000DFFA0DF1400B4FF47A730122B0FBF3F0F0
:100E00005946CAF80000504600F00EFA1823029323
:100E1000394B019380B240F25513CDE903B00093F2
:100E200042464B46204601F07BFE2B7ACBB101F0C7
:100E3000BFFA4FF0000A83464FF48A7295F8D90042
:100E4000504400F0030002FB005393F8E81089B30C
:100E50000AF1010ABAF1040FF0D12B7A002B7FF4CA
:100E600038AF15B0BDEC028BBDE8F08F4FF090416C
:100E700010A84A6982F010024A611946102200F057
:100E8000D5F80DF126030AAA0CA9584600F036FE43
:100E900095E8030011AB83E803009DF83C308DF822
:100EA0004C300C9B109310A9DDE90A23204602F078
:100EB000A3F81BE7D3F8E01049B12B68FA2B38BF31
:100EC000FA23ABEB01010533B1EB430FC0D3FFF7BE
:100ED000D3FB4FF48A720028BAD1BEE7AFF300808B
:100EE0000000000000000000A42100209C21002040
:100EF00004270020D421002008270020401DA12025
:100F000026812A0BF1C6A7C1D068080F1027002040
:100F1000A02100209D2100208C11002008B505484B
:100F200000F08AFEBDE80840034A0449002003F0AF
:100F3000D1BB00BF10270020303800207108000806
:100F400070B502F0BDFC094E094D308000242868C0
:100F50003388834208D902F0AFFC2B680444013384
:100F6000B4F5D04F2B60F2D370BD00BF2438002001
:100F7000F837002002F030BD00F10060920000F56B
:100F8000D04002F0D7BC0000054B1A68054B1B8807
:100F90009B1A834202D9104402F08EBC0020704795
:100FA000F837002024380020024B1B68184402F058
:100FB00089BC00BFF8370020024B1B68184402F0C0
:100FC00093BC00BFF8370020064991F8243033B1B4
:100FD0000023086A81F824300822FFF7CDBF0120E2
:100FE000704700BFFC370020022802BF4FF090433B
:100FF00010229A6170470000022802BF4FF0904310
:101000004FF480129A61704710B50023934203D0C9
:10101000CC5CC4540133F9E710BD0000034602461E
:10102000D01A12F9011B0029FAD170470244034675
:10103000934202D003F8011BFAE770472DE9F84309
:101040001F4D144695F824200746884652BBDFF80A
:1010500070909CB395F824302BB92022FF2148468C
:101060002F62FFF7E3FF95F82400C0F10802A242C7
:1010700028BF2246D6B24146920005EB8000FFF71A
:10108000C3FF95F82430A41B1E44F6B2082E174463
:101090009044E4B285F82460DBD1FFF795FF002887
:1010A000D7D108E02B6A03EB82038342CFD0FFF74E
:1010B0008BFF0028CBD10020BDE8F8830120FBE79F
:1010C000FC3700202DE9F3470D46044600219046E9
:1010D000284640F27912FFF7A9FF2346202200217B
:1010E000284601F02BFF231D02222021284601F073
:1010F00025FF631D03222221284601F01FFFA31DA7
:1011000003222521284601F019FF04F108031022CB
:101110002821284601F012FF04F11003082238218B
:10112000284601F00BFF04F1110308224021284654
:1011300001F004FF04F1120308224821284601F0BF
:10114000FDFE04F1140320225021284601F0F6FE92
:1011500004F1180340227021284601F0EFFE04F14B
:1011600020030822B021284601F0E8FE04F1210303
:101170000822B821284601F0E1FE04F12207C0262A
:101180003B46314608222846083601F0D7FEB6F520
:10119000A07F07F10107F3D194F832308DF80730C2
:1011A00031460DF107030822284601F0C7FE00264C
:1011B00004F1330A9DF807304FEAC6099E4209F54B
:1011C000A47720D394F83231502B28BF50238DF8C8
:1011D0000730B8F1000F08D139460DF10703072297
:1011E000284601F0ABFE09F24F17002604F2331433
:1011F0009DF807309E4207EBC6010DD30731C808A2
:1012000002B0BDE8F0870AEB0603082239462846FB
:1012100001F094FE0136CDE7A3190822284601F01B
:101220008DFE0136E4E7000013B5044608460021B0
:1012300001602346C0F803102022019001F07EFED9
:101240000198231D0222202101F078FE0198631DE0
:101250000322222101F072FE0198A31D0322252101
:1012600001F06CFE019804F108031022282101F01E
:1012700065FE072002B010BDF7B5047F05460E4697
:101280002CB1838A122B02D9012003B0F0BD0023B8
:10129000194607220096284601F014FD731C00939E
:1012A000012200230721284601F00CFDD4B9B31C0C
:1012B0000093052223460821284601F003FD0D2452
:1012C000B378102BE0D83746B278BB1B934210D3CB
:1012D0002B7FA88A0734E408B3B9844294BF002066
:1012E0000120D2E7AB8ADB00083BDB08B37008249F
:1012F000E6E7FB1C0093214600230822284601F064
:10130000E1FC08340137DFE7201A18BF0120BCE7F1
:10131000F7B5047F05460E462CB1838ACA2B02D945
:10132000012003B0F0BD002319460096082228468C
:1013300001F0C8FC731CD4B908220093114623465F
:10134000284601F0BFFC10247378C82BE8D801238D
:1013500072785F1C013B934210D32B7FA88A07341D
:10136000E408B3B9844294BF00200120D9E7AB8AD6
:10137000DB00083BDB0873700824E5E7F3190093F2
:10138000214600230822284601F09CFC08343B46F5
:10139000DEE7201A18BF0120C3E70000F7B50D46AD
:1013A00004460021164628468122FFF73FFE2346C9
:1013B00008220021284601F0C1FD94F9012063783C
:1013C000002AB8BF7F238DF807309EB90DF10703BF
:1013D00007220821284601F0B1FD0F27002602341C
:1013E0009DF807309E4207EBC60105D30731C808B8
:1013F00003B0F0BD0827F1E7A3190822284601F041
:101400009DFD0136ECE70000F7B50E4605460021CC
:1014100014463046CE22FFF709FE2B462822002133
:10142000304601F08BFD2B7AC82B28BFC8238DF8DE
:1014300007308CB90DF1070308222821304601F04E
:101440007DFD30242F469DF807207B1B934205D35A
:10145000E01DC00803B0F0BD2824F3E707F109033D
:1014600021460822304601F069FD08340137EAE7D9
:10147000F7B5047F05460E4634B1838AB3F5827F03
:1014800002D9012003B0F0BD0096012310220021F3
:10149000284601F017FCDCB9B31C0093092223464F
:1014A0001021284601F00EFC19247388B3F5807FC3
:1014B000E7D837467288BB1B934210D32B7FA88A8C
:1014C0000734E408B3B9844294BF00200120D9E76F
:1014D000AB8ADB00103BDB0873801024E5E73B1D83
:1014E0000093214600230822284601F0EBFB083434
:1014F0000137DFE7201A18BF0120C3E730B5094DD7
:101500000A4491420DD011F8013B5840082340F3A2
:101510000004013B2C4013F0FF0384EA5000F6D195
:10152000EFE730BD2083B8EDF7B5364A1068516853
:101530006B4603C36A4634493448082303F0FEF877
:10154000044690BB0A25324A106851686B4603C3B3
:101550006A4630492D48082303F0F0F80446002875
:1015600047D00369B3F5663F43D8B0F86620B2F5BB
:101570007B7F3ED1284A024402F15C018B4238D382
:101580005C3B224900209E1AFFF7B8FF324607460F
:1015900004F164010020FFF7B1FFA3689F4228D146
:1015A000E368984208BF002523E00369B3F5663F6E
:1015B00026D8428BB2F57B7F20D1174A024402F134
:1015C00010018B4218D3103B104900209D1AFFF7E1
:1015D00095FF2A46064604F118010020FFF78EFF0A
:1015E000A3689E4202D1E368984201D00D25AAE784
:1015F0000025284603B0F0BD1025A4E70C25A2E77E
:101600000B25A0E7A8470008DC9703000068000846
:10161000B1470008909703000898FFF710B5037CC6
:10162000044613B9006803F071F8204610BD0000AD
:101630000023BFF35B8FC360BFF35B8FBFF35B8F90
:101640008360BFF35B8F7047BFF35B8F0068BFF3AE
:101650005B8F704770B505460C30FFF7F5FF05F15D
:10166000080604463046FFF7EFFFA04206D9304691
:101670006D68FFF7E9FF2544281A70BD3046FFF773
:10168000E3FF201AF9E7000070B50546406898B1FD
:1016900005F10800FFF7D8FF05F10C0604463046B7
:1016A000FFF7D2FF8442304694BF6D680025FFF7F4
:1016B000CBFF013C2C44201A70BD000038B50C460D
:1016C0000546FFF7C7FFA04210D305F10800FFF75A
:1016D000BBFF04446868B4FBF0F100FB1144BFF3A6
:1016E0005B8F0120AC60BFF35B8F38BD0020FCE74F
:1016F0002DE9F041144607460D46FFF7C5FF844229
:1017000028BF0446D4B1B84658F80C6B4046FFF7E2
:101710009BFF3044286040467E68FFF795FF331AF0
:101720009C4203D86C600120BDE8F0816B60A41B73
:101730003B68AB602044E8600220F5E72046F3E711
:1017400038B50C460546FFF79FFFA04210D305F1C0
:101750000C00FFF779FF04446868B4FBF0F100FB6C
:101760001144BFF35B8F0120EC60BFF35B8F38BD8A
:101770000020FCE72DE9FF41884669460746FFF750
:10178000B7FF6C4606B204EBC6060025B44209D08A
:101790006268206808EB0501FFF736FC63680834CF
:1017A0001D44F3E729463846FFF7CAFF284604B030
:1017B000BDE8F081F8B505460C300F46FFF744FF51
:1017C00005F1080604463046FFF73EFFA0423046CA
:1017D00088BF6C68FFF738FF201A386020B13046A8
:1017E0002C68FFF731FF2044F8BD000073B51446A4
:1017F00006460D46FFF72EFF844228BF044601909F
:10180000DCB101A93046FFF7D5FF019B33B932683F
:10181000C5E90233C5E9002401200CE09C4238BF31
:1018200001942860019868608442F5D93368AB6000
:10183000241AEC60022002B070BD2046FBE70000D5
:101840002DE9FF410F466946FFF7D0FF6C4600B215
:1018500004EBC0050026AC4209D0D4F8048054F84B
:10186000081BB8194246FFF7CFFB4644F3E7304662
:1018700004B0BDE8F081000038B50546FFF7E0FF91
:10188000044601462846FFF719FF204638BD0000F0
:101890000121884238BF084602F022BF08B102F099
:1018A00035BF704710B4026854681A4623465DF885
:1018B000044B184700207047002070477047000015
:1018C000002070470E20704700F5805090F8D80037
:1018D000C0F340007047000000F5805090F9E00030
:1018E0007047000000F58050C0F8DC100120704700
:1018F000F7B50C68BDF8207014F0005473D10D7B5F
:10190000082D70D8302585F31188456AAE687601B8
:101910000CD4AC68240108D4AC6814F0805460D1B5
:1019200084F31188204603B0F0BD01240E6804F151
:10193000180C002EB8BFF6004FEA0C1CB4BF46F0DE
:101940000406760545F80C600E680FFA84FC16F064
:10195000804F18BF05EB0C1E05EB0C1C1EBFDEF8FC
:10196000806146F00206CEF880610E7BCCF884617F
:1019700005EB04158E68C5F88C614E68C5F8886162
:10198000DCF8805145F00105CCF8805141F2780532
:1019900000EB441C660105EB4414AC440444CCE960
:1019A00000230D46083401F10C0C55F804EB44F803
:1019B00004EB6545F9D12D882580841904F5805400
:1019C00007F0030594F8946026F00B06354384F87D
:1019D0009450002484F31188009700F033FD012017
:1019E000A1E70224A2E74FF0FF309CE713B500F512
:1019F00080540191E06EFFF747FE1F280AD9019934
:101A0000E06E2022FFF7B6FEA0F1200358425841B5
:101A100002B010BD0020FBE708B5302383F3118826
:101A200000F58050C06EFFF703FE002383F311889A
:101A300008BD00000022026082814260826070471F
:101A400010B500220023C0E90023002304460381CF
:101A50000C30FFF7EFFF204610BD0000F0B5054643
:101A600000F580500C4690F8D83013F0040FC3F303
:101A7000800108BF114661F3820380F8D83005EB7E
:101A8000441303F58453103389B01B79D8074FEA08
:101A900044162FD582B319072ED46846FFF7D0FF1E
:101AA00005EB441303F5845303AA03F108071868F0
:101AB0005968144603C40833BB422246F7D118685C
:101AC00020609B88A380DDE90E23CDE9002301235C
:101AD000ADF808302B6869461B6C2846984735449A
:101AE00005F5845510352B791A075CBF43F00803C0
:101AF0002B7101E0002AF2D109B0F0BD2DE9F047C9
:101B00009A4688B0074688469146302383F3118869
:101B100007F580546846FFF793FFE06EFFF79AFDE4
:101B20001F282AD9E06E20226946FFF7A5FE20284B
:101B300023D103AD444605AB2E4603CE9E42206022
:101B40006160354604F10804F6D130682060B3883E
:101B5000A380DDE90023C9E90023BDF80830AAF815
:101B60000030002383F3118853464A4641463846E5
:101B700008B0BDE8F04700F029BC002080F31188D0
:101B800008B0BDE8F08700002DE9F84F18220446A0
:101B90000F4604300021FFF749FA2046234B40F856
:101BA000283BFFF747FF04F13800FFF749FF04F136
:101BB000580804F582554646183530462036FFF75A
:101BC0003FFFAE42F9D104F580554FF480534FF0FA
:101BD0000009C5E91739C5F858800123EE6604F5F8
:101BE000875804F58456C5F8649085F8683085F800
:101BF0007030183608F118084FF0000A4FF0000B4B
:101C000046E908ABA6F11800FFF714FF203646F8A6
:101C1000289C4645F4D185F8E07017B1044800F0DF
:101C2000C1FB044B63622046BDE8F88FE44700081F
:101C3000BC4700080064004010B5044B1978044606
:101C40004A1C1A70FFF7A0FF204610BD2C38002058
:101C50002DE9F047002950D0294B2A4FB7FBF1F569
:101C600099428CBF0A231123581EB5FBF3FC03FBDA
:101C70001C53C4B22BB102280346F5D80020BDE89E
:101C8000F0870CF1FF36B6F5806FF7D2C4EBC40EC7
:101C90000EF103034FEAE309C3F3C703A4EB030800
:101CA00009F1010A4FF47A755FFA88F009FB0555CE
:101CB0005AFA88F8B5FBF8F5B5F5617FC1BF0EF1AA
:101CC000FF33C3F3C703E01AC0B25C1C50FA84F4BC
:101CD0000CFB04F4B7FBF4F4A142CFD1013BDBB21F
:101CE0000F2BCBD80138C0B20728C7D800211071FC
:101CF00016809170D3700120C1E70846BFE700BF8E
:101D00003F420F000051250270B505460E464FF4C4
:101D10007A746B6A5B6803F00103B3424FF0010011
:101D200004D001F0F5FC013CF3D1204670BD000069
:101D300070B5426A936913F0700F17D000230C4DF1
:101D4000936141F2900400EB4312224411794E0753
:101D500009D5890707D5416A55F823608E60117946
:101D600041F0040111710133032BECD170BD00BFB0
:101D7000D047000873B51D46436A16469A68D207D5
:101D8000044609D59A6801219960C2F34002CDE961
:101D900000650021FFF762FE636A9A68D1050BD5E2
:101DA0009A684FF480719960C2F34022CDE90065D2
:101DB00001212046FFF752FE636A9A68D2030BD5D1
:101DC0009A684FF480319960C2F34042CDE90065D2
:101DD00002212046FFF742FE04F58053D3F8DC00D1
:101DE00010B103681B699847204602B0BDE87040F7
:101DF000FFF79EBFF8B50446466A002977D106F181
:101E00000C073868800775D006EB01153868D5F8DF
:101E1000B00110F0040FD5F8B0011ABFC00840F0AF
:101E20000040400DA062D5F8B0C11CF0020F1CBFED
:101E300040F08040A062D5F8B40106EB011100F03B
:101E40000F0084F83400D1F8B80184F82C00D1F8E0
:101E5000B801000A84F82D00D1F8B801000C84F80C
:101E60002E00D1F8B801000E84F82F00D1F8BC0183
:101E700084F83000D1F8BC01000A84F83100D1F8B0
:101E8000BC01000C84F83200D1F8BC11090E84F8B2
:101E900033103821396004F1440004F1280104F1C1
:101EA000340551F8046B40F8046BA942F9D1098854
:101EB0000180C4E90E2321460023A4F8403051F8E4
:101EC000383B20461B6C984704F5805393F8D82084
:101ED000D3F8DC0042F0040283F8D82010B1036884
:101EE0001B6998472046BDE8F840FFF721BF06F17F
:101EF000100786E7F8BD000010B5044600F05AFA56
:101F000002460B4652EA030102D0013A63F1000394
:101F10000449086820B12146BDE81040FFF76ABFB8
:101F200010BD00BF28380020F0B5302181F31188A2
:101F3000DFF848E000F583511831002441F2900C9D
:101F400000EB441565442E7977070ED4F6060CD5C0
:101F5000D1E9007697429E4107D2466A5EF8247026
:101F6000B7602E7946F004062E710134032C01F17E
:101F70002001E5D1002383F31188F0BDD04700088C
:101F800008B5302383F31188FFF7D2FE002383F3D3
:101F9000118808BD2DE9F041436A0446986800F0B5
:101FA000E050B0F1E05F0E4622D0F8B1302383F369
:101FB0001188002504F5845741F2900804EB45137D
:101FC00043441B791A0706D50135032D07F1200775
:101FD000F4D1012007E05B07F6D43946304600F023
:101FE00083FA0028F0D1002383F31188BDE8F08143
:101FF0000120FBE708B5302383F3118800F58050FA
:10200000C06EFFF727FB002383F3118843090CBF41
:102010000120002008BD0000F8B51D460023137004
:102020000F4606461446FFF7E5FF80F001003870C2
:1020300025B129463046FFF7ADFF2070F8BD0000FE
:102040002DE9B8410C4615461F46804600F0B2F90E
:102050000B462178024609B9287850B14046FFF76F
:1020600063FFFFF78DFF3B462A462146FFF7D4FF6B
:102070000120BDE8B881000070B5302686F31188D4
:10208000174BDA6942F00072DA611A6942F00072A5
:102090001A611A6922F000721A61002383F3118811
:1020A00000F5805494F8D83013F0010516D1A9B189
:1020B00086F311880321132001F01EFA0321142056
:1020C00001F01AFA0321152001F016FA94F8D8301D
:1020D00043F0010384F8D83085F3118870BD00BF48
:1020E000001002402DE9F04700F5805588B095F8C2
:1020F000E030012B04468846164600F28280824F6B
:1021000057F823200AB947F82300D7F800A0C4F8ED
:102110001C8084F82060BAF1000F64D095F8E0309C
:10212000012B70D001212046FFF7A6FF302383F357
:102130001188626A136823F002031360626A1368ED
:1021400043F001031360636A00275F6187F311881E
:1021500001212046FFF7D8FD002800F09580E86EA9
:10216000FFF766FA04F58359BA4609F118092022E7
:1021700000216846FEF75AFF02A8FFF75BFCCDF886
:1021800018A06A4609EB07030DF1180E9446BCE847
:102190000300F44518605960624603F10803F5D165
:1021A000DCF80000186020379CF804201A71602FBA
:1021B000DDD195F8D8306FF38203002785F8D83049
:1021C0006A4641462046ADF80070ADF802708DF8C1
:1021D0000470FFF73DFD636A48BB4FF400421A608C
:1021E00008B0BDE8F08741F2E800FFF751FB8146F7
:1021F00010B15146FFF7C8FCC7F80090B9F1000FC5
:102200008CD10020ECE7386803681B6B98470146C7
:10221000002887D13868FFF72FFF386803683246F7
:102220005B684146984700287FF47CAFE9E761226C
:102230001A609DF802309DF803201B06120402F478
:10224000702203F040731343BDF80020C2F309026B
:1022500013439DF804201205022E02F4E0020CBF85
:102260004FF0004100211343626A0B43D361636A5C
:1022700013225A61626A136823F00103136039461E
:102280002046FFF741FD08B9636AA6E795F8E030FC
:1022900093BB616AD1F8002242F00102C1F800222A
:1022A000616AD1F8002222F47C5222F00E02C1F8B9
:1022B0000022616AD1F8002242F46062C1F8002273
:1022C000626AC2F81432626AC2F80432626A41F683
:1022D000FF71C2F80C12626AC2F84032626AC2F838
:1022E0004432636A0122C3F81C22626AD2F80032C7
:1022F00023F00103C2F8003295F8D83043F002030E
:1023000085F8D8306CE700BF2838002008B500F009
:1023100051F850EA0103024602D0421E61F1000169
:10232000044B186810B10B46FFF724FDBDE80840C8
:1023300001F0B8B82838002008B50020FFF7DCFD10
:10234000BDE8084001F0AEB808B50120FFF7D4FDA4
:10235000BDE8084001F0A6B800B59BB0EFF30981D5
:1023600068226846FEF750FEEFF30583014B9B6B36
:10237000FEE700BF00ED00E008B5FFF7EDFF00004D
:1023800000B59BB0EFF3098168226846FEF73CFE7A
:10239000EFF30583014B5B6BFEE700BF00ED00E050
:1023A000FEE700000FB408B5029801F061F9FEE7FE
:1023B00001F090BB01F03CBB0139C9B202299EBFBC
:1023C00000EBC1000023C0E901337047F8B51B885A
:1023D0005B0705460E4615D4044600F11807BC42BB
:1023E00010D0636853B12B682846DB6B9847A3680D
:1023F000C1B23246606898470834F0E7A368002B02
:10240000F1D1F9E70120F8BD73B56C4684E8060008
:10241000014600224E68D5B26EB98E685EB900EBF7
:10242000C200021D94E80300013582E803001D701C
:10243000012002B070BD0132032A01F10801E9D187
:102440000020F6E72DE9F04F89B00446BDF848704A
:102450000E46054600F118084FF0000907F0040782
:102460004FF0000A4FF0000BA84538D06B680BB94D
:10247000AB684BB157B923682046DB6B9847AB6814
:10248000C1B23246686898470835EDE7B9F1000FE8
:10249000FAD1CDE900ABADF80890334603AA06F1B6
:1024A000080E186859689446ACE803000833734571
:1024B0006246F6D11868CCF800009B88ACF804306E
:1024C000FFF778FF0423ADF808302368CDE9000159
:1024D0001B6C6946204698474FF00109D4E701205C
:1024E00009B0BDE8F08F000030B503680968DD0F62
:1024F000B5EBD17F23F0604421F060424FEAD17008
:102500000BD0002BB8BFA40C0029B8BF920C94428A
:1025100002D034BF0120002030BD944205D1C1F368
:102520008070C3F380738342F6D194422CBF0020A5
:102530000120F1E72DE9F041456A15B94162BDE896
:10254000F0814B6823F06047C3F38A464FEAD37E9D
:10255000C3F3807816EA230638BF3E46AC462B46C6
:102560005A68BEEBD27F22F060440AD0002A18DA03
:10257000A40CB44217D19D420FD10D60DEE7134683
:10258000EEE7A74207D102F08044C2F380724245D1
:102590000BD054B1EFE708D2EDE7CCF800100B6098
:1025A000CDE7B44201D0B442E5D81A689C46002A6F
:1025B000E5D11960C3E700002DE9F047089D01F05F
:1025C00007044FEAD508224405F0070500EBD100C7
:1025D0004FF47F49944201D1BDE8F08704F007072A
:1025E00005F0070A57453E4638BF5646C6F108066D
:1025F000111B8E4228BF0E46E10808EBD50E415C48
:1026000013F80EC0B94029FA06F721FA0AF1FFB211
:102610008CEA010147FA0AF739408CEA010C03F809
:102620000EC034443544D5E780EA0120082341F246
:10263000210201B24000002980B203F1FF33B8BF8C
:10264000504013F0FF03F4D17047000038B50C463A
:102650008D18A54200D138BD14F8011BFFF7E4FF27
:10266000F7E7000042684AB11368436043898189F3
:1026700001339BB29942438138BF83811046704732
:1026800070B588B0202204460D4668460021FEF74A
:10269000CDFC20460495FFF7E5FF024658B16B4696
:1026A000054608AE1C4603CCB44228606960234648
:1026B00005F10805F6D1104608B070BD082817D9F5
:1026C00009280CD00A280CD00B280CD00C280CD0D0
:1026D0000D280CD00E2814BF4020302070470C204D
:1026E0007047102070471420704718207047202032
:1026F00070470000082817D90C280CD910280CD9CD
:1027000014280CD918280CD920280CD930288CBFB3
:102710000F200E207047092070470A2070470B20B9
:1027200070470C2070470D20704700002DE9F843DA
:10273000078C072F04461ED9D0E9029800254FF6D2
:10274000FF73C5F12006A5F1200029FA05F108FA6A
:1027500006F628FA00F031430143C9B21846FFF7E4
:1027600063FF0835402D0346EBD1E1693A46BDE8E9
:10277000F843FFF76BBF4FF6FF70BDE8F88300002A
:1027800010B54B6823B9CA8A63F30902CA8210BD27
:1027900004691A681C600361C38A013BC3824A60F2
:1027A000EFE700002DE9F84F1D46CB8A0F46C3F333
:1027B00009010529814692460B4630D00020AAB275
:1027C00007F11A049EB2042E1FFA80F80FD8904524
:1027D00003F1010306D3FB8A0A4462F30903FB8277
:1027E00001201AE01AF80060E6540130EAE790454B
:1027F000F1D2A1F1050B1C237C68BBFBF3F203FBB8
:1028000012BB1FFA8BF6002C45D14846FFF72AFF72
:10281000044638B978606FF00200BDE8F88F4FF0D9
:102820000008E6E7002606607860ADB24FF0000BC6
:10283000454510D90AEB0803221D13F8011B9155D9
:10284000B1B208F101081B291FFA88F82BD04545C1
:1028500006F10106F1D8FB8AC3F30902154465F3BA
:102860000903BCE7013292B21C462368002BF9D160
:102870006B1F0B441C21B3FBF1F301339BB29A4253
:10288000D3D2BBF1000FD0D14846FFF7EBFE20B901
:10289000C4F800B0BFE70122E7E7C0F800B05E4629
:1028A00020600446C1E74545D5D94846FFF7DAFE22
:1028B00008B92060AFE7C0F800B0002620600446E9
:1028C000B6E700002DE9F04F2DED028B1C4683B0DA
:1028D0005B69019207468846002B00F0A780238C95
:1028E0002BB1E269002A00F0A180072B35D807F14F
:1028F0000C00FFF7B7FE054638B96FF00205284611
:1029000003B0BDEC028BBDE8F08F14220021FEF76E
:102910008DFB228CE16905F10800FEF775FB208C28
:10292000013080B2FFF7E6FEFFF7C8FE013880B243
:102930002084013028746369228C1B782A4403F0B8
:102940001F0363F03F0348F000411372384669608B
:102950002946FFF7EFFD0125D1E702339BB207229D
:10296000C18A0633B3FBF2F3828A521A9BB292B247
:102970009342C2D800F10C034FF0000908EE103A60
:102980004FF0800A4E464D4618EE100AFFF76AFED9
:1029900083460028B1D014220021FEF747FB002E09
:1029A0003AD1019BABF8083002220BF1080E1FFA56
:1029B00082FC0CF10100BCF1060F218C80B201D821
:1029C0008E422BD3FFF796FEFFF778FE62691278EE
:1029D000013802F01F028E4208BF4FF0400A42EA5F
:1029E00049121BFA80F14AEA020A013048F000421B
:1029F00081F808A08BF81000CBF80420594638461F
:102A0000FFF798FD238C0135B3422DB289F00109FF
:102A10004FF0000AB8D172E70022C6E7E169895D8C
:102A20000EF802100136B6B20132C0E76FF00105B0
:102A300065E70000F8B515460E4630220021044631
:102A40001F46FEF7F3FA069B6360B5F5001F079B70
:102A5000A76034BF6A094FF6FF72A36297B2E661BE
:102A600004F1100000239A4206D800230360A782D5
:102A7000E3822383E360F8BD0660013330462036ED
:102A8000F1E7000003781BB94BB2002BC8BF0170FF
:102A90007047000000787047F8B50C46C9690746D2
:102AA00011B9238C002B37D1257E1F2D34D83878CF
:102AB00028BB228C072A2CD8268A36F003032BD178
:102AC0004FF6FF70FFF7C2FD20F001003102400415
:102AD00041EA0561400C41EA40254FF6FF7223466A
:102AE00029463846FFF7EEFE002807DD62691378B5
:102AF0000133DBB21F2B88BF00231370F8BD218A7E
:102B00002D0645EA012505432046FFF70FFE024644
:102B1000E5E76FF00300F1E76FF00100EEE700007A
:102B200070B58AB0044616460021282268461D4624
:102B3000FEF77CFABDF83830ADF810300F9B0593E6
:102B40009DF840308DF81830119B07936946BDF809
:102B50004830ADF820302046CDE90265FFF79CFFF4
:102B60000AB070BD2DE9F041D36905460C46164602
:102B70000BB9138C5BBB377E1F2F28D895F80080CC
:102B8000B8F1000F26D03046FFF7D0FD3378210290
:102B900041EAC33141EA0801338A41EA076141EA67
:102BA00003410246334641F080012846FFF78AFE82
:102BB00000280ADD3378012B07D1726913780133BD
:102BC000DBB21F2B88BF00231370BDE8F0816FF0CC
:102BD0000100FAE76FF00300F7E70000F0B58BB0F3
:102BE00004460D4617460021282268461E46FEF779
:102BF0001DFA9DF84C305A1E534253418DF8003057
:102C00009DF84030ADF81030119B05939DF8483089
:102C10008DF81830149B07936A46BDF85430ADF810
:102C2000203029462046CDE90276FFF79BFF0BB006
:102C3000F0BD0000406A00B104307047436A1A6872
:102C4000426202691A600361C38A013BC382704712
:102C50002DE9F041D0F82080194E14461D4641461A
:102C6000002709B9BDE8F081D1E90223A21A65EB7A
:102C70000303964277EB03031ED2036A8B420DD106
:102C8000FFF77EFD036A1B68036203690B60C38A5A
:102C90000161016A013BC3828846E2E7FFF770FDEC
:102CA0000B68C8F8003003690B60C38A0161013BFF
:102CB000C382D8F80010D4E788460968D1E700BF7E
:102CC00080841E002DE9F04F8BB00D46DDF850904A
:102CD00014469B468046002800F01981B9F1000F88
:102CE00000F01581531E3F2B00F21181012A03D100
:102CF000BBF1000F40F00B810023CDE90833B8F899
:102D00001430B5EBC30F4FEAC30703D300200BB059
:102D1000BDE8F08F2B199F42D8F80C303ABF7F1BCB
:102D2000FFB227461BB9D8F81030002B7AD0272DD8
:102D30004ED8C5F12806B7424FF000032CBFF6B2BB
:102D40003E4600932946D8F8080008AB3246FFF704
:102D500033FCA7EB060A35445FFA8AFAB8F8143058
:102D600003F10053053BDB000493D8F80C300393C8
:102D70002821039B13B1BAF1000F2CD1D8F8100011
:102D800040B1BAF1000F05D0009608AB5246691A5F
:102D9000FFF712FC38B2002FB8D066070AD00AAB92
:102DA00003EBD401624211F8083C02F00702134120
:102DB00001F8083C082C3CD9102C40F2B580202C9E
:102DC00040F2B780BBF1000F00F09C80082334E094
:102DD000BA460026C2E7049BE02B28BFE0230693F7
:102DE0000B44AB42059314D95A1B039800969245A5
:102DF00034BF5246D2B2691A08AB04300792FFF7CB
:102E0000DBFB079A1644AAEB020A1544F6B25FFAF6
:102E10008AFA049B069A05999B1A0493039B1B68E4
:102E20000393A6E70093D8F8080008AB3A46294672
:102E3000AEE7BBF1000F13D00123B4EBC30F6CD08E
:102E4000082C12D89DF82030621E23FA02F2D50712
:102E500006D54FF0FF3202FA04F423438DF82030F8
:102E60009DF8203089F8003051E7102C12D8BDF8B9
:102E70002030621E23FA02F2D10706D54FF0FF324E
:102E800002FA04F42343ADF82030BDF82030A9F84D
:102E900000303CE7202C0FD80899631E21FA03F379
:102EA000DA0705D54FF0FF3202FA04F40C43089418
:102EB000089BC9F800302AE7402C2BD0DDE90865D3
:102EC000611EC4F12102A4F1210326FA01F105FAE1
:102ED00002F225FA03F311431943CB0712D501225D
:102EE000A4F12003C4F1200102FA03F322FA01F154
:102EF000A240524243EA010363EB430332432B43B4
:102F0000CDE90823DDE90823C9E90023FFE66FF0D6
:102F10000100FCE66FF00800F9E6082CA0D9102C9F
:102F2000B3D9202CEED8C3E7BBF1000FADD00223FC
:102F300083E7BBF1000FBBD004237EE730B5012A45
:102F4000144638BF0124402C85B028BF40240025FA
:102F5000012ACDE9025518D81B788DF8083063078F
:102F60000AD004AB03EBD405624215F8083C02F02A
:102F70000702934005F8083C0091034622460021D1
:102F800002A8FFF719FB05B030BD082AE4D9102AC2
:102F900003D81B88ADF80830E1E7202A8DBFD3E9BC
:102FA00000231B680293CDE90223D8E710B5CB6854
:102FB0001BB98B600B618B8210BD04691A681C60A1
:102FC0000361C38A013BC382CA60F0E703064CBFBA
:102FD000C0F3C0300220704708B50246FFF7F6FF85
:102FE000022806D15306C2F30F2001D100F00300DE
:102FF00008BDC2F30740FBE72DE9F04F93B0CDE9E0
:1030000003230A6804461046FFF7E0FF022814BFB6
:10301000C2F306260026002A0D46824680F2F7817A
:1030200012F0C04940F0F381097B002900F0EF81E4
:10303000022803D02378B34240F0EC81C2F304634A
:103040000693104602F07F030593FFF7C5FF059B2B
:1030500029444FEA834848EA0A4848EA4668CE7855
:1030600000230022CDE90823F309834648EA00083B
:10307000029367D0059B009302466768534608A9F0
:103080002046B847002800F0C881276A4FB941465A
:1030900004F10C00FFF7F4FA074690B96FF0020054
:1030A00054E03B6998450DD03F68002FF9D1414667
:1030B00004F10C00FFF7E4FA07460028EED0236A7B
:1030C0003B60276297F817C006F01F08CCF3840C0A
:1030D000ACEB08001FFA80FE0028B8BF0EF12000FC
:1030E000A8EB0C031FFA83FED7E90221B8BF00B298
:1030F000002B0793BEBF0EF120031BB2079352EAC9
:10310000010338D0039BDFF824E39A1A049B4FF0A5
:10311000000C63EB010196457CEB01032BD36B7B29
:1031200097F81AE0734519D1029B002B78D001283B
:1031300021DC7868F8B9DFF8F0C2944570EB010340
:1031400016D337E0276A27B96FF00C0013B0BDE83B
:10315000F08F3B699845B5D03F68F4E7B24890429C
:103160007CEB010301D30020F0E7029B002BFAD097
:10317000079B0F2B17DCFA7DB30002F0030203F06C
:103180007C031343FB7539462046FFF7F9FA6B7B46
:10319000BB76029B3BB9FB7DC3F38402013262F331
:1031A0008603FB75D0E76A7BBB7E9A42DBD1029B2C
:1031B000002B35D0B309022B32D0039BBB60049B9C
:1031C000FB60142200210DA8FDF730FF039B0A933A
:1031D000049B0B932B1D0C932B7BADF83EB0013B56
:1031E000DBB2ADF83C30069B8DF84230059B8DF884
:1031F000433094F82C308DF840A083F001038DF813
:1032000044308DF84180A3680AA920469847FB7D89
:10321000C3F38403013303F01F039B02FB82A2E785
:10322000FB7DC6F34012B2EBD31F40F0F980C3F32D
:103230008403434540F0FC80029A2B7BB609002AA8
:1032400052D016F0010661D1032B40F2F480039BAB
:10325000BB60049BFB60FB8A66F30903FB822B7B4C
:10326000AE1D033BDBB23246394604F10C00FFF7DA
:1032700099FA00280CDA39462046FFF781FAFB7DDF
:10328000C3F38403013303F01F039B02FB8205E7B2
:10329000DDE90884AB883B834FF6FF73C9F120005A
:1032A000A9F1200228FA09F104FA00F0014324FAF6
:1032B00002F211431846C9B2FFF7B6F909F108093D
:1032C000B9F1400F0346E9D1B8822A7B033AD2B262
:1032D0003146FFF7BBF9FB7DB882DA43C2F3C01277
:1032E00062F3C713FB753EE786B92E1D013BDBB2C7
:1032F0003246394604F10C00FFF754FA0028BADBD5
:103300002A7BB88A013AD2B23146E2E7F98AC1F3A0
:103310000901013B0429DAB25BD8281D002307F11B
:103320001B069A4208D910F801CB06F801C00131FA
:1033300001330529DBB2F4D103990A9104990B9169
:10334000934207F11B010C9138BF043379680D914A
:1033500034BF55FA83F300230E93FB8AADF83EB0D9
:10336000C3F309031A44069B8DF84230059B8DF880
:10337000433094F82C30ADF83C2083F001038DF8F5
:10338000443000238DF840A08DF841807B602A7B7B
:10339000B88A013A291DFFF759F93B8BB88283425D
:1033A00003D1A3680AA92046984720460AA9FFF737
:1033B000FDFDFB7DBA8AC3F38403013303F01F03D1
:1033C0009B02FB823B8B9A420CBF00206FF01000E7
:1033D000BCE67B68002BAFD0052001E01C303346F3
:1033E0001E68002EFAD1091A081D2E1D184401EB83
:1033F000090CBCF11B0F5FFA89F39DD89A429BD947
:1034000016F8013B00F8013B09F10109EFE76FF005
:1034100009009BE66FF00A0098E66FF00B0095E656
:103420006FF00D0092E600BF40420F0080841E0046
:103430006FF00E008AE66FF00F0087E6EFF3098366
:1034400005494A6B22F001024A63683383F3098815
:10345000002383F31188704700EF00E0302080F3F1
:10346000118862B60C4B0D4AD96821F4E061090459
:10347000090C0A43DA60D3F8FC20094942F0807253
:10348000C3F8FC200A6842F001020A602022DA77C1
:1034900083F82200704700BF00ED00E00003FA054A
:1034A000001000E010B5302383F311880E4B5B68E9
:1034B00013F4006314D0F1EE103AEFF30984683C82
:1034C0004FF08073E361094BDB6B236684F309885B
:1034D00000F098F810B1064BA36110BD054BFBE757
:1034E00083F31188F9E700BF00ED00E000EF00E092
:1034F000FF0200080203000800F1604303F5614386
:103500000901C9B283F80013012200F01F039A4099
:1035100043099B0003F1604303F56143C3F8802135
:103520001A60704700F16040090100F56D40C9B2B2
:103530000176704700230375826803691B689968E8
:103540009142FBD25A680360426010605860704735
:1035500000230375826803691B6899689142FBD850
:103560005A680360426010605860704708B50846AA
:10357000302383F311880B7D032B05D0042B0DD052
:103580002BB983F3118808BD8B6900221A604FF0B4
:10359000FF338361FFF7CEFF0023F2E7D1E900326A
:1035A00013605A60F3E70000FFF7C4BF054BD9680A
:1035B0000875186802681A60536001220275D860A5
:1035C000FCF788BE3838002030B50C4BDD684B1C4A
:1035D00087B004460FD02B46094A684600F0D8F859
:1035E0002046FFF7E3FF009B13B1684600F0DAF8CE
:1035F000A86907B030BDFFF7D9FFF9E738380020D8
:103600006D350008044B1A68DB6890689B68984227
:1036100094BF00200120704738380020084B10B5B7
:103620001C68D86822681A60536001222275DC6029
:10363000FFF78EFF01462046BDE81040FCF74ABE6A
:103640003838002038B5074C0749084801230025C1
:103650002370656000F020FB0223237085F311883E
:1036600038BD00BF603A00202C48000838380020E0
:1036700008B572B6044B186500F0C2F900F0A8FA5C
:10368000024B03221A70FEE738380020603A00200F
:1036900000F09AB88B60022308618B82084670475D
:1036A0008368A3F1840243F8142C026943F8442C84
:1036B000426943F8402C094A43F8242CC26843F875
:1036C000182C022203F80C2C002203F80B2C044ABD
:1036D00043F8102CA3F12000704700BFED02000852
:1036E0003838002008B5FFF7DBFFBDE80840FFF7DA
:1036F0005BBF0000024BDB6898610F20FFF756BFED
:1037000038380020302383F31188FFF7F3BF00001F
:1037100008B50146302383F311880820FFF754FFD2
:10372000002383F3118808BD064BDB6839B142687A
:1037300018605A60136043600420FFF745BF4FF0E4
:10374000FF307047383800200368984206D01A6866
:103750000260506099611846FFF726BF704700006D
:1037600010B50A4C23699A6891420CD85A68816056
:103770000360426010609A685860511A99604FF077
:10378000FF33A36110BD1B68891AECE738380020AD
:1037900010B4C0E9032300235DF8044B4361FFF735
:1037A000DFBF0000036881689A680A449A60426833
:1037B00013605A6000230360024B4FF0FF329A619E
:1037C000704700BF3838002070B5124DEB692A46AB
:1037D0000133EB6152F8103F934206D09A68013AE8
:1037E0009A6030262C69A36803B170BDD4E900212A
:1037F0000A605160236083F31188D4E903312046C5
:10380000984786F3118861690029EBD02046FFF7BD
:10381000A7FFE7E738380020054A30B5D369D2E979
:1038200008451B1B181945F10001C2E9080130BD0C
:103830003838002000207047FEE700007047000085
:103840004FF0FF3070470000BFF34F8F024AD3683C
:10385000DB07FCD4704700BF0020024008B5074BCF
:103860001B7853B9FFF7F0FF054B1A69120641BFE9
:10387000044A5A6002F188325A6008BD783A002042
:10388000002002402301674508B5054B1B7833B97A
:10389000FFF7DAFF034A136943F08003136108BDA1
:1038A000783A0020002002407F289ABF00F580303F
:1038B000C0020020704700004FF400607047000015
:1038C000802070477F2808B50BD8FFF7EDFF00F583
:1038D00000630268013204D104308342F9D101202F
:1038E00008BD0020FCE700007F2810B504461CD866
:1038F000FFF7AAFFFFF7B2FF0D4BF322DA600222B7
:103900001A61FFF7D1FF58611A6942F040021A614B
:103910004FF40061FFF798FF00F056F9FFF7B4FF8E
:103920002046BDE81040FFF7CDBF002010BD00BF0E
:10393000002002402DE9F84312F00103144606D09E
:103940001F4B4FF451721A600020BDE8F8838518B0
:103950001C4A954204D91A4A40F249311160F3E7F2
:10396000FFF77CFFFFF770FFDFF86880451A4FF024
:103970000109012C05EB01060F4603D8FFF784FF70
:103980000120E2E73B88C8F8109033800020FFF761
:103990005BFFC8F81000338831F8022B9BB29A42C3
:1039A0000CD0074B4FF458721A60074B1E60074B40
:1039B0001C60074B1F60FFF767FFC6E7023CD8E7B4
:1039C000743A002000000408683A0020703A002091
:1039D0006C3A002000200240084908B50B7828B155
:1039E0001BB9FFF73BFF01230B7008BD002BFCD078
:1039F000BDE808400870FFF747BF00BF783A0020D5
:103A000008B506484FF41F4100F0E0F8BDE8084053
:103A10004FF400514FF0805000F0D8B80001002062
:103A20000846114600F05CBE084600F06FBE00007C
:103A300038B5EFF31185BDBBEFF30584C4F308047B
:103A40003023C4B183F31188FFF7E6FE4C01420135
:103A5000121A44EAD06464EB01049300A4001B181A
:103A600044EA927441EB0401C900D80041EA537161
:103A700085F3118838BD83F31188FFF7CDFE4D0122
:103A80004201121A45EAD06565EB01059300AD00CD
:103A90001B1845EA927541EB0501C900D80041EABF
:103AA000537184F3118838BDFFF7B6FE4B01440112
:103AB000241A43EAD06363EB0103A2009B001218AF
:103AC00043EA947341EB0301C900D00041EA52710B
:103AD00038BD00BF38B5FFF7ABFF114C114AC00825
:103AE00040EA4170A0FB025EC908A0FB040C1CEB7D
:103AF000050CA1FB04404FF000035B41A1FB021247
:103B00001CEB040C43EB000011EB0E0142F1000230
:103B1000411842F10000090941EA007038BD00BFB8
:103B2000CFF753E3A59BC42010B50244064BD2B295
:103B3000904200D110BD441C00B253F8200041F85F
:103B4000040BE0B2F4E700BF502800400F4B30B543
:103B50001C6A240407D41C6A44F440741C621C6A66
:103B600044F400441C620A4C236843F480732360CD
:103B70000244084BD2B2904200D130BD441C00B286
:103B800051F8045B43F82050E0B2F4E70010024023
:103B9000007000405028004007B5012201A9002014
:103BA000FFF7C2FF019803B05DF804FB13B50446AC
:103BB000FFF7F2FFA04205D0012201A900200194E5
:103BC000FFF7C4FF02B010BD70470000704700004F
:103BD00070470000074B45F255521A6003225A60A5
:103BE00040F2FF729A604CF6CC421A60024B0122FE
:103BF0001A70704700300040803A0020034B1B7859
:103C00001BB1034B4AF6AA221A607047803A002083
:103C100000300040044B1A682AB902F1804202F5D4
:103C20000432526A1A6070477C3A0020024B4FF00F
:103C300080725A62704700BF0010024008B5FFF75B
:103C4000E9FF024B1868C0F3407008BD7C3A0020C1
:103C500070470000FEE700000A4B0B480B4A9042F9
:103C60000BD30B4BDA1C121AC11E22F003028B423B
:103C700038BF00220021FDF7D9B953F8041B40F8E2
:103C8000041BECE7944900085C3C00205C3C0020ED
:103C90005C3C0020FEE7000070B51B4B0163002573
:103CA000044686B0586085620E46FFF7D7FB04F1E4
:103CB0001003C4E904334FF0FF33A361134BE561F4
:103CC000D969A5600A462B46C4E9082304F13401EA
:103CD000C4E900440E4AE562256580232046FFF7CB
:103CE000D9FC0123E0600B4A0375009272680192CF
:103CF000B268CDE90223084B6846CDE90435FFF7E9
:103D0000F1FC06B070BD00BF603A002038380020DA
:103D1000384800083D480008953C00084B6843605F
:103D20008B688360CB68C3600B6943614B69036236
:103D30008B6943620B6803607047000008B51B4B3A
:103D40009A6A42F4FC029A629A6A22F4FC029A622B
:103D50009A6A5A6942F4FC025A61154A5B69114633
:103D60004FF09040FFF7DAFF02F11C0100F5806090
:103D7000FFF7D4FF02F1380100F58060FFF7CEFFB6
:103D800002F1540100F58060FFF7C8FF02F17001F5
:103D900000F58060FFF7C2FF02F18C0100F5806042
:103DA000FFF7BCFFBDE8084000F05AB80010024021
:103DB0004448000808B500F093F9FFF743FCBDE85C
:103DC0000840FFF727BF00007047000010B5214CE6
:103DD000A36A63F4FC03A362A36A03F4FC03A36273
:103DE0004FF0FF32A36A2369226123690023236114
:103DF0002169E168E260E268E360E268E26916492D
:103E000042F08052E261E2690A6842F480720A601C
:103E1000226A02F44072B2F5407F1EBF4FF4803236
:103E200022622362236A1B0407D4236A43F440738B
:103E30002362236A43F40043236200F031F9A3694B
:103E4000064A43F00103A361A369136843F020030A
:103E5000136010BD001002400070004000000140DF
:103E60001E4B1A6842F001021A601A689007FCD5CE
:103E70005A6822F003025A605A6812F00C02FBD111
:103E8000196801F0F90119605A601A6842F4803229
:103E90001A601A689103FCD5114A5A604FF4045213
:103EA000DA6230221A631A6842F080721A601A6865
:103EB0009201FCD50B4912220A600A6802F007023F
:103EC000022AFAD15A6842F002025A605A6802F095
:103ED0000C02082AFAD11A6B1A63704700100240CC
:103EE00000241D0000200240084A08B551691368EB
:103EF0000B4003F00103536123B1054A13680BB172
:103F000050689847BDE80840FFF7CCBA000401406C
:103F1000843A0020084A08B5516913680B4003F041
:103F20000203536123B1054A93680BB1D0689847E7
:103F3000BDE80840FFF7B6BA00040140843A00200B
:103F4000084A08B5516913680B4003F00403536134
:103F500023B1054A13690BB150699847BDE8084081
:103F6000FFF7A0BA00040140843A0020084A08B5CF
:103F7000516913680B4003F00803536123B1054AEC
:103F800093690BB1D0699847BDE80840FFF78ABA3A
:103F900000040140843A0020084A08B551691368BA
:103FA0000B4003F01003536123B1054A136A0BB1B0
:103FB000506A9847BDE80840FFF774BA0004014012
:103FC000843A0020174B10B55A691C68144004F459
:103FD00078725A61A30604D5134A936A0BB1D06A6A
:103FE0009847600604D5104A136B0BB1506B984785
:103FF000210604D50C4A936B0BB1D06B9847E205B0
:1040000004D5094A136C0BB1506C9847A30504D52D
:10401000054A936C0BB1D06C9847BDE81040FFF790
:1040200041BA00BF00040140843A00201A4B10B589
:104030005A691C68144004F47C425A61620504D534
:10404000164A136D0BB1506D9847230504D5134ADA
:10405000936D0BB1D06D9847E00404D50F4A136EF1
:104060000BB1506E9847A10404D50C4A936E0BB166
:10407000D06E9847620404D5084A136F0BB1506F95
:104080009847230404D5054A936F0BB1D06F984726
:10409000BDE81040FFF706BA00040140843A002052
:1040A000062108B50846FFF727FA06210720FFF783
:1040B00023FA06210820FFF71FFA06210920FFF73F
:1040C0001BFA06210A20FFF717FA06211720FFF72F
:1040D00013FABDE8084006212820FFF70DBA0000BA
:1040E00008B5FFF773FE00F067F800F03DF8FFF742
:1040F0006BFEBDE8084000F05DB800000268436850
:104100001143016003B1184770470000143000F0FC
:104110002FBA00004FF0FF33143000F029BA00002E
:10412000383000F0A5BA00004FF0FF33383000F00F
:104130009FBA0000143000F0F5B900004FF0FF31D5
:10414000143000F0EFB90000383000F04FBA000032
:104150004FF0FF32383000F049BA0000012914BF97
:104160006FF013000020704700F06CB8044B036040
:104170000023C0E90233436001230374704700BF8A
:10418000EC48000838B5C36904460D461BB9042144
:104190000844FFF7B3FF294604F1140000F0A6F924
:1041A000002806DA201D4FF40061BDE83840FFF713
:1041B000A5BF38BD00F00EB80023054A19460133EB
:1041C000102BC2E9001102F10802F8D1704700BFBC
:1041D000843A00204FF0E023044A5A6100229A6199
:1041E00007221A6108210B20FFF79CB93F19010033
:1041F00008B5302383F31188FFF74AFA002383F3CD
:10420000118808BD08B5FFF7F3FFBDE80840FFF7C8
:1042100049B90000026843681143016003B11847BF
:1042200070470000024A136843F0C00313607047F0
:1042300000380140024A136843F0C003136070471E
:104240000044004037B51D4C1D4D2046FFF78EFF42
:10425000009404F114001B490023202200F038F9D7
:104260002022009404F13800174B184900F0B2F9ED
:10427000174BC4E91735174C0C212520FFF73CF9E3
:104280002046FFF773FF04F1140013490094002344
:10429000202200F01DF904F13800104B1049009461
:1042A000202200F097F90F4B0C212620C4E9173586
:1042B00003B0BDE83040FFF71FB900BF043B00204A
:1042C00000512502DC3B0020254200081C3C002058
:1042D00000380140703B0020FC3B002035420008C4
:1042E0003C3C0020004400402DE9F047C66D376893
:1042F000F46934622107054619D014F0080118BF8B
:104300004FF48071E20748BF41F02001A30748BF86
:1043100041F04001600748BF41F08001302383F342
:104320001188281DFFF776FF002383F31188E2052B
:104330000AD5302383F311884FF48061281DFFF7DD
:1043400069FF002383F311884FF030094FF0000A12
:1043500014F0200838D13B0616D54FF0300905F18E
:10436000380A200610D589F31188504600F066F906
:10437000002836DA0821281DFFF74CFF27F08003BC
:104380003360002383F31188790614D5620612D5B1
:10439000302383F31188D5E913239A4208D12B6C7B
:1043A00033B11021281D27F04007FFF733FF376096
:1043B000002383F31188E30619D5AA6E1369B3B1FC
:1043C000BDE8F0475069184789F31188B38C95F818
:1043D000641028461940FFF7D5FE8AF31188F46966
:1043E000B6E780B2308588F31188F469B9E7BDE893
:1043F000F087000008B50348FFF776FFBDE80840E6
:10440000FFF750B8043B002008B50348FFF76CFFE6
:10441000BDE80840FFF746B8703B0020F8B51546E8
:1044200082680669AA420B46816938BF8568761A98
:10443000B54204460BD218462A46FCF7E5FDA369AF
:104440002B44A361A3685B1BA3602846F8BD0CD96D
:1044500018463246FCF7D8FDAF1BE1683A463044B7
:10446000FCF7D2FDE3683B44EBE718462A46FCF72D
:10447000CBFDE368E5E7000083689342F7B5154696
:10448000044638BF8568D0E90460361AB5420BD2BD
:104490002A46FCF7B9FD63692B446361A36828468B
:1044A0005B1BA36003B0F0BD0DD932460191FCF750
:1044B000ABFD0199E068AF1B3A463144FCF7A4FD1F
:1044C000E3683B44E9E72A46FCF79EFDE368E4E73E
:1044D00010B50A440024C361029B8460C0E9000057
:1044E000C0E90511C1600261036210BD08B5D0E9E1
:1044F0000532934201D1826882B9826801328260BA
:104500005A1C42611970D0E904329A4224BFC36830
:1045100043610021FFF718F9002008BD4FF0FF307C
:10452000FBE7000070B5302304460E4683F3118884
:10453000A568A5B1A368A269013BA360531CA36150
:1045400015782269934224BFE368A361E3690BB144
:1045500020469847002383F31188284607E0314618
:104560002046FFF7E1F80028E2DA85F3118870BDF4
:104570002DE9F74F04460E4617469846D0F81C9092
:104580004FF0300A8AF311884FF0000B154665B1E1
:104590002A4631462046FFF741FF034660B94146AF
:1045A0002046FFF7C1F80028F1D0002383F31188DB
:1045B000781B03B0BDE8F08FB9F1000F03D0019074
:1045C0002046C847019B8BF31188ED1A1E448AF3DD
:1045D0001188DCE7C0E90511C160C3611144009B8B
:1045E0008260C0E90000016103627047F8B50446CB
:1045F0000D461646302383F31188A768A7B1A36838
:10460000013BA36063695A1C62611D70D4E90432E6
:104610009A4224BFE3686361E3690BB1204698477F
:10462000002080F3118807E031462046FFF77CF830
:104630000028E2DA87F31188F8BD0000D0E90523ED
:104640009A4210B501D182687AB9826801328260DB
:104650005A1C82611C7803699A4224BFC368836133
:104660000021FFF771F8204610BD4FF0FF30FBE747
:104670002DE9F74F04460E4617469846D0F81C9091
:104680004FF0300A8AF311884FF0000B154665B1E0
:104690002A4631462046FFF7EFFE034660B9414601
:1046A0002046FFF741F80028F1D0002383F311885A
:1046B000781B03B0BDE8F08FB9F1000F03D0019073
:1046C0002046C847019B8BF31188ED1A1E448AF3DC
:1046D0001188DCE70B460146184600F009B80000D7
:1046E000024B0A4601461868FFF79AB918110020D4
:1046F00010B5054C13462CB10A4601460220AFF313
:10470000008010BD2046FCE700000000024B01467F
:104710001868FFF789B900BF1811002010B50139DA
:104720000244904201D1002005E0037811F8014FC6
:10473000A34201D0181B10BD0130F2E72DE9F04172
:10474000A3B1C91A17780144044603F1FF3C8C4217
:10475000204601D9002009E00578BD4204F101049A
:10476000F5D10CEB0405D618A54201D1BDE8F081C6
:1047700015F8018D16F801EDF045F5D0E7E70000DA
:10478000034611F8012B03F8012B002AF9D17047D9
:104790006F72672E6172647570696C6F742E663308
:1047A00030332D475053000040A2E4F16468910675
:1047B0000041A3E5F26569920700000042616420B0
:1047C00043414E496661636520696E6465782E00D9
:1047D0008000000000800000000080000000000059
:1047E00000000000A5180008E5200008412000088E
:1047F000E5180008F1180008FD1A0008B5180008AF
:10480000C5180008B9180008C1180008BD1800082C
:10481000191A0008C918000809240008B92300085B
:10482000D9180008ED190008633000002848000876
:1048300090380020603A00206D61696E0069646CF8
:1048400065000000A001A82A00000000FAAABEAA84
:1048500050001424EFFF000000770000709709005B
:104860000100000000000000AAAAAAAA010000009E
:10487000FFFF00000000000000000000000000003A
:1048800000000000AAAAAAAA00000000FFFF000082
:104890000000000000000000000000000000000018
:1048A000AAAAAAAA00000000FFFF00000000000062
:1048B000000000000000000000000000AAAAAAAA50
:1048C00000000000FFFF00000000000000000000EA
:1048D0000000000000000000AAAAAAAA0000000030
:1048E000FFFF0000000000000000000000000000CA
:1048F0002941000815410008514100083D410008C8
:104900004941000835410008214100080D410008D7
:104910005D41000800000000EC0300000000000002
:104920000098030000000000FE2A0100D2040000ED
:104930001C1100200000000000000000000000002A
:104940000000000000000000000000000000000067
:104950000000000000000000000000000000000057
:104960000000000000000000000000000000000047
:104970000000000000000000000000000000000037
:104980000000000000000000000000000000000027
:044990000000000023
:00000001FF
