:020000040800F2
:100000000007002005050008351E0008B51D000882
:100010000D1E0008B51D0008E11D000807050008B9
:100020000705000807050008070500084146000805
:100030000705000807050008070500080705000870
:100040000705000807050008070500080705000860
:1000500007050008070500086157000889570008D0
:10006000B1570008D95700080158000807050008D3
:100070000705000807050008070500080705000830
:10008000070500080705000807050008ED2D000812
:10009000592E0008AD2E0008012F0008295800082D
:1000A0000705000807050008070500080705000800
:1000B000FD580008070500080705000807050008A7
:1000C00007050008070500080705000807050008E0
:1000D00007050008070500080705000807050008D0
:1000E0008D580008070500080705000807050008E7
:1000F00007050008070500080705000807050008B0
:10010000070500080705000807050008070500089F
:10011000070500080705000807050008070500088F
:10012000070500080705000807050008070500087F
:10013000070500080705000807050008070500086F
:10014000070500080705000807050008F54D000829
:10015000070500080705000807050008070500084F
:10016000070500080705000807050008070500083F
:10017000070500080705000807050008070500082F
:10018000070500080705000807050008070500081F
:10019000070500080705000807050008070500080F
:1001A00007050008070500080705000807050008FF
:1001B00007050008070500080705000807050008EF
:1001C00007050008070500080705000807050008DF
:1001D00007050008070500080705000807050008CF
:1001E00007050008070500080705000807050008BF
:1001F00007050008070500080705000807050008AF
:1002000053B94AB9002908BF00281CBF4FF0FF317D
:100210004FF0FF3000F074B9ADF1080C6DE904CE79
:1002200000F006F8DDF804E0DDE9022304B07047D1
:100230002DE9F047089D04468E46002B4DD18A4299
:10024000944669D9B2FA82F252B101FA02F3C2F1CC
:10025000200120FA01F10CFA02FC41EA030E94405D
:100260004FEA1C48210CBEFBF8F61FFA8CF708FB7E
:1002700016E341EA034306FB07F199420AD91CEB56
:10028000030306F1FF3080F01F81994240F21C8188
:10029000023E63445B1AA4B2B3FBF8F008FB1033D0
:1002A00044EA034400FB07F7A7420AD91CEB040405
:1002B00000F1FF3380F00A81A74240F207816444D5
:1002C000023840EA0640E41B00261DB1D44000235A
:1002D000C5E900433146BDE8F0878B4209D9002DBE
:1002E00000F0EF800026C5E9000130463146BDE848
:1002F000F087B3FA83F6002E4AD18B4202D38242B2
:1003000000F2F980841A61EB030301209E46002D60
:10031000E0D0C5E9004EDDE702B9FFDEB2FA82F2B5
:10032000002A40F09280A1EB0C014FEA1C471FFA13
:100330008CFE0126200CB1FBF7F307FB131140EAFA
:1003400001410EFB03F0884208D91CEB010103F1C7
:10035000FF3802D2884200F2CB804346091AA4B289
:10036000B1FBF7F007FB101144EA01440EFB00FE5D
:10037000A64508D91CEB040400F1FF3102D2A645C2
:1003800000F2BB800846A4EB0E0440EA03409CE761
:10039000C6F12007B34022FA07FC4CEA030C20FA0E
:1003A00007F401FA06F31C43F9404FEA1C4900FA2E
:1003B00006F3B1FBF9F8200C1FFA8CFE09FB1811AB
:1003C00040EA014108FB0EF0884202FA06F20BD91E
:1003D0001CEB010108F1FF3A80F08880884240F26E
:1003E0008580A8F102086144091AA4B2B1FBF9F0B2
:1003F00009FB101144EA014100FB0EFE8E4508D9AD
:100400001CEB010100F1FF346CD28E456AD9023831
:10041000614440EA0840A0FB0294A1EB0E01A14216
:10042000C846A64656D353D05DB1B3EB080261EB84
:100430000E0101FA07F722FA06F3F1401F43C5E95E
:10044000007100263146BDE8F087C2F12003D84094
:100450000CFA02FC21FA03F3914001434FEA1C47D6
:100460001FFA8CFEB3FBF7F007FB10360B0C43EAC8
:10047000064300FB0EF69E4204FA02F408D91CEB78
:10048000030300F1FF382FD29E422DD90238634476
:100490009B1B89B2B3FBF7F607FB163341EA034116
:1004A00006FB0EF38B4208D91CEB010106F1FF3865
:1004B00016D28B4214D9023E6144C91A46EA00465C
:1004C00038E72E46284605E70646E3E61846F8E6EE
:1004D0004B45A9D2B9EB020864EB0C0E0138A3E737
:1004E0004646EAE7204694E74046D1E7D0467BE718
:1004F000023B614432E7304609E76444023842E790
:10050000704700BF02E000F000F8FEE772B63A481C
:1005100080F30888394880F3098839484EF6085135
:10052000CEF20001086040F20000CCF200004EF66E
:100530003471CEF200010860BFF34F8FBFF36F8FAD
:1005400040F20000C0F2F0004EF68851CEF20001F9
:100550000860BFF34F8FBFF36F8F4FF00000E1EEE5
:10056000100A4EF63C71CEF200010860062080F3BE
:100570001488BFF36F8F04F021F904F0C3F804F07E
:100580009FFF4FF055301F491B4A91423CBF41F835
:10059000040BFAE71C49194A91423CBF41F8040B8D
:1005A000FAE71A491A4A1B4B9A423EBF51F8040B0C
:1005B00042F8040BF8E700201749184A91423CBF63
:1005C00041F8040BFAE704F0DBF804F0CDFF144C1B
:1005D000144DAC4203DA54F8041B8847F9E700F0E5
:1005E00041F8114C114DAC4203DA54F8041B884712
:1005F000F9E704F0C3B80000000700200023002042
:10060000000000080001002000070020A85D00088D
:10061000002300207C23002080230020584000205D
:1006200000020008000200080002000800020008A2
:100630002DE9F04F2DED108AC1F80CD0D0F80CD078
:10064000BDEC108ABDE8F08F002383F311882846A3
:10065000A047002003F07CFBFEE703F0F7FA00DF81
:10066000FEE70000F8B503F079FF074603F0D4FF7A
:100670000546C0BB224B9F4235D001339F4235D047
:10068000204B27F0FF029A4233D1F8B200F064FD0C
:100690002E4642F2107400F06DFF08B10024264689
:1006A00000F060FD08B90646044635B1164B9F427E
:1006B00003D003F0A9FF00242646002003F058FFD2
:1006C000124B1B695B0418D40EB100F067F801F0FF
:1006D00043FB00F0ADFF01F0E7F9204600F0F4F82D
:1006E00000F05CF8F9E72E460024D4E70446012622
:1006F000D1E706464FF47A74CDE70024E7E700BF60
:10070000010007B0000008B0263A09B00008024016
:1007100008B501F09BF9A0F120035842584108BDEB
:1007200007B541F21203022101A8ADF8043001F02F
:10073000ABF903B05DF804FB10B5202383F31188F7
:100740001248C3680BB103F089FB114A0F4800231C
:100750004FF47A7103F046FB002383F311880D4CAC
:10076000236813B12368013B2360636813B1636896
:10077000013B6360084B1B7833B9636823B90220DF
:1007800001F064FA3223636010BD00BF80230020B3
:10079000390700089C24002094230020F8B5434B1F
:1007A000434A1C46196801317ED004339342F9D183
:1007B0006268404B9A4277D93F4B9B6803F10063D4
:1007C00003F580339A426FD203F0F2FE03F004FF88
:1007D000002001F083F9394B0220187001F02EFA45
:1007E000374B00211A6C19641A6E19661A6E5A6C0E
:1007F00059645A6E59665A6E5A6942F080025A61BB
:100800005A6922F080025A615A691A6942F000520C
:100810001A611A6922F000521A611B6972B64FF010
:10082000E023C3F8084DD4E90004BFF34F8FBFF3B2
:100830006F8F244AC2F88410BFF34F8F536923F49B
:1008400080335361BFF34F8FD2F88030C3F3C905B3
:10085000C3F34E335B0143F6E07603EA060C294608
:100860004CEA81770139C2F87472F9D2203B13F156
:10087000200FF2D1BFF34F8FBFF36F8FBFF34F8FB6
:10088000BFF36F8F536923F4003353610023C2F821
:100890005032BFF34F8FBFF36F8F202383F3118844
:1008A000854680F308882047F8BD00BF0000010896
:1008B00020000108FFFF00080023002094230020EF
:1008C0000038024000ED00E02DE9F04F93B0AC4B52
:1008D00000902022FF210AA89D6801F0E7F9A94AAB
:1008E0001378A3B9A8480121C3601170202383F3B2
:1008F0001188C3680BB103F0B1FAA44AA2480023DF
:100900004FF47A7103F06EFA002383F31188009B91
:100910009F4A03B113609F49009C00230B705360F2
:1009200098469B461E469A46012001F087F924B15D
:10093000974B1B68002B00F01C82002001F086F80A
:100940000390039B002B01DA00F024FF039B002B94
:10095000EDDB012001F068F9039B213B162BE3D866
:1009600001A252F823F000BFC5090008ED090008F4
:10097000810A000829090008290900082909000836
:10098000150B0008E70C0008010C0008630C0008B8
:100990008B0C0008B10C000829090008C30C0008E2
:1009A00029090008350D0008650A00082909000812
:1009B000790D0008D1090008650A00082909000816
:1009C000630C00080220FFF7A3FE002840F0FB8123
:1009D000009B0221B8F1000F08BF1C4605A841F298
:1009E0001233ADF8143001F04FF89DE74FF47A70F0
:1009F00001F02CF8071EEBDB0220FFF789FE002830
:100A0000E6D0013F052F00F2E081DFE807F0030A9E
:100A10000D10133605230593042105A801F034F8C1
:100A200017E057480421F9E75B480421F6E75B48E3
:100A30000421F3E74FF01C09484601F051F809F191
:100A400004090590042105A801F01EF8B9F12C0F46
:100A5000F2D1012000FA07F747EA0B0B5FFA8BFB94
:100A60004FF0000A01F06EF926B10BF00B030B2BCF
:100A700008BF0024FFF754FE56E749480421CDE79C
:100A8000002EA5D00BF00B030B2BA1D10220FFF7FA
:100A90003FFE074600289BD001203E4E01F01EF885
:100AA0000220307001F0CAF84FF000085FFA88F9B0
:100AB000484601F023F8044690B1484601F02EF86C
:100AC00008F101080028F1D1B846044641F212139A
:100AD000022105A8ADF814303E4600F0D5FF23E70B
:100AE00001230220337001F09FF82546244B9B68B8
:100AF000AB4207D9284600F0F3FF013040F068818F
:100B00000435F3E7234B00251D70214BB8465D608B
:100B10003E46A7E7002E3FF45BAF0BF00B030B2B19
:100B20007FF456AF1B4B0220187001F087F832207B
:100B300000F08CFFB0F10009FFF64AAF19F003078F
:100B40007FF446AF0E4A926809EB050393423FF6E5
:100B50003FAFB9F5807F3FF73BAF124B0193B945EB
:100B600022DD4FF47A7000F071FF0390039A002A9F
:100B7000FFF62EAF019B039A03F8012B0137EDE737
:100B8000002300209824002080230020390700083B
:100B90009C2400209423002004230020082300200C
:100BA0000C23002098230020C820FFF7B1FD074642
:100BB00000283FF40DAF1F2D11D8C5F120024A4582
:100BC0000AAB25F0030028BF4A4683490192184426
:100BD00001F046F8019A8048FF2101F067F84FEADA
:100BE000A9037D490193C9F38702284601F066F8FD
:100BF000064600283FF46AAF019B05EB830531E709
:100C00000220FFF785FD00283FF4E2AE00F0B0FFC0
:100C100000283FF4DDAE0027B946704B9B68BB420D
:100C200018D91F2F11D80A9B01330ED027F00303C8
:100C300012AA134453F8203C05934846042205A900
:100C400001F0FEF804378146E7E7384600F048FF38
:100C50000590F2E7CDF81490042105A800F014FFE8
:100C600000E70023642104A8049300F003FF002898
:100C70007FF4AEAE0220FFF74BFD00283FF4A8AE94
:100C8000049800F05DFF0590E6E70023642104A8C6
:100C9000049300F0EFFE00287FF49AAE0220FFF7E5
:100CA00037FD00283FF494AE049800F059FFEAE7BE
:100CB0000220FFF72DFD00283FF48AAE00F068FF08
:100CC000E1E70220FFF724FD00283FF481AE05A9EB
:100CD000142000F063FF04210746049004A800F0EC
:100CE000D3FE3946B9E7322000F0B0FE071EFFF60A
:100CF0006FAEBB077FF46CAE384A926807EB0A030D
:100D000093423FF665AE0220FFF702FD00283FF454
:100D10005FAE27F003075744BA453FF4A3AE5046F1
:100D200000F0DEFE0421059005A800F0ADFE0AF1FA
:100D3000040AF1E74FF47A70FFF7EAFC00283FF469
:100D400047AE00F015FF002844D00A9B01330BD0BA
:100D500008220AA9002000F0B1FF00283AD0202282
:100D6000FF210AA800F0A2FFFFF7DAFC1C4802F0FE
:100D7000F5FF13B0BDE8F08F002E3FF429AE0BF065
:100D80000B030B2B7FF424AE0023642105A80593ED
:100D900000F070FE074600287FF41AAE0220FFF72D
:100DA000B7FC814600283FF413AEFFF7B9FC41F2CF
:100DB000883002F0D3FF059800F0F6FF4E4600F0B1
:100DC000C1FF3C46B0E506464CE64FF0000AFFE5A1
:100DD000B8467BE6374679E69823002000230020BA
:100DE000A0860100094A136849F2690099B21B0CF8
:100DF00000FB01331360064B186844F2506182B265
:100E0000000C01FB0200186080B270472023002014
:100E10001C23002010B500211022044600F046FFDC
:100E2000034B03CB206061601868A06010BD00BF59
:100E3000107AF01F2DE9F043224DBBB000F0FCFF0B
:100E4000AB6840F2ED22C31A934232D906AFA860D4
:100E50002B4628220021384601F0FCFC05F10E004B
:100E600000F01CFF002604465FFA80F905F10E0829
:100E7000F3B2F100994501F1280107D908EB060307
:100E80000822384601F0E6FC0136F1E7082301228A
:100E9000CDE9023205340C4B0193A4B23023009308
:100EA000CDE9047405A3D3E90023297B074801F0A9
:100EB000E9FA3BB0BDE8F083AFF3008078F6339FEA
:100EC00093CACD8DE8340020F5340020BC340020D6
:100ED00070B50D4614461E4601F06AFA50B9022E4E
:100EE00010D1012C0ED112A3D3E90023C5E90023B0
:100EF000012007E0282C10D005D8012C09D0052CA2
:100F00000FD0002070BD302CFBD10BA3D3E9002300
:100F1000ECE70BA3D3E90023E8E70BA3D3E9002315
:100F2000E4E70BA3D3E90023E0E700BFAFF30080C1
:100F3000401DA12026812A0B78F6339F93CACD8DC0
:100F40009E6AC421818A46EE26417272DF25D7B798
:100F5000F017304A39059E5613B504462346084615
:100F600020220021019001F075FC22790198032ACA
:100F7000234628BF032203F8042F2021022201F078
:100F800069FC62790198072A234628BF072203F8E3
:100F9000052F2221032201F05DFCA2790198072A86
:100FA000234628BF072203F8062F2521032201F03C
:100FB00051FC019804F108031022282101F04AFC99
:100FC000382002B010BD00002DE9F04FADF5017DD5
:100FD00021AD0EAE40F2751280460F4622A80021C8
:100FE000296000F063FE48220021304600F05EFEDA
:100FF00000F022FF564B4FF47A72B0FBF2F018600B
:1010000093E80700012386E807000DF15A003382B8
:10101000FFF700FF40F20443338407AB18464D4905
:1010200004F0EAFC182230642946304686F83C2059
:10103000FFF792FF12AB044601460822284601F052
:1010400009FC0822A1180DF14903284601F002FC11
:101050000DF14A03082204F11001284601F0FAFBC1
:1010600013AB202204F11801284601F0F3FB14AB66
:10107000402204F13801284601F0ECFB16AB0822AF
:1010800004F17801284601F0E5FB0DF1590308222F
:1010900004F18001284601F0DDFB04F1880A0DF11E
:1010A0005A0904F5847B4B465146082228460AF12A
:1010B000080A01F0CFFBD34509F10109F3D11BABBD
:1010C00008225946284601F0C5FB04F588744FF004
:1010D000000996F834304B450AD9B36B21464B448E
:1010E0000822284601F0B6FB083409F10109F0E7AF
:1010F0004FF0000996F83C304B4504EBC90108D984
:10110000336C08224B44284601F0A4FB09F1010985
:10111000F0E700230393BB7E0293073107F1190325
:101120000193C1F3CF010123CDE904510093F97E6E
:1011300005A3D3E90023404601F0A4F90DF5017D94
:10114000BDE8F08FAFF300809E6AC421818A46EE2D
:10115000A4240020085A0008014B1870704700BFF3
:10116000B02400202DE9FF41344B1F7B27B1344BC5
:101170000E221A81002630E0324A1068516802AB14
:1011800003C30823304931480DEB030204F012FC7D
:10119000044630B92A4B2E480A221A8100F006FE76
:1011A000E8E70169B1F5E02F06D9254B29480B2264
:1011B0001A8100F0FBFDDDE7438B40F20442552B22
:1011C00018BF93420CBF012600260AD01C490C20F0
:1011D00008812148194600F0E9FD304604B0BDE819
:1011E000F0811E4A024402F11003994204D2144BCA
:1011F0001B4810221A81DCE710398D1A3846134932
:1012000000F01EFE2A46804604F11801384600F020
:1012100017FEA368984502D1E36898420AD0084BAC
:101220000D221A810090D4E9021243460D4800F0C5
:10123000BDFD9FE70C4800F0B9FDCEE7E834002083
:10124000A4240020B55A0008DCFF060000000108B5
:10125000245A0008305A0008425A00080800FFF7D4
:10126000605A00087D5A0008A65A00082DE9F04F80
:10127000ADB006AF80460C4601F09AF8054600284E
:101280005AD1237E022B1BD1E38A012B18D100F007
:10129000D3FD0646FFF7A6FD03464FF4C870DFF8FE
:1012A000D092B3FBF0F206F5167602FB103316FA75
:1012B00083F3C9F80030E37E33B9A84B00221A70DB
:1012C0009C37BD46BDE8F08FA38AEEB2013BB34226
:1012D00005F101050BD93B1D1E44E90000960023D2
:1012E000082201F0F801204601F078F9ECE707F157
:1012F0001400FFF78FFD324607F11401381D04F08A
:1013000049FB0028D9D10F2E08D8944B1E70D9F86C
:101310000030A3F51673C9F80030D1E7FB1CF87054
:101320000146009307220346204601F057F9F97859
:10133000404601F035F8C3E7E38A282B26D010D8C1
:10134000012B1ED0052BBBD1BFF34F8F8449854B9A
:10135000CA6802F4E0621343CB60BFF34F8F00BF53
:10136000FDE7302BACD1637E7F4D01336A7BDBB26E
:101370009342E94603D1E27E2B7B9A4265D0CD466B
:101380009EE721464046FFF71FFE99E7A38A013BEF
:101390009BB2C92B94D8744D2E7B26BB05F10C0350
:1013A0000093082233463146204601F017F9731C9A
:1013B000F2B2D9001E46A38A013B9A4205DA0E32E8
:1013C0002A44009200230822EEE700230022C5E908
:1013D00000230023AB6085F8D730C5F8D8302B7BCD
:1013E0000BB9E37E2B73002507F114093B1D08227E
:1013F00029464846C7E90155FD6001F02BFA3B7AC2
:1014000005F1010AAB424FEACA0608D9FB68082277
:101410002B443146484601F01DFA5546EFE7C6F326
:10142000CF06E17ECDE9049600230393A37E0293C9
:10143000193428230093019446A3D3E9002340469E
:1014400001F020F8FFF7F6FC3AE74FF0000807F14B
:101450001403A7F81480102200934146012320466C
:1014600001F0BCF8A68A023EB6B2F31C9B109B00AA
:101470000733DB08A9EBC3039D460DF1180A1FFAD9
:1014800088F34FEAC801B34201F110010AD20AEB16
:101490000803009308220023204601F09FF808F17A
:1014A0000108ECE795F8D70000F028FBD5F8D83014
:1014B00004461BB995F8D70000F030FBD5F8D830BA
:1014C00033449C4204D295F8D700013000F026FB4B
:1014D0004FEA960B4FF000081FFA88F18B45D5E9CB
:1014E000003209D90AEB880103EB8800012200F0E1
:1014F000E5FB08F10108EFE7F31842F10002C5E946
:101500000032D5F8D83095F8D70006EB0308C5F8B7
:10151000D88000F0F3FA804509D395F8D730D5F894
:10152000D8000133001B85F8D730C5F8D800FF2E4E
:1015300008D800232B7300F01BFBFFF713FE08B144
:10154000FFF72CF92B68094A9B0A0133138100230A
:10155000AB6014E726417272DF25D7B7B53400209F
:1015600000ED00E00400FA05E8340020A424002087
:10157000B834002030B54FF00054244B22689A4212
:1015800085B007D003F052F80446A8B900242046DD
:1015900005B030BD1E4B627D1A701E48237D03735B
:1015A0001D49C9220E3000F05BFB2046E0220021DD
:1015B00000F07CFB0124EAE7184A194D136C43F054
:1015C00000731364AA6D174B9A42DFD12B6E013B57
:1015D0007E2BDBD8144A07CA01AB83E80700184604
:1015E000032100F043FC6B6D83424FF00003CDD12B
:1015F0002A6D8A4201BFAB65054B2A6E1A7003BF84
:101600000A4BEA6D1A601C46C1E700BF9AAD44C59B
:10161000B0240020E83400201600002000380240EA
:10162000006600405041A0B05866004018230020DA
:101630002DE9F0434B4C022385B0637100230293E4
:10164000494B1F68B7F57A7F12D3484B4848B0FB27
:10165000F7F09F428CBF0A2311235E1EB0FBF3F507
:1016600003FB1502F1B2002A3ED0022E3346F4D815
:101670009DF80B303F4940485A1E9DF80A30013B07
:101680001B0443EA0253BDF80820013A13434B60A0
:1016900001F098FD00230193384B394900933948F4
:1016A000394B4FF4805200F055FE384B197811B188
:1016B000344800F075FE00F0BFFB0546FFF792FBD3
:1016C0004FF4C873B0FBF3F202FB130305F5167079
:1016D00010FA83F02E4B186002F09EFF08B10F2322
:1016E000238105B0BDE8F0836B1EB3F5806FBFD2D8
:1016F000C1EBC10C0CF103034FEAE308C3F3C703CA
:10170000A1EB030E08F101094FF47A705FFA8EF62F
:1017100008FB000059FA8EFEB0FBFEF0B0F5617FC9
:1017200008D90CF1FF33C3F3C703C91ACEB2591E4F
:101730000F2915D8721E072A8CBF00220122991981
:1017400001FB05500A49B1FBF0F18F4290D1002A0C
:101750008ED0ADF808508DF80A308DF80B6087E711
:101760001346ECE7A4240020182300203F420F007A
:1017700080F937031023002000360020D10E000826
:10178000B4240020BC3400206D120008B0240020D6
:10179000B83400202DE9F04F91A7D7E900670FF288
:1017A0004829D9E90089874D93B0DFF844B2864CC7
:1017B000284600F0CBFE0DF1300A079070B31022DE
:1017C0000021504600F072FA079B197B4FF000028F
:1017D00061F303028DF83020586899680EAA03C29D
:1017E0001B680D9A63F31C029DF830300D9243F094
:1017F00020038DF83030002352461946584601F038
:10180000F1FC079028B9284600F0A4FE079B23703E
:10181000CEE72378072B3CD8013323701822002110
:10182000504600F043FADFF8C8B1684C002319466F
:101830005246584601F0FEFC014670BB102208A833
:1018400000F034FA636983F04003636100F0F6FA54
:101850000B4612A9024611E903000DF1240C8CE895
:1018600003009DF83410C1F3030089064CBF0E99A4
:10187000BDF838C08DF82C0046BFC1F31C0C4CF0ED
:101880000041CCF30A010891284608A901F02AF882
:10189000CCE7284600F05EFEC0E7284600F088FD51
:1018A0000446002848D1DFF84CB100F0C5FADBF857
:1018B0000030984240D300F0BFFA0790FFF792FA49
:1018C000079A8DF8204003464FF4C87002F516724F
:1018D000B3FBF0F101FB103312FA83F3CBF80030C5
:1018E000DFF814B19BF8001011B901238DF82030F6
:1018F00050460791FFF78EFA0799C1F11004E4B240
:10190000062C28BF0624224651440DF1210000F088
:10191000A7F908AB03931823029301342C4B0193CE
:10192000E4B20123009304943B463246284600F07B
:1019300041FD00238BF8003000F07EFA254A264C4A
:101940001368C31AB3F57A7F31D3106000F076FACA
:1019500002460B46284600F007FE284600F028FD08
:1019600028B3237BDFF894B0002B14BF032302239A
:101970008BF8053000F060FA4FF47A735146B0FBF3
:10198000F3F0CBF800005846FFF7E6FA18230730CB
:101990000293124B0193C0F3CF0040F25513CDE9EF
:1019A00003A0009342464B46284600F003FD237BEC
:1019B0002BB1FFF73FFA237B002B7FF4F6AE13B079
:1019C000BDE8F08FBC340020CD350020000002407F
:1019D000B4340020C8350020E8340020CC35002085
:1019E000401DA12026812A0BF1C6A7C1D068080F8F
:1019F00000360020B8340020B5340020A424002094
:101A000070B50F4B1B780133DBB2012B0C4611D89C
:101A10000C4D29684FF47A730E6AA2FB033201461B
:101A200022462846B047844204D1074B00221A7050
:101A3000012070BD4FF4FA7002F090F90020F8E731
:101A400024230020E8370020FC35002007B50023C0
:101A5000024601210DF107008DF80730FFF7D0FF96
:101A600020B19DF8070003B05DF804FB4FF0FF3094
:101A7000F9E700000A4608B50421FFF7C1FF80F02E
:101A80000100C0B2404208BD30B4054C2368DD6996
:101A9000044B0A46AC460146204630BC604700BFB6
:101AA000E8370020A086010070B502F0F7FB094E70
:101AB000094D3080002428683388834208D902F019
:101AC000E7FB2B6804440133B4F5803F2B60F2D36D
:101AD00070BD00BFFE350020D035002002F0A2BC52
:101AE00000F1006000F580300068704700F1006090
:101AF000920000F5803002F01FBC0000054B1A6810
:101B0000054B1B889B1A834202D9104402F0C0BBCC
:101B100000207047D0350020FE35002038B5074D35
:101B200004462868204402F0BBFB28B928682044FA
:101B3000BDE8384002F0CCBB38BD00BFD035002036
:101B400010F003030AD1B0F5047F05D200F1005074
:101B5000A0F57920D0F80038184670470023FBE73D
:101B600000F10050A0F57920D0F8100A704700006D
:101B7000064991F8243033B10023086A81F82430F3
:101B80000822FFF7B3BF0120704700BFD435002003
:101B9000014B1868704700BF002004E0F0B5204BEF
:101BA000024618681F4B1F885D6893F90840C0F310
:101BB0000B06BE424FEA104022D09F89BE4221D080
:101BC0001F8BBE4206D102240C2505FB04335D6841
:101BD00093F90840B0F5805F16D041F201039842B6
:101BE00008BF5A24013A0A44013D0B4693420DD2E4
:101BF00015F9016F581C5EB100F8016C0346F5E75A
:101C00000024E1E70124DFE74124EBE7184605E083
:101C10002C2590421D7001D2981C5C70401AF0BDBA
:101C2000002004E028230020022802BF024B4FF4CA
:101C300080029A61704700BF00000240022802BF84
:101C4000014B40229A61704700000240022801BF08
:101C5000024A536983F04003536170470000024019
:101C600010B50023934203D0CC5CC4540133F9E790
:101C700010BD000010B5013810F9013F3BB191F9DA
:101C800000409C4203D11AB10131013AF4E71AB184
:101C900091F90020981A10BD1046FCE70346024651
:101CA000D01A12F9011B0029FAD1704702440346E9
:101CB000934202D003F8011BFAE770472DE9F8437D
:101CC0001F4D144695F824200746884652BBDFF87E
:101CD00070909CB395F824302BB92022FF21484600
:101CE0002F62FFF7E3FF95F82400C0F10802A2423B
:101CF00028BF2246D6B24146920005EB8000FFF78E
:101D0000AFFF95F82430A41B1E44F6B2082E1744EA
:101D10009044E4B285F82460DBD1FFF729FF002866
:101D2000D7D108E02B6A03EB82038342CFD0FFF7C1
:101D30001FFF0028CBD10020BDE8F8830120FBE77E
:101D4000D4350020024B1A78024B1A70704700BF3E
:101D5000FC3500202423002010B50F4C0F4801F063
:101D60000BFB21460D4801F033FB24680C48E26E62
:101D7000D2F8043843F00203C2F8043801F0EEFF51
:101D80000849204601F02CFCE26ED2F8043823F01A
:101D90000203C2F8043810BDB05B0008E837002029
:101DA00040420F00B85B0008704700000FB40020ED
:101DB00004B0704700B59BB0EFF309816822684614
:101DC000FFF74EFFEFF30583044B9A6BDA6A9A6ACA
:101DD0009A6A9A6A9A6A9A6A9B6AFEE700ED00E03C
:101DE00000B59BB0EFF3098168226846FFF738FF22
:101DF000EFF30583044B9A6B9A6A9A6A9A6A9A6A15
:101E00009A6A9B6AFEE700BF00ED00E000B59BB058
:101E1000EFF3098168226846FFF722FFEFF305839D
:101E2000034B5A6B9A6A9A6A9A6A9A6A9B6AFEE7A5
:101E300000ED00E0FEE7000002F02EBB02F006BB62
:101E400030B5094D0A4491420DD011F8013B58407C
:101E5000082340F30004013B2C4013F0FF0384EA05
:101E60005000F6D1EFE730BD2083B8EDF7B54FF065
:101E7000FF33DFF854C0DFF854E000EB81011A466D
:101E800088421CD050F8044B019401AF042417F889
:101E9000015B82EA05620825DB18164605F1FF356D
:101EA0005241002EBCBF83EA0C0382EA0E0215F0F9
:101EB000FF05F1D1013C14F0FF04E8D1E0E7D8437D
:101EC000D14303B0F0BD00BF9336EAA9EBE1F04285
:101ED0002DE9F041C56915B9C161BDE8F0814B68D4
:101EE00023F06047C3F38A464FEAD37EC3F380787A
:101EF00016EA230638BF3E46AC462B465A68BEEB70
:101F0000D27F22F060440AD0002A18DAA40CB4422E
:101F100017D19D420FD10D60DEE71346EEE7A742D1
:101F200007D102F08044C2F3807242450BD054B115
:101F3000EFE708D2EDE7CCF800100B60CDE7B44234
:101F400001D0B442E5D81A689C46002AE5D1196050
:101F5000C3E700002DE9F047089D01F007044FEAB0
:101F6000D508224405F0070500EBD1004FF47F4966
:101F7000944201D1BDE8F08704F0070705F0070A95
:101F800057453E4638BF5646C6F10806111B8E42DD
:101F900028BF0E46E10808EBD50E415C13F80EC0D1
:101FA000B94029FA06F721FA0AF1FFB28CEA0101D9
:101FB00047FA0AF739408CEA010C03F80EC03444A2
:101FC0003544D5E780EA0120082341F2210201B21D
:101FD0004000002980B203F1FF33B8BF504013F036
:101FE000FF03F4D17047000038B50C468D18A542A8
:101FF00000D138BD14F8011BFFF7E4FFF7E700003C
:1020000002684AB113680360C388018901339BB237
:102010009942C38038BF03811046704770B588B0BD
:10202000202204460D4668460021FFF73FFE204669
:102030000495FFF7E5FF024658B16B46054608AE2A
:102040001C4603CCB44228606960234605F10805AC
:10205000F6D1104608B070BD082817D909280CD051
:102060000A280CD00B280CD00C280CD00D280CD032
:102070000E2814BF4020302070470C2070471020DD
:1020800070471420704718207047202070470000C8
:10209000082817D90C280CD910280CD914280CD9C9
:1020A00018280CD920280CD930288CBF0F200E20DE
:1020B0007047092070470A2070470B2070470C209A
:1020C00070470D207047000010B54B6823B9CA8ACD
:1020D00063F30902CA8210BDC4681A681C60C36039
:1020E000438A013B43824A60EFE700002DE9F84F45
:1020F0001D46CB8A0F46C3F3090106298146924645
:102100000B4630D00020AAB207F119049EB2052E6A
:102110001FFA80F80FD8904503F1010306D3FB8A1C
:102120000A4462F30903FB8201201AE01AF80060F6
:10213000E6540130EAE79045F1D2A1F1060B1C23E9
:102140007C68BBFBF3F203FB12BB1FFA8BF6002C7F
:1021500045D14846FFF754FF044638B978606FF020
:102160000200BDE8F88F4FF00008E6E700260660A1
:102170007860ADB24FF0000B454510D90AEB08036B
:10218000221D13F8011B9155B1B208F101081B295A
:102190001FFA88F82BD0454506F10106F1D8FB8AD5
:1021A000C3F30902154465F30903BCE7013292B297
:1021B0001C462368002BF9D1AB1F0B441C21B3FB39
:1021C000F1F301339BB29A42D3D2BBF1000FD0D1CD
:1021D0004846FFF715FF20B9C4F800B0BFE7012259
:1021E000E7E7C0F800B05E4620600446C1E7454519
:1021F000D5D94846FFF704FF08B92060AFE7C0F81B
:1022000000B0002620600446B6E700002DE9F04F3C
:102210002DED028B83B0CDE90013BDF83C5007468D
:102220009146002A00F092802DB10E9B002B00F009
:102230008D80072D32D807F10C00FFF7E1FE044630
:1022400038B96FF00204204603B0BDEC028BBDE844
:10225000F08F14220021FFF729FD0E992A4604F180
:102260000800FFF7FDFC681CC0B2FFF711FFFFF785
:10227000F3FE207499F80030013814FA80F003F06E
:102280001F0363F03F030372009B43F00041616052
:1022900038462146FFF71CFE0124D4E700F10C0369
:1022A0004FF0000808EE103A4FF0800A46464446C8
:1022B00018EE100AFFF7A4FE83460028C1D01422AE
:1022C0000021FFF7F3FCC6BB019BABF808300220EE
:1022D0000E9B00F1080299195BFA82F20130C0B23C
:1022E000082801D0AE422AD3FFF7D2FEFFF7B4FE92
:1022F00099F80020009B411E02F01F0242EA48129A
:10230000AE4208BF4FF0400A5BFA81F14AEA020A86
:1023100043F0004281F808A08BF81000CBF80420AD
:1023200059463846FFF7D4FD0134AE4224B288F056
:1023300001084FF0000ABBD185E70020C8E711F87B
:1023400001CB02F801CB0136B6B2C7E76FF001044A
:1023500079E70000F8B515460E462822002104460C
:102360001F46FFF7A3FC069B6360B5F5001F079BA4
:10237000A76034BF6A094FF6FF72236204F10C00B4
:1023800097B200239A4205D8002303602782638214
:10239000A382F8BD0660013330462036F2E7000024
:1023A00003781BB94BB2002BC8BF01707047000007
:1023B000007870472DE9F74FDDF83C90BDF83050BC
:1023C0000D9E9DF83840BDF84070804692469B4671
:1023D000B9F1000F01D1002F51D11F2C4FD898F81F
:1023E0000000B0B9072F47D835F0030347D13A466C
:1023F00049464FF6FF70FFF7F7FD20F001002D0270
:10240000400445EA0464400C44EA40244FF6FF735C
:1024100021E040EA0520072F40EA0464F6D90025B0
:102420004FF6FF73C5F12000A5F120022AFA05F14D
:102430000BFA00F001432BFA02F211431846C9B21D
:10244000FFF7C0FD0835402D0346EBD13A4649461B
:10245000FFF7CAFD0346CDE90097324621464046C4
:10246000FFF7D4FE33780133DBB21F2B88BF002384
:10247000337003B0BDE8F08F6FF00300F9E76FF041
:102480000100F6E72DE9F04F85B09246DDF848806F
:102490000F9D9DF840209DF84490BDF84C70064675
:1024A0009B46B8F1000F01D1002F48D11F2A46D812
:1024B0003378002B46D00C0244EA02649DF83810B1
:1024C00044EAC93444EA01441C43072F44F0800421
:1024D00032D900234FF6FF72C3F1200CA3F1200084
:1024E0002AFA03F10BFA0CFC41EA0C012BFA00F07A
:1024F0000143C9B210460393FFF764FD039B083301
:10250000402B0246E8D13A464146FFF76DFD0346AF
:10251000CDE900872A4621463046FFF777FEB9F11C
:10252000010F06D12B780133DBB21F2B88BF0023AC
:102530002B7005B0BDE8F08F4FF6FF73E8E76FF042
:102540000100F6E76FF00300F3E70000C06900B197
:1025500004307047C3691A68C261C2681A60C360F8
:10256000438A013B438270472DE9F041D0F818803F
:10257000194E14461D464146002709B9BDE8F081B1
:10258000D1E90223A21A65EB0303964277EB03031A
:102590001ED283698B420DD1FFF796FD83691B68BC
:1025A0008361C3680B60438AC1608169013B4382D8
:1025B0008846E2E7FFF788FD0B68C8F80030C3687B
:1025C0000B60438AC160013B4382D8F80010D4E716
:1025D00088460968D1E700BF80841E002DE9F04FCE
:1025E0008BB00D46DDF8509014469B46804600287F
:1025F00000F01981B9F1000F00F01581531E3F2B37
:1026000000F21181012A03D1BBF1000F40F00B81D0
:102610000023CDE90833B8F81430B5EBC30F4FEA07
:10262000C30703D300200BB0BDE8F08F2B199F42E6
:10263000D8F80C303ABF7F1BFFB227461BB9D8F839
:102640001030002B7AD02F2D4ED8C5F13006B7426E
:102650004FF000032CBFF6B23E4600932946D8F84F
:10266000080008AB3246FFF775FCA7EB060A3544B5
:102670005FFA8AFAB8F8143003F10053063BDB0026
:102680000493D8F80C3003933021039B13B1BAF1B3
:10269000000F2CD1D8F8100040B1BAF1000F05D0CE
:1026A000009608AB5246691AFFF754FC38B2002F67
:1026B000B8D066070AD00AAB03EBD401624211F826
:1026C000083C02F00702134101F8083C082C3CD9F1
:1026D000102C40F2B580202C40F2B780BBF1000FE7
:1026E00000F09C80082334E0BA460026C2E7049B31
:1026F000E02B28BFE02306930B44AB42059314D98B
:102700005A1B03980096924534BF5246D2B2691ABA
:1027100008AB04300792FFF71DFC079A1644AAEB9A
:10272000020A1544F6B25FFA8AFA049B069A0599E2
:102730009B1A0493039B1B680393A6E70093D8F8A6
:10274000080008AB3A462946AEE7BBF1000F13D0AC
:102750000123B4EBC30F6CD0082C12D89DF82030A5
:10276000621E23FA02F2D50706D54FF0FF3202FAB5
:1027700004F423438DF820309DF8203089F8003090
:1027800051E7102C12D8BDF82030621E23FA02F255
:10279000D10706D54FF0FF3202FA04F42343ADF817
:1027A0002030BDF82030A9F800303CE7202C0FD8AD
:1027B0000899631E21FA03F3DA0705D54FF0FF32BB
:1027C00002FA04F40C430894089BC9F800302AE785
:1027D000402C2BD0DDE90865611EC4F12102A4F173
:1027E000210326FA01F105FA02F225FA03F3114357
:1027F0001943CB0712D50122A4F12003C4F1200113
:1028000002FA03F322FA01F1A240524243EA010321
:1028100063EB430332432B43CDE90823DDE908236F
:10282000C9E90023FFE66FF00100FCE66FF0080045
:10283000F9E6082CA0D9102CB3D9202CEED8C3E788
:10284000BBF1000FADD0022383E7BBF1000FBBD07B
:1028500004237EE730B5012A144638BF0124402CFA
:1028600085B028BF40240025012ACDE9025518D89B
:102870001B788DF8083063070AD004AB03EBD4054E
:10288000624215F8083C02F00702934005F8083C44
:10289000009103462246002102A8FFF75BFB05B02A
:1028A00030BD082AE4D9102A03D81B88ADF80830B7
:1028B000E1E7202A8DBFD3E900231B680293CDE90D
:1028C0000223D8E710B5CB681BB98B600B618B82F4
:1028D00010BDC4681A681C60C360438A013B438210
:1028E000CA60F0E72DE9F04FD1F8008093B018F0FE
:1028F000800FCDE90323C8F3C01219BFC8F3C03B52
:10290000C8F306264FF0020B1646B8F1000F044636
:102910000D4680F2D18118F0C043059340F0CC8180
:102920000B7B002B00F0C881BBF1020F03D00178B4
:10293000B14240F0C48108F07F0106916AB3C8F348
:10294000074A2B44069A93F80390760646EA0B460C
:1029500046EA82465FEAD91346EA0A06079300F080
:10296000908000220023CDE90A23069B009367682C
:102970005B4652460AA92046B84700287ED0A76980
:102980009FB9314604F10C00FFF748FB0746E0B958
:102990006FF0020013B0BDE8F08FC8F30F2A18F0F3
:1029A0007F0F08BF0AF0030ACBE73B699E420DD0B8
:1029B0003F68002FF9D1314604F10C00FFF72EFBE0
:1029C00007460028E4D0A3693B60A761DDE90A233C
:1029D00000264FF6FF70C6F1200E22FA06F103FA28
:1029E0000EFEA6F1200C23FA0CFC41EA0E0141EA8E
:1029F0000C01C9B2083609920893FFF7E3FA402E9A
:102A0000DDE90832E7D1B882FB7D09F01F06C3F388
:102A100084039B1BD7E9022198B2002BBCBF00F1B5
:102A200020031BB252EA0100C8F304680FD00398D8
:102A3000821A049860EB0101A74890424FF000020F
:102A40008A4104D3079A002A5BD0012B23DDFA7D4B
:102A50004FEA890302F0030203F07C031343FB7582
:102A600039462046FFF730FB079BA3B9FB7DC3F334
:102A70008402013262F38603FB7504E06FF00B0001
:102A800088E7A76917B96FF00C0083E73B699E429E
:102A9000BAD03F68F6E719F0400F32D0039BBB6015
:102AA000049BFB60142200210DA8FFF7FFF8039B95
:102AB0000A93049B0B932B1D0C932B7BADF83EA02C
:102AC000013BDBB2ADF83C30069B8DF8433094F807
:102AD00024308DF840B083F001038DF844308DF838
:102AE0004160A3688DF842800AA920469847FB7D83
:102AF000C3F38403013303F01F039B02FB82002016
:102B000048E7FB7DC9F34012B2EBD31F40F0DA80F7
:102B1000C3F38403B34240F0D88007992B7B4FEA7C
:102B20009912002934D0D20741D4032B40F2D0802F
:102B3000039BBB60049BFB602B7BAE1D033BDBB2A6
:102B40003246394604F10C00FFF7D0FA00280DDABE
:102B500020463946FFF7B8FAFB7DC3F384030133FF
:102B600003F01F039B02FB82032013E7AB883B8328
:102B70002A7B033AB88AD2B23146FFF735FAFB7D99
:102B8000B882DA43C2F3C01262F3C713FB75B6E72B
:102B90006AB92E1D013BDBB23246394604F10C0006
:102BA000FFF7A4FA0028D3DB2A7B013AE2E7F98A8F
:102BB000C1F30901013B0529DAB259D8281D0023C8
:102BC00007F11A0C9A4208D910F801EB0CF801E051
:102BD000013101330629DBB2F4D103990A9104993A
:102BE0000B91934207F11A010C9138BF04337968B5
:102BF0000D9134BF55FA83F300230E93FB8AADF891
:102C00003EA0C3F309031A44069B8DF8433094F8A1
:102C10002430ADF83C2083F001038DF844300023CC
:102C20008DF840B08DF841608DF842807B602A7B42
:102C3000B88A013A291DFFF7D7F93B8BB882834246
:102C400003D1A3680AA92046984720460AA9FFF79E
:102C500039FEFB7DB88AC3F38403013303F01F03FD
:102C60009B02FB823B8B984214BF1120002091E60F
:102C70007B68002BB1D0062001E01C306346D3F8FE
:102C800000C0BCF1000FF8D1091A081D05F1040CB1
:102C900000EB030905989DF8143001EB000EBEF11E
:102CA0001B0F9AD89A4298D91CF8013B09F8013BAE
:102CB000059B01330593EDE76FF009006AE66FF0BD
:102CC0000A0067E66FF00D0064E66FF00E0061E643
:102CD0006FF00F005EE600BF80841E00404BF0B531
:102CE0001C6C404E44F000741C641D6E45F0007571
:102CF0001D661B6E3C4B9B6AD3F80052354045F075
:102D00000105C3F80052D3F80042344044EA0020E1
:102D100040F00100C3F80002002952D00020C3F89F
:102D20001C020546C3F80402C3F80C02C3F81402DF
:102D300003EBC00401301C28C4F84052C4F84452CC
:102D4000F6D100254FF0010C96781488F70748BF9C
:102D5000D3F804720CFA04F044BF0743C3F80472BA
:102D6000B70742BFD3F80C720743C3F80C7276075B
:102D700042BFD3F814620643C3F8146203EBC404E1
:102D80005668C4F840629668C4F84462D3F81C429E
:102D900001352043A942C3F81C0202F10C02D3D131
:102DA000D3F8002222F00102C3F800220C4B1A6C67
:102DB00022F000721A641A6E22F000721A661B6EFC
:102DC000F0BD0122C3F84012C3F84412C3F8041244
:102DD000C3F81412C3F80C22C3F81C22E0E700BFAA
:102DE000003802400000FFFF00360020184A916AB8
:102DF00008B58B688B6013F0010104D013F00C0F41
:102E000018BF4FF48031D80506D513F4406F14BFB6
:102E100041F4003141F00201D80306D513F4402FEC
:102E200014BF41F4802141F00401D3690BB108487B
:102E30009847202383F311880648002100F0B6FF4D
:102E4000002383F31188BDE8084001F031BC00BFC6
:102E5000003600200836002038B5124CA36ADD6821
:102E6000AA0712D05A6922F002025A61A36913B16B
:102E7000012120469847202383F311880A48002126
:102E800000F094FF002383F31188EB0606D5A36AB4
:102E90001021D960236A0BB102489847BDE8384039
:102EA00001F006BC003600201036002038B5124C68
:102EB000A36A1D69AA0712D05A6922F010025A614A
:102EC000A36913B1022120469847202383F3118878
:102ED0000A48002100F06AFF002383F31188EB0603
:102EE00006D5A36A10211961236A0BB102489847DD
:102EF000BDE8384001F0DCBB003600201036002071
:102F000038B50F4CA36A5D685D602A070AD50422B4
:102F100022701A6822F002021A60636A13B100215B
:102F2000204698476B0706D5A36A9969236A13B1AF
:102F3000034809049847BDE8384001F0B9BB00BF19
:102F40000036002010B50E4C204600F029F90D4B3C
:102F5000A3620B21132000F00BF90B21142000F0C9
:102F600007F90B21152000F003F90B21162000F0C2
:102F7000FFF80022BDE8104011461C20FFF7AEBE4E
:102F80000036002000640040114B984210B5044602
:102F900009D1104B1A6C42F000721A641A6E42F09A
:102FA00000721A661B6EA36A01221A60A36A5A682D
:102FB000D20707D5626851681268D9611A60064A5B
:102FC0005A6110BD0121082000F0DCFDEEE700BFD2
:102FD00000360020003802405B87010003291AD820
:102FE000DFE801F0020A0F14836A9B6813F0E05FC8
:102FF00014BF012000207047836A9868C0F3806086
:103000007047836A9868C0F3C0607047836A9868A5
:10301000C0F30070704700207047000010B503290E
:1030200025D8DFE801F00225292D836A9968C1F3CC
:103030000161183103EB0113107884064CBF54680A
:103040009488C0F300114FEA410148BF41EAC4012E
:1030500000F00F004CBF41F0040141EA44515860B8
:1030600041F001019068D2689860DA60196010BD83
:10307000836A03F5C073DFE7836A03F5C873DBE790
:10308000836A03F5D073D7E701290AD002290FD04C
:1030900081B9836ADA68920701D1186903E00120D7
:1030A0007047836AD86810F0030018BF012070478A
:1030B000836AF2E70020704710B539B9836AD9688E
:1030C00089071BD11B699C0704D110BD012915D0AC
:1030D0000229FAD1816AD1F8C031D1F8C441D1F8BE
:1030E000C8011061D1F8CC01506120200861086945
:1030F000800717D1486940F0100012E0816AD1F8CA
:10310000B031D1F8B441D1F8B8011061D1F8BC01A7
:1031100050612020C860C868800703D1486940F02A
:1031200002004861C3F34000C3F38001000140EA9C
:103130004111107920F030000143117189064BBF15
:1031400091681189DB085B0D4CBF63F31C0163F3CD
:103150000A01137948BF916064F3030313714FEAC6
:1031600014234FEA144458BF118113705480ACE704
:1031700000F1604303F561430901C9B283F800130C
:10318000012200F01F039A4043099B0003F16043B2
:1031900003F56143C3F880211A607047FFF7D2BE80
:1031A000012300F10802C0E90222037000F11002BD
:1031B0000023C0E90422C0E90633C0E908334360B4
:1031C0007047000010B52023044683F311880223C2
:1031D00003704160FFF7D8FE04232370002383F3BC
:1031E000118810BD2DE9F0411F4604460D461646D4
:1031F000202383F3118800F108082378052B0DD0D4
:1032000029462046FFF7EAFE40B1204632462946CD
:10321000FFF704FF002080F3118808E0394640469C
:1032200000F0A8FD0028E8D0002383F31188BDE852
:10323000F08100002DE9F0411F4604460D46164678
:10324000202383F3118800F110082378052B0DD07B
:1032500029462046FFF718FF40B12046324629464E
:10326000FFF72AFF002080F3118808E03946404626
:1032700000F080FD0028E8D0002383F31188BDE82A
:10328000F0810000026843681143016003B11847F0
:103290007047000013B5446BD4F894341A68117861
:1032A000042915D1217C022912D11979128901230F
:1032B0008B4013420CD101A904F14C0002F006F836
:1032C000D4F89444019B21790246206800F0D4F997
:1032D00002B010BD143001F089BF00004FF0FF3381
:1032E000143001F083BF00004C3002F05BB80000E6
:1032F0004FF0FF334C3002F055B80000143001F0AD
:1033000057BF00004FF0FF31143001F051BF0000F3
:103310004C3002F027B800004FF0FF324C3002F082
:1033200021B800000020704710B5D0F894341A6816
:1033300011780429044617D1017C022914D1597946
:10334000528901238B4013420ED1143001F0EAFE62
:10335000024648B1D4F894444FF4807361792068F0
:10336000BDE8104000F076B910BD0000406BFFF7DB
:10337000DBBF0000704700007FB5124B03600023E5
:103380004360C0E90233012502260F4B0574044651
:103390000290019300F18402294600964FF4807355
:1033A000143001F09BFE094B0294CDE9006304F553
:1033B00023724FF48073294604F14C0001F062FF40
:1033C00004B070BDEC5A00086D3300089532000857
:1033D0000B68202282F311880A7903EB82021062C3
:1033E0004A790D3243F822008A7912B103EB820345
:1033F000186202230374C0F89414002383F3118825
:103400007047000038B5037F044613B190F854307C
:10341000ABB9201D01250221FFF734FF04F1140090
:1034200025776FF0010100F0C1FC84F8545004F1DD
:103430004C006FF00101BDE8384000F0B7BC38BD6A
:1034400010B5012104460430FFF71CFF0023237749
:1034500084F8543010BD000038B5044600251430FF
:1034600001F054FE04F14C00257701F023FF201DEC
:1034700084F854500121FFF705FF2046BDE838408D
:10348000FFF752BF90F85C3003F06003202B07D1A8
:1034900090F85D20212A4FF0000303D81F2A06D898
:1034A00000207047222AFBD1C0E9143303E0034A0D
:1034B0000265072242658365012070474C23002086
:1034C00037B5D0F894341A681178042904461AD113
:1034D000017C022917D11979128901238B401342EB
:1034E00011D100F14C05284601F0A4FF58B101A903
:1034F000284601F0EBFED4F89444019B2179024662
:10350000206800F0B9F803B030BD0000F0B500EB62
:10351000810385B01E6A04460D46FEB1202383F365
:10352000118804EB8507301D0821FFF7ABFEFB680F
:103530005B691B6806F14C001BB1019001F0D4FEE1
:10354000019803A901F0C2FE024648B1039B294637
:10355000204600F091F8002383F3118805B0F0BDF8
:10356000FB685A691268002AF5D01B8A013B134098
:10357000F1D104F15C02EAE70D3138B550F8214091
:10358000DCB1202383F31188D4F894241368527992
:1035900003EB8203DB689B695D6845B10421601819
:1035A000FFF770FE294604F1140001F0C5FD204626
:1035B000FFF7BAFE002383F3118838BD704700007F
:1035C00001F072B910B501230446282200F8243B0B
:1035D0000021FEF76BFB0023C4E9013310BD00009E
:1035E00038B50446202383F311880025C0E903552C
:1035F000C0E90555C0E90755416001F065F90223AE
:10360000237085F3118838BD70B500EB8103054642
:103610005069DA600E46144618B110220021FEF7F8
:1036200045FBA06918B110220021FEF73FFB31468F
:103630002846BDE8704001F011BA0000826802F02F
:10364000011282600022C0E90422C0E9062202625F
:1036500001F090BAF0B400EB81044789E4680125D9
:10366000A4698D403D43458123600023A2606360CF
:10367000F0BC01F0ABBA0000F0B400EB81040789A4
:10368000E468012564698D403D4305812360002382
:10369000A2606360F0BC01F025BB000070B502239E
:1036A000002504460370C0E90255C0E90455C0E98D
:1036B00006554566056280F84C5001F06BF9636869
:1036C0001B6823B129462046BDE87040184770BDED
:1036D000037880F868300523037043681B6810B5D1
:1036E00004460BB1042198470023A36010BD0000DD
:1036F00090F86820436802701B680BB105211847D9
:103700007047000070B590F84C30044613B10023A8
:1037100080F84C3004F15C02204601F04DFA6368F9
:103720009B68B3B994F85C3013F0600535D0002184
:10373000204601F0B5FC0021204601F0A7FC63689B
:103740001B6813B1062120469847062384F84C30A5
:1037500070BD204698470028E4D0B4F86230626D0E
:103760009A4288BF636594F95C30656D002B4FF019
:10377000200380F20381002D00F0F280092284F8FA
:103780004C2083F311880021D4E914232046FFF74D
:1037900073FF002383F31188DAE794F85D2003F0C8
:1037A0007F0343EA022340F20232934200F0C580D5
:1037B00021D8B3F5807F48D00DD8012B3FD0022B04
:1037C00000F09380002BB2D104F164022265022242
:1037D0006265A365C1E7B3F5817F00F09B80B3F517
:1037E000407FA4D194F85E30012BA0D1B4F86430AE
:1037F00043F0020332E0B3F5006F4DD017D8B3F5B4
:10380000A06F31D0A3F5C063012B90D8636894F802
:103810005E205E6894F85F10B4F860302046B047D0
:10382000002884D043682365036863651AE0B3F514
:10383000106F36D040F6024293427FF478AF5C4B73
:103840002365022363650023C3E794F85E30012BF0
:103850007FF46DAFB4F8643023F00203C4E914556B
:10386000A4F86430A56578E7B4F85C30B3F5A06FD0
:103870000ED194F85E3084F86630204601F0E2F80C
:1038800063681B6813B10121204698470323237006
:103890000023C4E914339CE704F167032365012383
:1038A000C3E72378042B10D1202383F3118820460B
:1038B000FFF7C4FE85F311880321636884F867501D
:1038C00021701B680BB12046984794F85E30002B9E
:1038D000DED084F867300423237063681B68002BF4
:1038E000D6D0022120469847D2E794F860301D06D2
:1038F00003F00F0120460AD501F050F9012804D049
:1039000002287FF414AF2B4B9AE72B4B98E701F07A
:1039100037F9F3E794F85E30002B7FF408AF94F8A2
:10392000603013F00F01B3D01A06204602D501F023
:10393000CBFBADE701F0BEFBAAE794F85E30002BAD
:103940007FF4F5AE94F8603013F00F01A0D01B06A1
:10395000204602D501F0A4FB9AE701F097FB97E718
:10396000142284F84C2083F311882B462A462946DA
:103970002046FFF76FFE85F31188E9E65DB1152259
:1039800084F84C2083F311880021D4E914232046C5
:10399000FFF760FEFDE60B2284F84C2083F31188CC
:1039A0002B462A4629462046FFF766FEE3E700BF7E
:1039B0001C5B0008145B0008185B000838B590F821
:1039C0004C300446002B3ED0063BDAB20F2A34D8E6
:1039D0000F2B32D8DFE803F0373131082232313192
:1039E0003131313131313737456DB0F862309D4278
:1039F00014D2C3681B8AB5FBF3F203FB12556DB9F1
:103A0000202383F311882B462A462946FFF734FEEC
:103A100085F311880A2384F84C300EE0142384F8CF
:103A20004C30202383F3118800231A461946204680
:103A3000FFF710FE002383F3118838BD836D03B1B7
:103A400098470023E7E70021204601F029FB0021E9
:103A5000204601F01BFB63681B6813B1062120465A
:103A600098470623D7E7000010B590F84C30142B88
:103A7000044629D017D8062B05D001D81BB110BD9C
:103A8000093B022BFBD80021204601F009FB002155
:103A9000204601F0FBFA63681B6813B1062120463B
:103AA0009847062319E0152BE9D10B2380F84C30F9
:103AB000202383F3118800231A461946FFF7DCFD03
:103AC000002383F31188DAE7C3689B695B68002BE6
:103AD000D5D1836D03B19847002384F84C30CEE7ED
:103AE000024B0022C3E900339A6070472C36002055
:103AF000002303748268054B1B6899689142FBD2CE
:103B00005A68036042601060586070472C3600208D
:103B100008B5202383F31188037C032B05D0042BE5
:103B20000DD02BB983F3118808BD436900221A60B8
:103B30004FF0FF334361FFF7DBFF0023F2E7D0E9EB
:103B4000003213605A60F3E7002303748268054B68
:103B50001B6899689142FBD85A6803604260106004
:103B6000586070472C360020054B19690874186896
:103B700002681A605360186101230374FCF758BD92
:103B80002C36002030B54B1C0B4D87B0044610D0AE
:103B90002B690A4A01A800F025F92046FFF7E4FF47
:103BA000049B13B101A800F059F92B69586907B0BB
:103BB00030BDFFF7D9FFF8E72C360020113B000895
:103BC00038B50C4D41612B6981689A689142044671
:103BD00003D8BDE83840FFF78BBF1846FFF7B4FFA6
:103BE00001232C61014623742046BDE83840FCF7D0
:103BF0001FBD00BF2C360020044B1A681B6990685B
:103C00009B68984294BF0020012070472C3600200A
:103C100010B5084C236820691A682260546001229C
:103C200023611A74FFF790FF01462069BDE8104038
:103C3000FCF7FEBC2C36002008B5FFF7DDFF18B1FD
:103C4000BDE80840FFF7E4BF08BD0000FFF7E0BF94
:103C5000FEE7000010B50C4CFFF742FF00F0B4F88F
:103C60000A498022204600F03BF8012344F8180C52
:103C7000037400F0F5FC002383F3118862B6044856
:103C8000BDE8104000F04CB854360020205B00081E
:103C9000305B000800F01CB9EFF3118020B9EFF39E
:103CA0000583202282F311887047000010B530B9D7
:103CB000EFF30584C4F3080414B180F3118810BD38
:103CC000FFF7BAFF84F31188F9E70000034A51684F
:103CD00053685B1A9842FBD8704700BF001000E0A1
:103CE00082600222028270478368A3F17C0243F85B
:103CF0000C2C026943F83C2C426943F8382C074AE3
:103D000043F81C2CC26843F8102C022203F8082C3C
:103D1000002203F8072CA3F1180070474906000899
:103D200010B5202383F31188FFF7DEFF002104463E
:103D3000FFF746FF002383F31188204610BD0000E3
:103D4000024B1B6958610F20FFF70EBF2C36002075
:103D5000202383F31188FFF7F3BF000008B5014665
:103D6000202383F311880820FFF70CFF002383F33F
:103D7000118808BD49B1064B42681B6918605A603A
:103D8000136043600420FFF7FDBE4FF0FF30704723
:103D90002C3600200368984206D01A6802605060F2
:103DA00059611846FFF7A4BE7047000038B50446B5
:103DB0000D462068844200D138BD036823605C60F2
:103DC0004561FFF795FEF4E7054B03F11402C3E9E3
:103DD00005224FF0FF310022C3E90712704700BFF0
:103DE0002C36002070B51C4EC0E9032305460C4656
:103DF00001F052FB334653F8142F9A420DD1306232
:103E0000C5E901242A600A2C2CBF00190A30C6E932
:103E10000555BDE8704001F02DBB316A431AE31827
:103E200038BF1C469368A34202D9081901F030FB41
:103E300073699A6894420CD85A68AC602B606A60C7
:103E400015609A685D60121B9A604FF0FF33F36152
:103E500070BD1B68A41AECE72C36002038B51B4C4B
:103E6000636998420DD0D0E9003213605A60002295
:103E70008168C2609A680A449A604FF0FF33E36138
:103E800038BD2246036842F8143F002193425A602D
:103E9000C16003D1BDE8384001F0F4BA9A68816886
:103EA000256A0A449A6001F0F7FA63699A68411B2F
:103EB0008A42E5D9AB181D1A092D206A98BF01F175
:103EC0000A02BDE83840104401F0E2BA2C36002066
:103ED0002DE9F041184C002704F11406656901F042
:103EE000DBFA236AAA68C11A8A4215D813442362EE
:103EF000D5E9003213605A606369D5F80C80EF6031
:103F0000B34201D101F0BEFA87F311882869C04796
:103F1000202383F31188E1E76169B14209D013449A
:103F20001B1ABDE8F0410A2B2CBFC0180A3001F063
:103F3000AFBABDE8F08100BF2C36002000207047EA
:103F4000FEE70000704700004FF0FF3070470000B0
:103F500002290CD0032904D00129074818BF0020EA
:103F60007047032A05D8054800EBC2007047044893
:103F700070470020704700BF145C00085C230020DD
:103F8000C85B000870B59AB00546084601A91446FA
:103F900000F0C2F801A8FDF781FE431C5B00C5E9F3
:103FA00000340022237003236370C6B201AB0234D5
:103FB0001046D1B28E4204F1020401D81AB070BD8D
:103FC00013F8011B04F8021C04F8010C0132F0E79D
:103FD00008B5202383F311880348FFF771FA002303
:103FE00083F3118808BD00BFE837002090F85C30EB
:103FF00003F01F02012A07D190F85D200B2A03D19C
:104000000023C0E9143315E003F06003202B08D12E
:10401000B0F860302BB990F85D20212A03D81F2A10
:1040200004D8FFF72FBA222AEBD0FAE7034A026539
:104030000722426583650120704700BF532300209B
:1040400007B5052917D8DFE801F01916031919205B
:10405000202383F31188104A01900121FFF7D4FA3D
:1040600001980E4A0221FFF7CFFA0D48FFF7F4F945
:10407000002383F3118803B05DF804FB202383F34E
:1040800011880748FFF7BEF9F2E7202383F3118870
:104090000348FFF7D5F9EBE7685B00088C5B000885
:1040A000E837002038B50C4D0C4C0D492A4604F178
:1040B0000800FFF767FF05F1CA0204F11000094983
:1040C000FFF760FF05F5CA7204F118000649BDE864
:1040D0003840FFF757BF00BFB03C00205C230020F2
:1040E000485B0008525B00085D5B000870B5044641
:1040F00008460D46FDF7D2FDC6B2204601340378CE
:104100000BB9184670BD32462946FDF7B3FD0028AD
:10411000F3D10120F6E700002DE9F84F05460C46E3
:10412000FDF7BCFD2B49C6B22846FFF7DFFF08B1FB
:104130000336F6B228492846FFF7D8FF08B11036F3
:10414000F6B2632E0DD8DFF88C80DFF88C90234F09
:10415000DFF890A0DFF890B02E7846B92670BDE861
:10416000F88F29462046BDE8F84F01F045BC252EC2
:104170002BD1072241462846FDF77CFD58B9DBF8D4
:1041800000302360DBF804306360BBF80830238123
:1041900007350A34E0E7082249462846FDF76AFD5C
:1041A00098B90F4BA21C197809090232C95D02F8AF
:1041B000041C13F8011B01F00F015345C95D02F8FF
:1041C000031CF0D118340835C6E704F8016B01353B
:1041D000C2E700BF345C00085D5B00083C5C00087F
:1041E000107AF01F1C7AF01F165A0008BFF34F8F89
:1041F000024AD368DB03FCD4704700BF003C024096
:1042000008B5074B1B7853B9FFF7F0FF054B1A6948
:10421000002ABFBF044A5A6002F188325A6008BDC2
:104220000E3F0020003C02402301674508B5054BC6
:104230001B7833B9FFF7DAFF034A136943F00043F1
:10424000136108BD0E3F0020003C02400728F0B576
:1042500016D80C4C0C4923787BB90C4D0E4608231C
:104260004FF0006255F8047B46F8042B013B13F035
:10427000FF033A44F6D10123237051F82000F0BD2A
:104280000020FCE7303F0020103F0020505C000879
:10429000014B53F820007047505C0008082070471D
:1042A000072810B5044601D9002010BDFFF7CEFF46
:1042B000064B53F824301844C21A0BB90120F4E716
:1042C00012680132F0D1043BF6E700BF505C0008F1
:1042D000072838B5044628D8FFF7DEFCFFF786FF2D
:1042E000FFF78EFF124AF323D360E300DBB243F4FF
:1042F000007343F002031361136943F480331361C5
:1043000005462046FFF772FFFFF7A0FF094B53F861
:10431000241000F03BF92846FFF788FFFFF7C6FCA2
:104320002046BDE83840FFF7BBBF002038BD00BFC6
:10433000003C0240505C000812F001032DE9F041FE
:1043400005460E4614464BD18118334A914261D836
:10435000324B1B6813F001035CD0314FFFF79CFC1C
:10436000FFF74EFFF323FB60FFF740FF314640F2BB
:104370000128032C18D824F00104294E0C446D1A8E
:1043800040F20118A142336905EB01072AD123F05D
:1043900001033361FFF74AFFFFF788FC0120BDE806
:1043A000F081043C0435E4E7AB07E4D13B6923F436
:1043B00040733B613B6943EA08033B6151F8046B7E
:1043C0002E60BFF34F8FFFF711FF2B689E42E8D09E
:1043D0003B6923F001033B61FFF728FFFFF766FC11
:1043E0000020DCE723F440733361336943EA0803B8
:1043F00033610B883B80BFF34F8FFFF7F7FE3F8899
:1044000031F8023BBFB2BB42BCD0336923F0010399
:104410003361E1E71846C2E70000080800380240AF
:10442000003C0240084908B50B7828B11BB9FFF7DA
:10443000E7FE01230B7008BD002BFCD0BDE808404F
:104440000870FFF7F3BE00BF0E3F002070B582B0CA
:10445000FFF722FC0E4E054601F01EF8326890422E
:1044600037BF0C4A0B49516814682EBFD1E900418F
:10447000013151600419034641F1000128460191C0
:104480003360FFF713FC0199204602B070BD00BFF6
:10449000343F0020383F002070B582B0FFF7FCFBAE
:1044A000104E054600F0F8FF3268904237BF0E4AC2
:1044B0000D49516814682EBFD1E9004101315160A6
:1044C000041941F100010346284601913360FFF7CA
:1044D000EDFB01994FF47A7200232046FBF790FE22
:1044E00002B070BD343F0020383F002010B50244B8
:1044F000064BD2B2904200D110BD441C00B253F81A
:10450000200041F8040BE0B2F4E700BF502800405F
:104510000F4B30B51C6F240407D41C6F44F4007497
:104520001C671C6F44F400441C670A4C236843F466
:10453000807323600244084BD2B2904200D130BD58
:10454000441C00B251F8045B43F82050E0B2F4E799
:1045500000380240007000405028004007B501229A
:1045600001A90020FFF7C2FF019803B05DF804FB2A
:1045700013B50446FFF7F2FFA04205D0012201A9BE
:1045800000200194FFF7C4FF02B010BD0144BFF347
:104590004F8F064B884204D3BFF34F8FBFF36F8F0B
:1045A0007047C3F85C022030F4E700BF00ED00E084
:1045B000074B45F255521A6002225A6040F6FF72CC
:1045C0009A604CF6CC421A60024B01221A70704776
:1045D00000300040443F0020034B1B781BB1034BCD
:1045E0004AF6AA221A607047443F0020003000407B
:1045F000034B1A681AB9034AD2F874281A60704734
:10460000403F002000300240024B4FF08072C3F860
:10461000742870470030024008B5FFF7E9FF024BED
:104620001868C0F3407008BD403F002008B5FFF790
:10463000DFFF024B1868C0F3007008BD403F002048
:10464000EFF3098305494A6B22F001024A6368339C
:1046500083F30988002383F31188704700EF00E09B
:10466000202080F3118862B60D4B0E4AD96821F4E0
:10467000E0610904090C0A43DA60D3F8FC200A4916
:1046800042F08072C3F8FC20084AC2F8B01F1168DB
:1046900041F0010111601022DA7783F8220070479F
:1046A00000ED00E00003FA0555CEACC5001000E0B7
:1046B00010B5202383F311880E4B5B6813F400635D
:1046C00014D0F1EE103AEFF30984683C4FF0807398
:1046D000E361094BDB6B236684F30988FFF78CFAEF
:1046E00010B1064BA36110BD054BFBE783F31188A6
:1046F000F9E700BF00ED00E000EF00E05B06000816
:104700005E06000870B5BFF34F8FBFF36F8F1A4A74
:104710000021C2F85012BFF34F8FBFF36F8F536960
:1047200043F400335361BFF34F8FBFF36F8FC2F871
:104730008410BFF34F8FD2F88030C3F3C900C3F3A6
:104740004E335B0143F6E07403EA0406014646EA91
:1047500081750139C2F86052F9D2203B13F1200F64
:10476000F2D1BFF34F8F536943F480335361BFF3EA
:104770004F8FBFF36F8F70BD00ED00E0FEE70000CC
:104780000A4B0B480B4A90420BD30B4BDA1C121A04
:10479000C11E22F003028B4238BF00220021FDF728
:1047A00085BA53F8041B40F8041BECE7245E0008AC
:1047B000584000205840002058400020704700001A
:1047C00070B5D0E91B439E6800224FF0FF3504EB23
:1047D00042135101D3F800090028BEBFD3F80009E5
:1047E00040F08040C3F80009D3F8000B0028BEBF9A
:1047F000D3F8000B40F08040C3F8000B013263187F
:104800009642C3F80859C3F8085BE0D24FF0011391
:10481000C4F81C3870BD00001D4B03EB80022DE96D
:10482000F043D2F80CC0DD6EDCF81420461CD2F840
:1048300000E005EB063605EB4018516871450AD3D8
:10484000D5F83438012202FA00F023EA0000C5F856
:104850003408BDE8F083BCF81040AEEB0103A3427E
:1048600028BF2346D8F81849A4B2B3EB840FF0D878
:104870009468A4F1040959F8047F3760A4EB090790
:104880001F44042FF7D81C440B4494605360D4E7B2
:10489000483F0020890141F02001016103699B0626
:1048A000FCD41220FFF712BA10B5054C2046FEF7D3
:1048B00089FE4FF0A043E366024B236710BD00BFA3
:1048C000483F0020945C000870B50378012B054632
:1048D00050D12A4BC46E98421BD1294B5A6B42F0DF
:1048E00080025A635A6D42F080025A655A6D5A69C5
:1048F00042F080025A615A6922F080025A610E2108
:1049000043205B69FEF734FC1E4BE3601E4BC4F88A
:1049100000380023C4F8003EC0232360EE6E4FF43D
:104920000413A3633369002BFCDA012333610C20E9
:10493000FFF7CCF93369DB07FCD41220FFF7C6F987
:104940003369002BFCDA0026A6602846FFF738FF03
:104950006B68C4F81068DB68C4F81468C4F81C6895
:104960004BB90A4BA3614FF0FF336361A36843F077
:104970000103A36070BD064BF4E700BF483F002071
:10498000003802404014004003002002003C30C0C8
:10499000083C30C0F8B5C46E054600212046FFF73C
:1049A00079FF296F00234FF001128F68C4F8343863
:1049B0004FF00066C4F81C284FF0FF3004EB4312A0
:1049C00001339F42C2F80069C2F8006BC2F80809BF
:1049D000C2F8080BF2D20B68EA6E6B6763621023B1
:1049E0001361166916F01006FBD11220FFF76EF95D
:1049F000D4F8003823F4FE63C4F80038A36943F404
:104A0000402343F01003A3610923C4F81038C4F80D
:104A100014380A4BEB604FF0C043C4F8103B084B0E
:104A2000C4F8003BC4F81069C4F800396B6F03F197
:104A3000100243F480136A67A362F8BD705C00083B
:104A400040800010C26E90F86610D2F8003823F44F
:104A5000FE6343EA0113C2F8003870472DE9F843BA
:104A600000EB8103C56EDA68166806F00306731E54
:104A7000022B05EB41130C4680460FFA81F94FEAF1
:104A800041104FF00001C3F8101B4FF0010104F179
:104A9000100398BFB60401FA03F391698EBF334E39
:104AA00006F1805606F5004600293AD0578A04F1EF
:104AB0005801490137436F50D5F81C180B43C5F80E
:104AC0001C382B180021C3F8101953690127611EE7
:104AD000A7409BB3138A928B9B08012A88BF53433C
:104AE000D8F87420981842EA034301F1400205EB1C
:104AF0008202C8F87400214653602846FFF7CAFEB8
:104B000008EB8900C3681B8A43EA84534834640174
:104B10001E432E51D5F81C381F43C5F81C78BDE83C
:104B2000F88305EB4917D7F8001B21F40041C7F8BB
:104B3000001BD5F81C1821EA0303C0E704F13F036A
:104B400005EB83030A4A5A6028462146FFF7A2FE76
:104B500005EB4910D0F8003923F40043C0F80039C0
:104B6000D5F81C3823EA0707D7E700BF00800010FC
:104B700000040002026F12684267FFF721BE0000C6
:104B80005831C36E49015B5813F4004004D013F44C
:104B9000001F0CBF02200120704700004831C36E87
:104BA00049015B5813F4004004D013F4001F0CBFFC
:104BB000022001207047000000EB8101CB68196AD8
:104BC0000B6813604B6853607047000000EB810373
:104BD00030B5DD68AA691368D36019B9402B84BF6A
:104BE000402313606B8A1468C26E1C44013CB4FB02
:104BF000F3F46343033323F0030302EB411043EA6E
:104C0000C44343F0C043C0F8103B2B6803F00303D8
:104C1000012B09B20ED1D2F8083802EB411013F47F
:104C2000807FD0F8003B14BF43F0805343F0005323
:104C3000C0F8003B02EB4112D2F8003B43F00443C2
:104C4000C2F8003B30BD00002DE9F041244DEE6E6E
:104C500006EB40130446D3F8087BC3F8087B3807FB
:104C60000AD5D6F81438190706D505EB8403214672
:104C7000DB6828465B689847FA071FD5D6F81438D2
:104C8000DB071BD505EB8403D968CCB98B69488A4F
:104C90005A68B2FBF0F600FB16228AB91868DA6887
:104CA00090420DD2121AC3E90024202383F3118805
:104CB0000B482146FFF78AFF84F31188BDE8F08195
:104CC000012303FA04F26B8923EA02036B81CB68A8
:104CD000002BF3D021460248BDE8F041184700BF41
:104CE000483F002000EB810370B5DD68C36E6C693E
:104CF0002668E6604A0156BB1A444FF40020C2F809
:104D000010092A6802F00302012A0AB20ED1D3F870
:104D1000080803EB421410F4807FD4F8000914BF94
:104D200040F0805040F00050C4F8000903EB4212FC
:104D3000D2F8000940F00440C2F80009D3F8340862
:104D4000012202FA01F10143C3F8341870BD19B908
:104D5000402E84BF4020206020682E8A8419013CA8
:104D6000B4FBF6F440EAC44040F000501A44C6E7F1
:104D7000F8B504461E48C56E05EB4413D3F8086920
:104D8000C3F80869F10717D5D5F81038DA0713D535
:104D900000EB8403D9684B691F68DA68974218D220
:104DA000D21B00271A605F60202383F311882146FD
:104DB000FFF798FF87F31188330617D5D5F8342805
:104DC0000123A340134211D02046BDE8F840FFF76D
:104DD00023BD012303FA04F2038923EA02030381BA
:104DE0008B68002BE8D021469847E5E7F8BD00BF67
:104DF000483F00202DE9F74FA34CE66E7569B36973
:104E00001D4015F48058756107D02046FEF746FC1A
:104E100003B0BDE8F04FFFF74BBC002D12DAD6F817
:104E2000003E99489F071EBFD6F8003E23F00303BB
:104E3000C6F8003ED6F8043823F00103C6F804385B
:104E4000FEF756FC280505D58F48FFF7B9FC8E48BC
:104E5000FEF73EFCA9040CD5D6F8083813F0060F6F
:104E6000F36823F470530CBF43F4105343F4A0537E
:104E7000F3602A0704D56368DB680BB18248984762
:104E8000EB0200F18A80AF0227D5D4F86C90DFF8EE
:104E9000F8B100274FF0010A09EB4712D2F8003BA6
:104EA00003F44023B3F5802F11D1D2F8003B002B3F
:104EB0000DDA62890AFA07F322EA0303638104EB3D
:104EC0008703DB68DB6813B1394658469847236F80
:104ED00001379B68FFB29F42DED9E80618D5E76E1E
:104EE0003A6AC2F30A1002F00F0302F4F012B2F5AC
:104EF000802F00F09D80B2F5402F09D104EB830391
:104F00000022DB681B6A07F58057904240F08280E0
:104F10002B03D6F818481DD5E70302D50020FFF76C
:104F200093FEA60302D50120FFF78EFE600302D593
:104F30000220FFF789FE210302D50320FFF784FE3C
:104F4000E20202D50420FFF77FFEA30202D505206E
:104F5000FFF77AFE6F037FF55BAFE60702D500200F
:104F6000FFF706FFA50702D50120FFF701FF600745
:104F700002D50220FFF7FCFE210702D50320FFF730
:104F8000F7FEE20602D50420FFF7F2FEA3067FF546
:104F90003FAF0520FFF7ECFE3AE7E36EDFF8E8B03D
:104FA000019300274FF0010A236F9B685FFA87F98E
:104FB00099453FF668AF019B03EB4913D3F80029ED
:104FC00002F44022B2F5802F22D1D3F80029002A22
:104FD0001EDAD3F8002942F09042C3F80029D3F832
:104FE0000029002AFBDBE06E4946FFF753FC2289CB
:104FF0000AFA09F322EA0303238104EB8903DB683D
:105000009B6813B14946584698474846FFF704FC49
:105010000137C9E7910708BFD7F80080072A98BF72
:1050200003F8018B02F1010298BF4FEA18286CE7E0
:10503000023304EB830207F580575268D2F818C098
:10504000DCF80820DCE9001CA1EB0C0C00218842F4
:105050000AD104EB830463689B699A6802449A60EE
:105060005A6802445A6053E711F0030F08BFD7F89B
:1050700000808C4588BF02F8018B01F1010188BFD7
:105080004FEA1828E3E700BF483F0020C36E03EB58
:105090004111D1F8003B43F40013C1F8003B7047C5
:1050A000C36E03EB4111D1F8003943F40013C1F88A
:1050B00000397047C36E03EB4111D1F8003B23F474
:1050C0000013C1F8003B7047C36E03EB4111D1F8E8
:1050D000003923F40013C1F80039704730B5039C40
:1050E0000172043304FB0325C0E90653049B0363E8
:1050F0000021059BC160C0E90000C0E90422C0E9AD
:105100000842C0E90A11436330BD0000416A002231
:10511000C0E90411C0E90A22C2606FF00101FEF784
:1051200045BE0000D0E90432934201D1C2680AB9F9
:10513000181D70470020704703691960C26801326A
:10514000C260C269134482690361934224BF436A07
:1051500003610021FEF71EBE38B504460D46E36824
:105160003BB16269131D1268A3621344E36200201D
:1051700007E0237A33B929462046FEF7FBFD0028D5
:10518000EDDA38BD6FF00100FBE70000C368C269CB
:10519000013BC3604369134482694361934224BF66
:1051A000436A436100238362036B03B1184770476E
:1051B00070B52023044683F31188866A3EB9FFF751
:1051C000CBFF054618B186F31188284670BDA36A47
:1051D000E26A13F8015BA362934202D32046FFF711
:1051E000D5FF002383F31188EFE700002DE9F84F86
:1051F00004460E46174698464FF0200989F3118859
:105200000025AA46D4F828B0BBF1000F09D14146C9
:105210002046FFF7A1FF20B18BF311882846BDE897
:10522000F88FD4E90A12A7EB050B521A934528BF51
:105230009346BBF1400F1BD9334601F1400251F8B0
:10524000040B43F8040B9142F9D1A36A4033403672
:10525000A3624035D4E90A239A4202D32046FFF7DD
:1052600095FF8AF31188BD42D8D289F31188C9E726
:1052700030465A46FCF7F4FCA36A5B445E44A362E2
:105280005D44E7E710B5029C0172043304FB03217F
:10529000C0E906130023C0E90A33039B0363049BA0
:1052A000C460C0E90000C0E90422C0E908424363C9
:1052B00010BD0000026AC260426AC0E904220022F6
:1052C000C0E90A226FF00101FEF770BDD0E90423A6
:1052D0009A4201D1C26822B9184650F8043B0B60CB
:1052E0007047002070470000C368C2690133C36083
:1052F0004369134482694361934224BF436A436113
:105300000021FEF747BD000038B504460D46E368AE
:105310003BB123691A1DA262E2691344E3620020D3
:1053200007E0237A33B929462046FEF723FD0028FB
:10533000EDDA38BD6FF00100FBE70000036919608A
:10534000C268013AC260C269134482690361934230
:1053500024BF436A036100238362036B03B11847D0
:105360007047000070B520230D460446114683F3B4
:105370001188866A2EB9FFF7C7FF10B186F311882E
:1053800070BDA36A1D70A36AE26A01339342A362EF
:1053900004D3E16920460439FFF7D0FF002080F3F1
:1053A0001188EDE72DE9F84F04460D4690469946E1
:1053B0004FF0200A8AF311880026B346A76A4FB936
:1053C00049462046FFF7A0FF20B187F311883046F9
:1053D000BDE8F88FD4E90A073A1AA8EB0607974206
:1053E00028BF1746402F1BD905F1400355F8042B61
:1053F00040F8042B9D42F9D1A36A4033A3624036A2
:10540000D4E90A239A4204D3E16920460439FFF71C
:1054100095FF8BF311884645D9D28AF31188CDE7E1
:1054200029463A46FCF71CFCA36A3B443D44A36270
:105430003E44E5E7D0E904239A4217D1C3689BB103
:10544000836A8BB1043B9B1A0ED01360C368013B87
:10545000C360C3691A44836902619A4224BF436AE4
:105460000361002383620123184670470023FBE792
:1054700000F088B84FF08043002258631A6102227E
:10548000DA6070474FF080430022DA607047000016
:105490004FF08043586370474FF08043586A70471D
:1054A0004B6843608B688360CB68C3600B69436162
:1054B0004B6903628B6943620B68036070470000AD
:1054C00008B5264B26481A6940F2FF110A431A61B3
:1054D0001A6922F4FF7222F001021A611A691A6B2A
:1054E0000A431A631A6D0A431A651E4A1B6D114658
:1054F000FFF7D6FF02F11C0100F58060FFF7D0FF37
:1055000002F1380100F58060FFF7CAFF02F1540193
:1055100000F58060FFF7C4FF02F1700100F58060C4
:10552000FFF7BEFF02F18C0100F58060FFF7B8FFC6
:1055300002F1A80100F58060FFF7B2FF02F1C4019B
:1055400000F58060FFF7ACFF02F1E00100F580603C
:10555000FFF7A6FFBDE8084000F088B80038024019
:1055600000000240A05C000808B500F0F3F9FEF767
:1055700071FBFFF73DF8BDE80840FEF793BD000062
:10558000704700000F4B1A6C42F001021A641A6E49
:1055900042F001021A660C4A1B6E936843F0010345
:1055A00093604FF080436B229A624FF0FF32DA62D1
:1055B00000229A615A63DA605A6001225A611A60C5
:1055C000704700BF00380240002004E04FF08042E6
:1055D00008B51169D3680B40D9B2C9439B07116163
:1055E00007D5202383F31188FEF754FB002383F3B0
:1055F000118808BD1B4B1A696FEAC2526FEAD2527A
:105600001A611A69C2F308021A614FF0FF301A6971
:105610005A69586100215A6959615A691A6A62F0D7
:1056200080521A621A6A02F080521A621A6A5A6A20
:1056300058625A6A59625A6A0B4A106840F480707C
:105640001060186F00F44070B0F5007F1EBF4FF47B
:10565000803018671967536823F40073536000F0B3
:1056600055B900BF0038024000700040364B374A41
:105670001A64374A4FF4404111601A6842F001023F
:105680001A601A689207FCD59A6822F003029A60A1
:105690002D4B9A6812F00C02FBD1196801F0F90148
:1056A00019609A601A6842F480321A601A6890038E
:1056B000FCD55A6F42F001025A67234B5A6F91078B
:1056C000FCD5244A5A601A6842F080721A60204B56
:1056D0005A685204FCD51A6842F480321A605A683B
:1056E000D003FCD51A6842F400321A60184A536895
:1056F0009903FCD5144B1A689201FCD5164A9A609E
:1057000040F20112C3F88C200022C3F89020134A03
:1057100040F207331360136803F00F03072BFAD12D
:10572000094B9A6842F002029A609A6802F00C02F1
:10573000082AFAD15A6C42F480425A645A6E42F4F2
:1057400080425A665B6E70470038024000040010C9
:1057500000700040106C400900948838003C024002
:10576000074A08B5536903F00103536123B1054AA1
:1057700013680BB150689847BDE80840FEF798BF22
:10578000003C0140D83F0020074A08B5536903F0A8
:105790000203536123B1054A93680BB1D06898475F
:1057A000BDE80840FEF784BF003C0140D83F002020
:1057B000074A08B5536903F00403536123B1054A4E
:1057C00013690BB150699847BDE80840FEF770BFF8
:1057D000003C0140D83F0020074A08B5536903F058
:1057E0000803536123B1054A93690BB1D069984707
:1057F000BDE80840FEF75CBF003C0140D83F0020F8
:10580000074A08B5536903F01003536123B1054AF1
:10581000136A0BB1506A9847BDE80840FEF748BFCD
:10582000003C0140D83F0020164B10B55C6904F4E1
:1058300078725A61A30604D5134A936A0BB1D06AF1
:105840009847600604D5104A136B0BB1506B98470C
:10585000210604D50C4A936B0BB1D06B9847E20537
:1058600004D5094A136C0BB1506C9847A30504D5B5
:10587000054A936C0BB1D06C9847BDE81040FEF719
:1058800017BF00BF003C0140D83F0020194B10B5A6
:105890005C6904F47C425A61620504D5164A136DB2
:1058A0000BB1506D9847230504D5134A936D0BB186
:1058B000D06D9847E00404D50F4A136E0BB1506EBB
:1058C0009847A10404D50C4A936E0BB1D06E98474B
:1058D000620404D5084A136F0BB1506F9847230434
:1058E00004D5054A936F0BB1D06F9847BDE81040BF
:1058F000FEF7DEBE003C0140D83F002008B5FFF7B0
:1059000065FEBDE80840FEF7D3BE0000062108B5DD
:105910000846FDF72DFC06210720FDF729FC06218E
:105920000820FDF725FC06210920FDF721FC0621B2
:105930000A20FDF71DFC06211720FDF719FC0621A2
:105940002820FDF715FCBDE8084007211C20FDF7C5
:105950000FBC000008B5FFF74DFE00F00DF8FDF795
:105960001DFCFDF72DFEFDF705FDFFF709FEBDE867
:105970000840FFF77DBD00000023054A19460133AA
:10598000102BC2E9001102F10802F8D1704700BFE4
:10599000D83F002010B501390244904201D10020C7
:1059A00005E0037811F8014FA34201D0181B10BD88
:1059B0000130F2E72DE9F041A3B1C91A177801448B
:1059C000044603F1FF3C8C42204601D9002009E047
:1059D0000578BD4204F10104F5D10CEB0405D6189D
:1059E000A54201D1BDE8F08115F8018D16F801ED51
:1059F000F045F5D0E7E70000034611F8012B03F866
:105A0000012B002AF9D170476F72672E617264759D
:105A100070696C6F742E46726565666C7952544B72
:105A2000000000004E6F20617070207369670A00EB
:105A3000426164206677206C656E67746820257506
:105A40000A0042616420626F6172645F69642025AC
:105A5000752073686F756C642062652025750A0077
:105A60004261642066772064657363726970746F45
:105A700072206C656E6774682025750A0042616447
:105A80002061707020435243203078253038783AB6
:105A9000307825303878203078253038783A3078AA
:105AA000253038780A00476F6F64206669726D7719
:105AB0006172650A0040A2E4F1646891060000008A
:105AC00053544D3332463F3F3F3F3F3F0053544DC9
:105AD000333246375B347C355D780053544D333276
