:020000040800F2
:1000000000090020F5040008052900080929000856
:10001000612900080929000835290008F7040008AB
:10002000F7040008F7040008F70400083537000853
:10003000F7040008F7040008F7040008F7040008B4
:10004000F7040008F7040008F7040008F7040008A4
:10005000F7040008F7040008354900085D49000866
:1000600085490008AD490008D5490008F704000893
:10007000F7040008F7040008F7040008F704000874
:10008000F7040008F7040008F7040008F704000864
:10009000F70400086926000879260008FD490008D1
:1000A000F7040008F7040008F7040008F704000844
:1000B000E54A0008F7040008F7040008F704000800
:1000C000F7040008F7040008F7040008F704000824
:1000D000F7040008D14A0008F7040008F7040008F4
:1000E000614A0008F7040008F7040008F704000854
:1000F000F7040008F7040008F7040008F7040008F4
:10010000F7040008F7040008F7040008F7040008E3
:10011000F7040008F7040008F7040008F7040008D3
:10012000F7040008F7040008F7040008F7040008C3
:10013000F7040008F7040008F7040008F7040008B3
:10014000F7040008F7040008F7040008F7040008A3
:10015000F7040008F7040008F7040008F704000893
:10016000F7040008F7040008F7040008F704000883
:10017000F7040008F7040008F7040008F704000873
:10018000F7040008F7040008F7040008F704000863
:10019000F7040008F7040008F7040008F704000853
:1001A000F7040008F7040008F7040008F704000843
:1001B000F7040008F7040008F7040008F704000833
:1001C000F7040008F7040008F7040008F704000823
:1001D000F7040008F7040008F7040008F704000813
:1001E00049180008000000000000000000000000A6
:1001F00053B94AB9002908BF00281CBF4FF0FF318E
:100200004FF0FF3000F074B9ADF1080C6DE904CE89
:1002100000F006F8DDF804E0DDE9022304B07047E1
:100220002DE9F047089D04468E46002B4DD18A42A9
:10023000944669D9B2FA82F252B101FA02F3C2F1DC
:10024000200120FA01F10CFA02FC41EA030E94406D
:100250004FEA1C48210CBEFBF8F61FFA8CF708FB8E
:1002600016E341EA034306FB07F199420AD91CEB66
:10027000030306F1FF3080F01F81994240F21C8198
:10028000023E63445B1AA4B2B3FBF8F008FB1033E0
:1002900044EA034400FB07F7A7420AD91CEB040415
:1002A00000F1FF3380F00A81A74240F207816444E5
:1002B000023840EA0640E41B00261DB1D44000236A
:1002C000C5E900433146BDE8F0878B4209D9002DCE
:1002D00000F0EF800026C5E9000130463146BDE858
:1002E000F087B3FA83F6002E4AD18B4202D38242C2
:1002F00000F2F980841A61EB030301209E46002D71
:10030000E0D0C5E9004EDDE702B9FFDEB2FA82F2C5
:10031000002A40F09280A1EB0C014FEA1C471FFA23
:100320008CFE0126200CB1FBF7F307FB131140EA0A
:1003300001410EFB03F0884208D91CEB010103F1D7
:10034000FF3802D2884200F2CB804346091AA4B299
:10035000B1FBF7F007FB101144EA01440EFB00FE6D
:10036000A64508D91CEB040400F1FF3102D2A645D2
:1003700000F2BB800846A4EB0E0440EA03409CE771
:10038000C6F12007B34022FA07FC4CEA030C20FA1E
:1003900007F401FA06F31C43F9404FEA1C4900FA3E
:1003A00006F3B1FBF9F8200C1FFA8CFE09FB1811BB
:1003B00040EA014108FB0EF0884202FA06F20BD92E
:1003C0001CEB010108F1FF3A80F08880884240F27E
:1003D0008580A8F102086144091AA4B2B1FBF9F0C2
:1003E00009FB101144EA014100FB0EFE8E4508D9BD
:1003F0001CEB010100F1FF346CD28E456AD9023842
:10040000614440EA0840A0FB0294A1EB0E01A14226
:10041000C846A64656D353D05DB1B3EB080261EB94
:100420000E0101FA07F722FA06F3F1401F43C5E96E
:10043000007100263146BDE8F087C2F12003D840A4
:100440000CFA02FC21FA03F3914001434FEA1C47E6
:100450001FFA8CFEB3FBF7F007FB10360B0C43EAD8
:10046000064300FB0EF69E4204FA02F408D91CEB88
:10047000030300F1FF382FD29E422DD90238634486
:100480009B1B89B2B3FBF7F607FB163341EA034126
:1004900006FB0EF38B4208D91CEB010106F1FF3875
:1004A00016D28B4214D9023E6144C91A46EA00466C
:1004B00038E72E46284605E70646E3E61846F8E6FE
:1004C0004B45A9D2B9EB020864EB0C0E0138A3E747
:1004D0004646EAE7204694E74046D1E7D0467BE728
:1004E000023B614432E7304609E76444023842E7A0
:1004F000704700BF02E000F000F8FEE772B63A482D
:1005000080F30888394880F3098839484EF6085145
:10051000CEF20001086040F20000CCF200004EF67E
:100520003471CEF200010860BFF34F8FBFF36F8FBD
:1005300040F20000C0F2F0004EF68851CEF2000109
:100540000860BFF34F8FBFF36F8F4FF00000E1EEF5
:10055000100A4EF63C71CEF200010860062080F3CE
:100560001488BFF36F8F04F077F804F053F804F0A9
:100570009DF84FF055301F491B4A91423CBF41F84E
:10058000040BFAE71C49194A91423CBF41F8040B9D
:10059000FAE71A491A4A1B4B9A423EBF51F8040B1C
:1005A00042F8040BF8E700201749184A91423CBF73
:1005B00041F8040BFAE704F031F804F0BDF8144CEC
:1005C000144DAC4203DA54F8041B8847F9E700F0F5
:1005D00041F8114C114DAC4203DA54F8041B884722
:1005E000F9E704F019B8000000090020001100200C
:1005F000000000080001002000090020304F000822
:10060000001100208C110020901100207C3B002064
:10061000E0010008E4010008E4010008E40100082A
:100620002DE9F04F2DED108AC1F80CD0C3689D461E
:10063000BDEC108ABDE8F08F002383F311882846B3
:10064000A047002003F0F2FCFEE703F06BFC00DFA4
:10065000FEE70000F8B503F083FF074603F0D4FF80
:10066000044688BB1D4B9F422ED001339F422ED0A3
:100670001B4B27F0FF029A422CD1F8B200F02EFD5E
:10068000264642F2107500F033FF00F02DFD08B948
:100690000646054634B1134B9F4203D003F0ACFF2E
:1006A00000252E46002003F065FF0EB100F062F831
:1006B00001F040FA00F03EFF01F02CF9284600F06E
:1006C000ADF800F057F8F9E726460025DBE70546C8
:1006D0000126D8E706464FF47A75D4E7010007B043
:1006E000000008B0263A09B008B501F0E5F8A0F11D
:1006F00020035842584108BD07B541F212030221B8
:1007000001A8ADF8043001F0F5F803B05DF804FB82
:1007100010B5202383F311881248C3680BB103F08E
:10072000FDFC114A0F4800234FF47A7103F0BAFC24
:10073000002383F311880D4C236813B12368013B18
:100740002360636813B16368013B6360084B1B78E7
:1007500033B9636823B9022001F07AF93223636068
:1007600010BD00BF9011002011070008AC1200203E
:10077000A411002038B5234A234B1968013140D019
:1007800004339342F9D1214C1F4DD4F80428AA42D6
:1007900037D31F4B9B6803F1006303F5D0439A42A4
:1007A0002FD203F0FBFE03F00DFF002001F0CCF888
:1007B000184B0220187001F043F9174B9A6D002274
:1007C0009A65996F9A67996FD96DDA65D96FDA670B
:1007D000D96F196E1A66D3F88010C3F88020D3F849
:1007E000803072B64FF0E0232021C3F8085DD4F8C2
:1007F0000038D4F8042881F311889D4683F30888D3
:10080000104738BD20680008006800080060000834
:1008100000110020A4110020001002402DE9F04F2B
:1008200093B0AC4B00902022FF210AA89D6801F0F4
:100830002BF9A94A1378A3B9A8480121C360117004
:10084000202383F31188C3680BB103F067FCA44A2B
:10085000A24800234FF47A7103F024FC002383F3B1
:100860001188009B9F4A03B113609F49009C00239D
:100870000B70536098469B461E469A46012001F035
:10088000DFF824B1974B1B68002B00F01C8200207E
:1008900001F012F80390039B002B01DA00F08EFEAA
:1008A000039B002BEDDB012001F0C2F8039B213BF1
:1008B000162BE3D801A252F823F000BF1909000853
:1008C00041090008D50900087D0800087D080008D6
:1008D0007D080008690A00083B0C0008550B000859
:1008E000B70B0008DF0B0008050C00087D080008A6
:1008F000170C00087D080008890C0008B9090008D9
:100900007D080008CD0C000825090008B909000879
:100910007D080008B70B00080220FFF7E5FE00285D
:1009200040F0FB81009B0221B8F1000F08BF1C467C
:1009300005A841F21233ADF8143000F0DBFF9DE75B
:100940004FF47A7000F0B8FF071EEBDB0220FFF7D0
:10095000CBFE0028E6D0013F052F00F2E081DFE862
:1009600007F0030A0D10133605230593042105A88B
:1009700000F0C0FF17E057480421F9E75B48042165
:10098000F6E75B480421F3E74FF01C09484600F006
:10099000DDFF09F104090590042105A800F0AAFF74
:1009A000B9F12C0FF2D1012000FA07F747EA0B0B3F
:1009B0005FFA8BFB4FF0000A01F0B2F826B10BF0A2
:1009C0000B030B2B08BF0024FFF796FE56E74948A0
:1009D0000421CDE7002EA5D00BF00B030B2BA1D1EA
:1009E0000220FFF781FE074600289BD001203E4EE3
:1009F00000F0AAFF0220307001F022F84FF000084A
:100A00005FFA88F9484600F0B1FF044690B14846C5
:100A100000F0BCFF08F101080028F1D1B8460446F7
:100A200041F21213022105A8ADF814303E4600F041
:100A300061FF23E701230220337000F0F9FF254610
:100A4000244B9B68AB4207D9284600F07FFF01305A
:100A500040F068810435F3E7234B00251D70214BDE
:100A6000B8465D603E46A7E7002E3FF45BAF0BF053
:100A70000B030B2B7FF456AF1B4B0220187000F0BA
:100A8000DFFF322000F018FFB0F10009FFF64AAF97
:100A900019F003077FF446AF0E4A926809EB05038D
:100AA00093423FF63FAFB9F5807F3FF73BAF124B24
:100AB0000193B94522DD4FF47A7000F0FDFE0390FA
:100AC000039A002AFFF62EAF019B039A03F8012B2D
:100AD0000137EDE700110020A8120020901100203E
:100AE00011070008AC120020A411002004110020FE
:100AF000081100200C110020A8110020C820FFF7C9
:100B0000F3FD074600283FF40DAF1F2D11D8C5F1A6
:100B100020024A450AAB25F0030028BF4A46834914
:100B20000192184400F09EFF019A8048FF2100F0D6
:100B3000ABFF4FEAA9037D490193C9F38702284619
:100B400000F0AAFF064600283FF46AAF019B05EBC0
:100B5000830531E70220FFF7C7FD00283FF4E2AE2E
:100B600000F030FF00283FF4DDAE0027B946704B9F
:100B70009B68BB4218D91F2F11D80A9B01330ED096
:100B800027F0030312AA134453F8203C0593484668
:100B9000042205A901F002FF04378146E7E7384641
:100BA00000F0D4FE0590F2E7CDF81490042105A8DA
:100BB00000F0A0FE00E70023642104A8049300F0E5
:100BC0008FFE00287FF4AEAE0220FFF78DFD0028D7
:100BD0003FF4A8AE049800F0EBFE0590E6E7002392
:100BE000642104A8049300F07BFE00287FF49AAEF1
:100BF0000220FFF779FD00283FF494AE049800F03E
:100C0000D9FEEAE70220FFF76FFD00283FF48AAE25
:100C100000F0E8FEE1E70220FFF766FD00283FF460
:100C200081AE05A9142000F0E3FE042107460490DC
:100C300004A800F05FFE3946B9E7322000F03CFE20
:100C4000071EFFF66FAEBB077FF46CAE384A9268A2
:100C500007EB0A0393423FF665AE0220FFF744FD1F
:100C600000283FF45FAE27F003075744BA453FF42E
:100C7000A3AE504600F06AFE0421059005A800F0DE
:100C800039FE0AF1040AF1E74FF47A70FFF72CFD00
:100C900000283FF447AE00F095FE002844D00A9BA0
:100CA00001330BD008220AA9002000F0F5FE00282D
:100CB0003AD02022FF210AA800F0E6FEFFF71CFD33
:100CC0001C4803F0B9F913B0BDE8F08F002E3FF4D3
:100CD00029AE0BF00B030B2B7FF424AE0023642111
:100CE00005A8059300F0FCFD074600287FF41AAE26
:100CF0000220FFF7F9FC814600283FF413AEFFF70E
:100D0000FBFC41F2883003F097F9059800F01EFFD4
:100D10004E4600F005FF3C46B0E506464CE64FF077
:100D2000000AFFE5B8467BE6374679E6A8110020C1
:100D300000110020A0860100094A136849F26900E9
:100D400099B21B0C00FB01331360064B186844F288
:100D5000506182B2000C01FB0200186080B2704743
:100D6000141100201011002010B50021102204469B
:100D700000F08AFE034B03CB206061601868A0601E
:100D800010BD00BF9075FF1F2DE9F043204DBBB093
:100D900001F000FEAB68C31AF92B32D906AFA86088
:100DA0002B4628220021384602F08CFA05F10E006D
:100DB00000F062FE002604465FFA80F905F10E0895
:100DC000F3B2F100994501F1280107D908EB0603B8
:100DD0000822384602F076FA0136F1E708230122AC
:100DE000CDE9023205340B4B0193A4B230230093BA
:100DF000CDE9047404A3D3E90023297B064802F05B
:100E000079F83BB0BDE8F08378F6339F93CACD8D77
:100E1000703700207D370020CC22002070B50D46B1
:100E200014461E4601F0FCFF50B9022E10D1012CD1
:100E30000ED112A3D3E90023C5E90023012007E066
:100E4000282C10D005D8012C09D0052C0FD000205B
:100E500070BD302CFBD10BA3D3E90023ECE70BA32F
:100E6000D3E90023E8E70BA3D3E90023E4E70BA3CE
:100E7000D3E90023E0E700BFAFF30080401DA120CD
:100E800026812A0B78F6339F93CACD8D9E6AC421A2
:100E9000818A46EE26417272DF25D7B7F017304AB5
:100EA00039059E5613B504462346084620220021E4
:100EB000019002F007FA22790198032A234628BFFD
:100EC000032203F8042F2021022202F0FBF96279A9
:100ED0000198072A234628BF072203F8052F22215D
:100EE000032202F0EFF9A2790198072A234628BFCE
:100EF000072203F8062F2521032202F0E3F90198C7
:100F000004F108031022282102F0DCF9382002B095
:100F100010BD00002DE9F04FADF5017D21AD0EAE05
:100F200040F2751280460F4622A80021296000F089
:100F3000ABFD48220021304600F0A6FD01F02AFD5D
:100F4000564B4FF47A72B0FBF2F0186093E807004A
:100F5000012386E807000DF15A003382FFF704FFF2
:100F600041F20463338406AB18464D4903F0A2FEF8
:100F70001C2230642946304686F83C20FFF792FF59
:100F800012AB044601460822284602F09BF90822CB
:100F9000A1180DF14903284602F094F90DF14A0316
:100FA000082204F11001284602F08CF913AB20222C
:100FB00004F11801284602F085F914AB402204F12F
:100FC0003801284602F07EF916AB082204F17801B8
:100FD000284602F077F90DF15903082204F1800147
:100FE000284602F06FF904F1880A0DF15A0904F558
:100FF000847B4B465146082228460AF1080A02F033
:1010000061F9D34509F10109F3D11BAB0822594617
:10101000284602F057F904F588744FF0000996F855
:1010200034304B450AD9B36B21464B44082228463D
:1010300002F048F9083409F10109F0E74FF000091E
:1010400096F83C304B4504EBC90108D9336C0822B3
:101050004B44284602F036F909F10109F0E7002374
:101060000393BB7E0293073107F119030193C1F388
:10107000CF010123CDE904510093F97E05A3D3E903
:101080000023404601F036FF0DF5017DBDE8F08FED
:10109000AFF300809E6AC421818A46EEB41200201C
:1010A000E44C000810B50A4B0A4A1A6003F5805355
:1010B00093F840203AB9DC6B2CB1204601F0E8FAF5
:1010C000204603F061FDBDE81040034801F0E0BA9E
:1010D000F0220020C84D000818330020014B187082
:1010E000704700BFC0120020F0B5334B1C7B85B0A9
:1010F00034B1324B0E221A810024204605B0F0BDD7
:101100002F4A1068516802AB03C308232D492E48AB
:101110000DEB030203F060FD054630B9274B2B4869
:101120000A221A8101F0B0FAE6E70169B1F5CC3F75
:1011300006D9224B26480B221A8101F0A5FADCE7DA
:10114000438B40F21642934207D01C490C20088181
:101150001946204801F098FACFE71F4A024402F1ED
:101160001003994204D2154B1C4810221A81E4E75F
:1011700010398E1A2046144901F010FC32460746F9
:1011800005F11801204601F009FCAB689F4202D12D
:10119000EB6898420AD0094B0D221A810090D5E9DC
:1011A00002123B460E4801F06FFAA5E70D4801F028
:1011B0006BFA0124A1E700BF70370020B4120020B1
:1011C000954D0008DC97010000680008044D0008F8
:1011D000104D0008224D00080898FFF7404D000808
:1011E0005D4D0008864D00082DE9F04FADB006AF0B
:1011F00080460C4601F014FE054600285AD1237E95
:10120000022B1BD1E38A012B18D101F0C3FB064648
:10121000FFF792FD03464FF4C870DFF8D092B3FB9E
:10122000F0F206F5167602FB103316FA83F3C9F8CE
:101230000030E37E33B9A84B00221A709C37BD46BC
:10124000BDE8F08FA38AEEB2013BB34205F1010580
:101250000BD93B1D1E44E90000960023082201F033
:10126000F801204601F0F2FEECE707F11400FFF769
:101270007BFD324607F11401381D03F09DFC002868
:10128000D9D10F2E08D8944B1E70D9F80030A3F591
:101290001673C9F80030D1E7FB1CF87001460093C3
:1012A00007220346204601F0D1FEF978404601F0BE
:1012B000AFFDC3E7E38A282B26D010D8012B1ED020
:1012C000052BBBD1BFF34F8F8449854BCA6802F40D
:1012D000E0621343CB60BFF34F8F00BFFDE7302BBD
:1012E000ACD1637E7F4D01336A7BDBB29342E9462A
:1012F00003D1E27E2B7B9A4265D0CD469EE7214604
:101300004046FFF707FE99E7A38A013B9BB2C92B32
:1013100094D8744D2E7B26BB05F10C030093082254
:1013200033463146204601F091FE731CF2B2D900DB
:101330001E46A38A013B9A4205DA0E322A440092E5
:1013400000230822EEE700230022C5E90023002342
:10135000AB6085F8D730C5F8D8302B7B0BB9E37E6E
:101360002B73002507F114093B1D08222946484626
:10137000C7E90155FD6001F0A5FF3B7A05F1010ABF
:10138000AB424FEACA0608D9FB6808222B44314613
:10139000484601F097FF5546EFE7C6F3CF06E17EDA
:1013A000CDE9049600230393A37E029319342823E6
:1013B0000093019446A3D3E90023404601F09AFD2F
:1013C000FFF7E2FC3AE74FF0000807F11403A7F833
:1013D00014801022009341460123204601F036FE7E
:1013E000A68A023EB6B2F31C9B109B000733DB08B3
:1013F000A9EBC3039D460DF1180A1FFA88F34FEAC3
:10140000C801B34201F110010AD20AEB08030093AC
:1014100008220023204601F019FE08F10108ECE73C
:1014200095F8D70000F0A2FAD5F8D83004461BB9D9
:1014300095F8D70000F0AAFAD5F8D83033449C428A
:1014400004D295F8D700013000F0A0FA4FEA960BCD
:101450004FF000081FFA88F18B45D5E9003209D911
:101460000AEB880103EB8800012200F015FB08F16C
:101470000108EFE7F31842F10002C5E90032D5F8A0
:10148000D83095F8D70006EB0308C5F8D88000F0EF
:101490006DFA804509D395F8D730D5F8D8000133D7
:1014A000001B85F8D730C5F8D800FF2E08D80023D8
:1014B0002B7300F087FAFFF717FE08B1FFF75AF910
:1014C0002B68094A9B0A013313810023AB6014E7A0
:1014D00026417272DF25D7B7C522002000ED00E05B
:1014E0000400FA0570370020B4120020C822002042
:1014F00008B54FF000530B4A196891420AD10A4AC5
:10150000597D117009481B7D03730949C9220E30AA
:1015100000F0A8FABDE80840E02200214FF000509A
:1015200000F0B2BA9AAD44C5C01200207037002056
:101530001600002037B5184D18491948022301221A
:101540006B7100F023FD00230193164B16490093A5
:101550001648174B4FF4805201F034FC154B1978A4
:1015600011B1124801F054FC01F014FA0446FFF7DF
:10157000E3FB4FF4C873B0FBF3F202FB130304F573
:10158000167010FA83F00C4B186003F03DF808B1A8
:101590000F232B8103B030BDB412002040420F0056
:1015A000F02200201D0E0008C4120020CC220020D2
:1015B000E9110008C0120020C82200202DE9F04FD8
:1015C0002DED028B97A7D7E900670FF26029D9E9C3
:1015D00000898E4C95B0DFF85CA2DFF85CB2204643
:1015E00001F0ECFC034650B30025CDE911551095F0
:1015F0008DF84C50027B8DF84C209968406811AAF8
:1016000003C21B6843F00043109301F0C5F910EBCF
:101610000A0241F10003009510A9584600F000FBB2
:10162000A8427B4A05DD204601F0CCFC784A1570C3
:10163000D5E71378072B00F2BA80013313700DAD94
:101640009FED708B0023DFF8F0B10C938DF83C30E8
:101650000D936B6000230DF125028DED008B4FF093
:10166000010A09A958468DF825308DF824A000F00C
:10167000A1FF9DF824200023002A40F09C802046F2
:1016800001F0CEFB0546002847D1DFF8B0B101F0EC
:1016900081F9DBF8003098423FD301F07BF90790E5
:1016A000FFF74AFB079A4FF4C87302F51672B0FBB6
:1016B000F3F101FB130312FA83F3CBF80030DFF8E8
:1016C00080B19BF800100791002914BF2B465346A8
:1016D00010A88DF83030FFF747FB0799C1F11002D1
:1016E000D2B2062A10AB28BF062219440DF13100F0
:1016F000079200F0B7F9079A0CAB039318230293F3
:101700000132444BD2B2CDE900A304923B463246AB
:10171000204601F087FB8BF8005001F03BF93E4A70
:101720003E4D1368C31AB3F57A7F33D3106001F0CE
:1017300033F902460B46204601F04EFC204601F0EC
:101740006FFB38B32B7BDFF8FCA0002B14BF032307
:1017500002238AF8053001F01DF90DF1400B4FF41A
:101760007A735946B0FBF3F0CAF800005046FFF711
:1017700099FB182307300293294B0193C0F3CF0044
:1017800040F25513CDE903B0009342464B46204644
:1017900001F048FB2B7B2BB1FFF7F6FA2B7B002BDC
:1017A0007FF419AF15B0BDEC028BBDE8F08F204679
:1017B00001F008FC43E74FF0904110A84A6982F01D
:1017C00040024A611946102200F05EF90DF126032D
:1017D0000AAA0CA9584600F0CFFA95E8030011AB0D
:1017E00083E803009DF83C308DF84C300C9B10933F
:1017F00010A9DDE90A23204601F0ACFD2AE700BF6D
:10180000AFF300800000000000000000CC220020A8
:1018100055380020C42200205038002070370020A6
:1018200054380020401DA12026812A0BF1C6A7C1F3
:10183000D068080F40420F00F0220020C82200208C
:10184000C5220020B412002008B5054800F01CFB9A
:10185000BDE80840034A0449002003F08FB900BFE7
:10186000F0220020A8380020A510000870B50F4B0A
:101870001B780133DBB2012B0C4611D80C4D2968C3
:101880004FF47A730E6AA2FB0332014622462846C1
:10189000B047844204D1074B00221A70012070BD6A
:1018A0004FF4FA7002F0C8FB0020F8E7181100208E
:1018B000AC3800209C38002007B5002302460121E7
:1018C0000DF107008DF80730FFF7D0FF20B19DF82C
:1018D000070003B05DF804FB4FF0FF30F9E70000AC
:1018E0000A4608B50421FFF7C1FF80F00100C0B22D
:1018F000404208BD30B4054C2368DD69044B0A46FC
:10190000AC460146204630BC604700BFAC380020E2
:10191000A086010070B502F0C7FC094E094D308069
:10192000002428683388834208D902F0B9FC2B6868
:1019300004440133B4F5D04F2B60F2D370BD00BF27
:101940009E3800205838002002F05CBD00F1006095
:1019500000F5C040D0F800087047000000F10060BA
:10196000920000F5D04002F0DBBC0000054B1A6885
:10197000054B1B889B1A834202D9104402F090BC8D
:1019800000207047583800209E38002038B5074D99
:1019900004462868204402F089FC28B928682044BD
:1019A000BDE8384002F094BC38BD00BF5838002074
:1019B0000020704700F10050A0F51040D0F89005CD
:1019C00070470000064991F8243033B10023086ABB
:1019D00081F824300822FFF7C1BF0120704700BF03
:1019E0005C380020014B1868704700BF002004E0FD
:1019F00070B50E4B5C6893F90860421E0A44013CC6
:101A00000B46934207D214F9015F581C2DB100F820
:101A1000015C0346F5E7184605E02C2482421C7061
:101A200001D9981C5E70401A70BD00BF1C110020C7
:101A3000022802BF4FF0904340229A617047000095
:101A4000022802BF4FF090434FF480029A61704722
:101A5000022801BF4FF09042536983F04003536165
:101A60007047000010B50023934203D0CC5CC454EF
:101A70000133F9E710BD000003460246D01A12F9FF
:101A8000011B0029FAD1704702440346934202D059
:101A900003F8011BFAE770472DE9F8431F4D144680
:101AA00095F824200746884652BBDFF870909CB317
:101AB00095F824302BB92022FF2148462F62FFF7EA
:101AC000E3FF95F82400C0F10802A24228BF224695
:101AD000D6B24146920005EB8000FFF7C3FF95F8B0
:101AE0002430A41B1E44F6B2082E17449044E4B2DE
:101AF00085F82460DBD1FFF765FF0028D7D108E027
:101B00002B6A03EB82038342CFD0FFF75BFF0028F1
:101B1000CBD10020BDE8F8830120FBE75C38002032
:101B2000024B1A78024B1A70704700BF9C38002095
:101B300018110020034904484FF461430B6002F080
:101B400015B900BF84380020AC380020074B10B511
:101B50000021044618221846FFF796FF046001464C
:101B6000BDE81040024802F001B900BF84380020EF
:101B7000AC380020202383F3118862B67047000040
:101B8000002383F3118862B670470000012070477C
:101B9000704700007047000000F5805090F8510435
:101BA0007047000000F5805090F84A04704700002C
:101BB0005020704700F5805208B5FFF7DBFFD2F8E0
:101BC0007434D2F870041844D2F86C341844D2F843
:101BD00058341844D2F864341844D2F860341844A5
:101BE000FFF7CEFF08BD000038B5426A936923F0C5
:101BF00001039361044600F0CDFE0546636A9B69CC
:101C0000DB0706D500F0C6FE431BFA2BF6D90020F1
:101C100004E004F58054012084F84A0438BD000033
:101C2000F8B500F580551F46D5F854340133C5F892
:101C300054340C6814F0005461D10B7B082B5ED82F
:101C400095F84A34002B5AD0FFF794FF436AD3F833
:101C5000C460B60208D5D5F858340133C5F85834F5
:101C60002046FFF78DFFF8BDD3F8C4400D68C36967
:101C7000C4F30144482616FB0436002DB4BF45F0DA
:101C80008045AD0435600B685B0044BF45F00055EE
:101C900035600D7B230643EA054373604B68B360F0
:101CA0008B68F360456A0123A340C5F8CC3000EB94
:101CB000441303F58253C3E9022700EB441303F5F1
:101CC0008253103301F10C0251F8045B43F8045BBA
:101CD0009142F9D10A781A7004F18302530100EBA2
:101CE0004212C450BDF81830117903F0030343F0D9
:101CF000100321F01F010B4313710120B1E7D5F848
:101D000058340133C5F858344FF0FF30ABE70000CA
:101D100013B50446019100F0F1FC1F280AD901997E
:101D20002022204600F060FDA0F1200358425841D7
:101D300002B010BD0020FBE708B500F58050FFF7AA
:101D400019FFC06B00F0AEFCBDE80840FFF718BFFC
:101D500000220260027342608260704710B5002268
:101D60000023C0E900230023044603810C30FFF761
:101D7000EFFF204610BD00002DE9F041054688B078
:101D800005F5805568461F460C46FFF7F3FE904662
:101D9000FFF7E4FFE86B00F097FC1F2805D8002050
:101DA000FFF7EEFE08B0BDE8F081E86B202269463F
:101DB00000F09CFD2028F2D195F84A34002BEED09B
:101DC00003AD05AB2E4603CE9E42206061603546D2
:101DD00004F10804F6D13068206033792371DDE91D
:101DE0000023C8E90023BDF808303B800120D7E775
:101DF0002DE9F84F8046214B48F8283B00F58155E6
:101E000004460F464646083530462036FFF7A6FF03
:101E1000AE42F9D104F580554FF480534FF00009DC
:101E2000C5E90B39C5F828800123EE6304F5A358F2
:101E300004F58356C5F8349085F8383085F840307D
:101E4000083608F108084FF0000A4FF0000B46E989
:101E500008ABA6F11800FFF77BFF203646F8289C58
:101E60004645F4D185F8507417B1054800F08CFD53
:101E7000044B63622046BDE8F88F00BFC84D0008E0
:101E8000AC4D00080064004010B5044B19780446BE
:101E90004A1C1A70FFF7ACFF204610BDA538002081
:101EA0002DE9F04300294FD0284B2948B0FBF1F031
:101EB00099428CBF0A2311235D1EB0FBF3F703FB8D
:101EC0001703ECB22BB1022D2B46F5D80020BDE84C
:101ED000F0837E1EB6F5806FF8D2C4EBC40C0CF113
:101EE00003034FEAE308C3F3C703A4EB030E08F1AF
:101EF00001094FF47A755FFA8EF008FB055559FA1F
:101F00008EFEB5FBFEF5B5F5617FC1BF0CF1FF3369
:101F1000C3F3C703E01AC0B25C1C50FA84F40C4D42
:101F20007C43B5FBF4F4A142D0D1013BDBB20F2BD3
:101F3000CCD80138C0B20728C8D80021107116804B
:101F40009170D3700120C2E70846C0E73F420F00FE
:101F500000366E010B4B10B54FF45472044600214D
:101F60001846FFF791FD084B236140336361D83376
:101F7000A361F033E361636AE0600022C3F8C0202C
:101F800010BD00BF00A4004070A400402DE9F04740
:101F900000F5805588B095F85034012B04468846EA
:101FA000164647D87E4A52F8231009B942F8230052
:101FB0007C49C4F804800B78267293B9FFF7DAFDE8
:101FC000794B9A6D42F000729A659A6B42F00072FA
:101FD0009A639A6B22F000729A6301230B70FFF7E9
:101FE000CFFD95F8493473B902211520FFF7C2FDE2
:101FF00001F00AFD0221162001F006FD012385F8FB
:102000004934FFF7BDFDFFF7B5FD626A936923F020
:102010001003936100F0BEFC8146636A9F6917F06C
:1020200008070AD000F0B6FCA0EB0903FA2BF4D99C
:10203000FFF7A6FD4FF00008AEE09A6942F00102FA
:102040009A6100F0A7FC8146636A9A69D10706D4B9
:1020500000F0A0FCA0EB0903FA2BF5D9E8E79A6998
:1020600042F002029A61636A4FF00009C3F854908B
:10207000FFF786FDE86B00F015FB04F5825A0AF1C4
:10208000080A202200216846FFF7FEFC02A8FFF79D
:102090005FFECDF818906A460AEB07030DF1180EA3
:1020A0009446BCE80300F44518605960624603F1A9
:1020B0000803F5D1DCF80000186020379CF80420F4
:1020C0001A71B7F5806FDCD100276A46414685F862
:1020D000487485F84B742046ADF80070ADF8027076
:1020E0008DF80470FFF7DCFE626A804680B9936960
:1020F00023F00103936100F04DFC0546636A9B6980
:10210000DA0797D500F046FC431BFA2BF6D991E786
:102110009DF802309DF803E09DF80400BDF800C072
:102120005B0643EA0E23034343EA0C43D3614FEAC1
:102130000E21626A41EA0C4343EA0013D360204651
:10214000FFF708FF85F85174636A6FF040421A6523
:10215000636A164A5A65636A44229A65636A07226B
:10216000C3F8DC20636A03229642DA6514D0626AFF
:10217000936923F00103936100F00CFC0646636A47
:102180009B69DB0705D500F005FC831BFA2BF6D90C
:1021900050E7012385F84A34404608B0BDE8F0878F
:1021A000A0380020A4380020001002409B00080046
:1021B0002DE9F043074689B090469946002600F580
:1021C00080557B6AD3F8D430F340D9073ED506F169
:1021D000830307EB43131A79120737D4D5F85C242D
:1021E0000132C5F85C241A7942F008021A71D3074B
:1021F00024D595F84B340BB307F582541034684658
:1022000004EB4614FFF7AAFD0DF10C0C04F10802D3
:1022100020686168634603C3083494429C46F7D142
:102220002068186023798CF80430E86B0123694634
:10223000CDE90089ADF80830FFF76AFDD5F84C34D8
:1022400023B1D5F878340133C5F878340136202E1F
:10225000B7D109B0BDE8F0832DE9F0478CB0044652
:102260008A4600F099FB81468846BAF1000F5BD19F
:10227000636AD3F89020970141BF04F58051D1F8EB
:1022800070240132C1F87024D3F89020160703D1CE
:1022900000200CB0BDE8F087D3F890606569C6F304
:1022A0000126482303FB06556F463846FFF750FDCD
:1022B0002A6851004ABF22F06043C2F38A4343F0C8
:1022C0000043920048BF43F080430093EB8803F043
:1022D0000F038DF80C3001AAEB1D0F3513F8011F09
:1022E00002F8011BAB42F9D1BAF1000F35D1636A94
:1022F000C3F8946004A8FFF731FD97E80F0007AD1D
:1023000007C504F580542B70E06B002304A9CDE9C8
:102310000498ADF81830FFF7FBFC28B3D4F8683404
:102320000133C4F86834B4E7BAF1010FB0D1636A7D
:10233000D3F89820950141BF04F58051D1F870245D
:102340000132C1F87024D3F898201007A0D0D3F838
:102350009860A569C6F30126A3E7BAF1010F04BF8F
:10236000636AC3F89C60C5E7D4F86C340133C4F8E1
:102370006C3401208DE70000F8B505460F4600F5E6
:102380008054012639462846FFF766FF10B184F8CD
:102390004B64F7E7D4F84C3423B1D4F878340133E4
:1023A000C4F87834F8BD0000F0B5436A1A6C12F432
:1023B0007F0F29D000F580541B6CC4F87C3400F5E5
:1023C00083560023012703F1830200EB42121179A7
:1023D0008D0716D5490714D45901456A7158D5F8A7
:1023E000C8C007FA01F111EA0C0F0AD0C5F8D010E5
:1023F000117941F004011171D4F864240132C4F858
:1024000064240133202BDED1F0BD000010B5254C33
:10241000254B226802B338B31A6D12060ED58022FE
:102420001A6500F0B9FA50EA01020B4602D00138F1
:1024300061F1000302462068FFF7BAFE1A4A136DE5
:102440001B032AD523684FF4002103F5805311653F
:10245000012283F8512420E001221A6508221A651E
:102460004FF480621A6510BD196DC80702D4196D4A
:10247000890705D50321196510460021FFF77CFF68
:10248000094B1A6D100702D41A6DD10605D5182212
:102490001A6520680121FFF76FFF2068BDE8104032
:1024A000FFF782BFA03800200064004008B5FFF7A6
:1024B00061FBFFF779FFBDE80840FFF761BB000053
:1024C000436AD3F8C40080F40010C0F34050704752
:1024D00000F5805008B5FFF74DFBC06B00F0F4F835
:1024E000FFF74EFB43090CBF0120002008BD000090
:1024F00000F5805393F8512462B1416A8A6922F051
:1025000001028A61D3F874240132C3F874240022D2
:1025100083F85124704700002DE9F34100F5825102
:1025200098460831FFF726FB00254FF0010E00F515
:10253000805C05F1830400EB441423795E071CD40E
:10254000DB061AD5436A8E69D3F8C8700EFA06F610
:102550003E4212D04F6801970F689742019F77EB78
:1025600008070AD2C3F8D060237943F0040323712B
:10257000DCF860340133CCF860340135202D01F1F2
:102580002001D6D102B0BDE8F041FFF7F9BA000052
:10259000F8B51E46002313700F4605461446FFF794
:1025A00097FF80F0010038701EB12846FFF788FFC2
:1025B0002070F8BD2DE9F04F85B099460B78019356
:1025C0000E4613780293DDE90EBA8046174600F0F6
:1025D000E3F9337804460D4613B93B78002B41D01C
:1025E00022462B464046FFF797FFFFF75FFFFFF7B6
:1025F0007FFF4B463A463146FFF7CAFF33782BB18F
:10260000019B1BB1012005B0BDE8F08F3B7813B1F1
:10261000029B002BF6D108F5805303935C4575EBC4
:102620000A031FD2039BD3F84C04D8B10368BBEB59
:102630000402D9686AEB050388474B463A4631469F
:102640004046FFF7A5FF337813B1019B002BD9D18A
:102650003B7813B1029B002BD4D100F09DF90446C6
:102660000D46DBE70020CEE708B50020FFF7CEFEE1
:10267000BDE8084001F092B808B50120FFF7C6FE9A
:10268000BDE8084001F08AB80FB4002004B07047DC
:1026900010B5037C044613B9006802F085FA2046A1
:1026A00010BD00000023BFF35B8FC360BFF35B8FDF
:1026B000BFF35B8F8360BFF35B8F7047BFF35B8FAC
:1026C0000068BFF35B8F704770B505460C30FFF7AD
:1026D000F5FF05F1080604463046FFF7EFFFA0427C
:1026E00006D930466D68FFF7E9FF2544281A70BD0A
:1026F0003046FFF7E3FF201AF9E7000070B5054602
:10270000406898B105F10800FFF7D8FF05F10C0605
:1027100004463046FFF7D2FF8442304694BF6D68CE
:102720000025FFF7CBFF013C2C44201A70BD0000B0
:1027300038B50C460546FFF7C7FFA04210D305F198
:102740000800FFF7BBFF04446868B4FBF0F100FB2E
:102750001144BFF35B8F0120AC60BFF35B8F38BDCA
:102760000020FCE72DE9F041144607460D46FFF72F
:10277000C5FF844228BF0446D4B1B84658F80C6B54
:102780004046FFF79BFF3044286040467E68FFF7D5
:1027900095FF331A9C4203D86C600120BDE8F0819C
:1027A0006B60A41B3B68AB602044E8600220F5E747
:1027B0002046F3E738B50C460546FFF79FFFA042D9
:1027C00010D305F10C00FFF779FF04446868B4FBEF
:1027D000F0F100FB1144BFF35B8F0120EC60BFF30D
:1027E0005B8F38BD0020FCE72DE9FF418846694634
:1027F0000746FFF7B7FF6C4606B204EBC606002596
:10280000B44209D06268206808EB0501FFF72AF995
:10281000636808341D44F3E729463846FFF7CAFFCA
:10282000284604B0BDE8F081F8B505460C300F46E7
:10283000FFF744FF05F1080604463046FFF73EFF68
:10284000A042304688BF6C68FFF738FF201A386016
:1028500020B130462C68FFF731FF2044F8BD00005E
:1028600073B5144606460D46FFF72EFF844228BF77
:1028700004460190DCB101A93046FFF7D5FF019B6A
:1028800033B93268C5E90233C5E9002401200CE000
:102890009C4238BF01942860019868608442F5D951
:1028A0003368AB60241AEC60022002B070BD204691
:1028B000FBE700002DE9FF410F466946FFF7D0FF17
:1028C0006C4600B204EBC0050026AC4209D0D4F837
:1028D000048054F8081BB8194246FFF7C3F8464471
:1028E000F3E7304604B0BDE8F081000038B5054696
:1028F000FFF7E0FF044601462846FFF719FF204690
:1029000038BD0000FEE7000000B59BB0EFF3098181
:1029100068226846FFF7A6F8EFF30583044B9A6B2D
:10292000DA6A9A6A9A6A9A6A9A6A9A6A9B6AFEE765
:1029300000ED00E000B59BB0EFF309816822684626
:10294000FFF790F8EFF30583044B9A6B9A6A9A6A43
:102950009A6A9A6A9A6A9B6AFEE700BF00ED00E0F5
:1029600000B59BB0EFF3098168226846FFF77AF85B
:10297000EFF30583034B5A6B9A6A9A6A9A6A9A6ACA
:102980009B6AFEE700ED00E00FB408B5029801F085
:10299000EDFAFEE701F080BD01F058BD30B5094DFC
:1029A0000A4491420DD011F8013B5840082340F3EE
:1029B0000004013B2C4013F0FF0384EA5000F6D1E1
:1029C000EFE730BD2083B8ED2DE9F041C56915B9B9
:1029D000C161BDE8F0814B6823F06047C3F38A46CC
:1029E0004FEAD37EC3F3807816EA230638BF3E460B
:1029F000AC462B465A68BEEBD27F22F060440AD028
:102A0000002A18DAA40CB44217D19D420FD10D60F0
:102A1000DEE71346EEE7A74207D102F08044C2F397
:102A2000807242450BD054B1EFE708D2EDE7CCF805
:102A300000100B60CDE7B44201D0B442E5D81A686B
:102A40009C46002AE5D11960C3E700002DE9F04754
:102A5000089D01F007044FEAD508224405F0070558
:102A600000EBD1004FF47F49944201D1BDE8F087DB
:102A700004F0070705F0070A57453E4638BF56469B
:102A8000C6F10806111B8E4228BF0E46E10808EB6E
:102A9000D50E415C13F80EC0B94029FA06F721FAA9
:102AA0000AF1FFB28CEA010147FA0AF739408CEAD1
:102AB000010C03F80EC034443544D5E780EA012008
:102AC000082341F2210201B24000002980B203F143
:102AD000FF33B8BF504013F0FF03F4D1704700003C
:102AE00038B50C468D18A54200D138BD14F8011B2D
:102AF000FFF7E4FFF7E7000002684AB113680360DC
:102B0000C388018901339BB29942C38038BF0381D6
:102B10001046704770B588B0202204460D466846BE
:102B20000021FEF7B1FF20460495FFF7E5FF0246BE
:102B300058B16B46054608AE1C4603CCB44228602B
:102B40006960234605F10805F6D1104608B070BD4E
:102B500010B54B6823B9CA8A63F30902CA8210BD53
:102B6000C4681A681C60C360438A013B43824A60A0
:102B7000EFE700002DE9F84F1D46CB8A0F46C3F35F
:102B800009010629814692460B4630D00020AAB2A0
:102B900007F119049EB2052E1FFA80F80FD8904550
:102BA00003F1010306D3FB8A0A4462F30903FB82A3
:102BB00001201AE01AF80060E6540130EAE7904577
:102BC000F1D2A1F1060B1C237C68BBFBF3F203FBE3
:102BD00012BB1FFA8BF6002C45D14846FFF78CFF3D
:102BE000044638B978606FF00200BDE8F88F4FF006
:102BF0000008E6E7002606607860ADB24FF0000BF3
:102C0000454510D90AEB0803221D13F8011B915505
:102C1000B1B208F101081B291FFA88F82BD04545ED
:102C200006F10106F1D8FB8AC3F30902154465F3E6
:102C30000903BCE7013292B21C462368002BF9D18C
:102C4000AB1F0B441C21B3FBF1F301339BB29A423F
:102C5000D3D2BBF1000FD0D14846FFF74DFF20B9CA
:102C6000C4F800B0BFE70122E7E7C0F800B05E4655
:102C700020600446C1E74545D5D94846FFF73CFFEB
:102C800008B92060AFE7C0F800B000262060044615
:102C9000B6E700002DE9F04F2DED028B83B0CDE9B2
:102CA0000013BDF83C4080469246002A00F0878021
:102CB0002CB10E9B002B00F08280072C2BD808F142
:102CC0000C00FFF719FF054638B96FF002052846DA
:102CD00003B0BDEC028BBDE8F08F14220021FEF79B
:102CE000D3FE22460E9905F10800FEF7BBFE631CD9
:102CF0002B749AF800302C4403F01F0363F03F0359
:102D00002372009B43F00041696040462946FFF76B
:102D10005BFE0125DBE700F10C034FF0000908EE34
:102D2000103A4FF0800B4E464D4618EE100AFFF752
:102D3000E3FE07460028C8D014220021FEF7A4FEB7
:102D4000002E3AD1019B3B8102220E9B02F1080129
:102D500003EB060C57FA81F11046B44202F101026E
:102D6000D2B201D8024607E01CF8010B01F8010BB2
:102D70000136062AB6B2EFD99AF8001001F01F0109
:102D8000B44208BF4FF0400BB81841EA49114BEA72
:102D900001030372009B013243F000437B603A74ED
:102DA00039464046FFF710FE0135B4422DB289F096
:102DB00001094FF0000BB8D189E70022C5E76FF099
:102DC000010584E7F8B515460E4624220021044685
:102DD0001F46FEF759FE069B6360B5F5001F079B73
:102DE000A76034BF6A094FF6FF72236204F10C003A
:102DF00097B200239A4205D800230360278263829A
:102E0000A382F8BD0660013330462036F2E70000A9
:102E100003781BB94BB2002BC8BF0170704700008C
:102E2000007870472DE9F74FDDF83C90BDF8305041
:102E30000D9E9DF83840BDF84070804692469B46F6
:102E4000B9F1000F01D1002F51D11F2C4FD898F8A4
:102E50000000B0B9072F47D835F0030347D13A46F1
:102E600049464FF6FF70FFF73BFE20F001002D02B0
:102E7000400445EA0464400C44EA40244FF6FF73E2
:102E800021E040EA0520072F40EA0464F6D9002536
:102E90004FF6FF73C5F12000A5F120022AFA05F1D3
:102EA0000BFA00F001432BFA02F211431846C9B2A3
:102EB000FFF704FE0835402D0346EBD13A4649465C
:102EC000FFF70EFE0346CDE9009732462146404605
:102ED000FFF7E0FE33780133DBB21F2B88BF0023FE
:102EE000337003B0BDE8F08F6FF00300F9E76FF0C7
:102EF0000100F6E72DE9F04F85B09246DDF84880F5
:102F00000F9D9DF840209DF84490BDF84C700646FA
:102F10009B46B8F1000F01D1002F48D11F2A46D897
:102F20003378002B46D00C0244EA02649DF8381036
:102F300044EAC93444EA01441C43072F44F08004A6
:102F400032D900234FF6FF72C3F1200CA3F1200009
:102F50002AFA03F10BFA0CFC41EA0C012BFA00F0FF
:102F60000143C9B210460393FFF7A8FD039B083342
:102F7000402B0246E8D13A464146FFF7B1FD0346F1
:102F8000CDE900872A4621463046FFF783FEB9F196
:102F9000010F06D12B780133DBB21F2B88BF002332
:102FA0002B7005B0BDE8F08F4FF6FF73E8E76FF0C8
:102FB0000100F6E76FF00300F3E70000C06900B11D
:102FC00004307047C3691A68C261C2681A60C3607E
:102FD000438A013B438270472DE9F041D0F81880C5
:102FE000194E14461D464146002709B9BDE8F08137
:102FF000D1E90223A21A65EB0303964277EB0303A0
:103000001ED283698B420DD1FFF7A2FD83691B6835
:103010008361C3680B60438AC1608169013B43825D
:103020008846E2E7FFF794FD0B68C8F80030C368F4
:103030000B60438AC160013B4382D8F80010D4E79B
:1030400088460968D1E700BF80841E002DE9F04F53
:103050008BB00D46DDF8509014469B468046002804
:1030600000F01981B9F1000F00F01581531E3F2BBC
:1030700000F21181012A03D1BBF1000F40F00B8156
:103080000023CDE90833B8F81430B5EBC30F4FEA8D
:10309000C30703D300200BB0BDE8F08F2B199F426C
:1030A000D8F80C303ABF7F1BFFB227461BB9D8F8BF
:1030B0001030002B7AD02F2D4ED8C5F13006B742F4
:1030C0004FF000032CBFF6B23E4600932946D8F8D5
:1030D000080008AB3246FFF7B9FCA7EB060A3544F7
:1030E0005FFA8AFAB8F8143003F10053063BDB00AC
:1030F0000493D8F80C3003933021039B13B1BAF139
:10310000000F2CD1D8F8100040B1BAF1000F05D053
:10311000009608AB5246691AFFF798FC38B2002FA8
:10312000B8D066070AD00AAB03EBD401624211F8AB
:10313000083C02F00702134101F8083C082C3CD976
:10314000102C40F2B580202C40F2B780BBF1000F6C
:1031500000F09C80082334E0BA460026C2E7049BB6
:10316000E02B28BFE02306930B44AB42059314D910
:103170005A1B03980096924534BF5246D2B2691A40
:1031800008AB04300792FFF761FC079A1644AAEBDC
:10319000020A1544F6B25FFA8AFA049B069A059968
:1031A0009B1A0493039B1B680393A6E70093D8F82C
:1031B000080008AB3A462946AEE7BBF1000F13D032
:1031C0000123B4EBC30F6CD0082C12D89DF820302B
:1031D000621E23FA02F2D50706D54FF0FF3202FA3B
:1031E00004F423438DF820309DF8203089F8003016
:1031F00051E7102C12D8BDF82030621E23FA02F2DB
:10320000D10706D54FF0FF3202FA04F42343ADF89C
:103210002030BDF82030A9F800303CE7202C0FD832
:103220000899631E21FA03F3DA0705D54FF0FF3240
:1032300002FA04F40C430894089BC9F800302AE70A
:10324000402C2BD0DDE90865611EC4F12102A4F1F8
:10325000210326FA01F105FA02F225FA03F31143DC
:103260001943CB0712D50122A4F12003C4F1200198
:1032700002FA03F322FA01F1A240524243EA0103A7
:1032800063EB430332432B43CDE90823DDE90823F5
:10329000C9E90023FFE66FF00100FCE66FF00800CB
:1032A000F9E6082CA0D9102CB3D9202CEED8C3E70E
:1032B000BBF1000FADD0022383E7BBF1000FBBD001
:1032C00004237EE730B5012A144638BF0124402C80
:1032D00085B028BF40240025012ACDE9025518D821
:1032E0001B788DF8083063070AD004AB03EBD405D4
:1032F000624215F8083C02F00702934005F8083CCA
:10330000009103462246002102A8FFF79FFB05B06B
:1033100030BD082AE4D9102A03D81B88ADF808303C
:10332000E1E7202A8DBFD3E900231B680293CDE992
:103330000223D8E710B5CB681BB98B600B618B8279
:1033400010BDC4681A681C60C360438A013B438295
:10335000CA60F0E72DE9F04FD1F8008093B018F083
:10336000800FCDE90323C8F3C01219BFC8F3C03BD7
:10337000C8F306264FF0020B1646B8F1000F0446BC
:103380000D4680F2C58118F0C043059340F0C0811E
:103390000B7B002B00F0BC81BBF1020F03D0017846
:1033A000B14240F0B88108F07F0106916AB3C8F3DA
:1033B000074A2B44069A93F80390760646EA0B4692
:1033C00046EA82465FEAD91346EA0A06079300F006
:1033D000908000220023CDE90A23069B00936768B2
:1033E0005B4652460AA92046B84700287ED0A76906
:1033F0009FB9314604F10C00FFF78CFB0746E0B99A
:103400006FF0020013B0BDE8F08FC8F30F2A18F078
:103410007F0F08BF0AF0030ACBE73B699E420DD03D
:103420003F68002FF9D1314604F10C00FFF772FB21
:1034300007460028E4D0A3693B60A761DDE90A23C1
:1034400000264FF6FF70C6F1200E22FA06F103FAAD
:103450000EFEA6F1200C23FA0CFC41EA0E0141EA13
:103460000C01C9B2083609920893FFF727FB402EDA
:10347000DDE90832E7D1B882FB7D09F01F06C3F30E
:1034800084039B1BD7E9022198B2002BBCBF00F13B
:1034900020031BB252EA0100C8F304680FD003985E
:1034A000821A049860EB0101A14890424FF000029B
:1034B0008A4104D3079A002A55D0012B23DDFA7DD7
:1034C0004FEA890302F0030203F07C031343FB7508
:1034D00039462046FFF73CFB079BA3B9FB7DC3F3AE
:1034E0008402013262F38603FB7504E06FF00B0087
:1034F00088E7A76917B96FF00C0083E73B699E4224
:10350000BAD03F68F6E719F0400F2CD0039BBB60A0
:10351000049BFB60142200210DA8FEF7B5FA039B63
:103520000A93049B0B932B1D0C932B7BADF83EA0B1
:10353000013BDBB2ADF83C30069B8DF843308DF893
:1035400040B0A3688DF841608DF842800AA92046FA
:103550009847FB7DC3F38403013303F01F039B02F1
:10356000FB8200204EE7FB7DC9F34012B2EBD31F74
:1035700040F0D480C3F38403B34240F0D280079973
:103580002B7B4FEA9912002934D0D20741D4032B68
:1035900040F2CA80039BBB60049BFB602B7BAE1D8B
:1035A000033BDBB23246394604F10C00FFF7E2FA86
:1035B00000280DDA20463946FFF7CAFAFB7DC3F32F
:1035C0008403013303F01F039B02FB82032019E7EE
:1035D000AB883B832A7B033AB88AD2B23146FFF7E5
:1035E0007FFAFB7DB882DA43C2F3C01262F3C713DD
:1035F000FB75B6E76AB92E1D013BDBB23246394690
:1036000004F10C00FFF7B6FA0028D3DB2A7B013A5D
:10361000E2E7F98AC1F30901013B0529DAB253D87F
:10362000281D002307F11A0C9A4208D910F801EB63
:103630000CF801E0013101330629DBB2F4D1039922
:103640000A9104990B91934207F11A010C9138BF2A
:10365000043379680D9134BF55FA83F300230E9338
:10366000FB8AADF83EA0C3F309031A44069B8DF80C
:1036700043300023ADF83C208DF840B08DF8416018
:103680008DF842807B602A7BB88A013A291DFFF7BA
:1036900027FA3B8BB882834203D1A3680AA920464C
:1036A000984720460AA9FFF745FEFB7DB88AC3F379
:1036B0008403013303F01F039B02FB823B8B984280
:1036C00014BF112000209DE67B68002BB7D0062098
:1036D00001E01C306346D3F800C0BCF1000FF8D104
:1036E000091A081D05F1040C00EB030905989DF863
:1036F000143001EB000EBEF11B0FA0D89A429ED9E8
:103700001CF8013B09F8013B059B01330593EDE7EC
:103710006FF0090076E66FF00A0073E66FF00D00B7
:1037200070E66FF00E006DE66FF00F006AE600BF06
:1037300080841E00EFF3098305494A6B22F00102E1
:103740004A63683383F30988002383F31188704741
:1037500000EF00E0202080F3118862B60C4B0D4A88
:10376000D96821F4E0610904090C0A43DA60D3F84E
:10377000FC20094942F08072C3F8FC200A6842F03C
:1037800001020A601022DA7783F82200704700BF36
:1037900000ED00E00003FA05001000E010B5202362
:1037A00083F311880E4B5B6813F4006314D0F1EEC1
:1037B000103AEFF30984683C4FF08073E361094BE2
:1037C000DB6B236684F3098800F082FB10B1064BA3
:1037D000A36110BD054BFBE783F31188F9E700BF38
:1037E00000ED00E000EF00E04B0600084E06000888
:1037F000026843681143016003B118477047000035
:10380000024A136843F0C003136070470038014058
:1038100013B50D4C204600F09DFA04F114000B493D
:1038200000940023202200F05FF9094B094900941D
:10383000202204F1380000F0D9F9074A074BC4E907
:10384000172302B010BD00BFAC380020183900208B
:10385000013800083839002000380140007A030A96
:1038600030B5037C234C002918BF0C46012B0FD127
:10387000214B98420CD1214B1A6E42F480421A66B9
:10388000D3F8802042F48042C3F88020D3F88030FF
:103890002268036EC16D846603EB5203B3FBF2F33F
:1038A0006268150442BF23F0070503F0070343EAEB
:1038B0004503CB60A36843F040034B60E36843F0EB
:1038C00001038B6042F4967343F001030B604FF0E9
:1038D000FF330B62510505D512F0102205D0B2F16D
:1038E000805F04D080F8643030BD7F23FAE73F2347
:1038F000F8E700BFFC4D0008AC3800200010024083
:103900002DE9F047C66D3768F46934622107054632
:1039100018D014F0080118BF8021E20748BF41F019
:103920002001A30748BF41F04001600748BF41F4B0
:103930008071202383F31188281DFFF759FF00238E
:1039400083F31188E2050AD5202383F311884FF40D
:103950000071281DFFF74CFF002383F311884FF0FF
:1039600020094FF0000A14F0200838D13B0616D584
:103970004FF0200905F1380A200610D589F3118887
:10398000504600F067F9002836DA0821281DFFF7B5
:103990002FFF27F080033360002383F3118879061B
:1039A00014D5620612D5202383F31188D5E9132399
:1039B0009A4208D12B6C33B11021281D27F0400703
:1039C000FFF716FF3760002383F31188E30618D54D
:1039D000AA6E1369ABB1BDE8F0475069184789F387
:1039E0001188736A95F864102846194000F0CCF9E4
:1039F0008AF31188F469B6E7B06288F31188F46934
:103A0000BAE7BDE8F087000000F1604303F56143C9
:103A10000901C9B283F80013012200F01F039A4084
:103A200043099B0003F1604303F56143C3F8802120
:103A30001A607047F8B5154682680669AA420B46B7
:103A4000816938BF8568761AB54204460BD218469C
:103A50002A46FEF707F8A3692B44A361A3685B1B02
:103A6000A3602846F8BD0CD918463246FDF7FAFF88
:103A7000AF1BE1683A463044FDF7F4FFE3683B448E
:103A8000EBE718462A46FDF7EDFFE368E5E700009F
:103A900083689342F7B51546044638BF8568D0E978
:103AA0000460361AB5420BD22A46FDF7DBFF636984
:103AB0002B446361A36828465B1BA36003B0F0BD81
:103AC0000DD932460191FDF7CDFF0199E068AF1B9A
:103AD0003A463144FDF7C6FFE3683B44E9E72A462E
:103AE000FDF7C0FFE368E4E710B50A440024C361B2
:103AF000029B8460C0E90000C0E90511C160026159
:103B0000036210BD08B5D0E90532934201D1826845
:103B100082B98268013282605A1C42611970D0E910
:103B200004329A4224BFC3684361002100F0A0FA26
:103B3000002008BD4FF0FF30FBE7000070B52023E8
:103B400004460E4683F31188A568A5B1A368A2694F
:103B5000013BA360531CA36115782269934224BFE3
:103B6000E368A361E3690BB120469847002383F320
:103B70001188284607E03146204600F069FA0028FF
:103B8000E2DA85F3118870BD2DE9F74F04460E4641
:103B900017469846D0F81C904FF0200A8AF31188F7
:103BA0004FF0000B154665B12A4631462046FFF717
:103BB00041FF034660B94146204600F049FA00281B
:103BC000F1D0002383F31188781B03B0BDE8F08F98
:103BD000B9F1000F03D001902046C847019B8BF339
:103BE0001188ED1A1E448AF31188DCE7C0E905113B
:103BF000C160C3611144009B8260C0E900000161A3
:103C000003627047F8B504460D461646202383F339
:103C10001188A768A7B1A368013BA36063695A1C18
:103C200062611D70D4E904329A4224BFE368636183
:103C3000E3690BB120469847002080F3118807E024
:103C40003146204600F004FA0028E2DA87F31188B2
:103C5000F8BD0000D0E905239A4210B501D1826871
:103C60007AB98268013282605A1C82611C780369C9
:103C70009A4224BFC3688361002100F0F9F920460D
:103C800010BD4FF0FF30FBE72DE9F74F04460E461D
:103C900017469846D0F81C904FF0200A8AF31188F6
:103CA0004FF0000B154665B12A4631462046FFF716
:103CB000EFFE034660B94146204600F0C9F90028EE
:103CC000F1D0002383F31188781B03B0BDE8F08F97
:103CD000B9F1000F03D001902046C847019B8BF338
:103CE0001188ED1A1E448AF31188DCE702684368E4
:103CF0001143016003B11847704700001430FFF70B
:103D000043BF00004FF0FF331430FFF73DBF00000A
:103D10003830FFF7B9BF00004FF0FF333830FFF7FE
:103D2000B3BF00001430FFF709BF00004FF0FF31B0
:103D30001430FFF703BF00003830FFF763BF000007
:103D40004FF0FF323830FFF75DBF000000207047B2
:103D5000FFF75EBD044B03600023C0E902334360FC
:103D600001230374704700BF144E000810B52023D0
:103D7000044683F31188FFF773FD022323740023A5
:103D800083F3118810BD000038B5C36904460D46A1
:103D90001BB904210844FFF7A9FF294604F11400C8
:103DA000FFF7B0FE002806DA201D4FF48061BDE861
:103DB0003840FFF79BBF38BD024B0022C3E90033F8
:103DC0009A60704758390020002303748268054BBD
:103DD0001B6899689142FBD25A6803604260106088
:103DE000586070475839002008B5202383F31188A4
:103DF000037C032B05D0042B0DD02BB983F3118842
:103E000008BD436900221A604FF0FF334361FFF79A
:103E1000DBFF0023F2E7D0E9003213605A60F3E7DA
:103E2000002303748268054B1B6899689142FBD894
:103E30005A6803604260106058607047583900202B
:103E4000054B19690874186802681A605360186194
:103E500001230374FCF7E4BB5839002030B54B1C38
:103E60000B4D87B0044610D02B690A4A01A800F018
:103E700019F92046FFF7E4FF049B13B101A800F0F5
:103E80004DF92B69586907B030BDFFF7D9FFF8E746
:103E900058390020E93D000838B50C4D41612B69C7
:103EA00081689A689142044603D8BDE83840FFF71C
:103EB0008BBF1846FFF7B4FF01232C610146237422
:103EC0002046BDE83840FCF7ABBB00BF58390020A6
:103ED000044B1A681B6990689B68984294BF002045
:103EE000012070475839002010B5084C236820691C
:103EF0001A6822605460012223611A74FFF790FF50
:103F000001462069BDE81040FCF78ABB5839002003
:103F100008B5FFF7DDFF18B1BDE80840FFF7E4BFC3
:103F200008BD0000FFF7E0BFFEE7000010B50C4C35
:103F3000FFF742FF00F0A8F80A498022204600F06F
:103F40003DF8012344F8180C0374FFF703FC002329
:103F500083F3118862B60448BDE8104000F04EB803
:103F6000803900203C4E00084C4E000808B572B65F
:103F7000034B586200F05AFA00F00EFBFEE700BF58
:103F80005839002000F004B9EFF3118020B9EFF3A5
:103F90000583202282F311887047000010B530B9E4
:103FA000EFF30584C4F3080414B180F3118810BD45
:103FB000FFF7AEFF84F31188F9E700008260022268
:103FC000028270478368A3F17C0243F80C2C0269DB
:103FD00043F83C2C426943F8382C074A43F81C2C20
:103FE000C26843F8102C022203F8082C002203F8C0
:103FF000072CA3F1180070473906000810B52023DC
:1040000083F31188FFF7DEFF00210446FFF744FF2A
:10401000002383F31188204610BD0000024B1B696A
:1040200058610F20FFF70CBF58390020202383F37D
:104030001188FFF7F3BF000008B50146202383F382
:1040400011880820FFF70AFF002383F3118808BDB9
:1040500049B1064B42681B6918605A60136043609F
:104060000420FFF7FBBE4FF0FF30704758390020A7
:104070000368984206D01A68026050605961184679
:10408000FFF7A2BE70470000054B03F11402C3E91D
:1040900005224FF0FF310022C3E90712704700BF2D
:1040A0005839002070B51C4EC0E9032305460C4664
:1040B00000F0E8FA334653F8142F9A420DD13062DB
:1040C000C5E901242A600A2C2CBF00190A30C6E970
:1040D0000555BDE8704000F0C3BA316A431AE318D1
:1040E00038BF1C469368A34202D9081900F0C6FAEB
:1040F00073699A6894420CD85A68AC602B606A6005
:1041000015609A685D60121B9A604FF0FF33F3618F
:1041100070BD1B68A41AECE75839002038B51B4C59
:10412000636998420DD0D0E9003213605A600022D2
:104130008168C2609A680A449A604FF0FF33E36175
:1041400038BD2246036842F8143F002193425A606A
:10415000C16003D1BDE8384000F08ABA9A6881682E
:10416000256A0A449A6000F08DFA63699A68411BD7
:104170008A42E5D9AB181D1A092D206A98BF01F1B2
:104180000A02BDE83840104400F078BA58390020DF
:104190002DE9F041184C002704F11406656900F080
:1041A00071FA236AAA68C11A8A4215D81344236295
:1041B000D5E9003213605A606369D5F80C80EF606E
:1041C000B34201D100F054FA87F311882869C0473F
:1041D000202383F31188E1E76169B14209D01344D8
:1041E0001B1ABDE8F0410A2B2CBFC0180A3000F0A2
:1041F00045BABDE8F08100BF583900200020704763
:10420000FEE70000704700004FF0FF3070470000ED
:10421000BFF34F8F024A1369DB03FCD4704700BF22
:104220000020024008B5094B1B7873B9FFF7F0FF77
:10423000074B5A69002ABFBF064A9A6002F18832CA
:104240009A601A6822F480621A6008BDE03A002081
:10425000002002402301674508B50B4B1B7893B93A
:10426000FFF7D6FF094B5A6942F000425A611A68BB
:1042700042F480521A601A6822F480521A601A6856
:1042800042F480621A6008BDE03A0020002002403B
:104290003F289ABF00F58030C00200207047000020
:1042A0004FF4006070470000402070473F2808B579
:1042B0000BD8FFF7EDFF00F500630268013204D16F
:1042C00004308342F9D1012008BD0020FCE7000042
:1042D0003F2810B504461FD8FFF79AFFFFF7A2FF4B
:1042E0000E4BF3221A6102225A615A6942EAC00255
:1042F0005A615A6942F480325A61FFF789FF4FF4DC
:104300000061FFF7C5FF00F043F9FFF7A5FF204666
:10431000BDE81040FFF7CABF002010BD00200240DA
:104320002DE9F84340EA020313F00703144606D0D0
:104330002E4B40F2BF221A600020BDE8F88385189A
:104340002B4A95420CD9294A4FF431711160F3E799
:10435000031D1B684A68934208D1083C08300831A5
:10436000072C14D902680B689A42F1D0FFF75AFF64
:10437000FFF74EFF1F4E08314FF001084FF00009C4
:10438000012CA1F1080706D8FFF766FF01E0002C19
:10439000ECD10120D1E7C6F81480054651F8083C5D
:1043A00045F8043B51F8043C4360FFF731FFC6F881
:1043B0001490026851F8083C9A420CD00B4B40F222
:1043C000EA221A600C4B18600C4B1C600C4B1F60EF
:1043D000FFF742FFB0E72D6851F8043C9D4201F120
:1043E0000801EBD1083C0830CAE700BFDC3A0020E6
:1043F000FFFF010800200240D03A0020D83A0020F8
:10440000D43A0020084908B50B7828B11BB9FFF74A
:1044100009FF01230B7008BD002BFCD0BDE808404C
:104420000870FFF719BF00BFE03A002008B54FF44D
:10443000B0414FF0005000F0ADF8BDE808404FF437
:1044400020514FF0805000F0A5B8000070B582B048
:10445000FFF79AFD0E4E054600F014F932689042BF
:1044600037BF0C4A0B49516814682EBFD1E900418F
:10447000013151600419034641F1000128460191C0
:104480003360FFF78BFD0199204602B070BD00BF7D
:10449000E43A0020E83A002070B582B0FFF774FDDE
:1044A000104E054600F0EEF83268904237BF0E4AD3
:1044B0000D49516814682EBFD1E9004101315160A6
:1044C000041941F100010346284601913360FFF7CA
:1044D00065FD01994FF47A7200232046FBF788FEB0
:1044E00002B070BDE43A0020E83A00200244D2B2A3
:1044F000904200D17047431C800000F1804000F5DD
:104500001450006841F8040BD8B2F1E7124B10B513
:10451000D3F89040240409D4D3F89040C3F89040D5
:10452000D3F8904044F40044C3F890400B4C236807
:10453000024443F480732360D2B2904200D110BD94
:10454000431C800000F1804000F5145051F8044BEA
:104550000460D8B2F1E700BF0010024000700040D4
:1045600007B5012201A90020FFF7C0FF019803B0A1
:104570005DF804FB13B50446FFF7F2FFA04205D037
:10458000012201A900200194FFF7C0FF02B010BD75
:10459000704700007047000070470000074B45F26D
:1045A00055521A6002225A6040F6FF729A604CF629
:1045B000CC421A60024B01221A7070470030004052
:1045C000F13A0020034B1B781BB1034B4AF6AA2299
:1045D0001A607047F13A002000300040044BD3F8D5
:1045E00094309B0042BF034B01221A70704700BFFA
:1045F00000100240F03A0020024B4FF40002C3F8D2
:104600009420704700100240014B1878704700BF9B
:10461000F03A002070470000FEE700000A4B0B480C
:104620000B4A90420BD30B4BDA1C121AC11E22F01C
:1046300003028B4238BF00220021FDF725BA53F850
:10464000041B40F8041BECE7BC4F00087C3B002037
:104650007C3B00207C3B00207047000000F078B8D5
:104660004FF08043002258631A610222DA607047DB
:104670004FF080430022DA60704700004FF0804323
:10468000586370474FF08043586A70474B684360E7
:104690008B688360CB68C3600B6943614B690362BD
:1046A0008B6943620B6803607047000008B5204BBC
:1046B000DA6A42F07F02DA62DA6A22F07F02DA62B4
:1046C000DA6ADA6C42F07F02DA64DA6E42F07F0274
:1046D000DA66184ADB6E11464FF09040FFF7D6FFBE
:1046E00002F11C0100F58060FFF7D0FF02F13801F4
:1046F00000F58060FFF7CAFF02F1540100F5806009
:10470000FFF7C4FF02F1700100F58060FFF7BEFF04
:1047100002F18C0100F58060FFF7B8FF02F1A801FB
:1047200000F58060FFF7B2FFBDE8084000F064B814
:1047300000100240644E000808B500F003FAFFF7CD
:10474000F5FBBDE80840FFF749BF000070470000D7
:104750000F4B9A6D42F001029A659A6F42F0010286
:104760009A670C4A9B6F936843F0010393604FF084
:104770008043A7229A624FF0FF32DA6200229A61E8
:104780005A63DA605A6001225A611A60704700BFAA
:1047900000100240002004E04FF0804208B511698B
:1047A000D3680B40D9B2C9439B07116107D52023B9
:1047B00083F31188FFF7E6FB002383F3118808BD1C
:1047C00008B50B4BD3F8902012F4407F1FBF4FF475
:1047D0008032C3F890200022C3F89020D3F89020B4
:1047E000C3F8902000F086F9024B00225A6008BD01
:1047F0000010024000700040484B4FF0FF319A6AB1
:1048000099629A6A00229A62986AD86A60F07F0078
:10481000D862D86A00F07F00D862D86A186B196332
:10482000186B1A63186B986B9963986B9A63986B03
:10483000D86BD963D86BDA63D86B186C1964196CB0
:104840001A641A6C9A6D42F080529A659A6F22F03F
:1048500080529A679A6F324A4FF400711160516921
:1048600011F48061FBD14FF40040516090604FF42F
:104870008070D160C2F88000116251629162D16291
:10488000116351639163D163116451649164D16484
:1048900011655165D3F8982042F00102C3F89820C1
:1048A000D3F898209007FBD51A6842F480321A603A
:1048B0001A689103FCD51A490A6842F480720A60AA
:1048C000184ADA601A6842F080721A601A68920117
:1048D000FCD5002214499A60C3F888101349C3F824
:1048E0009C20134A0A600A6802F00F02042AFAD1D7
:1048F0009A6842F003029A609A6802F00C020C2A4D
:10490000FAD11A6E42F001021A66D3F8802042F002
:104910000102C3F88020D3F88030704700100240B5
:1049200000700040232A6101550100500020024020
:1049300004070400074A08B5536903F001035361F3
:1049400023B1054A13680BB150689847BDE8084089
:10495000FEF724BF00040140F43A0020074A08B5DE
:10496000536903F00203536123B1054A93680BB105
:10497000D0689847BDE80840FEF710BF000401402A
:10498000F43A0020074A08B5536903F00403536161
:1049900023B1054A13690BB150699847BDE8084037
:1049A000FEF7FCBE00040140F43A0020074A08B5B7
:1049B000536903F00803536123B1054A93690BB1AE
:1049C000D0699847BDE80840FEF7E8BE0004014002
:1049D000F43A0020074A08B5536903F01003536105
:1049E00023B1054A136A0BB1506A9847BDE80840E5
:1049F000FEF7D4BE00040140F43A0020164B10B577
:104A00005C6904F478725A61A30604D5134A936A68
:104A10000BB1D06A9847600604D5104A136B0BB1EE
:104A2000506B9847210604D50C4A936B0BB1D06BA1
:104A30009847E20504D5094A136C0BB1506C9847AE
:104A4000A30504D5054A936C0BB1D06C9847BDE81B
:104A50001040FEF7A3BE00BF00040140F43A00205E
:104A6000194B10B55C6904F47C425A61620504D5A7
:104A7000164A136D0BB1506D9847230504D5134AA0
:104A8000936D0BB1D06D9847E00404D50F4A136EB7
:104A90000BB1506E9847A10404D50C4A936E0BB12C
:104AA000D06E9847620404D5084A136F0BB1506F5B
:104AB0009847230404D5054A936F0BB1D06F9847EC
:104AC000BDE81040FEF76ABE00040140F43A002041
:104AD00008B50348FEF714FFBDE80840FEF75EBEC8
:104AE000AC38002008B5FFF757FEBDE80840FEF7D8
:104AF00055BE0000062108B50846FEF785FF0621D1
:104B00000720FEF781FF06210820FEF77DFF062122
:104B10000920FEF779FF06210A20FEF775FF06211E
:104B20001720FEF771FF06212820FEF76DFF0721F1
:104B30001C20FEF769FFBDE808400C212520FEF788
:104B400063BF000008B5FFF73BFE00F009F8FFF770
:104B5000FFF8FFF7FBFDBDE80840FFF77FBD000051
:104B60000023054A19460133102BC2E9001102F156
:104B70000802F8D1704700BFF43A00200B46014606
:104B8000184600F003B8000000F00EB810B5054C50
:104B900013462CB10A4601460220AFF3008010BD37
:104BA0002046FCE700000000024B0146186800F0B8
:104BB00035B800BF2811002010B5013902449042D9
:104BC00001D1002005E0037811F8014FA34201D084
:104BD000181B10BD0130F2E72DE9F041A3B1C91A4D
:104BE00017780144044603F1FF3C8C42204601D96A
:104BF000002009E00578BD4204F10104F5D10CEB79
:104C00000405D618A54201D1BDE8F08115F8018D43
:104C100016F801EDF045F5D0E7E7000037B50029BB
:104C200044D051F8043C0190002BA1F10404B8BF1A
:104C3000E41800F047F81E4A0198136833B963601E
:104C4000146003B0BDE8304000F042B8A34208D978
:104C5000256861198B4201BF19685B684919216099
:104C6000EDE71A465B680BB1A342FAD911685518F3
:104C7000A5420BD1246821445418A3421160E0D10D
:104C80001C685B68536021441160DAE702D90C2389
:104C90000360D6E7256861198B4204BF19685B6819
:104CA000636004BF491921605460CAE703B030BD96
:104CB000743B0020034611F8012B03F8012B002A56
:104CC000F9D17047014800F009B800BF783B0020D7
:104CD000014800F005B800BF783B00207047000095
:104CE000704700006F72672E6172647570696C6F37
:104CF000742E48697465632D4169727370656564CB
:104D0000000000004E6F20617070207369670A0018
:104D1000426164206677206C656E67746820257533
:104D20000A0042616420626F6172645F69642025D9
:104D3000752073686F756C642062652025750A00A4
:104D40004261642066772064657363726970746F72
:104D500072206C656E6774682025750A0042616474
:104D60002061707020435243203078253038783AE3
:104D7000307825303878203078253038783A3078D7
:104D8000253038780A00476F6F64206669726D7746
:104D90006172650A0040A2E4F164689106000000B7
:104DA00053544D333247343F3F000000426164208A
:104DB00043414E496661636520696E6465782E00E3
:104DC00000000000000000008D1F0008B52500084D
:104DD0008D1B0008211C0008791D0008E91B000834
:104DE000B11B0008B51B0008911B0008991B0008A7
:104DF000951B0008391D0008A51B0008009600003F
:104E000000000000000000000000000000000000A2
:104E10000000000000000000193D0008053D0008EA
:104E2000413D00082D3D0008393D0008253D0008A2
:104E3000113D0008FD3C00084D3D00086D61696EA4
:104E40000000000069646C6500000000444E00082A
:104E500098390020D03A002001000000293F0008C6
:104E6000000000000010802A00000000AAAAAAAAE0
:104E700000000000BFFF00000000000000900900DB
:104E800000A0000100000000AAFAAAAA0050000138
:104E9000FFFF00000000007700000000000000009D
:104EA00000000000AAAAAAAA00000000FFFF00005C
:104EB00000000000000000000000000000000000F2
:104EC000AAAAAAAA00000000FFFF0000000000003C
:104ED000000000000000000000000000AAAAAAAA2A
:104EE00000000000FFFF00000000000000000000C4
:104EF0000000000000000000AAAAAAAA000000000A
:104F0000FFFF0000000000000000000000000000A3
:104F100000000000AAAAAAAA00000000FFFF0000EB
:104F20000000000000000000F8B2FF7F0100000058
:104F300016040000000000000098010000000000BE
:104F4000FE2A0100D2040000FF0000000000000063
:104F5000A04D00083F0000002C11002000000000C0
:104F60000000000000000000000000000000000041
:104F70000000000000000000000000000000000031
:104F80000000000000000000000000000000000021
:104F90000000000000000000000000000000000011
:104FA0000000000000000000000000000000000001
:0C4FB000000000000000000000000000F5
:00000001FF
