:020000040800F2
:1000000000040020E10100085D0C00085D0C000800
:100010005D0C00085D0C00085D0C00085D0C00081C
:100020005D0C00085D0C00085D0C0008892A0008C2
:100030005D0C00085D0C00085D0C00085D0C0008FC
:100040005D0C00085D0C00085D0C00085D0C0008EC
:100050005D0C00085D0C00085D0C00085D0C0008DC
:100060005D0C00085D0C00085D0C00085D0C0008CC
:100070005D0C00085D0C00085D0C00085D0C0008BC
:100080005D0C00085D0C00085D0C00085D0C0008AC
:100090005D0C00085D0C00085D0C00085D0C00089C
:1000A0005D0C00085D0C00085D0C00085D0C00088C
:1000B000A92300085D0C00085D0C00085D0C000819
:1000C0005D0C00085D0C00085D0C00085D0C00086C
:1000D0005D0C00085D0C00085D0C00085D0C00085C
:1000E0005D0C00085D0C00085D0C00085D0C00084C
:1000F0005D0C00085D0C00085D0C00085D0C00083C
:100100005D0C00085D0C00085D0C00085D0C00082B
:100110005D0C00085D0C00085D0C00085D0C00081B
:100120005D0C00085D0C00085D0C00085D0C00080B
:100130005D0C00085D0C00085D0C00085D0C0008FB
:100140005D0C00085D0C00085D0C000849210008EA
:100150005D0C00085D0C00085D0C00085D0C0008DB
:100160005D0C00085D0C00085D0C00085D0C0008CB
:100170005D0C00085D0C00085D0C00085D0C0008BB
:100180005D0C00085D0C00085D0C00085D0C0008AB
:100190005D0C00085D0C00085D0C00085D0C00089B
:1001A0005D0C00085D0C00085D0C00085D0C00088B
:1001B0005D0C00085D0C00085D0C00085D0C00087B
:1001C0005D0C00085D0C00085D0C00085D0C00086B
:1001D0005D0C00085D0C00085D0C00085D0C00085B
:1001E00072B6374880F3098836484EF60851CEF289
:1001F0000001086040F20000CCF200004EF63471BD
:10020000CEF200010860BFF34F8FBFF36F8F40F253
:100210000000C0F2F0004EF68851CEF200010860F6
:10022000BFF34F8FBFF36F8F4FF00000E1EE100A66
:100230004EF63C71CEF200010860062080F314886F
:10024000BFF36F8F00F0ECFC02F0EEF84FF055308A
:100250001D491E4A91423CBF41F8040BFAE71C4974
:10026000174A91423CBF41F8040BFAE719491A4A70
:100270001A4B9A423EBF51F8040B42F8040BF8E7C0
:1002800000201749174A91423CBF41F8040BFAE796
:1002900000F0CAFC02F0CAF8134C144DAC4203DA69
:1002A00054F8041B8847F9E700F03EF8104C114D54
:1002B000AC4203DA54F8041B8847F9E700F0B2BCFB
:1002C00000080020000000080000002000040020BA
:1002D0000004002030350008000800202808002015
:1002E00028080020301A0020E0010008E001000882
:1002F000E0010008E00100082DE9F04F2DED108A23
:10030000C1F80CD0C3689D46BDEC108ABDE8F08FE3
:10031000002383F311882846A047002000F0A2FEA6
:1003200000F03CFE00DFFEE738B5184B6FF07D02B1
:1003300000241A700F225C709C70DC701C715C7160
:100340009C71DC711C725C729A72DC7202F0BEFAF3
:100350000F4B984217D00133984241F2883412BFB4
:10036000002500240125002002F0B6FA0DB100F0AE
:1003700053F800F029FC00F0F5FA204600F07CF874
:1003800000F04AF8F9E72546EDE700BF280800200D
:10039000010007B008B500F087FAA0F12003584229
:1003A000584108BD07B5054B02211B88ADF8043044
:1003B00001A800F0C7FA03B05DF804FB00320008A2
:1003C00010B51148C3680BB100F014FD0F4C104A72
:1003D0000D4800234FF47A7100F0D0FC236813B16C
:1003E0002368013B2360636813B16368013B63606A
:1003F000084B1B7833B9636823B9022000F096FBE1
:100400003223636010BD00BF340800204C0D002073
:10041000C10300084808002038B5114C2368013397
:100420001CD0104D104B2A689A4217D90F4B9B686D
:1004300003F1006303F580339A420FD2002000F0ED
:10044000ABFA0B4B0220187000F064FB72B6094B3C
:100450001C6023682A6883F30888104738BD00BFF2
:100460000000010804000108FFFF00082808002020
:100470004808002008ED00E02DE9F04FBC4B054690
:10048000BC489C680022C2608FB0202282F3118891
:10049000C26898460AB100F0ADFC0023B64AB548E0
:1004A0004FF47A7100F06AFC002383F31188DFF8BF
:1004B000E4920DB1C9F80050B04EC9F80430337061
:1004C0004FF0FF37012000F025FB002D00F0AF8139
:1004D000D9F80030002B40F0AA810FB0BDE8F08FB2
:1004E0000220FFF757FF00283AD1A54B1B88ADF833
:1004F0002430022109A800F025FAE3E74FF47A70CE
:1005000000F0D2F9B0F1000BEFDB0220FFF742FF61
:100510000028EAD00BF1FF300428E6D8DFE800F02D
:1005200003090E1114000EA8052340F8143D042100
:1005300001E08F48042100F005FA11E00421914800
:10054000F9E704219048F6E71C25284600F026FA32
:1005500004350990042109A800F0F4F92C2DF4D1F8
:1005600000F028FBFFF71EFF5FE10220FFF712FFFC
:100570000028BAD0012000F00FFA0220307000F0FD
:10058000C9FA4FF0000B5FFA8BFA504600F01CFAE4
:100590000BF1010B044618B1504600F025FAF2E7C2
:1005A00001230220337000F0A7FAD8F808309C42EB
:1005B00007D2204600F0F2F9013040F019810434EE
:1005C000F3E700243470C9F80440C9E70220307012
:1005D00000F0A0FA322000F067F9B0F1000B84DBE4
:1005E0001BF0030381D1D8F808100BEB04028A42F8
:1005F0003FF67BAFBBF5807F3FF677AF634A9A4605
:10060000DA4501920FDA4FF47A7000F04DF9039059
:1006100003990029FFF669AF019A03990AF80210BD
:100620000AF1010AECE7C820FFF7B4FE00283FF406
:100630005CAF24B9554B4FF0FF321F681A60534B23
:100640002BF0030BA344A3EB040A5C4588D05AF8B3
:100650000410204600F0A8F9204600F09FF95AF84F
:100660000420904240F0C4800434EEE70220FFF7FB
:1006700091FE00283FF439AF4FF0000B5D46D8F8EB
:1006800008309B4534D2BBF1000F14D17A1C12D034
:1006900009973F494B689BB1002209A8135C6B4046
:1006A000DBB2013251F82330042A83EA1525F5D153
:1006B0000BF1040BE3E7584600F070F90990E8E706
:1006C0001A46082012F0010F4FEA52021FBF82F0B3
:1006D0006D4282F4380282F4034282F02002013833
:1006E000F0D141F823200133B3F5807FE8D1D3E77F
:1006F0000EA840F8285D1AE70EA8002340F8143D24
:10070000642100F0FBF800287FF4EFAE0220FFF731
:1007100041FE00283FF4E9AE099800F077F90EABEE
:1007200043F8240D0421184605E70EA8002340F8DD
:10073000143D642100F0E2F800287FF4D6AE0220D8
:10074000FFF728FE00283FF4D0AE099800F06CF9BE
:100750000EAB43F8200DE5E70220FFF71BFE002853
:100760003FF4C3AE00F066F90EAB43F81C0DD9E7B9
:100770002808002034080020C10300084808002091
:10078000023200082C080020300800204C0800200D
:100790004C0900204C0D00200220FFF7FBFD002833
:1007A0003FF4A3AE09A9142000F04AF905460EA8AB
:1007B000042140F8185D00F0C5F8294609A8BAE6FA
:1007C0004FF47A70FFF7E6FD00283FF48EAE7B1CF5
:1007D00005D1FFF7E7FD324800F04AFC7DE63946D7
:1007E000002000F0E1F8002000F0D8F88742F0D0B7
:1007F0002C4B7BE60EA8002340F8143D642100F04A
:100800007DF800287FF471AE0220FFF7C3FD0028B9
:100810003FF46BAEFFF7C6FD41F2883000F028FCD4
:10082000099800F0FBF900F0C5F900254AE6002020
:1008300000F03AF80390039B002BFFF646AE012030
:1008400000F05AF9039B213B122B3FF63BAE01A26D
:1008500052F823F0E1040008FD0400086B050008CD
:10086000C5040008C5040008C5040008CD0500083B
:10087000C50400086D060008F90600082B070008EB
:1008800059070008C504000899070008C5040008B6
:10089000C107000861050008C5040008F507000845
:1008A000A08601000432000837B5114A12780132DF
:1008B000D2B20024012A03468DF8074011D80D4812
:1008C0000268D5694FF47A7253430DF10701012292
:1008D000A847012805D1084B9DF807001C7003B0FC
:1008E00030BD4FF4FA7000F0C3FB4FF0FF30F6E775
:1008F00000080020D8100020580D002038B50E4BFD
:100900001A780132D2B2012A05460ED80B48036884
:10091000DC694FF47A734B4304222946A04704282C
:1009200003D1074B0020187038BD4FF4FA7000F067
:100930009FFB4FF0FF3038BD00080020D81000208A
:10094000580D002030B4054C23689D69044B0A46BD
:10095000AC460146204630BC604700BFD81000209E
:10096000A086010070B501F0EDFE094C094E207023
:10097000002530682378834208D901F0DDFE336812
:1009800005440133B5F5803F3360F2D370BD00BF3D
:10099000590D0020540D002001F084BF00F10060CB
:1009A00000F580300068704707B502AB00F10060C9
:1009B00043F8041D0422194600F5803001F000FFC1
:1009C00003B05DF804FB0000054B1A68054B1B786B
:1009D0001344834202D9104401F0AEBE0020704798
:1009E000540D0020590D002038B5074D04462868E5
:1009F000204401F0A9FE28B928682044BDE8384009
:100A000001F0BABE38BD00BF540D002010F0030342
:100A100008D1B0F5007F05D800F10050A0F50840DE
:100A20000068704700207047014BC058704700BFF6
:100A3000107AFF1F014B1868704700BF002004E0C8
:100A400070B52A4B1C68C4F30B03240C63B140F24D
:100A50001342934231D040F2194293422FD040F2D8
:100A6000214293422DD10323214A0C2505FB032368
:100A70005D6893F9082042F201039C4224D0B4F54A
:100A8000805F23D041F201039C4221D041F2030355
:100A90009C421FD041F207039C4208BF3122441EF2
:100AA0000C44013D0B46A3421ED215F9016F581CA0
:100AB00096B1034600F8016CF5E70123D4E7022361
:100AC000D2E73F220B4DD6E73322E3E74122E1E7AD
:100AD0005A22E4E75922E2E72C2584421D7001D90D
:100AE000981C5A70401A70BD1846FBE7002004E0BD
:100AF0001432000808320008022804D14FF4001212
:100B0000034B9A6170470128FCD14FF48012F7E73C
:100B100000040240022803D12022034B9A6170474F
:100B20000128FCD11022F8E700040240022805D178
:100B3000064A536983F02003536170470128FCD1B2
:100B4000024A536983F01003F6E700BF0004024035
:100B500010B50023934203D0CC5CC4540133F9E7B1
:100B600010BD000030B5441E14F9010F0B4660B1F2
:100B700093F90050854201F1010106D11AB993F9A8
:100B80000020801A30BD013AEEE7002AF7D1104666
:100B900030BD000002460346981A13F9011B0029D4
:100BA000FAD1704702440346934202D003F8011B76
:100BB000FAE77047024B1A78024B1A70704700BF71
:100BC000580D00200008002038B5104D104C284664
:100BD00000F010FB2146284600F038FB23680D4842
:100BE0005A6DD2F8043843F00203C2F8043800F01A
:100BF0003FFA0949206800F041FC23685A6DD2F899
:100C0000043823F00203C2F8043838BDD81000209D
:100C10001034000840420F005C34000870470000A8
:100C200070470000FEE70000084A094B09498B4263
:100C300004D3094A0021934205D3704752F8040FA8
:100C400043F8040BF3E743F8041BF4E754350008BA
:100C5000301A0020301A0020301A00201EF0040F35
:100C60000CBFEFF30880EFF309808169004A104759
:100C7000790C000870470000204B02681A60204B76
:100C800042681A601F4B82681A601F4BC2681A6064
:100C90001E4B02691A601E4B42691A601D4B826925
:100CA0001A601D4BC2691A601C4B1D491A681D4B06
:100CB0001A601A68120A0A701A681B4B1A701B4BCA
:100CC0001A681B4B1A601B4B1A681B4B1A601B4B94
:100CD0001A681B4B1A601B4B1A681B4B1A601B4B84
:100CE0001A681B4B1A601B4B5A6A1B4B1A601B4B32
:100CF0001B68DB0701D500BEFEE7FEE78C0D002078
:100D0000900D0020980D00209C0D0020940D0020D7
:100D1000800D0020840D0020880D002028ED00E0CB
:100D2000640D0020680D0020780D00202CED00E0FF
:100D3000700D002030ED00E06C0D00203CED00E077
:100D40005C0D002034ED00E0740D002038ED00E073
:100D5000600D002000ED00E07C0D0020F0ED00E0D3
:100D6000054B03F114025A619A614FF0FF32DA61C8
:100D700000221A62704700BFA00D0020F8B5036181
:100D80004FF08043C2605C6A194B1A46022952F840
:100D9000145F38BF0221954206461F460AD15861AA
:100DA00098611C620560456081600819BDE8F840E3
:100DB00000F042BB186AAB68241A0C1902D3E41A7B
:100DC0002D6804E09C4202D2204400F043FBAB6853
:100DD0009C42F4D86B68736035601E606E60B460CE
:100DE000A9684FF0FF33091BA960FB61F8BD00BF84
:100DF000A00D002010B41B4C234653F8141F814251
:100E000010D0416802680A60026851609A424FF04F
:100E10000001C16003D0936881680B4493605DF862
:100E2000044B70470A68626100209A425360C860B0
:100E300003D15DF8044B00F007BB93688868034456
:100E400093604FF08042506A226A821A9342E6D938
:100E50009B1A022B2CBFC01802305DF8044B00F027
:100E6000F9BA00BFA00D0020024B00221B605B609E
:100E70009A607047A00D0020002303748268054B20
:100E80001B6899689142FBD25A6803604260106007
:100E900058607047A00D002008B5202383F3118807
:100EA000037C032B05D0042B0DD02BB983F31188C1
:100EB00008BD436900221A604FF0FF334361FFF71A
:100EC000DBFF0023F2E790E80C001A600268536031
:100ED000F2E70000002303748268054B1B689968E1
:100EE0009142FBD85A6803604260106058607047B6
:100EF000A00D0020054B19690874186802681A6073
:100F00005360186101230374FFF7F6B9A00D0020A8
:100F100030B54B1C87B005460A4C10D023690A4AED
:100F200001A8FFF72BFF2846FFF7E4FF049B13B14E
:100F300001A8FFF75FFF2369586907B030BDFFF7CD
:100F4000D9FFF8E7A00D0020990E000838B50C4D28
:100F500041612B6981689A689142044603D8BDE8D3
:100F60003840FFF789BF1846FFF786FF01232C6141
:100F7000014623742046BDE83840FFF7BDB900BFE5
:100F8000A00D0020044B1A681B6990689B6898426A
:100F900094BF002001207047A00D002010B5084C20
:100FA000236820691A6822605460012223611A7440
:100FB000FFF790FF01462069BDE81040FFF79CB99C
:100FC000A00D002008B5FFF7DDFF18B1BDE808400F
:100FD000FFF7E4BF08BD0000826002220274002215
:100FE00042748261704700008368A3F1840243F871
:100FF000142C026943F8442C426943F8402C084AF7
:1010000043F8242CC26843F8182C022203F8102C51
:10101000002203F80F2C43F8082CA3F1200070479E
:101020001103000808B5FFF7DFFFBDE80840FFF730
:1010300023BF000010B5202383F31188FFF7D4FFEE
:1010400000210446FFF782FF002383F31188204626
:1010500010BD0000024B1B6958610F20FFF74ABF0B
:10106000A00D0020202383F31188FFF7F3BF0000B9
:1010700008B50146202383F311880820FFF748FFB5
:10108000002383F3118808BD10B5054C2369036064
:1010900058610320FFF72EFF2369586910BD00BF78
:1010A000A00D002003682BB1002202605961184690
:1010B000FFF7E2BE7047000049B1064B42681B696A
:1010C00018605A60136043600420FFF721BF4FF09F
:1010D000FF307047A00D00200368984206D01A68C0
:1010E0000260506059611846FFF7C6BE70470000A5
:1010F00038B504460D462068844200D138BD0368E7
:1011000023605C604561FFF7B7FEF4E713B5446BFD
:10111000D4F88C341A681178042916D1217A02295E
:1011200013D11979128901238B4013420DD101A9E2
:1011300004F1440001F004FE024630B1D4F88C44BE
:10114000019B2179206800F0E5F902B010BD000094
:101150000C3001F073BD00004FF0FF330C3001F094
:101160006DBD0000443001F057BE00004FF0FF336A
:10117000443001F051BE00000C3001F041BD0000D0
:101180004FF0FF310C3001F03BBD0000443001F066
:1011900023BE00004FF0FF32443001F01DBE0000BE
:1011A000D0F88C2438B5136819780429054601D085
:1011B000012038BD017A0229FAD112795C89012017
:1011C00090400440F4D105F10C0001F0D3FC02463C
:1011D0000028EDD0D5F88C544FF4807328686979D5
:1011E00000F086F9204638BD406BFFF7D9BF0000FC
:1011F000704700007FB50346114A43F8042B0125D0
:10120000436002260F4B057204460290019300F1E1
:101210007C02294600964FF480730C3001F086FC66
:10122000094B0193029400964FF4807304F52172E8
:10123000294604F1440001F05FFD04B070BD00BF19
:1012400064320008E91100080D1100080B68202223
:1012500082F311880A7903EB820290614A7909329C
:1012600043F822008A7912B103EB820398610223CA
:101270000372C0F88C14002383F3118870470000B8
:1012800038B5044601250221043001F0D9FB04F1F0
:101290000C0025756FF00101FFF72AFF84F84C5010
:1012A00004F144006FF00101BDE83840FFF720BFB2
:1012B00010B501210446043001F0C2FB0023237560
:1012C00084F84C3010BD000038B5044600250C30C1
:1012D00001F044FC04F14400257501F025FD201DBA
:1012E00084F84C50012101F0ABFB2046BDE83840AA
:1012F000FFF756BF90F8443003F06003202B19D15C
:1013000090F84520212A0AD0222A4FF000030ED05F
:10131000202A0FD1084A82630722C26304E0064BE9
:1013200083630723C363002303640120704783633F
:10133000C363F9E70020704701080020D0F88C341F
:1013400037B51A681178042904461AD1017A02299E
:1013500017D11979128901238B40134211D100F161
:101360004405284601F0B6FD58B101A9284601F010
:10137000E7FCD4F88C44019B21790246206800F0F8
:10138000C9F803B030BD000000EB8103F7B59C69DC
:1013900005460E46F4B1202383F3118805EB86073A
:1013A000201D082101F04CFBFB685B691B6844347D
:1013B00013B1204601F0D2FC01A9204601F0C0FC87
:1013C000024648B1019B3146284600F0A3F80023AD
:1013D00083F3118803B0F0BDFB685A691268002AD4
:1013E000F5D01B8A013B1340F1D105F14402EAE735
:1013F000093110B550F82140CCB1202383F3118876
:101400000421601801F01CFBD4F88C241368527975
:1014100003EB820304F10C00DB689B69596801F05F
:10142000B3FB2046FFF7BCFE002383F3118810BDF9
:101430007047000000F0CCBF4FF08043002258639B
:101440001A610222DA6070474FF080430022DA60AE
:10145000704700004FF080435863704700F09CBB1A
:101460000123037000234360C36183620362C3628C
:1014700043620363038143817047000038B504462B
:10148000202383F3118800254160C5600561456113
:10149000856100F093FB0223237085F3118838BD2A
:1014A00070B500EB810305465069DA600E461446BC
:1014B00018B110220021FFF775FBA06918B11022A6
:1014C0000021FFF76FFB31462846BDE8704000F071
:1014D0004DBC0000028902F001020281428902F043
:1014E00001024281002202614261826100F0D2BCAD
:1014F000F0B400EB81044789E4680125A4698D40BC
:101500003D43458123600023A2606360F0BC00F08E
:10151000EDBC0000F0B400EB81040789E46801250C
:1015200064698D403D43058123600023A2606360B0
:10153000F0BC00F06BBD000070B50223002504462E
:101540000370A0F84C5080F84E5080F84F50058141
:101550004581C56005614561856180F8345000F0C2
:10156000A3FB63681B6823B129462046BDE8704091
:10157000184770BD436802781B6880F85020052228
:1015800002700BB10421184770470000436890F8BF
:1015900050201B6802700BB10521184770470000EE
:1015A00070B50023044680F8343000F1440200F0A6
:1015B00093FC63689B685BBB94F8445015F060062D
:1015C00014D194F8453005F07F0545EA0325B5F5BB
:1015D000407F00F0A58059D8022D00F0F1803FD85F
:1015E000002D00F08780012D00F0E48000212046CE
:1015F00000F0BCFE0021204600F0AEFE63681B68D0
:1016000013B1062120469847062384F8343070BD74
:10161000204698470028CFD094F84B2094F84A30C1
:1016200043EA0223E26B934238BFE36394F9443008
:10163000E56B002B4FF0200380F20181002D00F0BC
:10164000F080012284F8342083F311880021E36BB9
:10165000A26B2046FFF75EFF002383F3118870BD65
:10166000B5F5807F4DD0B5F5817FBFD194F8463078
:10167000002BBBD194F8483013F00F0126D01A0686
:10168000204640F1B78000F085FE1FE0B5F5C06F41
:1016900050D020D840F202339D4200F0AE80B5F524
:1016A000A06FA3D1B4F84430B3F5A06F0ED194F875
:1016B000463084F84E30204600F04CFB63681B68CF
:1016C00013B1012120469847032323700023A3630D
:1016D000E3632364A0E7B5F5106F41D040F6024301
:1016E0009D4267D0B5F5006F80D104F14F03A3632D
:1016F000012333E004F14C03A3630223E363256475
:101700008AE794F84630012B7FF470AFB4F84C3080
:1017100023F00203A4F84C30A663E66326647BE75B
:1017200094F84630012B7FF461AFB4F84C3043F0AD
:101730000203EFE794F84920616894F848304D6857
:1017400094F8471043EA0223204694F84620A8471D
:1017500000283FF44BAF4368A3630368E363DDE70E
:1017600094F84F2094F846309A42AFD02378042B57
:1017700010D1202383F311882046FFF7ABFE86F3B8
:101780001188636884F84F601B68032121700BB1D6
:101790002046984794F84630002B97D084F84F3075
:1017A0000423237063681B68002B8FD0022120461E
:1017B00098478BE72E4BA3630223E363002388E75C
:1017C00094F8481011F0800F204601F00F010ED060
:1017D00000F074FB012806D002287FF407AF254BE8
:1017E000A363E0639AE7244BA363E56396E700F005
:1017F00057FBEFE700F0C4FD68E794F84630002B94
:101800007FF4F4AE94F8483013F00F013FF45EAF6C
:101810001B06204602D500F0A9FD57E700F09CFD0D
:1018200054E7032284F8342083F311882B462A4698
:1018300029462046FFF75CFE85F3118870BD5DB137
:10184000042284F8342083F311880021E36BA26B17
:101850002046FFF74DFEFFE6052284F8342083F38F
:1018600011882B462A4629462046FFF753FEE3E718
:101870008C320008843200088832000838B590F8AD
:1018800034300446062B22D8DFE803F03704223731
:101890003732370090F84B1090F84A20C36B42EA79
:1018A00001229A4214D9C268128AB3FBF2F502FBF4
:1018B00015356DB9202383F311882B462A46294616
:1018C000FFF728FE85F31188022384F8343038BDF1
:1018D000032384F83430202383F3118800231A462D
:1018E00019462046FFF704FE002383F3118838BD14
:1018F000036C03B198470023E7E7002100F036FDB1
:101900000021204600F028FD63681B6813B1062102
:10191000204698470623D8E790F83420062A38B5A1
:10192000044621D80123934013F0670F1DD113F013
:1019300008050FD1DB0617D5052380F834302023A6
:1019400083F311882B462A462946FFF7E3FD85F3EA
:10195000118838BDC3689B695B682BB9036C03B100
:101960009847002384F8343038BD002100F0FEFC95
:101970000021204600F0F0FC63681B6813B10621CB
:10198000204698470623EDE7836D30B500229D6819
:10199000446D11464FF0FF3004EB42130132954283
:1019A000C3F80019C3F81019C3F80809C3F8001BDD
:1019B000C3F8101BC3F8080BEED24FF00113C4F8A4
:1019C0001C3830BD890141F02001016103699B068B
:1019D000FCD4122001F016B82DE9F04F202387B077
:1019E0000446456D83F3118800F1640305934FF0BD
:1019F000000B2378012B04D0236E4BB96B69DB06F7
:101A000006D4AB69059843F01003AB61FFF73CFBCC
:101A10008BF311884FF0000E4FF02009A36D9B68E7
:101A20005FFA8EF083421BD2202383F31188E0E714
:101A3000616D0A6A02F4F013B3F5802F66D0B3F536
:101A4000402F0DD1C2F30A1602F00F0204EB8202FE
:101A500001F58051D3681F6A00231A469E4248D17F
:101A6000696911F01001E3D1012303FA00F2236E3A
:101A70001A4200F08C8089F31188AB6823F00103CF
:101A8000AB60236E23EA0203236681F3118804EB23
:101A90008003D3F80C80D8F814100B680093431C13
:101AA0001B030293430104934868009B98425FD252
:101AB000B8F81060676D1B1AB34228BF3346049E06
:101AC000BE19D6F81869B6B2B3EB860F62D8029E7B
:101AD000BE1903968E680196A6F1040A9C46039EE1
:101AE0005AF8047F3760BCF1040F3BD9ACF1040C09
:101AF000F5E713F0030F08BF0A68072B98BF3A7089
:101B000003F101039CBF120A0137A7E7C2F30A16CB
:101B100002F00F0204EB820201F58051D3689B6949
:101B20001F68D3F808805B68A7EB030C00231F46EF
:101B30009E4208D1D36899698A684B68324433441D
:101B40008A604B608CE713F0030F08BF0F689C4559
:101B500088BF88F8007003F1010384BF3F0A08F1D1
:101B60000108E5E7019E1E4403448E604B609BE73D
:101B7000012189F31188AB6843F00103AB6021B9FF
:101B8000D5F834381A43C5F834288BF311880EF190
:101B9000010E43E70021ECE710B5064C2046FFF7A5
:101BA0005FFC4FF0A04200236265034A6366A265B2
:101BB000A36610BDE80D0020B432000870B50378AC
:101BC000012B86B005465BD12F4B446D984213D153
:101BD0002E4B5A6B42F080025A635A6942F08002DF
:101BE0005A6100225A610E21432001F093F9284BDB
:101BF000E360284BC4F8003800232B66C4F8003E8D
:101C0000C02323604FF40413A3636E6D202000F003
:101C1000F9FE012333613369DB07FCD4122000F0A5
:101C2000F1FE3369002BFCDA0026A6602846FFF798
:101C3000ABFE6B68C4F81068DB68C4F81468C4F8BD
:101C40001C68FBB9144BA3614FF0FF336361AB6EAB
:101C500093B9124B009305F17003019305F53673A8
:101C600002930223039368460D4B04930595FFF7F7
:101C7000D9F9A866FFF7A6F9A36843F00103A360AA
:101C800006B070BD074BDEE7E80D002000380240CB
:101C90004014004003002002003C30C0C032000865
:101CA000D9190008083C30C0F8B5446D054600213C
:101CB0002046FFF787FEA96D00234FF001128F68C1
:101CC000C4F834384FF00066C4F81C284FF0FF30D9
:101CD00004EB431201339F42C2F80069C2F8006B63
:101CE000C2F80809C2F8080BF2D20B68EB65636210
:101CF0006B6D10221A611E6916F01006FBD11220BE
:101D000000F080FED4F8003823F4FE63C4F80038F5
:101D1000A36943F4402343F01003A3610923C4F8EB
:101D20001038C4F81438094BEB60094BC4F8106B39
:101D3000C4F8003BC4F81069C4F80039EB6D03F136
:101D4000100243F48013EA65A362F8BD90320008E4
:101D500040800010426D90F84E10D2F8003823F405
:101D6000FE6343EA0113C2F8003870472DE9F041E1
:101D70000EB200EB86080D46D8F80C100F6807F07D
:101D80000303022B50D0032B50D03D4A3D4F012B73
:101D900018BF1746446D4FEA451E04EB0E030022A0
:101DA000C3F8102B8A6905F1100C002A40D04A8A2A
:101DB00005F158035B013A43E2500123D4F81C2893
:101DC00003FA0CF31343A6444A69C4F81C380023F1
:101DD000CEF8103905F13F03002A39D00A8A898BE1
:101DE0009208012988BF4A43C16D04EB830356184A
:101DF00041EA0242C66529465A602046FFF7E2FDE5
:101E0000D8F80C301B8A43EA85531F4305F1480379
:101E10005B01E7500123D4F81C2803FA05F51543AC
:101E2000C4F81C58BDE8F081174FB3E7174FB1E76E
:101E300004EB4613D3F8002B22F40042C3F8002B26
:101E4000D4F81C28012303FA0CF322EA0303BAE7AF
:101E500004EB83030E4A5A6004EB461629462046DB
:101E6000FFF7B0FDD6F8003923F40043C6F8003977
:101E7000D4F81C38012202FA05F523EA0505CFE75C
:101E800000800010008004100080081000800C10FA
:101E900000040002826D1268C265FFF775BD000084
:101EA0005831436D49015B5813F4004004D013F4DA
:101EB000001F14BF01200220704700004831436D0D
:101EC00049015B5813F4004004D013F4001F14BF01
:101ED000012002207047000000EB8101CB68196AE5
:101EE0000B6813604B6853607047000000EB810380
:101EF00030B5DD68AA691368D36019B9402B84BF77
:101F0000402313606B8A1468426D1C44013CB4FB8F
:101F1000F3F46343033323F0030302EB411043EA7A
:101F2000C44343F0C043C0F8103B2B6803F00303E5
:101F3000012B09B20ED1D2F8083802EB411013F48C
:101F4000807FD0F8003B14BF43F0805343F0005330
:101F5000C0F8003B02EB4112D2F8003B43F00443CF
:101F6000C2F8003B30BD00002DE9F041264D6E6DFA
:101F700006EB40130446D3F8087BC3F8087B380708
:101F80000AD5D6F81438190706D505EB840321467F
:101F9000DB6828465B689847FA0733D5D6F81438CB
:101FA000DB072FD514B995F834305BB305EB840308
:101FB000D968CCB98B69488A5E68B6FBF0F200FB41
:101FC00012628AB91868DA6890420DD2121A83E850
:101FD0001400202383F311880B482146FFF786FF66
:101FE00084F31188BDE8F081012303FA04F26B89C0
:101FF00023EA02036B81CB6823B121460248BDE886
:10200000F0411847BDE8F081E80D002000EB8103A6
:1020100070B5DD68436D6C692668E6604A0156BBA1
:102020001A444FF40020C2F810092A6802F0030293
:10203000012A0AB20ED1D3F8080803EB421410F4B7
:10204000807FD4F8000914BF40F0805040F0005069
:10205000C4F8000903EB4212D2F8000940F0044032
:10206000C2F80009D3F83408012202FA01F1014351
:10207000C3F8341870BD19B9402E84BF40202060C9
:1020800020682E8A841940F00050013C1A44B4FBA9
:10209000F6F440EAC440C6E72DE9F041284C666DED
:1020A00006EB40130546D3F80879C3F80879F90719
:1020B0001AD5D6F81038DA0716D504EB8003D9689C
:1020C0004B691868DA6890422CD2121A4FF0000857
:1020D0001A60C3F80480202383F311882946204620
:1020E000FFF794FF88F311883B0619D5D6F83428FA
:1020F000012303FA05F5154212D0202383F311883A
:10210000236E10482B432366D6F8343823EA05059E
:10211000C6F834580021FEF7C5FF002383F3118869
:10212000BDE8F081012303FA05F2238923EA0203C3
:1021300023818B68002BD7D0294620469847D3E7C8
:10214000E80D00204C0E00202DE9F74F8048446D2B
:102150006669A3691E4016F4805F6661054608D073
:1021600000230366FFF7E8F903B0BDE8F04F00F085
:102170009DBC002E12DAD4F8003E75489F071EBFA2
:10218000D4F8003E23F00303C4F8003ED4F804382A
:1021900043F00103C4F80438FFF7F8F9300504D51B
:1021A00000236B482B66FFF7E5F9B1040CD5D4F892
:1021B000083813F0060FE36823F470530CBF43F4A0
:1021C000105343F4A053E360320704D56B68DB6817
:1021D0000BB15F489847F3024ED4B7020CD5D5F83F
:1021E0005480DFF86CA100274FF00109AB6D9B68AC
:1021F000F9B28B4280F08F80F5060DD5202383F352
:102200001188A369534823F01003A3610021FEF74E
:1022100049FF002383F311883003D4F8184813D5FD
:10222000E10302D50020FFF79FFEA20302D50120A3
:10223000FFF79AFE630302D50220FFF795FE2703FE
:1022400002D50320FFF790FE75038DD5E00702D578
:102250000020FFF721FFA10702D50120FFF71CFF97
:10226000620702D50220FFF717FF23077FF57CAF37
:102270000320FFF711FF77E7D5F854A0DFF8D4B0BB
:102280004FF00009AB6D9B685FFA89F7BB42A4D39E
:102290000AEB4713D3F8002902F44022B2F5802F4D
:1022A00036D1D3F80029002A32DAD3F8002942F0D7
:1022B0009042C3F80029D3F80029002AFBDB3946F5
:1022C000686DFFF77FFB01232A89BB406FEA030893
:1022D00008EA02022A8105EB8702D268926822B1DD
:1022E00039461B4801939047019B202282F31188B5
:1022F000DAF8342808EA0202CAF834282A6E0021E3
:10230000134358462B66FEF7CDFE002383F3118856
:1023100009F10109B6E708EB4112D2F8003B03F4DA
:102320004023B3F5802F10D1D2F8003B002B0CDAFC
:102330006A8909FA01F322EA03036B8105EB810341
:10234000DB68DB680BB15046984701374EE700BFAA
:10235000E80D00204C0E0020436D03EB4111D1F835
:10236000003B43F40013C1F8003B7047436D03EB9F
:102370004111D1F8003943F40013C1F80039704716
:10238000436D03EB4111D1F8003B23F40013C1F876
:10239000003B7047436D03EB4111D1F8003923F442
:1023A0000013C1F8003970474FF0804310B51A6927
:1023B000920708D500241C61202383F3118800F0C4
:1023C000E7FA84F31188BDE8104000F06FBB00000D
:1023D0000E4A136C43F0010313640D4A936843F0F3
:1023E000010393604FF0804353229A624FF0FF3213
:1023F000DA6200229A615A63DA605A6001225A61F5
:1024000008211A601C2000F085BD00BF0038024082
:10241000002004E000207047FEE700007047000045
:102420004FF0FF307047000000F0B8BD08B500F075
:102430006BFB00F06DFABDE8084000F0F9B8000051
:1024400070470000022906D0032906D0012906485A
:1024500018BF0020704705487047032A9ABF0448F8
:1024600000EBC20000207047B83400086C3400084C
:102470000808002070B5044608460D46FEF78AFBA2
:10248000C6B22046013403780BB9184670BD3246F7
:102490002946FEF767FB0028F3D1012070BD00003C
:1024A0002DE9F04F81469BB008460C461646FEF7D4
:1024B00071FB3A49C5B22046FFF7DCFF3849204698
:1024C000FFF7D8FF08B11035EDB2632D01AF0CD87E
:1024D000DFF8D8A0DFF8D8B03D4694F80080B8F116
:1024E000000F1CD185F8008003E02146384600F03B
:1024F00029FE3846FEF74EFBC0B2431C5B0089E85C
:102500004800337003237370002302361946DAB291
:10251000904206F102063AD81BB0BDE8F08FB8F140
:10252000250F2FD107221D492046FEF71BFB58B966
:10253000DBF800202A60BBF80420AA809BF8062064
:10254000AA7107340735C8E7082215492046FEF767
:1025500009FBB8B91348AA1C10F8011F124B4FEA27
:10256000111E01F00F011EF80AE011F80A1002F81E
:1025700002EC984202F8011C02F10202ECD118357B
:102580000834AAE785F8008001340135A5E7FA5C34
:1025900006F8022C06F8011C0133B8E718340008CD
:1025A000203400080F7AFF1F1B7AFF1F3134000808
:1025B0002934000808B5202383F311880348FEF767
:1025C000BDFE002383F3118808BD00BFD810002092
:1025D00010B50446052916D8DFE801F016150316D4
:1025E000161D202383F311880E4A0121FEF758FFA0
:1025F00020460D4A0221FEF753FF0C48FEF764FE09
:10260000002383F3118810BD202383F3118807482A
:10261000FEF736FEF4E7202383F311880348FEF724
:1026200047FEEDE7C8330008EC330008D81000205F
:1026300038B50C4D0C4C0D492A4604F10800FFF743
:102640002FFF05F1CA0204F110000949FFF728FF26
:1026500005F5CA7204F118000649BDE83840FFF7D5
:102660001FBF00BF98150020080800204434000850
:102670004E34000820340008BFF34F8F024AD3685D
:10268000DB03FCD4704700BF003C024008B5094B97
:102690001B7873B9FFF7F0FF074B1A69002ABFBF19
:1026A000064A5A6002F188325A601A6822F480623F
:1026B0001A6008BDF6170020003C02402301674560
:1026C00008B50B4B1B7893B9FFF7D6FF094B1A6976
:1026D00042F000421A611A6842F480521A601A6885
:1026E00022F480521A601A6842F480621A6008BDAF
:1026F000F6170020003C02400B2870B513D80B4A97
:102700000B4C137863B90B4E4FF0006144F8231063
:1027100056F8235001330C2B2944F7D101231370B1
:1027200054F8200070BD002070BD00BF28180020A4
:10273000F8170020D8340008014B53F820007047E8
:10274000D83400080C2070470B2810B5044601D976
:10275000002010BDFFF7D0FF064B53F8243018447B
:10276000C21A0BB9012010BD12680132F0D1043B2E
:10277000F6E700BFD83400080B2808B51BD8FFF7D0
:102780007BFFFFF783FF0D49F323CB60FFF774FF57
:10279000C300DBB243F4007343F002030B610B6927
:1027A00043F480330B61FFF767FFFFF789FFBDE854
:1027B0000840FFF7C9BF002008BD00BF003C024031
:1027C0002DE9F047D40715464DD41318B3F1016F26
:1027D00049D2324B1B68DA0745D5314CFFF756FF1B
:1027E000F323E360FFF748FF2F46401A40F2012928
:1027F000032F884601EB000618D8294C40F2011936
:102800007B1A4344012B01EB000623692FD823F0E8
:1028100001032361FFF754FF2846BDE8F0873668BF
:1028200051F8043CB34218D1043FE1E7B307E4D1C7
:10283000236923F440732361236943EA0903236175
:102840000431D8F800303360BFF34F8FFFF714FF27
:10285000E368002BE3D0F323E360236923F0010353
:102860002361FFF72DFF4FF0FF30BDE8F08723F421
:1028700040732361236943EA090323618A4631F8DF
:10288000023B3380BFF34F8FFFF7F6FE3688BAF86E
:102890000030B6B2B342B3D0DFE700BF0038024029
:1028A000003C0240084908B50B7828B153B9FFF73E
:1028B000EDFE01230B7008BD23B1BDE80840087090
:1028C000FFF7FEBE08BD00BFF6170020014B186DD4
:1028D000704700BF00280040094B1A6F120407D44C
:1028E0001A6F42F400721A671A6F42F400421A67B4
:1028F000044A136843F480731360034B18657047F0
:10290000003802400070004000280040FEE7000050
:1029100010B5184CFEF7A8FAFEF722FA00F0A4F85A
:10292000802215492046FEF757FB012344F8180C76
:102930000374124B124AD96821F4E0610904090CAE
:102940000A431049DA60CA6842F08072CA600E49D0
:102950000A6842F001020A601022DA77202283F826
:102960002220002383F3118862B60848BDE8104096
:10297000FEF760BBC80D00200835000800ED00E040
:102980000003FA05F0ED00E0001000E0103500084B
:102990002DE9F8431A4C4FF0804300256769586AC7
:1029A00004F114082E46226ABB68811A8B420CD9A6
:1029B0006169414522D013441B1A022B2CBFC01859
:1029C0000230BDE8F843FEF745BD134423623B687F
:1029D000D7F80C90C3F8048043456361FD6001D1D2
:1029E000FEF732FD86F311883869C847202383F348
:1029F00011884FF080436769586AD4E7BDE8F883CF
:102A0000A00D0020034B59685A68521A9042FBD817
:102A1000704700BF001000E083691943037C8161A7
:102A20000A2B03D14369194205D170470B2B06D1FC
:102A300043698B4303D100234361FEF71DBA7047FE
:102A400070B5046805460E46AC4200D170BDE3681F
:102A50003343E36016B12269134203D0A168606872
:102A6000FFF7DAFF2468EFE7034B044A1A60044BD0
:102A7000044A1A60704700BF2C1A0020301A002048
:102A8000281A00200000022080B5074A536823F06E
:102A9000010300AF5360EFF30983683383F30988C0
:102AA000002383F3118880BD30EF00E098B5202328
:102AB00000AF83F31188104B5B6813F4006318D0E8
:102AC000F1EE103AEFF309844FF0807344F84C3C78
:102AD0000A4BDB6844F8083CA4F1680383F30988D7
:102AE000FEF750FA18B1064B44F8503C98BD054B20
:102AF000FAE783F3118898BD00ED00E030EF00E0C5
:102B0000210300082403000808B500F019FA06485C
:102B100000F0CAFAFEF7A2FCFEF76AFBFFF790FC92
:102B2000BDE80840FEF786BCCC32000830B5039CF7
:102B30000172043304FB0325C361049B036300217A
:102B4000059B00604060C160426102618561046272
:102B500042628162C162436330BD00000022416A6B
:102B600041610161C2608262C2626FF00101FEF7E1
:102B7000BFBA000003694269934203D1C2680AB137
:102B800000207047181D704703691960C268013240
:102B9000C260C269134482690361934224BF436ADD
:102BA00003610021FEF798BA38B504460D46E36884
:102BB0003BB16269131D1268A3621344E3620020F3
:102BC00038BD237A33B929462046FEF775FA002826
:102BD000EDDA38BD6FF00100FBE70000C368C269A1
:102BE000013BC3604369134482694361934224BF3C
:102BF000436A436100238362036B03B11847704744
:102C000070B52023044683F31188866A3EB9FFF726
:102C1000CBFF054618B186F31188284670BDA36A1C
:102C2000E26A13F8015BA362934202D32046FFF7E6
:102C3000D5FF002383F31188EFE700002DE9F74F5C
:102C40001F4604460E469146202383F311884FF019
:102C500080480025D8F82430FB18009307F1FF3A8C
:102C6000AB46A36AABB91AF1030F06D93946204621
:102C7000FFF79AFF68B1002305E0D8F82410009A06
:102C8000511A8F42F3D283F31188284603B0BDE86E
:102C9000F08FA16AE36AA9EB05025B1A934228BF91
:102CA0001346402B1CD9334601F1400251F8040B66
:102CB00043F8040B9142F9D1A36A40334036A36232
:102CC0004035A26AE36A9A4202D32046FFF786FFA4
:102CD0008BF311884D45D8D2202383F31188C0E7A8
:102CE0001A4630460193FDF733FF019BA26A1A444E
:102CF0001E44A2621D44E4E710B5029C0172043335
:102D000003FB0421C36100238362C362039B03634B
:102D1000049B00604060C4604261026181610462A2
:102D20004262436310BD0000026AC260426A4261AF
:102D3000026100228262C2626FF00101FEF7D8B91F
:102D4000436902699A4203D1C2680AB10020704700
:102D5000184650F8043B0B6070470000C368C26916
:102D60000133C3604369134482694361934224BFC2
:102D7000436A43610021FEF7AFB9000038B504464D
:102D80000D46E3683BB123691A1DA262E269134450
:102D9000E362002038BD237A33B929462046FEF786
:102DA0008BF90028EDDA38BD6FF00100FBE7000079
:102DB00003691960C268013AC260C269134482693A
:102DC0000361934224BF436A036100238362036B60
:102DD00003B118477047000070B5202304460E4623
:102DE00083F31188856A35B91146FFF7C7FF10B123
:102DF00085F3118870BDA36A1E70A36AE26A01336D
:102E00009342A36204D3E16920460439FFF7D0FF5F
:102E1000002080F3118870BD2DE9F74F1F4604464E
:102E20000D469146202383F311884FF080480026F9
:102E3000D8F82430FB18009307F1FF3AB346A36A91
:102E4000ABB91AF1030F06D939462046FFF796FFB2
:102E500068B1002305E0D8F82410009A511A8F4277
:102E6000F3D283F31188304603B0BDE8F08FA06A37
:102E7000E36AA9EB06021B1A934228BF1346402BB4
:102E80001CD905F1400355F8042B40F8042B9D4252
:102E9000F9D1A36A4033A3624036A26AE36A9A4238
:102EA00004D3E16920460439FFF782FF8BF31188D0
:102EB0004E45D8D2202383F31188C0E71A4629460D
:102EC0000193FDF745FE019BA26A1A441D44A262CC
:102ED0001E44E2E7026943699A4203D1C3681BB901
:102EE000184670470023FBE7836A002BF8D0043BA9
:102EF0009B1AF5D01360C368013BC360C3691A44D1
:102F0000836902619A4224BF436A0361002383629A
:102F10000123E5E700F1604300F01F02400903F5DB
:102F2000614309018000C9B200F1604083F80013D9
:102F300000F5614001239340C0F880310360704781
:102F4000144B00211A694FF0FF321A611961586958
:102F50005A615961186A60F0805018621962586AA3
:102F60005A6259621A6C42F080521A640A4A106816
:102F700040F480701060186F00F44070B0F5007F6E
:102F80001EBF4FF4803018671967536823F400732D
:102F9000536070470038024000700040314B4FF0E2
:102FA00080521A64304A4FF4404111601A6842F06E
:102FB00001021A601A689207FCD59A6822F003028F
:102FC0009A609A689A60274B19469A6812F00C0228
:102FD000FBD1186800F0F90018609A601A6842F492
:102FE00080321A600B689B03FCD54B6F43F00103E2
:102FF0004B671C4B5A6F9007FCD51C4A5A601A68E5
:1030000042F080721A60184A53685904FCD5154B77
:103010001A689201FCD5164A9A60164B1A68164B2C
:103020009A42164B1AD1164A1168164A914215D186
:1030300040F205121A600B4B9A6842F002029A6045
:103040009A6802F00C02082AFAD15A6C42F48042C3
:103050005A645A6E42F480425A66704740F20572D2
:10306000E8E700BF00380240007000400854400705
:1030700000948838002004E011640020003C0240E5
:1030800000ED00E041C20F414B6843608B688360F4
:10309000CB68C3600B6943614B6903628B69436210
:1030A0000B680360704700001C4B0246186B10B59C
:1030B00040F2FF1420431863196D19482143196524
:1030C0001146FFF7E1FF174802F11C01FFF7DCFF93
:1030D000154802F13801FFF7D7FF144802F15401F7
:1030E000FFF7D2FF124802F17001FFF7CDFF114840
:1030F00002F18C01FFF7C8FF0F4802F1A801FFF7AA
:10310000C3FF0E4802F1C401FFF7BEFF0C4802F1F5
:10311000E001BDE81040FFF7B7BF00BF0038024034
:10312000000002400004024000080240000C02407F
:10313000001002400014024000180240001C02402F
:103140000020024080EA0102844612F0030F4FD1B2
:1031500011F0030F32D14DF8044D11F0040F51F866
:10316000043B0BD0A3F101329A4312F0803F04BF1D
:103170004CF8043B51F8043B16D100BF51F8044B06
:10318000A3F101329A4312F0803FA4F101320BD136
:103190004CF8043BA24312F0803F04BF51F8043BBB
:1031A0004CF8044BEAD023460CF8013B13F0FF0F18
:1031B0004FEA3323F8D15DF8044B704711F0010F4B
:1031C00006D011F8012B0CF8012B002A08BF70471C
:1031D00011F0020FBFD031F8022B12F0FF0F16BF13
:1031E0002CF8022B8CF8002012F47F4FB3D17047DB
:1031F00011F8012B0CF8012B002AF9D1704700BF00
:10320000121012131211000053544D3332463F3F37
:103210003F00000000000000083200083F000000EE
:1032200013040000443200083F00000019040000AD
:103230004E3200083F000000210400005832000810
:103240003F00000053544D3332463430780053541D
:103250004D3332463432780053544D333246343491
:10326000365858006D1100085911000895110008D2
:10327000811100088D1100087911000865110008FE
:1032800051110008000000000100000000000000D3
:1032900000000000A11500087D1800081919000899
:1032A00040004000C0100020C010002001000000BD
:1032B000D01000208000000040010000030000004A
:1032C0007573625F70756D70000000000000800211
:1032D00000000000AAAAAAAA00000000FFFF000048
:1032E0000000000000A00A0000050000000000002F
:1032F000AAAAAAAA00000000CFFF00000000000058
:10330000000000000000000000000000AAAAAAAA15
:1033100000000000FFFF00000000000000000000AF
:103320000000000000000000AAAAAAAA00000000F5
:10333000FFFF00000000000000000000000000008F
:1033400000000000AAAAAAAA00000000FFFF0000D7
:10335000000000000000000000000000000000006D
:10336000AAAAAAAA00000000FFFF000000000000B7
:10337000000000000000000000000000AAAAAAAAA5
:1033800000000000FFFF000000000000000000003F
:1033900000000000000000000A0000000000000023
:1033A000030000000000000000000000000000001A
:1033B000000000000000000000000000000000000D
:1033C00000000000000000000200000000000000FB
:1033D00089130008F1130008400040006815002020
:1033E000781500200200000000000000030000002B
:1033F0000000000031140008000000001000000070
:1034000088150020000000000100000000000000FE
:10341000E80D00200101020025424F4152442500E1
:103420002553455249414C2500737061726B7932C6
:103430000030313233343536373839414243444530
:10344000460000004172647550696C6F740025423B
:103450004F415244252D424C00000000D125000868
:1034600045240008F5120008B525000843000000B7
:103470007434000809024300020100C0320904004C
:1034800000010202010005240010010524010001D1
:10349000042402020524060001070582030800FF38
:1034A00009040100020A00000007050102400000B3
:1034B000070581024000000012000000C03400082F
:1034C0001201100102000040830440570002010273
:1034D0000301000004030904004000000040000054
:1034E0000040000000400000000001000000020059
:1034F00000000200000002000000020000000200C4
:1035000000000200000002006D61696E0000000012
:103510002835000830180020281A0020010000007B
:103520000D2900080000000069646C6500000000BF
:10353000FF0096000000000804000000D4340008DA
:10354000000000000000000000000000000000007B
:08355000000000000000000073
:00000001FF
